{
  "contractName": "BNBUSDT",
  "abi": [
    {
      "inputs": [],
      "name": "_BNB",
      "outputs": [
        {
          "internalType": "uint256",
          "name": "",
          "type": "uint256"
        }
      ],
      "stateMutability": "view",
      "type": "function"
    },
    {
      "inputs": [],
      "name": "_USDT",
      "outputs": [
        {
          "internalType": "uint256",
          "name": "",
          "type": "uint256"
        }
      ],
      "stateMutability": "view",
      "type": "function"
    },
    {
      "inputs": [],
      "name": "BNB",
      "outputs": [
        {
          "internalType": "uint256",
          "name": "",
          "type": "uint256"
        }
      ],
      "stateMutability": "view",
      "type": "function"
    },
    {
      "inputs": [],
      "name": "USDT",
      "outputs": [
        {
          "internalType": "uint256",
          "name": "",
          "type": "uint256"
        }
      ],
      "stateMutability": "view",
      "type": "function"
    }
  ],
  "bytecode": "0x6080604052674563918244f4000060005568878678326eac90000060015534801561002957600080fd5b5060c3806100386000396000f3fe6080604052348015600f57600080fd5b506004361060465760003560e01c806338d064bf14604b57806358f7f6d2146063578063c54e44eb146069578063ecd1d70e14606f575b600080fd5b60516075565b60408051918252519081900360200190f35b6051607b565b60516081565b60516087565b60005481565b60005490565b60015490565b6001548156fea2646970667358221220d6e5bc6c67d2f5d71cf5fc26cc4fcb74f4211d96279ee92bff38352a4328f9b364736f6c634300060c0033",
  "immutableReferences": {},
  "source": "// SPDX-License-Identifier: MIT\npragma solidity >=0.4.22 <0.9.0;\n\ncontract BNBUSDT {\n  uint public _BNB = 5e18;\n  uint public _USDT = 2500e18;\n\n  function BNB() public view returns(uint) {\n    return _BNB;\n  }\n\n  function USDT() public view returns(uint) {\n    return _USDT;\n  }\n}\n",
  "sourcePath": "D:\\Solidity\\Solidity\\Surprise\\contracts\\BNBUSDT.sol",
  "compiler": {
    "name": "solc",
    "version": "0.6.12+commit.27d51765.Emscripten.clang"
  },
  "schemaVersion": "3.4.4",
  "updatedAt": "2022-07-03T15:53:17.924Z",
  "devdoc": {
    "kind": "dev",
    "methods": {},
    "version": 1
  },
  "userdoc": {
    "kind": "user",
    "methods": {},
    "version": 1
  }
}