{
  "contractName": "SellTime",
  "abi": [
    {
      "anonymous": false,
      "inputs": [
        {
          "indexed": true,
          "internalType": "address",
          "name": "previousOwner",
          "type": "address"
        },
        {
          "indexed": true,
          "internalType": "address",
          "name": "newOwner",
          "type": "address"
        }
      ],
      "name": "OwnershipTransferred",
      "type": "event"
    },
    {
      "inputs": [
        {
          "internalType": "address",
          "name": "_miner",
          "type": "address"
        }
      ],
      "name": "delMiner",
      "outputs": [],
      "stateMutability": "nonpayable",
      "type": "function"
    },
    {
      "inputs": [
        {
          "internalType": "address",
          "name": "",
          "type": "address"
        }
      ],
      "name": "isMiner",
      "outputs": [
        {
          "internalType": "bool",
          "name": "",
          "type": "bool"
        }
      ],
      "stateMutability": "view",
      "type": "function"
    },
    {
      "inputs": [],
      "name": "owner",
      "outputs": [
        {
          "internalType": "address",
          "name": "",
          "type": "address"
        }
      ],
      "stateMutability": "view",
      "type": "function"
    },
    {
      "inputs": [],
      "name": "renounceOwnership",
      "outputs": [],
      "stateMutability": "nonpayable",
      "type": "function"
    },
    {
      "inputs": [],
      "name": "sellEndTime",
      "outputs": [
        {
          "internalType": "uint256",
          "name": "",
          "type": "uint256"
        }
      ],
      "stateMutability": "view",
      "type": "function"
    },
    {
      "inputs": [],
      "name": "sellStartTime",
      "outputs": [
        {
          "internalType": "uint256",
          "name": "",
          "type": "uint256"
        }
      ],
      "stateMutability": "view",
      "type": "function"
    },
    {
      "inputs": [
        {
          "internalType": "address",
          "name": "_miner",
          "type": "address"
        }
      ],
      "name": "setMiner",
      "outputs": [],
      "stateMutability": "nonpayable",
      "type": "function"
    },
    {
      "inputs": [
        {
          "internalType": "address",
          "name": "newOwner",
          "type": "address"
        }
      ],
      "name": "transferOwnership",
      "outputs": [],
      "stateMutability": "nonpayable",
      "type": "function"
    },
    {
      "inputs": [
        {
          "internalType": "uint256",
          "name": "_sellStartTime",
          "type": "uint256"
        },
        {
          "internalType": "uint256",
          "name": "_sellEndTime",
          "type": "uint256"
        }
      ],
      "name": "setSellTime",
      "outputs": [],
      "stateMutability": "nonpayable",
      "type": "function"
    }
  ],
  "bytecode": "0x60806040526361f8078060025564020338d38060035534801561002157600080fd5b50600061002c610084565b600080546001600160a01b0319166001600160a01b0383169081178255604051929350917f8be0079c531659141344cd1fd0a4f28419497f9722a3daafe3b4186f6b6457e0908290a35061007f33610088565b61013b565b3390565b610090610084565b6001600160a01b03166100a16100f7565b6001600160a01b0316146100d05760405162461bcd60e51b81526004016100c790610106565b60405180910390fd5b6001600160a01b03166000908152600160208190526040909120805460ff19169091179055565b6000546001600160a01b031690565b6020808252818101527f4f776e61626c653a2063616c6c6572206973206e6f7420746865206f776e6572604082015260600190565b6105078061014a6000396000f3fe608060405234801561001057600080fd5b50600436106100935760003560e01c80638da5cb5b116100665780638da5cb5b146100f35780639742ca4614610108578063cb60f8b41461011b578063d9387f6014610123578063f2fde38b1461013657610093565b80631ee45da014610098578063451ec35d146100b6578063701b70ac146100cb578063715018a6146100eb575b600080fd5b6100a0610149565b6040516100ad91906104c8565b60405180910390f35b6100c96100c43660046103df565b61014f565b005b6100de6100d93660046103df565b6101b8565b6040516100ad9190610442565b6100c96101cd565b6100fb610256565b6040516100ad919061042e565b6100c96101163660046103df565b610265565b6100a06102cb565b6100c961013136600461040d565b6102d1565b6100c96101443660046103df565b61031b565b60035481565b6101576103db565b6001600160a01b0316610168610256565b6001600160a01b0316146101975760405162461bcd60e51b815260040161018e90610493565b60405180910390fd5b6001600160a01b03166000908152600160205260409020805460ff19169055565b60016020526000908152604090205460ff1681565b6101d56103db565b6001600160a01b03166101e6610256565b6001600160a01b03161461020c5760405162461bcd60e51b815260040161018e90610493565b600080546040516001600160a01b03909116907f8be0079c531659141344cd1fd0a4f28419497f9722a3daafe3b4186f6b6457e0908390a3600080546001600160a01b0319169055565b6000546001600160a01b031690565b61026d6103db565b6001600160a01b031661027e610256565b6001600160a01b0316146102a45760405162461bcd60e51b815260040161018e90610493565b6001600160a01b03166000908152600160208190526040909120805460ff19169091179055565b60025481565b6102d96103db565b6001600160a01b03166102ea610256565b6001600160a01b0316146103105760405162461bcd60e51b815260040161018e90610493565b600291909155600355565b6103236103db565b6001600160a01b0316610334610256565b6001600160a01b03161461035a5760405162461bcd60e51b815260040161018e90610493565b6001600160a01b0381166103805760405162461bcd60e51b815260040161018e9061044d565b600080546040516001600160a01b03808516939216917f8be0079c531659141344cd1fd0a4f28419497f9722a3daafe3b4186f6b6457e091a3600080546001600160a01b0319166001600160a01b0392909216919091179055565b3390565b6000602082840312156103f0578081fd5b81356001600160a01b0381168114610406578182fd5b9392505050565b6000806040838503121561041f578081fd5b50508035926020909101359150565b6001600160a01b0391909116815260200190565b901515815260200190565b60208082526026908201527f4f776e61626c653a206e6577206f776e657220697320746865207a65726f206160408201526564647265737360d01b606082015260800190565b6020808252818101527f4f776e61626c653a2063616c6c6572206973206e6f7420746865206f776e6572604082015260600190565b9081526020019056fea2646970667358221220eb12906cfded1e1731d5dfd79ee80453d7f79c1ada9a4fb2b5d4535f00aad9bf64736f6c634300060c0033",
  "immutableReferences": {},
  "source": "// SPDX-License-Identifier: MIT\r\npragma solidity ^0.6.0;\r\npragma experimental ABIEncoderV2;\r\n\r\nimport './Miner.sol';\r\nimport './Random.sol';\r\n// import \"https://github.com/OpenZeppelin/openzeppelin-contracts/blob/docs-v3.x/contracts/utils/Counters.sol\";\r\n// import \"https://github.com/OpenZeppelin/openzeppelin-contracts/blob/docs-v3.x/contracts/token/ERC721/ERC721.sol\";\r\nimport \"@openzeppelin/contracts/utils/Counters.sol\";\r\nimport \"@openzeppelin/contracts/token/ERC721/ERC721.sol\";\r\nimport \"@openzeppelin/contracts/utils/Pausable.sol\";\r\nimport \"@openzeppelin/contracts/token/ERC20/SafeERC20.sol\";\r\nimport \"@openzeppelin/contracts/token/ERC20/IERC20.sol\";\r\n\r\ninterface IBNBPrice {\r\n    function GetBNBPrice() external view returns(uint);\r\n    function GetBNBAmountFromUSDTAmount(uint USDTAmount) external view returns(uint);\r\n    function GetUSDTAmountFromBNBAmount(uint BNBAmount) external view returns(uint);\r\n}\r\n\r\ncontract SellTime is Miner{\r\n\r\n    using SafeERC20 for IERC20;\r\n    using SafeMath for uint;\r\n\r\n    uint public sellStartTime = 1643644800;//\"2022/2/1\"\r\n    uint public sellEndTime = 8643990400; //1643990400\r\n\r\n    function setSellTime(\r\n        uint _sellStartTime,\r\n        uint _sellEndTime\r\n    ) external onlyOwner{\r\n        sellStartTime = _sellStartTime;\r\n        sellEndTime = _sellEndTime;\r\n    }\r\n\r\n    modifier sellTime(){\r\n        require(now > sellStartTime && sellEndTime > now,\r\n            \"SellTime: Not in sale time\"\r\n        );\r\n        _;\r\n    }\r\n}\r\n    \r\ncontract Surprise is SellTime, ERC721, Pausable, Random {\r\n    using Counters for Counters.Counter;\r\n    IERC20 public USDTContract = IERC20(0x7ef95a0FEE0Dd31b22626fA2e10Ee6A223F8a684);\r\n    IERC20 public WBWBContract = IERC20(0xae13d989daC2f0dEbFf460aC112a837C89BAa7cd);\r\n    address public CakePair_USDT_WBNB = 0xF855E52ecc8b3b795Ac289f85F6Fd7A99883492b;\r\n\r\n    mapping (uint => uint) private _surpriseIndex; //tokenId => surpriseIndex\r\n    \r\n    Counters.Counter private _nftCount; //surpriseIndex => count\r\n    mapping (uint => string) private _surpriseURI; //surpriseIndex => URI;\r\n    mapping (address => bool) private _alreadyBought;\r\n\r\n    address private oneAddress ;\r\n    address private twoAddress ;\r\n    address private threeAddress ;\r\n\r\n    uint public luckyTime = 1643990400; // \"2022/2/5\"\r\n    uint private luckySurprise = (_getRandomNumber() % 50).add(100);\r\n    uint public luckySurpriseIndex = 2;\r\n    uint allAmount = 50;\r\n    uint public _priceForUSDT = 2.5e18;\r\n\r\n    event Receive(uint time, uint tokenId);\r\n\r\n    constructor() public ERC721(\"q745235\", \"Surprise\") {\r\n    }\r\n\r\n    function GetBNBAmountFromUSDTAmount(uint USDTAmount) public view whenNotPaused returns(uint){\r\n        uint WBNBAmountOfCakePair = WBWBContract.balanceOf(CakePair_USDT_WBNB);\r\n        //Get WBNB balances from CakePair\r\n        uint USDTAmountOfCakePair = USDTContract.balanceOf(CakePair_USDT_WBNB);\r\n        //Get USDT balances from CakePair\r\n        uint BNBPriceFromCake = (USDTAmountOfCakePair).div(WBNBAmountOfCakePair);\r\n        return USDTAmount.div(BNBPriceFromCake);\r\n        //Input and Output are have 18 decimals\r\n    }\r\n\r\n    function GetBNBAmount() public view returns(uint){\r\n        return GetBNBAmountFromUSDTAmount(_priceForUSDT);\r\n    }\r\n\r\n    function receiveSurprise() payable external whenNotPaused sellTime {\r\n        if(_alreadyBought[msg.sender]){\r\n            revert(\"You have already bought!\");\r\n        }\r\n\r\n        require(_nftCount.current() < allAmount, \"Surprise sold out!\");\r\n        \r\n        require(msg.value >= GetBNBAmount().mul(97).div(100),\r\n            \"The payment is not enough!\"\r\n        );\r\n        //allow a little bit deviation\r\n        payable(oneAddress).transfer(msg.value.mul(2).div(5));\r\n        payable(twoAddress).transfer(msg.value.mul(2).div(5));\r\n        payable(threeAddress).transfer(msg.value.div(5));\r\n        _mintToken(msg.sender, 1);\r\n        _alreadyBought[msg.sender] = true;\r\n        \r\n    }\r\n\r\n    function surpriseCount() public view returns(uint){\r\n        return _nftCount.current();\r\n    }\r\n\r\n    function tokenId2Surprise(uint tokenId) public view returns(uint){\r\n        return _surpriseIndex[tokenId];\r\n    }\r\n\r\n    function mint(address recipient, uint surpriseIndex) external onlyMiner{\r\n        _mintToken(recipient, surpriseIndex);\r\n    }\r\n\r\n    function _mintToken(address recipient, uint surpriseIndex) internal{\r\n        _nftCount.increment();\r\n        uint tokenId = surpriseIndex.mul(100).add(surpriseCount());\r\n        _surpriseIndex[tokenId] = surpriseIndex;\r\n        _mint(recipient, tokenId);\r\n        emit Receive(now, tokenId);\r\n    }\r\n\r\n    function burn(uint tokenId) external{\r\n        require(ownerOf(tokenId) == msg.sender, \"You are not this token owner\");\r\n        _burn(tokenId);\r\n    }\r\n\r\n    function surpriseURI(uint surpriseIndex) public view returns(string memory) {\r\n        return _surpriseURI[surpriseIndex];\r\n    }\r\n\r\n    function luckySurpriseURI() public view returns(string memory) {\r\n        return _surpriseURI[luckySurpriseIndex];\r\n    }\r\n\r\n    function luckySurpriseTokenId() public view returns(uint) {\r\n        if(now >= luckyTime){\r\n            return luckySurprise;\r\n        }else{\r\n            return 0;\r\n        }\r\n    }\r\n\r\n    function tokenURI(uint256 tokenId) public view override returns (string memory) {\r\n        require(_exists(tokenId), \"ERC721Metadata: URI query for nonexistent token\");\r\n        uint surpriseIndex = tokenId2Surprise(tokenId);\r\n\r\n        string memory base = baseURI();\r\n\r\n        // If there is no base URI, return the surprise URI.\r\n        if (bytes(base).length == 0) {\r\n            return surpriseURI(surpriseIndex);\r\n        }\r\n        // If both are set, concatenate the baseURI and surpriseURI (via abi.encodePacked).\r\n        if (bytes(surpriseURI(surpriseIndex)).length > 0) {\r\n            if(now > luckyTime && tokenId == luckySurprise){\r\n                return string(abi.encodePacked(base, surpriseURI(luckySurpriseIndex)));\r\n            }\r\n            return string(abi.encodePacked(base, surpriseURI(surpriseIndex)));\r\n        }\r\n        // If there is a baseURI but no surpriseURI, concatenate the tokenID to the baseURI.\r\n        return string(abi.encodePacked(base, tokenId.toString()));\r\n    }\r\n\r\n    function setBaseURI(string memory URI) external onlyOwner{\r\n        _setBaseURI(URI);\r\n    }\r\n\r\n    function setSurpriseIndexURI(uint surpriseIndex, string memory URI) external onlyOwner{\r\n        _surpriseURI[surpriseIndex] = URI;\r\n    }\r\n\r\n    function setLuckySurpriseIndex(uint _luckySurpriseIndex) external onlyOwner{\r\n        luckySurpriseIndex = _luckySurpriseIndex;\r\n    }\r\n\r\n    function setLuckyTime(\r\n        uint _luckyTime\r\n    ) external onlyOwner{\r\n        luckyTime = _luckyTime;\r\n    }\r\n\r\n    function setAllAmount(uint amount) external onlyOwner{\r\n        allAmount = amount;\r\n    }\r\n\r\n    function setOneWallet(address wallet) external onlyOwner{\r\n        oneAddress = wallet;\r\n    }\r\n\r\n    function setTwoWallet(address wallet) external onlyOwner{\r\n        twoAddress = wallet;\r\n    }\r\n\r\n    function setThreeWallet(address wallet) external onlyOwner{\r\n        threeAddress = wallet;\r\n    }\r\n\r\n    function setPriceForUSDT(uint amount) external onlyOwner {\r\n        _priceForUSDT = amount;\r\n    }\r\n\r\n    function setWBWBContract(IERC20 newContract) external onlyOwner {\r\n        WBWBContract = newContract;\r\n    }\r\n\r\n    function setUSDTContract(IERC20 newContract) external onlyOwner {\r\n        USDTContract = newContract;\r\n    }\r\n}",
  "sourcePath": "D:\\Solidity\\Solidity\\Surprise\\contracts\\Surprise.sol",
  "compiler": {
    "name": "solc",
    "version": "0.6.12+commit.27d51765.Emscripten.clang"
  },
  "schemaVersion": "3.4.4",
  "updatedAt": "2022-07-03T15:53:17.940Z",
  "devdoc": {
    "kind": "dev",
    "methods": {
      "owner()": {
        "details": "Returns the address of the current owner."
      },
      "renounceOwnership()": {
        "details": "Leaves the contract without owner. It will not be possible to call `onlyOwner` functions anymore. Can only be called by the current owner. NOTE: Renouncing ownership will leave the contract without an owner, thereby removing any functionality that is only available to the owner."
      },
      "transferOwnership(address)": {
        "details": "Transfers ownership of the contract to a new account (`newOwner`). Can only be called by the current owner."
      }
    },
    "version": 1
  },
  "userdoc": {
    "kind": "user",
    "methods": {},
    "version": 1
  }
}