{
  "contractName": "Surprise",
  "abi": [
    {
      "inputs": [],
      "stateMutability": "nonpayable",
      "type": "constructor"
    },
    {
      "anonymous": false,
      "inputs": [
        {
          "indexed": true,
          "internalType": "address",
          "name": "owner",
          "type": "address"
        },
        {
          "indexed": true,
          "internalType": "address",
          "name": "approved",
          "type": "address"
        },
        {
          "indexed": true,
          "internalType": "uint256",
          "name": "tokenId",
          "type": "uint256"
        }
      ],
      "name": "Approval",
      "type": "event"
    },
    {
      "anonymous": false,
      "inputs": [
        {
          "indexed": true,
          "internalType": "address",
          "name": "owner",
          "type": "address"
        },
        {
          "indexed": true,
          "internalType": "address",
          "name": "operator",
          "type": "address"
        },
        {
          "indexed": false,
          "internalType": "bool",
          "name": "approved",
          "type": "bool"
        }
      ],
      "name": "ApprovalForAll",
      "type": "event"
    },
    {
      "anonymous": false,
      "inputs": [
        {
          "indexed": true,
          "internalType": "address",
          "name": "previousOwner",
          "type": "address"
        },
        {
          "indexed": true,
          "internalType": "address",
          "name": "newOwner",
          "type": "address"
        }
      ],
      "name": "OwnershipTransferred",
      "type": "event"
    },
    {
      "anonymous": false,
      "inputs": [
        {
          "indexed": false,
          "internalType": "address",
          "name": "account",
          "type": "address"
        }
      ],
      "name": "Paused",
      "type": "event"
    },
    {
      "anonymous": false,
      "inputs": [
        {
          "indexed": false,
          "internalType": "uint256",
          "name": "time",
          "type": "uint256"
        },
        {
          "indexed": false,
          "internalType": "uint256",
          "name": "tokenId",
          "type": "uint256"
        }
      ],
      "name": "Receive",
      "type": "event"
    },
    {
      "anonymous": false,
      "inputs": [
        {
          "indexed": true,
          "internalType": "address",
          "name": "from",
          "type": "address"
        },
        {
          "indexed": true,
          "internalType": "address",
          "name": "to",
          "type": "address"
        },
        {
          "indexed": true,
          "internalType": "uint256",
          "name": "tokenId",
          "type": "uint256"
        }
      ],
      "name": "Transfer",
      "type": "event"
    },
    {
      "anonymous": false,
      "inputs": [
        {
          "indexed": false,
          "internalType": "address",
          "name": "account",
          "type": "address"
        }
      ],
      "name": "Unpaused",
      "type": "event"
    },
    {
      "inputs": [],
      "name": "CakePair_USDT_WBNB",
      "outputs": [
        {
          "internalType": "address",
          "name": "",
          "type": "address"
        }
      ],
      "stateMutability": "view",
      "type": "function"
    },
    {
      "inputs": [],
      "name": "USDTContract",
      "outputs": [
        {
          "internalType": "contract IERC20",
          "name": "",
          "type": "address"
        }
      ],
      "stateMutability": "view",
      "type": "function"
    },
    {
      "inputs": [],
      "name": "WBWBContract",
      "outputs": [
        {
          "internalType": "contract IERC20",
          "name": "",
          "type": "address"
        }
      ],
      "stateMutability": "view",
      "type": "function"
    },
    {
      "inputs": [],
      "name": "_priceForUSDT",
      "outputs": [
        {
          "internalType": "uint256",
          "name": "",
          "type": "uint256"
        }
      ],
      "stateMutability": "view",
      "type": "function"
    },
    {
      "inputs": [
        {
          "internalType": "address",
          "name": "to",
          "type": "address"
        },
        {
          "internalType": "uint256",
          "name": "tokenId",
          "type": "uint256"
        }
      ],
      "name": "approve",
      "outputs": [],
      "stateMutability": "nonpayable",
      "type": "function"
    },
    {
      "inputs": [
        {
          "internalType": "address",
          "name": "owner",
          "type": "address"
        }
      ],
      "name": "balanceOf",
      "outputs": [
        {
          "internalType": "uint256",
          "name": "",
          "type": "uint256"
        }
      ],
      "stateMutability": "view",
      "type": "function"
    },
    {
      "inputs": [],
      "name": "baseURI",
      "outputs": [
        {
          "internalType": "string",
          "name": "",
          "type": "string"
        }
      ],
      "stateMutability": "view",
      "type": "function"
    },
    {
      "inputs": [
        {
          "internalType": "address",
          "name": "_miner",
          "type": "address"
        }
      ],
      "name": "delMiner",
      "outputs": [],
      "stateMutability": "nonpayable",
      "type": "function"
    },
    {
      "inputs": [
        {
          "internalType": "uint256",
          "name": "tokenId",
          "type": "uint256"
        }
      ],
      "name": "getApproved",
      "outputs": [
        {
          "internalType": "address",
          "name": "",
          "type": "address"
        }
      ],
      "stateMutability": "view",
      "type": "function"
    },
    {
      "inputs": [
        {
          "internalType": "address",
          "name": "owner",
          "type": "address"
        },
        {
          "internalType": "address",
          "name": "operator",
          "type": "address"
        }
      ],
      "name": "isApprovedForAll",
      "outputs": [
        {
          "internalType": "bool",
          "name": "",
          "type": "bool"
        }
      ],
      "stateMutability": "view",
      "type": "function"
    },
    {
      "inputs": [
        {
          "internalType": "address",
          "name": "",
          "type": "address"
        }
      ],
      "name": "isMiner",
      "outputs": [
        {
          "internalType": "bool",
          "name": "",
          "type": "bool"
        }
      ],
      "stateMutability": "view",
      "type": "function"
    },
    {
      "inputs": [],
      "name": "luckySurpriseIndex",
      "outputs": [
        {
          "internalType": "uint256",
          "name": "",
          "type": "uint256"
        }
      ],
      "stateMutability": "view",
      "type": "function"
    },
    {
      "inputs": [],
      "name": "luckyTime",
      "outputs": [
        {
          "internalType": "uint256",
          "name": "",
          "type": "uint256"
        }
      ],
      "stateMutability": "view",
      "type": "function"
    },
    {
      "inputs": [],
      "name": "name",
      "outputs": [
        {
          "internalType": "string",
          "name": "",
          "type": "string"
        }
      ],
      "stateMutability": "view",
      "type": "function"
    },
    {
      "inputs": [],
      "name": "owner",
      "outputs": [
        {
          "internalType": "address",
          "name": "",
          "type": "address"
        }
      ],
      "stateMutability": "view",
      "type": "function"
    },
    {
      "inputs": [
        {
          "internalType": "uint256",
          "name": "tokenId",
          "type": "uint256"
        }
      ],
      "name": "ownerOf",
      "outputs": [
        {
          "internalType": "address",
          "name": "",
          "type": "address"
        }
      ],
      "stateMutability": "view",
      "type": "function"
    },
    {
      "inputs": [],
      "name": "paused",
      "outputs": [
        {
          "internalType": "bool",
          "name": "",
          "type": "bool"
        }
      ],
      "stateMutability": "view",
      "type": "function"
    },
    {
      "inputs": [],
      "name": "renounceOwnership",
      "outputs": [],
      "stateMutability": "nonpayable",
      "type": "function"
    },
    {
      "inputs": [
        {
          "internalType": "address",
          "name": "from",
          "type": "address"
        },
        {
          "internalType": "address",
          "name": "to",
          "type": "address"
        },
        {
          "internalType": "uint256",
          "name": "tokenId",
          "type": "uint256"
        }
      ],
      "name": "safeTransferFrom",
      "outputs": [],
      "stateMutability": "nonpayable",
      "type": "function"
    },
    {
      "inputs": [
        {
          "internalType": "address",
          "name": "from",
          "type": "address"
        },
        {
          "internalType": "address",
          "name": "to",
          "type": "address"
        },
        {
          "internalType": "uint256",
          "name": "tokenId",
          "type": "uint256"
        },
        {
          "internalType": "bytes",
          "name": "_data",
          "type": "bytes"
        }
      ],
      "name": "safeTransferFrom",
      "outputs": [],
      "stateMutability": "nonpayable",
      "type": "function"
    },
    {
      "inputs": [],
      "name": "sellEndTime",
      "outputs": [
        {
          "internalType": "uint256",
          "name": "",
          "type": "uint256"
        }
      ],
      "stateMutability": "view",
      "type": "function"
    },
    {
      "inputs": [],
      "name": "sellStartTime",
      "outputs": [
        {
          "internalType": "uint256",
          "name": "",
          "type": "uint256"
        }
      ],
      "stateMutability": "view",
      "type": "function"
    },
    {
      "inputs": [
        {
          "internalType": "address",
          "name": "operator",
          "type": "address"
        },
        {
          "internalType": "bool",
          "name": "approved",
          "type": "bool"
        }
      ],
      "name": "setApprovalForAll",
      "outputs": [],
      "stateMutability": "nonpayable",
      "type": "function"
    },
    {
      "inputs": [
        {
          "internalType": "address",
          "name": "_miner",
          "type": "address"
        }
      ],
      "name": "setMiner",
      "outputs": [],
      "stateMutability": "nonpayable",
      "type": "function"
    },
    {
      "inputs": [
        {
          "internalType": "uint256",
          "name": "_sellStartTime",
          "type": "uint256"
        },
        {
          "internalType": "uint256",
          "name": "_sellEndTime",
          "type": "uint256"
        }
      ],
      "name": "setSellTime",
      "outputs": [],
      "stateMutability": "nonpayable",
      "type": "function"
    },
    {
      "inputs": [
        {
          "internalType": "bytes4",
          "name": "interfaceId",
          "type": "bytes4"
        }
      ],
      "name": "supportsInterface",
      "outputs": [
        {
          "internalType": "bool",
          "name": "",
          "type": "bool"
        }
      ],
      "stateMutability": "view",
      "type": "function"
    },
    {
      "inputs": [],
      "name": "symbol",
      "outputs": [
        {
          "internalType": "string",
          "name": "",
          "type": "string"
        }
      ],
      "stateMutability": "view",
      "type": "function"
    },
    {
      "inputs": [
        {
          "internalType": "uint256",
          "name": "index",
          "type": "uint256"
        }
      ],
      "name": "tokenByIndex",
      "outputs": [
        {
          "internalType": "uint256",
          "name": "",
          "type": "uint256"
        }
      ],
      "stateMutability": "view",
      "type": "function"
    },
    {
      "inputs": [
        {
          "internalType": "address",
          "name": "owner",
          "type": "address"
        },
        {
          "internalType": "uint256",
          "name": "index",
          "type": "uint256"
        }
      ],
      "name": "tokenOfOwnerByIndex",
      "outputs": [
        {
          "internalType": "uint256",
          "name": "",
          "type": "uint256"
        }
      ],
      "stateMutability": "view",
      "type": "function"
    },
    {
      "inputs": [],
      "name": "totalSupply",
      "outputs": [
        {
          "internalType": "uint256",
          "name": "",
          "type": "uint256"
        }
      ],
      "stateMutability": "view",
      "type": "function"
    },
    {
      "inputs": [
        {
          "internalType": "address",
          "name": "from",
          "type": "address"
        },
        {
          "internalType": "address",
          "name": "to",
          "type": "address"
        },
        {
          "internalType": "uint256",
          "name": "tokenId",
          "type": "uint256"
        }
      ],
      "name": "transferFrom",
      "outputs": [],
      "stateMutability": "nonpayable",
      "type": "function"
    },
    {
      "inputs": [
        {
          "internalType": "address",
          "name": "newOwner",
          "type": "address"
        }
      ],
      "name": "transferOwnership",
      "outputs": [],
      "stateMutability": "nonpayable",
      "type": "function"
    },
    {
      "inputs": [
        {
          "internalType": "uint256",
          "name": "USDTAmount",
          "type": "uint256"
        }
      ],
      "name": "GetBNBAmountFromUSDTAmount",
      "outputs": [
        {
          "internalType": "uint256",
          "name": "",
          "type": "uint256"
        }
      ],
      "stateMutability": "view",
      "type": "function"
    },
    {
      "inputs": [],
      "name": "GetBNBAmount",
      "outputs": [
        {
          "internalType": "uint256",
          "name": "",
          "type": "uint256"
        }
      ],
      "stateMutability": "view",
      "type": "function"
    },
    {
      "inputs": [],
      "name": "receiveSurprise",
      "outputs": [],
      "stateMutability": "payable",
      "type": "function"
    },
    {
      "inputs": [],
      "name": "surpriseCount",
      "outputs": [
        {
          "internalType": "uint256",
          "name": "",
          "type": "uint256"
        }
      ],
      "stateMutability": "view",
      "type": "function"
    },
    {
      "inputs": [
        {
          "internalType": "uint256",
          "name": "tokenId",
          "type": "uint256"
        }
      ],
      "name": "tokenId2Surprise",
      "outputs": [
        {
          "internalType": "uint256",
          "name": "",
          "type": "uint256"
        }
      ],
      "stateMutability": "view",
      "type": "function"
    },
    {
      "inputs": [
        {
          "internalType": "address",
          "name": "recipient",
          "type": "address"
        },
        {
          "internalType": "uint256",
          "name": "surpriseIndex",
          "type": "uint256"
        }
      ],
      "name": "mint",
      "outputs": [],
      "stateMutability": "nonpayable",
      "type": "function"
    },
    {
      "inputs": [
        {
          "internalType": "uint256",
          "name": "tokenId",
          "type": "uint256"
        }
      ],
      "name": "burn",
      "outputs": [],
      "stateMutability": "nonpayable",
      "type": "function"
    },
    {
      "inputs": [
        {
          "internalType": "uint256",
          "name": "surpriseIndex",
          "type": "uint256"
        }
      ],
      "name": "surpriseURI",
      "outputs": [
        {
          "internalType": "string",
          "name": "",
          "type": "string"
        }
      ],
      "stateMutability": "view",
      "type": "function"
    },
    {
      "inputs": [],
      "name": "luckySurpriseURI",
      "outputs": [
        {
          "internalType": "string",
          "name": "",
          "type": "string"
        }
      ],
      "stateMutability": "view",
      "type": "function"
    },
    {
      "inputs": [],
      "name": "luckySurpriseTokenId",
      "outputs": [
        {
          "internalType": "uint256",
          "name": "",
          "type": "uint256"
        }
      ],
      "stateMutability": "view",
      "type": "function"
    },
    {
      "inputs": [
        {
          "internalType": "uint256",
          "name": "tokenId",
          "type": "uint256"
        }
      ],
      "name": "tokenURI",
      "outputs": [
        {
          "internalType": "string",
          "name": "",
          "type": "string"
        }
      ],
      "stateMutability": "view",
      "type": "function"
    },
    {
      "inputs": [
        {
          "internalType": "string",
          "name": "URI",
          "type": "string"
        }
      ],
      "name": "setBaseURI",
      "outputs": [],
      "stateMutability": "nonpayable",
      "type": "function"
    },
    {
      "inputs": [
        {
          "internalType": "uint256",
          "name": "surpriseIndex",
          "type": "uint256"
        },
        {
          "internalType": "string",
          "name": "URI",
          "type": "string"
        }
      ],
      "name": "setSurpriseIndexURI",
      "outputs": [],
      "stateMutability": "nonpayable",
      "type": "function"
    },
    {
      "inputs": [
        {
          "internalType": "uint256",
          "name": "_luckySurpriseIndex",
          "type": "uint256"
        }
      ],
      "name": "setLuckySurpriseIndex",
      "outputs": [],
      "stateMutability": "nonpayable",
      "type": "function"
    },
    {
      "inputs": [
        {
          "internalType": "uint256",
          "name": "_luckyTime",
          "type": "uint256"
        }
      ],
      "name": "setLuckyTime",
      "outputs": [],
      "stateMutability": "nonpayable",
      "type": "function"
    },
    {
      "inputs": [
        {
          "internalType": "uint256",
          "name": "amount",
          "type": "uint256"
        }
      ],
      "name": "setAllAmount",
      "outputs": [],
      "stateMutability": "nonpayable",
      "type": "function"
    },
    {
      "inputs": [
        {
          "internalType": "address",
          "name": "wallet",
          "type": "address"
        }
      ],
      "name": "setOneWallet",
      "outputs": [],
      "stateMutability": "nonpayable",
      "type": "function"
    },
    {
      "inputs": [
        {
          "internalType": "address",
          "name": "wallet",
          "type": "address"
        }
      ],
      "name": "setTwoWallet",
      "outputs": [],
      "stateMutability": "nonpayable",
      "type": "function"
    },
    {
      "inputs": [
        {
          "internalType": "address",
          "name": "wallet",
          "type": "address"
        }
      ],
      "name": "setThreeWallet",
      "outputs": [],
      "stateMutability": "nonpayable",
      "type": "function"
    },
    {
      "inputs": [
        {
          "internalType": "uint256",
          "name": "amount",
          "type": "uint256"
        }
      ],
      "name": "setPriceForUSDT",
      "outputs": [],
      "stateMutability": "nonpayable",
      "type": "function"
    },
    {
      "inputs": [
        {
          "internalType": "contract IERC20",
          "name": "newContract",
          "type": "address"
        }
      ],
      "name": "setWBWBContract",
      "outputs": [],
      "stateMutability": "nonpayable",
      "type": "function"
    },
    {
      "inputs": [
        {
          "internalType": "contract IERC20",
          "name": "newContract",
          "type": "address"
        }
      ],
      "name": "setUSDTContract",
      "outputs": [],
      "stateMutability": "nonpayable",
      "type": "function"
    }
  ],
  "bytecode": "0x60806040526361f8078060025564020338d380600355601080546001600160a01b0319908116737ef95a0fee0dd31b22626fa2e10ee6a223f8a6841790915560118054821673ae13d989dac2f0debff460ac112a837c89baa7cd1790556012805490911673f855e52ecc8b3b795ac289f85f6fd7a99883492b1790556361fd4d80601a55620000b2606460326200009562000207565b816200009d57fe5b066200024a60201b62001a721790919060201c565b601b556002601c556032601d556722b1c8c1227a0000601e55348015620000d857600080fd5b50604051806040016040528060078152602001667137343532333560c81b81525060405180604001604052806008815260200167537572707269736560c01b81525060006200012c6200028260201b60201c565b600080546001600160a01b0319166001600160a01b0383169081178255604051929350917f8be0079c531659141344cd1fd0a4f28419497f9722a3daafe3b4186f6b6457e0908290a350620001813362000286565b620001936301ffc9a760e01b620002f3565b8151620001a890600a9060208501906200035f565b508051620001be90600b9060208401906200035f565b50620001d16380ac58cd60e01b620002f3565b620001e3635b5e139f60e01b620002f3565b620001f563780e9d6360e01b620002f3565b5050600e805460ff19169055620004c1565b60006200021362000345565b600f5442336040516020016200022c93929190620003fb565b6040516020818303038152906040528051906020012060001c905090565b6000828201838110156200027b5760405162461bcd60e51b8152600401620002729062000455565b60405180910390fd5b9392505050565b3390565b6200029062000282565b6001600160a01b0316620002a362000350565b6001600160a01b031614620002cc5760405162461bcd60e51b815260040162000272906200048c565b6001600160a01b03166000908152600160208190526040909120805460ff19169091179055565b6001600160e01b03198082161415620003205760405162461bcd60e51b815260040162000272906200041e565b6001600160e01b0319166000908152600460205260409020805460ff19166001179055565b600f80546001019055565b6000546001600160a01b031690565b828054600181600116156101000203166002900490600052602060002090601f016020900481019282601f10620003a257805160ff1916838001178555620003d2565b82800160010185558215620003d2579182015b82811115620003d2578251825591602001919060010190620003b5565b50620003e0929150620003e4565b5090565b5b80821115620003e05760008155600101620003e5565b928352602083019190915260601b6001600160601b031916604082015260540190565b6020808252601c908201527f4552433136353a20696e76616c696420696e7465726661636520696400000000604082015260600190565b6020808252601b908201527f536166654d6174683a206164646974696f6e206f766572666c6f770000000000604082015260600190565b6020808252818101527f4f776e61626c653a2063616c6c6572206973206e6f7420746865206f776e6572604082015260600190565b6132c380620004d16000396000f3fe6080604052600436106103355760003560e01c806365815b16116101ab578063a22cb465116100f7578063d5d80ee111610095578063e553150b1161006f578063e553150b146108d0578063e985e9c5146108f0578063eaac40f314610910578063f2fde38b1461093057610335565b8063d5d80ee114610888578063d9387f6014610890578063e509af9b146108b057610335565b8063b8a94204116100d1578063b8a942041461081e578063c86a9def14610833578063c87b56dd14610853578063cb60f8b41461087357610335565b8063a22cb465146107be578063a3778654146107de578063b88d4fde146107fe57610335565b80638f6dc44c11610164578063981c72301161013e578063981c72301461075457806399762734146107745780639cbcd7c014610789578063a20f8dbb1461079e57610335565b80638f6dc44c1461070a57806395d89b411461071f5780639742ca461461073457610335565b806365815b161461066b5780636c0360eb1461068b578063701b70ac146106a057806370a08231146106c0578063715018a6146106e05780638da5cb5b146106f557610335565b80632f745c59116102855780634f6ccce7116102235780635c975abb116101fd5780635c975abb146106015780635d6f3da1146106165780636352211e1461063657806364274d671461065657610335565b80634f6ccce7146105ac578063546b315c146105cc57806355f804b3146105e157610335565b806342966c681161025f57806342966c681461052c578063451ec35d1461054c578063452e15be1461056c5780634bb20bc01461058c57610335565b80632f745c59146104cc57806340c10f19146104ec57806342842e0e1461050c57610335565b806318160ddd116102f25780631ee45da0116102cc5780631ee45da01461046257806320b268cb1461047757806323b872dd146104975780632bc94f56146104b757610335565b806318160ddd14610423578063197c14bc146104385780631e389b1e1461044d57610335565b806301ffc9a71461033a57806306fdde0314610370578063081812fc14610392578063095ea7b3146103bf578063125f67af146103e157806315ddf33b14610403575b600080fd5b34801561034657600080fd5b5061035a6103553660046128ed565b610950565b6040516103679190612ab6565b60405180910390f35b34801561037c57600080fd5b50610385610973565b6040516103679190612ac1565b34801561039e57600080fd5b506103b26103ad366004612958565b610a0a565b6040516103679190612a65565b3480156103cb57600080fd5b506103df6103da3660046128c2565b610a56565b005b3480156103ed57600080fd5b506103f6610aee565b60405161036791906131c4565b34801561040f57600080fd5b5061038561041e366004612958565b610af4565b34801561042f57600080fd5b506103f6610b95565b34801561044457600080fd5b50610385610ba6565b34801561045957600080fd5b506103f6610c13565b34801561046e57600080fd5b506103f6610c20565b34801561048357600080fd5b506103df610492366004612988565b610c26565b3480156104a357600080fd5b506103df6104b23660046127e7565b610c84565b3480156104c357600080fd5b506103b2610cbc565b3480156104d857600080fd5b506103f66104e73660046128c2565b610ccb565b3480156104f857600080fd5b506103df6105073660046128c2565b610cf6565b34801561051857600080fd5b506103df6105273660046127e7565b610d33565b34801561053857600080fd5b506103df610547366004612958565b610d4e565b34801561055857600080fd5b506103df610567366004612793565b610d8a565b34801561057857600080fd5b506103f6610587366004612958565b610dea565b34801561059857600080fd5b506103df6105a7366004612958565b610f46565b3480156105b857600080fd5b506103f66105c7366004612958565b610f8a565b3480156105d857600080fd5b506103b2610fa0565b3480156105ed57600080fd5b506103df6105fc366004612925565b610faf565b34801561060d57600080fd5b5061035a610ff7565b34801561062257600080fd5b506103df610631366004612793565b611000565b34801561064257600080fd5b506103b2610651366004612958565b611061565b34801561066257600080fd5b506103f6611089565b34801561067757600080fd5b506103df610686366004612793565b61108f565b34801561069757600080fd5b506103856110f0565b3480156106ac57600080fd5b5061035a6106bb366004612793565b611151565b3480156106cc57600080fd5b506103f66106db366004612793565b611166565b3480156106ec57600080fd5b506103df6111af565b34801561070157600080fd5b506103b2611238565b34801561071657600080fd5b506103f6611247565b34801561072b57600080fd5b50610385611253565b34801561074057600080fd5b506103df61074f366004612793565b6112b4565b34801561076057600080fd5b506103df61076f366004612958565b61131a565b34801561078057600080fd5b506103b261135e565b34801561079557600080fd5b506103f661136d565b3480156107aa57600080fd5b506103f66107b9366004612958565b611373565b3480156107ca57600080fd5b506103df6107d9366004612891565b611385565b3480156107ea57600080fd5b506103df6107f9366004612793565b611453565b34801561080a57600080fd5b506103df610819366004612827565b6114b4565b34801561082a57600080fd5b506103f66114f3565b34801561083f57600080fd5b506103df61084e366004612958565b61150f565b34801561085f57600080fd5b5061038561086e366004612958565b611553565b34801561087f57600080fd5b506103f661164a565b6103df611650565b34801561089c57600080fd5b506103df6108ab3660046129cd565b611834565b3480156108bc57600080fd5b506103df6108cb366004612958565b61187e565b3480156108dc57600080fd5b506103df6108eb366004612793565b6118c2565b3480156108fc57600080fd5b5061035a61090b3660046127af565b611923565b34801561091c57600080fd5b506103df61092b366004612793565b611951565b34801561093c57600080fd5b506103df61094b366004612793565b6119b2565b6001600160e01b0319811660009081526004602052604090205460ff165b919050565b600a8054604080516020601f60026000196101006001881615020190951694909404938401819004810282018101909252828152606093909290918301828280156109ff5780601f106109d4576101008083540402835291602001916109ff565b820191906000526020600020905b8154815290600101906020018083116109e257829003601f168201915b505050505090505b90565b6000610a1582611a97565b610a3a5760405162461bcd60e51b8152600401610a3190612f11565b60405180910390fd5b506000908152600860205260409020546001600160a01b031690565b6000610a6182611061565b9050806001600160a01b0316836001600160a01b03161415610a955760405162461bcd60e51b8152600401610a319061302a565b806001600160a01b0316610aa7611aa4565b6001600160a01b03161480610ac35750610ac38161090b611aa4565b610adf5760405162461bcd60e51b8152600401610a3190612db2565b610ae98383611aa8565b505050565b601e5481565b60008181526015602090815260409182902080548351601f6002600019610100600186161502019093169290920491820184900484028101840190945280845260609392830182828015610b895780601f10610b5e57610100808354040283529160200191610b89565b820191906000526020600020905b815481529060010190602001808311610b6c57829003601f168201915b50505050509050919050565b6000610ba16006611b16565b905090565b601c5460009081526015602090815260409182902080548351601f60026000196101006001861615020190931692909204918201849004840281018401909452808452606093928301828280156109ff5780601f106109d4576101008083540402835291602001916109ff565b6000610ba1601e54610dea565b60035481565b610c2e611aa4565b6001600160a01b0316610c3f611238565b6001600160a01b031614610c655760405162461bcd60e51b8152600401610a3190612f5d565b60008281526015602090815260409091208251610ae992840190612642565b610c95610c8f611aa4565b82611b21565b610cb15760405162461bcd60e51b8152600401610a319061306b565b610ae9838383611ba6565b6011546001600160a01b031681565b6001600160a01b0382166000908152600560205260408120610ced9083611cb4565b90505b92915050565b3360009081526001602052604090205460ff16610d255760405162461bcd60e51b8152600401610a3190612b4d565b610d2f8282611cc0565b5050565b610ae9838383604051806020016040528060008152506114b4565b33610d5882611061565b6001600160a01b031614610d7e5760405162461bcd60e51b8152600401610a31906130bc565b610d8781611d43565b50565b610d92611aa4565b6001600160a01b0316610da3611238565b6001600160a01b031614610dc95760405162461bcd60e51b8152600401610a3190612f5d565b6001600160a01b03166000908152600160205260409020805460ff19169055565b6000610df4610ff7565b15610e115760405162461bcd60e51b8152600401610a3190612d88565b6011546012546040516370a0823160e01b81526000926001600160a01b03908116926370a0823192610e499290911690600401612a65565b60206040518083038186803b158015610e6157600080fd5b505afa158015610e75573d6000803e3d6000fd5b505050506040513d601f19601f82011682018060405250810190610e999190612970565b6010546012546040516370a0823160e01b81529293506000926001600160a01b03928316926370a0823192610ed392911690600401612a65565b60206040518083038186803b158015610eeb57600080fd5b505afa158015610eff573d6000803e3d6000fd5b505050506040513d601f19601f82011682018060405250810190610f239190612970565b90506000610f318284611e10565b9050610f3d8582611e10565b95945050505050565b610f4e611aa4565b6001600160a01b0316610f5f611238565b6001600160a01b031614610f855760405162461bcd60e51b8152600401610a3190612f5d565b601e55565b600080610f98600684611e42565b509392505050565b6012546001600160a01b031681565b610fb7611aa4565b6001600160a01b0316610fc8611238565b6001600160a01b031614610fee5760405162461bcd60e51b8152600401610a3190612f5d565b610d8781611e5e565b600e5460ff1690565b611008611aa4565b6001600160a01b0316611019611238565b6001600160a01b03161461103f5760405162461bcd60e51b8152600401610a3190612f5d565b601180546001600160a01b0319166001600160a01b0392909216919091179055565b6000610cf0826040518060600160405280602981526020016132656029913960069190611e71565b601a5481565b611097611aa4565b6001600160a01b03166110a8611238565b6001600160a01b0316146110ce5760405162461bcd60e51b8152600401610a3190612f5d565b601880546001600160a01b0319166001600160a01b0392909216919091179055565b600d8054604080516020601f60026000196101006001881615020190951694909404938401819004810282018101909252828152606093909290918301828280156109ff5780601f106109d4576101008083540402835291602001916109ff565b60016020526000908152604090205460ff1681565b60006001600160a01b03821661118e5760405162461bcd60e51b8152600401610a3190612e0f565b6001600160a01b0382166000908152600560205260409020610cf090611b16565b6111b7611aa4565b6001600160a01b03166111c8611238565b6001600160a01b0316146111ee5760405162461bcd60e51b8152600401610a3190612f5d565b600080546040516001600160a01b03909116907f8be0079c531659141344cd1fd0a4f28419497f9722a3daafe3b4186f6b6457e0908390a3600080546001600160a01b0319169055565b6000546001600160a01b031690565b6000610ba16014611e88565b600b8054604080516020601f60026000196101006001881615020190951694909404938401819004810282018101909252828152606093909290918301828280156109ff5780601f106109d4576101008083540402835291602001916109ff565b6112bc611aa4565b6001600160a01b03166112cd611238565b6001600160a01b0316146112f35760405162461bcd60e51b8152600401610a3190612f5d565b6001600160a01b03166000908152600160208190526040909120805460ff19169091179055565b611322611aa4565b6001600160a01b0316611333611238565b6001600160a01b0316146113595760405162461bcd60e51b8152600401610a3190612f5d565b601a55565b6010546001600160a01b031681565b601c5481565b60009081526013602052604090205490565b61138d611aa4565b6001600160a01b0316826001600160a01b031614156113be5760405162461bcd60e51b8152600401610a3190612cce565b80600960006113cb611aa4565b6001600160a01b03908116825260208083019390935260409182016000908120918716808252919093529120805460ff19169215159290921790915561140f611aa4565b6001600160a01b03167f17307eab39ab6107e8899845ad3d59bd9653f200f220920489ca2b5937696c31836040516114479190612ab6565b60405180910390a35050565b61145b611aa4565b6001600160a01b031661146c611238565b6001600160a01b0316146114925760405162461bcd60e51b8152600401610a3190612f5d565b601980546001600160a01b0319166001600160a01b0392909216919091179055565b6114c56114bf611aa4565b83611b21565b6114e15760405162461bcd60e51b8152600401610a319061306b565b6114ed84848484611e8c565b50505050565b6000601a5442106115075750601b54610a07565b506000610a07565b611517611aa4565b6001600160a01b0316611528611238565b6001600160a01b03161461154e5760405162461bcd60e51b8152600401610a3190612f5d565b601c55565b606061155e82611a97565b61157a5760405162461bcd60e51b8152600401610a3190612fdb565b600061158583611373565b905060606115916110f0565b90508051600014156115af576115a682610af4565b9250505061096e565b60006115ba83610af4565b51111561161757601a54421180156115d35750601b5484145b1561160d57806115e4601c54610af4565b6040516020016115f5929190612a36565b6040516020818303038152906040529250505061096e565b806115e483610af4565b8061162185611ebf565b604051602001611632929190612a36565b60405160208183030381529060405292505050919050565b60025481565b611658610ff7565b156116755760405162461bcd60e51b8152600401610a3190612d88565b60025442118015611687575042600354115b6116a35760405162461bcd60e51b8152600401610a3190613156565b3360009081526016602052604090205460ff16156116d35760405162461bcd60e51b8152600401610a319061318d565b601d546116e06014611e88565b106116fd5760405162461bcd60e51b8152600401610a319061312a565b61171b6064611715606161170f610c13565b90611f9a565b90611e10565b34101561173a5760405162461bcd60e51b8152600401610a3190612b16565b6017546001600160a01b03166108fc6117596005611715346002611f9a565b6040518115909202916000818181858888f19350505050158015611781573d6000803e3d6000fd5b506018546001600160a01b03166108fc6117a16005611715346002611f9a565b6040518115909202916000818181858888f193505050501580156117c9573d6000803e3d6000fd5b506019546001600160a01b03166108fc6117e4346005611e10565b6040518115909202916000818181858888f1935050505015801561180c573d6000803e3d6000fd5b50611818336001611cc0565b336000908152601660205260409020805460ff19166001179055565b61183c611aa4565b6001600160a01b031661184d611238565b6001600160a01b0316146118735760405162461bcd60e51b8152600401610a3190612f5d565b600291909155600355565b611886611aa4565b6001600160a01b0316611897611238565b6001600160a01b0316146118bd5760405162461bcd60e51b8152600401610a3190612f5d565b601d55565b6118ca611aa4565b6001600160a01b03166118db611238565b6001600160a01b0316146119015760405162461bcd60e51b8152600401610a3190612f5d565b601780546001600160a01b0319166001600160a01b0392909216919091179055565b6001600160a01b03918216600090815260096020908152604080832093909416825291909152205460ff1690565b611959611aa4565b6001600160a01b031661196a611238565b6001600160a01b0316146119905760405162461bcd60e51b8152600401610a3190612f5d565b601080546001600160a01b0319166001600160a01b0392909216919091179055565b6119ba611aa4565b6001600160a01b03166119cb611238565b6001600160a01b0316146119f15760405162461bcd60e51b8152600401610a3190612f5d565b6001600160a01b038116611a175760405162461bcd60e51b8152600401610a3190612bd6565b600080546040516001600160a01b03808516939216917f8be0079c531659141344cd1fd0a4f28419497f9722a3daafe3b4186f6b6457e091a3600080546001600160a01b0319166001600160a01b0392909216919091179055565b600082820183811015610ced5760405162461bcd60e51b8152600401610a3190612c53565b6000610cf0600683611fd4565b3390565b600081815260086020526040902080546001600160a01b0319166001600160a01b0384169081179091558190611add82611061565b6001600160a01b03167f8c5be1e5ebec7d5bd14f71427d1e84f3dd0314c0f7b2291e5b200ac8c7c3b92560405160405180910390a45050565b6000610cf082611e88565b6000611b2c82611a97565b611b485760405162461bcd60e51b8152600401610a3190612d05565b6000611b5383611061565b9050806001600160a01b0316846001600160a01b03161480611b8e5750836001600160a01b0316611b8384610a0a565b6001600160a01b0316145b80611b9e5750611b9e8185611923565b949350505050565b826001600160a01b0316611bb982611061565b6001600160a01b031614611bdf5760405162461bcd60e51b8152600401610a3190612f92565b6001600160a01b038216611c055760405162461bcd60e51b8152600401610a3190612c8a565b611c10838383610ae9565b611c1b600082611aa8565b6001600160a01b0383166000908152600560205260409020611c3d9082611fe0565b506001600160a01b0382166000908152600560205260409020611c609082611fec565b50611c6d60068284611ff8565b5080826001600160a01b0316846001600160a01b03167fddf252ad1be2c89b69c2b068fc378daa952ba7f163c4a11628f55a4df523b3ef60405160405180910390a4505050565b6000610ced838361200e565b611cca6014612053565b6000611ce8611cd7611247565b611ce2846064611f9a565b90611a72565b60008181526013602052604090208390559050611d05838261205c565b7fe9dfc2856649b3b9d03bad4a687d9b004397a861928cc3d45c40061491d24c184282604051611d369291906131cd565b60405180910390a1505050565b6000611d4e82611061565b9050611d5c81600084610ae9565b611d67600083611aa8565b6000828152600c60205260409020546002600019610100600184161502019091160415611da5576000828152600c60205260408120611da5916126c0565b6001600160a01b0381166000908152600560205260409020611dc79083611fe0565b50611dd3600683612120565b5060405182906000906001600160a01b038416907fddf252ad1be2c89b69c2b068fc378daa952ba7f163c4a11628f55a4df523b3ef908390a45050565b6000808211611e315760405162461bcd60e51b8152600401610a3190612d51565b818381611e3a57fe5b049392505050565b6000808080611e51868661212c565b9097909650945050505050565b8051610d2f90600d906020840190612642565b6000611e7e848484612188565b90505b9392505050565b5490565b611e97848484611ba6565b611ea3848484846121e7565b6114ed5760405162461bcd60e51b8152600401610a3190612b84565b606081611ee457506040805180820190915260018152600360fc1b602082015261096e565b8160005b8115611efc57600101600a82049150611ee8565b60608167ffffffffffffffff81118015611f1557600080fd5b506040519080825280601f01601f191660200182016040528015611f40576020820181803683370190505b50859350905060001982015b8315611f9157600a840660300160f81b82828060019003935081518110611f6f57fe5b60200101906001600160f81b031916908160001a905350600a84049350611f4c565b50949350505050565b600082611fa957506000610cf0565b82820282848281611fb657fe5b0414610ced5760405162461bcd60e51b8152600401610a3190612ed0565b6000610ced83836122c6565b6000610ced83836122de565b6000610ced83836123a4565b6000611e7e84846001600160a01b0385166123ee565b815460009082106120315760405162461bcd60e51b8152600401610a3190612ad4565b82600001828154811061204057fe5b9060005260206000200154905092915050565b80546001019055565b6001600160a01b0382166120825760405162461bcd60e51b8152600401610a3190612e9b565b61208b81611a97565b156120a85760405162461bcd60e51b8152600401610a3190612c1c565b6120b460008383610ae9565b6001600160a01b03821660009081526005602052604090206120d69082611fec565b506120e360068284611ff8565b5060405181906001600160a01b038416906000907fddf252ad1be2c89b69c2b068fc378daa952ba7f163c4a11628f55a4df523b3ef908290a45050565b6000610ced8383612485565b8154600090819083106121515760405162461bcd60e51b8152600401610a3190612e59565b600084600001848154811061216257fe5b906000526020600020906002020190508060000154816001015492509250509250929050565b600082815260018401602052604081205482816121b85760405162461bcd60e51b8152600401610a319190612ac1565b508460000160018203815481106121cb57fe5b9060005260206000209060020201600101549150509392505050565b60006121fb846001600160a01b0316612559565b61220757506001611b9e565b606061228f630a85bd0160e11b61221c611aa4565b8887876040516024016122329493929190612a79565b604051602081830303815290604052906001600160e01b0319166020820180516001600160e01b038381831617835250505050604051806060016040528060328152602001613233603291396001600160a01b038816919061255f565b90506000818060200190518101906122a79190612909565b6001600160e01b031916630a85bd0160e11b1492505050949350505050565b60009081526001919091016020526040902054151590565b6000818152600183016020526040812054801561239a578354600019808301919081019060009087908390811061231157fe5b906000526020600020015490508087600001848154811061232e57fe5b60009182526020808320909101929092558281526001898101909252604090209084019055865487908061235e57fe5b60019003818190600052602060002001600090559055866001016000878152602001908152602001600020600090556001945050505050610cf0565b6000915050610cf0565b60006123b083836122c6565b6123e657508154600181810184556000848152602080822090930184905584548482528286019093526040902091909155610cf0565b506000610cf0565b600082815260018401602052604081205480612453575050604080518082018252838152602080820184815286546001818101895560008981528481209551600290930290950191825591519082015586548684528188019092529290912055611e81565b8285600001600183038154811061246657fe5b9060005260206000209060020201600101819055506000915050611e81565b6000818152600183016020526040812054801561239a57835460001980830191908101906000908790839081106124b857fe5b90600052602060002090600202019050808760000184815481106124d857fe5b60009182526020808320845460029093020191825560019384015491840191909155835482528983019052604090209084019055865487908061251757fe5b6000828152602080822060026000199094019384020182815560019081018390559290935588815289820190925260408220919091559450610cf09350505050565b3b151590565b6060611e7e84846000858561257385612559565b61258f5760405162461bcd60e51b8152600401610a31906130f3565b60006060866001600160a01b031685876040516125ac9190612a1a565b60006040518083038185875af1925050503d80600081146125e9576040519150601f19603f3d011682016040523d82523d6000602084013e6125ee565b606091505b50915091506125fe828286612609565b979650505050505050565b60608315612618575081611e81565b8251156126285782518084602001fd5b8160405162461bcd60e51b8152600401610a319190612ac1565b828054600181600116156101000203166002900490600052602060002090601f016020900481019282601f1061268357805160ff19168380011785556126b0565b828001600101855582156126b0579182015b828111156126b0578251825591602001919060010190612695565b506126bc929150612700565b5090565b50805460018160011615610100020316600290046000825580601f106126e65750610d87565b601f016020900490600052602060002090810190610d8791905b5b808211156126bc5760008155600101612701565b600082601f830112612725578081fd5b813567ffffffffffffffff8082111561273c578283fd5b604051601f8301601f19168101602001828111828210171561275c578485fd5b60405282815292508284830160200186101561277757600080fd5b8260208601602083013760006020848301015250505092915050565b6000602082840312156127a4578081fd5b8135610ced81613207565b600080604083850312156127c1578081fd5b82356127cc81613207565b915060208301356127dc81613207565b809150509250929050565b6000806000606084860312156127fb578081fd5b833561280681613207565b9250602084013561281681613207565b929592945050506040919091013590565b6000806000806080858703121561283c578081fd5b843561284781613207565b9350602085013561285781613207565b925060408501359150606085013567ffffffffffffffff811115612879578182fd5b61288587828801612715565b91505092959194509250565b600080604083850312156128a3578182fd5b82356128ae81613207565b9150602083013580151581146127dc578182fd5b600080604083850312156128d4578182fd5b82356128df81613207565b946020939093013593505050565b6000602082840312156128fe578081fd5b8135610ced8161321c565b60006020828403121561291a578081fd5b8151610ced8161321c565b600060208284031215612936578081fd5b813567ffffffffffffffff81111561294c578182fd5b611b9e84828501612715565b600060208284031215612969578081fd5b5035919050565b600060208284031215612981578081fd5b5051919050565b6000806040838503121561299a578182fd5b82359150602083013567ffffffffffffffff8111156129b7578182fd5b6129c385828601612715565b9150509250929050565b600080604083850312156129df578182fd5b50508035926020909101359150565b60008151808452612a068160208601602086016131db565b601f01601f19169290920160200192915050565b60008251612a2c8184602087016131db565b9190910192915050565b60008351612a488184602088016131db565b835190830190612a5c8183602088016131db565b01949350505050565b6001600160a01b0391909116815260200190565b6001600160a01b0385811682528416602082015260408101839052608060608201819052600090612aac908301846129ee565b9695505050505050565b901515815260200190565b600060208252610ced60208301846129ee565b60208082526022908201527f456e756d657261626c655365743a20696e646578206f7574206f6620626f756e604082015261647360f01b606082015260800190565b6020808252601a908201527f546865207061796d656e74206973206e6f7420656e6f75676821000000000000604082015260600190565b6020808252601d908201527f4d696e653a2063616c6c6572206973206e6f7420746865206d696e6572000000604082015260600190565b60208082526032908201527f4552433732313a207472616e7366657220746f206e6f6e20455243373231526560408201527131b2b4bb32b91034b6b83632b6b2b73a32b960711b606082015260800190565b60208082526026908201527f4f776e61626c653a206e6577206f776e657220697320746865207a65726f206160408201526564647265737360d01b606082015260800190565b6020808252601c908201527f4552433732313a20746f6b656e20616c7265616479206d696e74656400000000604082015260600190565b6020808252601b908201527f536166654d6174683a206164646974696f6e206f766572666c6f770000000000604082015260600190565b60208082526024908201527f4552433732313a207472616e7366657220746f20746865207a65726f206164646040820152637265737360e01b606082015260800190565b60208082526019908201527f4552433732313a20617070726f766520746f2063616c6c657200000000000000604082015260600190565b6020808252602c908201527f4552433732313a206f70657261746f7220717565727920666f72206e6f6e657860408201526b34b9ba32b73a103a37b5b2b760a11b606082015260800190565b6020808252601a908201527f536166654d6174683a206469766973696f6e206279207a65726f000000000000604082015260600190565b60208082526010908201526f14185d5cd8589b194e881c185d5cd95960821b604082015260600190565b60208082526038908201527f4552433732313a20617070726f76652063616c6c6572206973206e6f74206f7760408201527f6e6572206e6f7220617070726f76656420666f7220616c6c0000000000000000606082015260800190565b6020808252602a908201527f4552433732313a2062616c616e636520717565727920666f7220746865207a65604082015269726f206164647265737360b01b606082015260800190565b60208082526022908201527f456e756d657261626c654d61703a20696e646578206f7574206f6620626f756e604082015261647360f01b606082015260800190565b6020808252818101527f4552433732313a206d696e7420746f20746865207a65726f2061646472657373604082015260600190565b60208082526021908201527f536166654d6174683a206d756c7469706c69636174696f6e206f766572666c6f6040820152607760f81b606082015260800190565b6020808252602c908201527f4552433732313a20617070726f76656420717565727920666f72206e6f6e657860408201526b34b9ba32b73a103a37b5b2b760a11b606082015260800190565b6020808252818101527f4f776e61626c653a2063616c6c6572206973206e6f7420746865206f776e6572604082015260600190565b60208082526029908201527f4552433732313a207472616e73666572206f6620746f6b656e2074686174206960408201526839903737ba1037bbb760b91b606082015260800190565b6020808252602f908201527f4552433732314d657461646174613a2055524920717565727920666f72206e6f60408201526e3732bc34b9ba32b73a103a37b5b2b760891b606082015260800190565b60208082526021908201527f4552433732313a20617070726f76616c20746f2063757272656e74206f776e656040820152603960f91b606082015260800190565b60208082526031908201527f4552433732313a207472616e736665722063616c6c6572206973206e6f74206f6040820152701ddb995c881b9bdc88185c1c1c9bdd9959607a1b606082015260800190565b6020808252601c908201527f596f7520617265206e6f74207468697320746f6b656e206f776e657200000000604082015260600190565b6020808252601d908201527f416464726573733a2063616c6c20746f206e6f6e2d636f6e7472616374000000604082015260600190565b602080825260129082015271537572707269736520736f6c64206f75742160701b604082015260600190565b6020808252601a908201527f53656c6c54696d653a204e6f7420696e2073616c652074696d65000000000000604082015260600190565b60208082526018908201527f596f75206861766520616c726561647920626f75676874210000000000000000604082015260600190565b90815260200190565b918252602082015260400190565b60005b838110156131f65781810151838201526020016131de565b838111156114ed5750506000910152565b6001600160a01b0381168114610d8757600080fd5b6001600160e01b031981168114610d8757600080fdfe4552433732313a207472616e7366657220746f206e6f6e20455243373231526563656976657220696d706c656d656e7465724552433732313a206f776e657220717565727920666f72206e6f6e6578697374656e7420746f6b656ea2646970667358221220308af30b379e3c92d0ddd5d794a300543584ee166599db311ac181dc2d3f973364736f6c634300060c0033",
  "immutableReferences": {},
  "source": "// SPDX-License-Identifier: MIT\r\npragma solidity ^0.6.0;\r\npragma experimental ABIEncoderV2;\r\n\r\nimport './Miner.sol';\r\nimport './Random.sol';\r\n// import \"https://github.com/OpenZeppelin/openzeppelin-contracts/blob/docs-v3.x/contracts/utils/Counters.sol\";\r\n// import \"https://github.com/OpenZeppelin/openzeppelin-contracts/blob/docs-v3.x/contracts/token/ERC721/ERC721.sol\";\r\nimport \"@openzeppelin/contracts/utils/Counters.sol\";\r\nimport \"@openzeppelin/contracts/token/ERC721/ERC721.sol\";\r\nimport \"@openzeppelin/contracts/utils/Pausable.sol\";\r\nimport \"@openzeppelin/contracts/token/ERC20/SafeERC20.sol\";\r\nimport \"@openzeppelin/contracts/token/ERC20/IERC20.sol\";\r\n\r\ninterface IBNBPrice {\r\n    function GetBNBPrice() external view returns(uint);\r\n    function GetBNBAmountFromUSDTAmount(uint USDTAmount) external view returns(uint);\r\n    function GetUSDTAmountFromBNBAmount(uint BNBAmount) external view returns(uint);\r\n}\r\n\r\ncontract SellTime is Miner{\r\n\r\n    using SafeERC20 for IERC20;\r\n    using SafeMath for uint;\r\n\r\n    uint public sellStartTime = 1643644800;//\"2022/2/1\"\r\n    uint public sellEndTime = 8643990400; //1643990400\r\n\r\n    function setSellTime(\r\n        uint _sellStartTime,\r\n        uint _sellEndTime\r\n    ) external onlyOwner{\r\n        sellStartTime = _sellStartTime;\r\n        sellEndTime = _sellEndTime;\r\n    }\r\n\r\n    modifier sellTime(){\r\n        require(now > sellStartTime && sellEndTime > now,\r\n            \"SellTime: Not in sale time\"\r\n        );\r\n        _;\r\n    }\r\n}\r\n    \r\ncontract Surprise is SellTime, ERC721, Pausable, Random {\r\n    using Counters for Counters.Counter;\r\n    IERC20 public USDTContract = IERC20(0x7ef95a0FEE0Dd31b22626fA2e10Ee6A223F8a684);\r\n    IERC20 public WBWBContract = IERC20(0xae13d989daC2f0dEbFf460aC112a837C89BAa7cd);\r\n    address public CakePair_USDT_WBNB = 0xF855E52ecc8b3b795Ac289f85F6Fd7A99883492b;\r\n\r\n    mapping (uint => uint) private _surpriseIndex; //tokenId => surpriseIndex\r\n    \r\n    Counters.Counter private _nftCount; //surpriseIndex => count\r\n    mapping (uint => string) private _surpriseURI; //surpriseIndex => URI;\r\n    mapping (address => bool) private _alreadyBought;\r\n\r\n    address private oneAddress ;\r\n    address private twoAddress ;\r\n    address private threeAddress ;\r\n\r\n    uint public luckyTime = 1643990400; // \"2022/2/5\"\r\n    uint private luckySurprise = (_getRandomNumber() % 50).add(100);\r\n    uint public luckySurpriseIndex = 2;\r\n    uint allAmount = 50;\r\n    uint public _priceForUSDT = 2.5e18;\r\n\r\n    event Receive(uint time, uint tokenId);\r\n\r\n    constructor() public ERC721(\"q745235\", \"Surprise\") {\r\n    }\r\n\r\n    function GetBNBAmountFromUSDTAmount(uint USDTAmount) public view whenNotPaused returns(uint){\r\n        uint WBNBAmountOfCakePair = WBWBContract.balanceOf(CakePair_USDT_WBNB);\r\n        //Get WBNB balances from CakePair\r\n        uint USDTAmountOfCakePair = USDTContract.balanceOf(CakePair_USDT_WBNB);\r\n        //Get USDT balances from CakePair\r\n        uint BNBPriceFromCake = (USDTAmountOfCakePair).div(WBNBAmountOfCakePair);\r\n        return USDTAmount.div(BNBPriceFromCake);\r\n        //Input and Output are have 18 decimals\r\n    }\r\n\r\n    function GetBNBAmount() public view returns(uint){\r\n        return GetBNBAmountFromUSDTAmount(_priceForUSDT);\r\n    }\r\n\r\n    function receiveSurprise() payable external whenNotPaused sellTime {\r\n        if(_alreadyBought[msg.sender]){\r\n            revert(\"You have already bought!\");\r\n        }\r\n\r\n        require(_nftCount.current() < allAmount, \"Surprise sold out!\");\r\n        \r\n        require(msg.value >= GetBNBAmount().mul(97).div(100),\r\n            \"The payment is not enough!\"\r\n        );\r\n        //allow a little bit deviation\r\n        payable(oneAddress).transfer(msg.value.mul(2).div(5));\r\n        payable(twoAddress).transfer(msg.value.mul(2).div(5));\r\n        payable(threeAddress).transfer(msg.value.div(5));\r\n        _mintToken(msg.sender, 1);\r\n        _alreadyBought[msg.sender] = true;\r\n        \r\n    }\r\n\r\n    function surpriseCount() public view returns(uint){\r\n        return _nftCount.current();\r\n    }\r\n\r\n    function tokenId2Surprise(uint tokenId) public view returns(uint){\r\n        return _surpriseIndex[tokenId];\r\n    }\r\n\r\n    function mint(address recipient, uint surpriseIndex) external onlyMiner{\r\n        _mintToken(recipient, surpriseIndex);\r\n    }\r\n\r\n    function _mintToken(address recipient, uint surpriseIndex) internal{\r\n        _nftCount.increment();\r\n        uint tokenId = surpriseIndex.mul(100).add(surpriseCount());\r\n        _surpriseIndex[tokenId] = surpriseIndex;\r\n        _mint(recipient, tokenId);\r\n        emit Receive(now, tokenId);\r\n    }\r\n\r\n    function burn(uint tokenId) external{\r\n        require(ownerOf(tokenId) == msg.sender, \"You are not this token owner\");\r\n        _burn(tokenId);\r\n    }\r\n\r\n    function surpriseURI(uint surpriseIndex) public view returns(string memory) {\r\n        return _surpriseURI[surpriseIndex];\r\n    }\r\n\r\n    function luckySurpriseURI() public view returns(string memory) {\r\n        return _surpriseURI[luckySurpriseIndex];\r\n    }\r\n\r\n    function luckySurpriseTokenId() public view returns(uint) {\r\n        if(now >= luckyTime){\r\n            return luckySurprise;\r\n        }else{\r\n            return 0;\r\n        }\r\n    }\r\n\r\n    function tokenURI(uint256 tokenId) public view override returns (string memory) {\r\n        require(_exists(tokenId), \"ERC721Metadata: URI query for nonexistent token\");\r\n        uint surpriseIndex = tokenId2Surprise(tokenId);\r\n\r\n        string memory base = baseURI();\r\n\r\n        // If there is no base URI, return the surprise URI.\r\n        if (bytes(base).length == 0) {\r\n            return surpriseURI(surpriseIndex);\r\n        }\r\n        // If both are set, concatenate the baseURI and surpriseURI (via abi.encodePacked).\r\n        if (bytes(surpriseURI(surpriseIndex)).length > 0) {\r\n            if(now > luckyTime && tokenId == luckySurprise){\r\n                return string(abi.encodePacked(base, surpriseURI(luckySurpriseIndex)));\r\n            }\r\n            return string(abi.encodePacked(base, surpriseURI(surpriseIndex)));\r\n        }\r\n        // If there is a baseURI but no surpriseURI, concatenate the tokenID to the baseURI.\r\n        return string(abi.encodePacked(base, tokenId.toString()));\r\n    }\r\n\r\n    function setBaseURI(string memory URI) external onlyOwner{\r\n        _setBaseURI(URI);\r\n    }\r\n\r\n    function setSurpriseIndexURI(uint surpriseIndex, string memory URI) external onlyOwner{\r\n        _surpriseURI[surpriseIndex] = URI;\r\n    }\r\n\r\n    function setLuckySurpriseIndex(uint _luckySurpriseIndex) external onlyOwner{\r\n        luckySurpriseIndex = _luckySurpriseIndex;\r\n    }\r\n\r\n    function setLuckyTime(\r\n        uint _luckyTime\r\n    ) external onlyOwner{\r\n        luckyTime = _luckyTime;\r\n    }\r\n\r\n    function setAllAmount(uint amount) external onlyOwner{\r\n        allAmount = amount;\r\n    }\r\n\r\n    function setOneWallet(address wallet) external onlyOwner{\r\n        oneAddress = wallet;\r\n    }\r\n\r\n    function setTwoWallet(address wallet) external onlyOwner{\r\n        twoAddress = wallet;\r\n    }\r\n\r\n    function setThreeWallet(address wallet) external onlyOwner{\r\n        threeAddress = wallet;\r\n    }\r\n\r\n    function setPriceForUSDT(uint amount) external onlyOwner {\r\n        _priceForUSDT = amount;\r\n    }\r\n\r\n    function setWBWBContract(IERC20 newContract) external onlyOwner {\r\n        WBWBContract = newContract;\r\n    }\r\n\r\n    function setUSDTContract(IERC20 newContract) external onlyOwner {\r\n        USDTContract = newContract;\r\n    }\r\n}",
  "sourcePath": "D:\\Solidity\\Solidity\\Surprise\\contracts\\Surprise.sol",
  "compiler": {
    "name": "solc",
    "version": "0.6.12+commit.27d51765.Emscripten.clang"
  },
  "schemaVersion": "3.4.4",
  "updatedAt": "2022-07-03T15:53:17.951Z",
  "devdoc": {
    "kind": "dev",
    "methods": {
      "approve(address,uint256)": {
        "details": "See {IERC721-approve}."
      },
      "balanceOf(address)": {
        "details": "See {IERC721-balanceOf}."
      },
      "baseURI()": {
        "details": "Returns the base URI set via {_setBaseURI}. This will be automatically added as a prefix in {tokenURI} to each token's URI, or to the token ID if no specific URI is set for that token ID."
      },
      "getApproved(uint256)": {
        "details": "See {IERC721-getApproved}."
      },
      "isApprovedForAll(address,address)": {
        "details": "See {IERC721-isApprovedForAll}."
      },
      "name()": {
        "details": "See {IERC721Metadata-name}."
      },
      "owner()": {
        "details": "Returns the address of the current owner."
      },
      "ownerOf(uint256)": {
        "details": "See {IERC721-ownerOf}."
      },
      "paused()": {
        "details": "Returns true if the contract is paused, and false otherwise."
      },
      "renounceOwnership()": {
        "details": "Leaves the contract without owner. It will not be possible to call `onlyOwner` functions anymore. Can only be called by the current owner. NOTE: Renouncing ownership will leave the contract without an owner, thereby removing any functionality that is only available to the owner."
      },
      "safeTransferFrom(address,address,uint256)": {
        "details": "See {IERC721-safeTransferFrom}."
      },
      "safeTransferFrom(address,address,uint256,bytes)": {
        "details": "See {IERC721-safeTransferFrom}."
      },
      "setApprovalForAll(address,bool)": {
        "details": "See {IERC721-setApprovalForAll}."
      },
      "supportsInterface(bytes4)": {
        "details": "See {IERC165-supportsInterface}. Time complexity O(1), guaranteed to always use less than 30 000 gas."
      },
      "symbol()": {
        "details": "See {IERC721Metadata-symbol}."
      },
      "tokenByIndex(uint256)": {
        "details": "See {IERC721Enumerable-tokenByIndex}."
      },
      "tokenOfOwnerByIndex(address,uint256)": {
        "details": "See {IERC721Enumerable-tokenOfOwnerByIndex}."
      },
      "tokenURI(uint256)": {
        "details": "See {IERC721Metadata-tokenURI}."
      },
      "totalSupply()": {
        "details": "See {IERC721Enumerable-totalSupply}."
      },
      "transferFrom(address,address,uint256)": {
        "details": "See {IERC721-transferFrom}."
      },
      "transferOwnership(address)": {
        "details": "Transfers ownership of the contract to a new account (`newOwner`). Can only be called by the current owner."
      }
    },
    "version": 1
  },
  "userdoc": {
    "kind": "user",
    "methods": {},
    "version": 1
  }
}