{
  "contractName": "AuctionTime",
  "abi": [
    {
      "anonymous": false,
      "inputs": [
        {
          "indexed": true,
          "internalType": "address",
          "name": "previousOwner",
          "type": "address"
        },
        {
          "indexed": true,
          "internalType": "address",
          "name": "newOwner",
          "type": "address"
        }
      ],
      "name": "OwnershipTransferred",
      "type": "event"
    },
    {
      "inputs": [],
      "name": "OneWallet",
      "outputs": [
        {
          "internalType": "address",
          "name": "",
          "type": "address"
        }
      ],
      "stateMutability": "view",
      "type": "function"
    },
    {
      "inputs": [],
      "name": "TwoWallet",
      "outputs": [
        {
          "internalType": "address",
          "name": "",
          "type": "address"
        }
      ],
      "stateMutability": "view",
      "type": "function"
    },
    {
      "inputs": [],
      "name": "auctionEndTime",
      "outputs": [
        {
          "internalType": "uint256",
          "name": "",
          "type": "uint256"
        }
      ],
      "stateMutability": "view",
      "type": "function"
    },
    {
      "inputs": [],
      "name": "auctionStartTime",
      "outputs": [
        {
          "internalType": "uint256",
          "name": "",
          "type": "uint256"
        }
      ],
      "stateMutability": "view",
      "type": "function"
    },
    {
      "inputs": [],
      "name": "dutchAuctionTime",
      "outputs": [
        {
          "internalType": "uint256",
          "name": "",
          "type": "uint256"
        }
      ],
      "stateMutability": "view",
      "type": "function"
    },
    {
      "inputs": [],
      "name": "endAuctionTime",
      "outputs": [
        {
          "internalType": "uint256",
          "name": "",
          "type": "uint256"
        }
      ],
      "stateMutability": "view",
      "type": "function"
    },
    {
      "inputs": [],
      "name": "owner",
      "outputs": [
        {
          "internalType": "address",
          "name": "",
          "type": "address"
        }
      ],
      "stateMutability": "view",
      "type": "function"
    },
    {
      "inputs": [],
      "name": "renounceOwnership",
      "outputs": [],
      "stateMutability": "nonpayable",
      "type": "function"
    },
    {
      "inputs": [
        {
          "internalType": "address",
          "name": "newOwner",
          "type": "address"
        }
      ],
      "name": "transferOwnership",
      "outputs": [],
      "stateMutability": "nonpayable",
      "type": "function"
    },
    {
      "inputs": [
        {
          "internalType": "uint256",
          "name": "_auctionStartTime",
          "type": "uint256"
        },
        {
          "internalType": "uint256",
          "name": "_auctionEndTime",
          "type": "uint256"
        }
      ],
      "name": "setAuctionTime",
      "outputs": [],
      "stateMutability": "nonpayable",
      "type": "function"
    }
  ],
  "bytecode": "0x608060405263620f8a406004556402540be3ff6005556004546006556100366104b060045461009f60201b6103261790919060201c565b60075534801561004557600080fd5b5060006100506100d4565b600080546001600160a01b0319166001600160a01b0383169081178255604051929350917f8be0079c531659141344cd1fd0a4f28419497f9722a3daafe3b4186f6b6457e0908290a35061010f565b6000828201838110156100cd5760405162461bcd60e51b81526004016100c4906100d8565b60405180910390fd5b9392505050565b3390565b6020808252601b908201527f536166654d6174683a206164646974696f6e206f766572666c6f770000000000604082015260600190565b6104a38061011e6000396000f3fe608060405234801561001057600080fd5b506004361061009e5760003560e01c8063715018a611610066578063715018a6146100fb5780638da5cb5b14610103578063eb54f9ec1461010b578063f2fde38b14610113578063fce591b8146101265761009e565b80631d42c5ee146100a35780633d8b5a65146100c15780634b449cba146100c95780635a4ed8f1146100de5780636ae260c1146100e6575b600080fd5b6100ab61012e565b6040516100b8919061039e565b60405180910390f35b6100ab61013d565b6100d161014c565b6040516100b89190610464565b6100d1610152565b6100f96100f436600461037d565b610158565b005b6100f96101c2565b6100ab61024b565b6100d161025a565b6100f9610121366004610356565b610260565b6100d1610320565b6002546001600160a01b031681565b6003546001600160a01b031681565b60055481565b60075481565b610160610352565b6001600160a01b031661017161024b565b6001600160a01b0316146101a05760405162461bcd60e51b81526004016101979061042f565b60405180910390fd5b6004829055600581905560068290556101bb826104b0610326565b6007555050565b6101ca610352565b6001600160a01b03166101db61024b565b6001600160a01b0316146102015760405162461bcd60e51b81526004016101979061042f565b600080546040516001600160a01b03909116907f8be0079c531659141344cd1fd0a4f28419497f9722a3daafe3b4186f6b6457e0908390a3600080546001600160a01b0319169055565b6000546001600160a01b031690565b60045481565b610268610352565b6001600160a01b031661027961024b565b6001600160a01b03161461029f5760405162461bcd60e51b81526004016101979061042f565b6001600160a01b0381166102c55760405162461bcd60e51b8152600401610197906103b2565b600080546040516001600160a01b03808516939216917f8be0079c531659141344cd1fd0a4f28419497f9722a3daafe3b4186f6b6457e091a3600080546001600160a01b0319166001600160a01b0392909216919091179055565b60065481565b60008282018381101561034b5760405162461bcd60e51b8152600401610197906103f8565b9392505050565b3390565b600060208284031215610367578081fd5b81356001600160a01b038116811461034b578182fd5b6000806040838503121561038f578081fd5b50508035926020909101359150565b6001600160a01b0391909116815260200190565b60208082526026908201527f4f776e61626c653a206e6577206f776e657220697320746865207a65726f206160408201526564647265737360d01b606082015260800190565b6020808252601b908201527f536166654d6174683a206164646974696f6e206f766572666c6f770000000000604082015260600190565b6020808252818101527f4f776e61626c653a2063616c6c6572206973206e6f7420746865206f776e6572604082015260600190565b9081526020019056fea26469706673582212209298e0c6d45b06b2ebc6f2a61b5a6d66f9c634a477b25eb86cb1c83401cf341a64736f6c634300060c0033",
  "immutableReferences": {},
  "source": "// SPDX-License-Identifier: MIT\r\npragma experimental ABIEncoderV2;\r\npragma solidity ^0.6.0;\r\n\r\nimport \"@openzeppelin/contracts/access/Ownable.sol\";\r\nimport \"@openzeppelin/contracts/token/ERC20/IERC20.sol\";\r\nimport \"@openzeppelin/contracts/utils/Pausable.sol\";\r\nimport \"@openzeppelin/contracts/token/ERC20/SafeERC20.sol\";\r\nimport \"@openzeppelin/contracts/utils/Counters.sol\";\r\nimport './Random.sol';\r\n\r\ncontract AuctionTime is Ownable, Random{\r\n\r\n    using SafeERC20 for IERC20;\r\n    using SafeMath for uint;\r\n\r\n    address public OneWallet;\r\n    address public TwoWallet;\r\n    uint public auctionStartTime = 1645185600;// 2022/2/18 20:00\r\n    uint public auctionEndTime = 9999999999;\r\n    uint public dutchAuctionTime = auctionStartTime;\r\n    uint public endAuctionTime = auctionStartTime.add(1200);\r\n    \r\n    function setAuctionTime(\r\n        uint _auctionStartTime,\r\n        uint _auctionEndTime\r\n    ) external onlyOwner{\r\n        auctionStartTime = _auctionStartTime;\r\n        auctionEndTime = _auctionEndTime;\r\n        dutchAuctionTime = _auctionStartTime;\r\n        endAuctionTime = _auctionStartTime.add(1200);\r\n    }\r\n\r\n    modifier auctionTime(){\r\n        require(now > auctionStartTime && auctionEndTime > now,\r\n            \"auctionTime: Not in auction time\"\r\n        );\r\n        _;\r\n    }\r\n\r\n}\r\n\r\ninterface ICharacter{\r\n    struct CharacterInfo{\r\n        uint8 HPbase;\r\n        uint8 ATKbase;\r\n        uint8 DEFbase;\r\n        uint8 LUKbase;\r\n    }\r\n\r\n    function mint(\r\n        address recipient, uint characterIndex, CharacterInfo memory characterInfo\r\n    ) external;\r\n\r\n    function safeTransferFrom(\r\n        address from, address to, uint256 tokenId\r\n    ) external;\r\n}\r\n\r\ninterface ITwo {\r\n    event WinTheBid(address buyer, uint time, uint tokenId, uint price);\r\n    function winTheBidByUsdt() external;\r\n}\r\n\r\ncontract DutchAuction is Pausable, AuctionTime, ITwo{\r\n\r\n    using Counters for Counters.Counter;\r\n    mapping(address => bool) _buyer;\r\n\r\n    mapping (uint => Counters.Counter) private auctionAmount;\r\n    mapping (uint => uint) private auctionPrice;\r\n\r\n    //Contracts\r\n\r\n    IERC20 public usdtContract = IERC20(0x55d398326f99059fF775485246999027B3197955);\r\n    ICharacter public characterContract;\r\n    uint private _priceForUSDT = 300e18; //decimal = 18\r\n    uint reducePrice = 10e18;\r\n    uint reduceTime = 60;\r\n    uint lowestPrice = _priceForUSDT;\r\n    uint highestPrice = 0;\r\n    uint totalAuction = 0;\r\n\r\n    function getPriceForUSDT() public view returns(uint){\r\n        uint newtime = now.sub(dutchAuctionTime);\r\n        uint off = newtime.div(reduceTime);\r\n        uint overtime = _priceForUSDT.div(reducePrice);\r\n        if(off > overtime){\r\n            off = overtime;\r\n        }\r\n        uint newPrice = _priceForUSDT.sub(reducePrice.mul(off));\r\n        if (newPrice > _priceForUSDT){\r\n            newPrice = _priceForUSDT;\r\n        }\r\n        return newPrice;\r\n    }\r\n\r\n    function getLowestPrice() public view returns(uint){\r\n        return lowestPrice;\r\n    }\r\n\r\n    function getHighestPrice() public view returns(uint){\r\n        return highestPrice;\r\n    }\r\n\r\n    function getAuctionPrice(uint acution) public view returns(uint){\r\n        return auctionPrice[acution];\r\n    }\r\n\r\n    function getTotalAuction() public view returns(uint){\r\n        return totalAuction;\r\n    }\r\n\r\n    function isBuyer(address user) public view returns(bool){\r\n        return _buyer[user];\r\n    }\r\n\r\n    function totalAuctionAmount() public view returns(uint){\r\n        return auctionAmount[0].current();\r\n    }\r\n\r\n    function normalAuctionAmount() public view returns(uint){\r\n        return auctionAmount[1].current();\r\n    }\r\n\r\n    function specialAuctionAmount() public view returns(uint){\r\n        return auctionAmount[2].current();\r\n    }\r\n\r\n    function getAuctionTime() public view returns(uint){\r\n        return dutchAuctionTime;\r\n    }\r\n\r\n    function getEndAuctionTime() public view returns(uint){\r\n        return endAuctionTime;\r\n    }\r\n\r\n    function winTheBidByUsdt(\r\n        \r\n    ) override external whenNotPaused auctionTime{\r\n        require(totalAuctionAmount() < 20, \"Auction has ended\");\r\n        require(!isBuyer(msg.sender), \"You already bought\");\r\n        uint lastPrice = getPriceForUSDT();\r\n        auctionAmount[0].increment();\r\n        usdtContract.safeTransferFrom(\r\n            msg.sender,\r\n            OneWallet,\r\n            lastPrice.div(100).mul(40)\r\n        );\r\n        usdtContract.safeTransferFrom(\r\n            msg.sender,\r\n            TwoWallet,\r\n            lastPrice.div(100).mul(60)\r\n        );\r\n        _winningBidder();\r\n        _winTheBid(lastPrice);\r\n    }\r\n\r\n//_buy\r\n\r\n    function _winningBidder() private{\r\n        _buyer[msg.sender] = true;\r\n    }\r\n\r\n//_winTheBid\r\n\r\n    function _winTheBid(uint lastPrice) private{\r\n        uint allItem = 20;\r\n        uint normalItem = 17;\r\n        uint characterIndex = 105;\r\n        uint allAmount = allItem.sub(normalAuctionAmount()).sub(specialAuctionAmount());\r\n        uint randomNumber = (_getRandomNumber() % allAmount).add(1);\r\n        if(randomNumber > (normalItem.sub(normalAuctionAmount()))){\r\n            characterIndex = 106;\r\n            auctionAmount[2].increment();\r\n        }else{\r\n            auctionAmount[1].increment();\r\n        }\r\n        _mintCharacter(msg.sender, characterIndex);\r\n        emit WinTheBid(msg.sender, now, characterIndex, lastPrice);\r\n        auctionPrice[totalAuctionAmount()] = lastPrice;\r\n        totalAuction = totalAuction.add(lastPrice);\r\n        if(lowestPrice > lastPrice){\r\n            lowestPrice = lastPrice;\r\n        }\r\n        if(highestPrice < lastPrice){\r\n            highestPrice = lastPrice;\r\n        }\r\n    }\r\n\r\n//_mint\r\n\r\n    function _mintCharacter(address to, uint characterIndex) private{\r\n        \r\n        bytes32 seed = keccak256(abi.encodePacked(\"NFTs Battle\", now, msg.sender));\r\n        \r\n        uint hpInit = (uint8(seed[0]) * 16 + uint8(seed[1]));\r\n        uint atkInit = (uint8(seed[2]) * 16 + uint8(seed[3]));\r\n        uint defInit = (uint8(seed[4]) * 16 + uint8(seed[5]));\r\n        uint lukInit = (uint8(seed[6]) * 16 + uint8(seed[7]));\r\n\r\n        uint normalization = hpInit.add(atkInit).add(defInit).add(lukInit);\r\n        \r\n        ICharacter.CharacterInfo memory characterInfo = ICharacter.CharacterInfo({\r\n            HPbase: uint8(hpInit.mul(100).div(normalization)),\r\n            ATKbase: uint8(atkInit.mul(100).div(normalization)),\r\n            DEFbase: uint8(defInit.mul(100).div(normalization)),\r\n            LUKbase: uint8(lukInit.mul(100).div(normalization))\r\n        });\r\n\r\n        characterContract.mint(to, characterIndex, characterInfo);\r\n    }\r\n\r\n//onlyOwner\r\n    function setPuase() external onlyOwner{\r\n        _pause();\r\n    }\r\n\r\n    function setUnpuase() external onlyOwner{\r\n        _unpause();\r\n    }\r\n\r\n    function setUsdtContract(IERC20 _usdtContract) external onlyOwner{\r\n        usdtContract = _usdtContract;\r\n    }\r\n\r\n    function setOneWallet(address _wallet) external onlyOwner{\r\n        OneWallet = _wallet;\r\n    }\r\n\r\n    function setTwoWallet(address _wallet) external onlyOwner{\r\n        TwoWallet = _wallet;\r\n    }\r\n\r\n    function setCharacterContract(ICharacter _characterContract) external onlyOwner{\r\n        characterContract = _characterContract;\r\n    }\r\n\r\n    function withdraw() external onlyOwner{\r\n        payable(OneWallet).transfer(address(this).balance);\r\n        usdtContract.transfer(OneWallet, usdtContract.balanceOf(address(this)));\r\n    }\r\n\r\n    function setPriceForUSDT(uint amount) external onlyOwner {\r\n        _priceForUSDT = amount;\r\n    }\r\n\r\n    function setReducePrice(uint amount) external onlyOwner {\r\n        reducePrice = amount;\r\n    }\r\n\r\n    function setReduceTime(uint _time) external onlyOwner {\r\n        reduceTime = _time;\r\n    }\r\n\r\n}",
  "sourcePath": "D:\\Solidity\\Solidity\\DutchAuction\\contracts\\DutchAuction.sol",
  "compiler": {
    "name": "solc",
    "version": "0.6.12+commit.27d51765.Emscripten.clang"
  },
  "schemaVersion": "3.4.4",
  "updatedAt": "2022-07-03T16:02:48.563Z",
  "devdoc": {
    "kind": "dev",
    "methods": {
      "owner()": {
        "details": "Returns the address of the current owner."
      },
      "renounceOwnership()": {
        "details": "Leaves the contract without owner. It will not be possible to call `onlyOwner` functions anymore. Can only be called by the current owner. NOTE: Renouncing ownership will leave the contract without an owner, thereby removing any functionality that is only available to the owner."
      },
      "transferOwnership(address)": {
        "details": "Transfers ownership of the contract to a new account (`newOwner`). Can only be called by the current owner."
      }
    },
    "version": 1
  },
  "userdoc": {
    "kind": "user",
    "methods": {},
    "version": 1
  }
}