{
  "contractName": "Character",
  "abi": [
    {
      "inputs": [],
      "stateMutability": "nonpayable",
      "type": "constructor"
    },
    {
      "anonymous": false,
      "inputs": [
        {
          "indexed": true,
          "internalType": "address",
          "name": "owner",
          "type": "address"
        },
        {
          "indexed": true,
          "internalType": "address",
          "name": "approved",
          "type": "address"
        },
        {
          "indexed": true,
          "internalType": "uint256",
          "name": "tokenId",
          "type": "uint256"
        }
      ],
      "name": "Approval",
      "type": "event"
    },
    {
      "anonymous": false,
      "inputs": [
        {
          "indexed": true,
          "internalType": "address",
          "name": "owner",
          "type": "address"
        },
        {
          "indexed": true,
          "internalType": "address",
          "name": "operator",
          "type": "address"
        },
        {
          "indexed": false,
          "internalType": "bool",
          "name": "approved",
          "type": "bool"
        }
      ],
      "name": "ApprovalForAll",
      "type": "event"
    },
    {
      "anonymous": false,
      "inputs": [
        {
          "indexed": true,
          "internalType": "address",
          "name": "previousOwner",
          "type": "address"
        },
        {
          "indexed": true,
          "internalType": "address",
          "name": "newOwner",
          "type": "address"
        }
      ],
      "name": "OwnershipTransferred",
      "type": "event"
    },
    {
      "anonymous": false,
      "inputs": [
        {
          "indexed": true,
          "internalType": "address",
          "name": "from",
          "type": "address"
        },
        {
          "indexed": true,
          "internalType": "address",
          "name": "to",
          "type": "address"
        },
        {
          "indexed": true,
          "internalType": "uint256",
          "name": "tokenId",
          "type": "uint256"
        }
      ],
      "name": "Transfer",
      "type": "event"
    },
    {
      "inputs": [
        {
          "internalType": "address",
          "name": "to",
          "type": "address"
        },
        {
          "internalType": "uint256",
          "name": "tokenId",
          "type": "uint256"
        }
      ],
      "name": "approve",
      "outputs": [],
      "stateMutability": "nonpayable",
      "type": "function"
    },
    {
      "inputs": [
        {
          "internalType": "address",
          "name": "owner",
          "type": "address"
        }
      ],
      "name": "balanceOf",
      "outputs": [
        {
          "internalType": "uint256",
          "name": "",
          "type": "uint256"
        }
      ],
      "stateMutability": "view",
      "type": "function"
    },
    {
      "inputs": [],
      "name": "baseURI",
      "outputs": [
        {
          "internalType": "string",
          "name": "",
          "type": "string"
        }
      ],
      "stateMutability": "view",
      "type": "function"
    },
    {
      "inputs": [
        {
          "internalType": "address",
          "name": "_miner",
          "type": "address"
        }
      ],
      "name": "delMiner",
      "outputs": [],
      "stateMutability": "nonpayable",
      "type": "function"
    },
    {
      "inputs": [
        {
          "internalType": "uint256",
          "name": "tokenId",
          "type": "uint256"
        }
      ],
      "name": "getApproved",
      "outputs": [
        {
          "internalType": "address",
          "name": "",
          "type": "address"
        }
      ],
      "stateMutability": "view",
      "type": "function"
    },
    {
      "inputs": [
        {
          "internalType": "address",
          "name": "owner",
          "type": "address"
        },
        {
          "internalType": "address",
          "name": "operator",
          "type": "address"
        }
      ],
      "name": "isApprovedForAll",
      "outputs": [
        {
          "internalType": "bool",
          "name": "",
          "type": "bool"
        }
      ],
      "stateMutability": "view",
      "type": "function"
    },
    {
      "inputs": [
        {
          "internalType": "address",
          "name": "",
          "type": "address"
        }
      ],
      "name": "isMiner",
      "outputs": [
        {
          "internalType": "bool",
          "name": "",
          "type": "bool"
        }
      ],
      "stateMutability": "view",
      "type": "function"
    },
    {
      "inputs": [],
      "name": "name",
      "outputs": [
        {
          "internalType": "string",
          "name": "",
          "type": "string"
        }
      ],
      "stateMutability": "view",
      "type": "function"
    },
    {
      "inputs": [],
      "name": "owner",
      "outputs": [
        {
          "internalType": "address",
          "name": "",
          "type": "address"
        }
      ],
      "stateMutability": "view",
      "type": "function"
    },
    {
      "inputs": [
        {
          "internalType": "uint256",
          "name": "tokenId",
          "type": "uint256"
        }
      ],
      "name": "ownerOf",
      "outputs": [
        {
          "internalType": "address",
          "name": "",
          "type": "address"
        }
      ],
      "stateMutability": "view",
      "type": "function"
    },
    {
      "inputs": [],
      "name": "renounceOwnership",
      "outputs": [],
      "stateMutability": "nonpayable",
      "type": "function"
    },
    {
      "inputs": [
        {
          "internalType": "address",
          "name": "from",
          "type": "address"
        },
        {
          "internalType": "address",
          "name": "to",
          "type": "address"
        },
        {
          "internalType": "uint256",
          "name": "tokenId",
          "type": "uint256"
        }
      ],
      "name": "safeTransferFrom",
      "outputs": [],
      "stateMutability": "nonpayable",
      "type": "function"
    },
    {
      "inputs": [
        {
          "internalType": "address",
          "name": "from",
          "type": "address"
        },
        {
          "internalType": "address",
          "name": "to",
          "type": "address"
        },
        {
          "internalType": "uint256",
          "name": "tokenId",
          "type": "uint256"
        },
        {
          "internalType": "bytes",
          "name": "_data",
          "type": "bytes"
        }
      ],
      "name": "safeTransferFrom",
      "outputs": [],
      "stateMutability": "nonpayable",
      "type": "function"
    },
    {
      "inputs": [
        {
          "internalType": "address",
          "name": "operator",
          "type": "address"
        },
        {
          "internalType": "bool",
          "name": "approved",
          "type": "bool"
        }
      ],
      "name": "setApprovalForAll",
      "outputs": [],
      "stateMutability": "nonpayable",
      "type": "function"
    },
    {
      "inputs": [
        {
          "internalType": "address",
          "name": "_miner",
          "type": "address"
        }
      ],
      "name": "setMiner",
      "outputs": [],
      "stateMutability": "nonpayable",
      "type": "function"
    },
    {
      "inputs": [
        {
          "internalType": "bytes4",
          "name": "interfaceId",
          "type": "bytes4"
        }
      ],
      "name": "supportsInterface",
      "outputs": [
        {
          "internalType": "bool",
          "name": "",
          "type": "bool"
        }
      ],
      "stateMutability": "view",
      "type": "function"
    },
    {
      "inputs": [],
      "name": "symbol",
      "outputs": [
        {
          "internalType": "string",
          "name": "",
          "type": "string"
        }
      ],
      "stateMutability": "view",
      "type": "function"
    },
    {
      "inputs": [
        {
          "internalType": "uint256",
          "name": "index",
          "type": "uint256"
        }
      ],
      "name": "tokenByIndex",
      "outputs": [
        {
          "internalType": "uint256",
          "name": "",
          "type": "uint256"
        }
      ],
      "stateMutability": "view",
      "type": "function"
    },
    {
      "inputs": [
        {
          "internalType": "address",
          "name": "owner",
          "type": "address"
        },
        {
          "internalType": "uint256",
          "name": "index",
          "type": "uint256"
        }
      ],
      "name": "tokenOfOwnerByIndex",
      "outputs": [
        {
          "internalType": "uint256",
          "name": "",
          "type": "uint256"
        }
      ],
      "stateMutability": "view",
      "type": "function"
    },
    {
      "inputs": [],
      "name": "totalSupply",
      "outputs": [
        {
          "internalType": "uint256",
          "name": "",
          "type": "uint256"
        }
      ],
      "stateMutability": "view",
      "type": "function"
    },
    {
      "inputs": [
        {
          "internalType": "address",
          "name": "from",
          "type": "address"
        },
        {
          "internalType": "address",
          "name": "to",
          "type": "address"
        },
        {
          "internalType": "uint256",
          "name": "tokenId",
          "type": "uint256"
        }
      ],
      "name": "transferFrom",
      "outputs": [],
      "stateMutability": "nonpayable",
      "type": "function"
    },
    {
      "inputs": [
        {
          "internalType": "address",
          "name": "newOwner",
          "type": "address"
        }
      ],
      "name": "transferOwnership",
      "outputs": [],
      "stateMutability": "nonpayable",
      "type": "function"
    },
    {
      "inputs": [
        {
          "internalType": "uint256",
          "name": "characterIndex",
          "type": "uint256"
        }
      ],
      "name": "characterCount",
      "outputs": [
        {
          "internalType": "uint256",
          "name": "",
          "type": "uint256"
        }
      ],
      "stateMutability": "view",
      "type": "function"
    },
    {
      "inputs": [
        {
          "internalType": "uint256",
          "name": "tokenId",
          "type": "uint256"
        }
      ],
      "name": "tokenInfo",
      "outputs": [
        {
          "components": [
            {
              "internalType": "uint8",
              "name": "HPbase",
              "type": "uint8"
            },
            {
              "internalType": "uint8",
              "name": "ATKbase",
              "type": "uint8"
            },
            {
              "internalType": "uint8",
              "name": "DEFbase",
              "type": "uint8"
            },
            {
              "internalType": "uint8",
              "name": "LUKbase",
              "type": "uint8"
            }
          ],
          "internalType": "struct Character.CharacterInfo",
          "name": "",
          "type": "tuple"
        }
      ],
      "stateMutability": "view",
      "type": "function"
    },
    {
      "inputs": [
        {
          "internalType": "uint256",
          "name": "tokenId",
          "type": "uint256"
        }
      ],
      "name": "tokenId2Character",
      "outputs": [
        {
          "internalType": "uint256",
          "name": "",
          "type": "uint256"
        }
      ],
      "stateMutability": "view",
      "type": "function"
    },
    {
      "inputs": [
        {
          "internalType": "address",
          "name": "recipient",
          "type": "address"
        },
        {
          "internalType": "uint256",
          "name": "characterIndex",
          "type": "uint256"
        },
        {
          "components": [
            {
              "internalType": "uint8",
              "name": "HPbase",
              "type": "uint8"
            },
            {
              "internalType": "uint8",
              "name": "ATKbase",
              "type": "uint8"
            },
            {
              "internalType": "uint8",
              "name": "DEFbase",
              "type": "uint8"
            },
            {
              "internalType": "uint8",
              "name": "LUKbase",
              "type": "uint8"
            }
          ],
          "internalType": "struct Character.CharacterInfo",
          "name": "characterInfo",
          "type": "tuple"
        }
      ],
      "name": "mint",
      "outputs": [],
      "stateMutability": "nonpayable",
      "type": "function"
    },
    {
      "inputs": [
        {
          "internalType": "uint256",
          "name": "tokenId",
          "type": "uint256"
        }
      ],
      "name": "burn",
      "outputs": [],
      "stateMutability": "nonpayable",
      "type": "function"
    },
    {
      "inputs": [
        {
          "internalType": "uint256",
          "name": "characterIndex",
          "type": "uint256"
        }
      ],
      "name": "characterURI",
      "outputs": [
        {
          "internalType": "string",
          "name": "",
          "type": "string"
        }
      ],
      "stateMutability": "view",
      "type": "function"
    },
    {
      "inputs": [
        {
          "internalType": "uint256",
          "name": "tokenId",
          "type": "uint256"
        }
      ],
      "name": "tokenURI",
      "outputs": [
        {
          "internalType": "string",
          "name": "",
          "type": "string"
        }
      ],
      "stateMutability": "view",
      "type": "function"
    },
    {
      "inputs": [
        {
          "internalType": "string",
          "name": "URI",
          "type": "string"
        }
      ],
      "name": "setBaseURI",
      "outputs": [],
      "stateMutability": "nonpayable",
      "type": "function"
    },
    {
      "inputs": [
        {
          "internalType": "uint256",
          "name": "characterIndex",
          "type": "uint256"
        },
        {
          "internalType": "string",
          "name": "URI",
          "type": "string"
        }
      ],
      "name": "setCharacterURI",
      "outputs": [],
      "stateMutability": "nonpayable",
      "type": "function"
    }
  ],
  "bytecode": "0x60806040523480156200001157600080fd5b506040518060400160405280601581526020017f4e46547320426174746c65204368617261637465720000000000000000000000815250604051806040016040528060078152602001664e46544845524f60c81b81525060006200007a6200014b60201b60201c565b600080546001600160a01b0319166001600160a01b0383169081178255604051929350917f8be0079c531659141344cd1fd0a4f28419497f9722a3daafe3b4186f6b6457e0908290a350620000cf336200014f565b620000e16301ffc9a760e01b620001c5565b8151620000f690600890602085019062000226565b5080516200010c90600990602084019062000226565b506200011f6380ac58cd60e01b620001c5565b62000131635b5e139f60e01b620001c5565b6200014363780e9d6360e01b620001c5565b50506200032e565b3390565b620001596200014b565b6001600160a01b03166200016c62000217565b6001600160a01b0316146200019e5760405162461bcd60e51b81526004016200019590620002f9565b60405180910390fd5b6001600160a01b03166000908152600160208190526040909120805460ff19169091179055565b6001600160e01b03198082161415620001f25760405162461bcd60e51b81526004016200019590620002c2565b6001600160e01b0319166000908152600260205260409020805460ff19166001179055565b6000546001600160a01b031690565b828054600181600116156101000203166002900490600052602060002090601f016020900481019282601f106200026957805160ff191683800117855562000299565b8280016001018555821562000299579182015b82811115620002995782518255916020019190600101906200027c565b50620002a7929150620002ab565b5090565b5b80821115620002a75760008155600101620002ac565b6020808252601c908201527f4552433136353a20696e76616c696420696e7465726661636520696400000000604082015260600190565b6020808252818101527f4f776e61626c653a2063616c6c6572206973206e6f7420746865206f776e6572604082015260600190565b612638806200033e6000396000f3fe608060405234801561001057600080fd5b50600436106101e55760003560e01c8063701b70ac1161010f578063a22cb465116100a2578063cc33c87511610071578063cc33c875146103e8578063dfa2a23314610408578063e985e9c51461041b578063f2fde38b1461042e576101e5565b8063a22cb4651461039c578063ab5f76bf146103af578063b88d4fde146103c2578063c87b56dd146103d5576101e5565b80638da5cb5b116100de5780638da5cb5b1461036657806395d89b411461036e57806396340a6e146103765780639742ca4614610389576101e5565b8063701b70ac1461032557806370a0823114610338578063715018a61461034b578063761aa68614610353576101e5565b80632f745c59116101875780634f6ccce7116101565780634f6ccce7146102e457806355f804b3146102f75780636352211e1461030a5780636c0360eb1461031d576101e5565b80632f745c591461029857806342842e0e146102ab57806342966c68146102be578063451ec35d146102d1576101e5565b8063095ea7b3116101c3578063095ea7b3146102485780630c8bbc321461025d57806318160ddd1461027d57806323b872dd14610285576101e5565b806301ffc9a7146101ea57806306fdde0314610213578063081812fc14610228575b600080fd5b6101fd6101f8366004611d78565b610441565b60405161020a9190611f08565b60405180910390f35b61021b610464565b60405161020a9190611f13565b61023b610236366004611de3565b6104fa565b60405161020a9190611eb7565b61025b610256366004611cba565b610546565b005b61027061026b366004611de3565b6105de565b60405161020a9190612520565b6102706105fb565b61025b610293366004611bd7565b61060c565b6102706102a6366004611cba565b610644565b61025b6102b9366004611bd7565b61066d565b61025b6102cc366004611de3565b610688565b61025b6102df366004611b88565b6106c4565b6102706102f2366004611de3565b610724565b61025b610305366004611db0565b61073a565b61023b610318366004611de3565b610782565b61021b6107aa565b6101fd610333366004611b88565b61080b565b610270610346366004611b88565b610820565b61025b610869565b61025b610361366004611ce4565b6108f2565b61023b6109de565b61021b6109ed565b61021b610384366004611de3565b610a4e565b61025b610397366004611b88565b610aef565b61025b6103aa366004611c7f565b610b55565b6102706103bd366004611de3565b610c23565b61025b6103d0366004611c17565b610c35565b61021b6103e3366004611de3565b610c6e565b6103fb6103f6366004611de3565b610d42565b60405161020a91906124e4565b61025b610416366004611dfb565b610d9c565b6101fd610429366004611ba3565b610dfa565b61025b61043c366004611b88565b610e28565b6001600160e01b0319811660009081526002602052604090205460ff165b919050565b60088054604080516020601f60026000196101006001881615020190951694909404938401819004810282018101909252828152606093909290918301828280156104f05780601f106104c5576101008083540402835291602001916104f0565b820191906000526020600020905b8154815290600101906020018083116104d357829003601f168201915b5050505050905090565b600061050582610ee8565b61052a5760405162461bcd60e51b8152600401610521906122cb565b60405180910390fd5b506000908152600660205260409020546001600160a01b031690565b600061055182610782565b9050806001600160a01b0316836001600160a01b031614156105855760405162461bcd60e51b8152600401610521906123e4565b806001600160a01b0316610597610ef5565b6001600160a01b031614806105b357506105b381610429610ef5565b6105cf5760405162461bcd60e51b81526004016105219061216c565b6105d98383610ef9565b505050565b6000818152600e602052604081206105f590610f67565b92915050565b60006106076004610f6b565b905090565b61061d610617610ef5565b82610f76565b6106395760405162461bcd60e51b815260040161052190612425565b6105d9838383610ffb565b6001600160a01b03821660009081526003602052604081206106669083611109565b9392505050565b6105d983838360405180602001604052806000815250610c35565b3361069282610782565b6001600160a01b0316146106b85760405162461bcd60e51b815260040161052190612476565b6106c181611115565b50565b6106cc610ef5565b6001600160a01b03166106dd6109de565b6001600160a01b0316146107035760405162461bcd60e51b815260040161052190612317565b6001600160a01b03166000908152600160205260409020805460ff19169055565b6000806107326004846111e2565b509392505050565b610742610ef5565b6001600160a01b03166107536109de565b6001600160a01b0316146107795760405162461bcd60e51b815260040161052190612317565b6106c1816111fe565b60006105f5826040518060600160405280602981526020016125da6029913960049190611215565b600b8054604080516020601f60026000196101006001881615020190951694909404938401819004810282018101909252828152606093909290918301828280156104f05780601f106104c5576101008083540402835291602001916104f0565b60016020526000908152604090205460ff1681565b60006001600160a01b0382166108485760405162461bcd60e51b8152600401610521906121c9565b6001600160a01b03821660009081526003602052604090206105f590610f6b565b610871610ef5565b6001600160a01b03166108826109de565b6001600160a01b0316146108a85760405162461bcd60e51b815260040161052190612317565b600080546040516001600160a01b03909116907f8be0079c531659141344cd1fd0a4f28419497f9722a3daafe3b4186f6b6457e0908390a3600080546001600160a01b0319169055565b3360009081526001602052604090205460ff166109215760405162461bcd60e51b815260040161052190611f68565b600061094161092f846105de565b61093b856103e8611222565b9061125c565b6000818152600c6020908152604080832086518154888501518985015160608b015160ff1990931660ff9485161761ff001916610100928516929092029190911762ff0000191662010000918416919091021763ff000000191663010000009290911691909102179055600d909152902084905590506109c18482611281565b6000838152600e602052604090206109d890611345565b50505050565b6000546001600160a01b031690565b60098054604080516020601f60026000196101006001881615020190951694909404938401819004810282018101909252828152606093909290918301828280156104f05780601f106104c5576101008083540402835291602001916104f0565b6000818152600f602090815260409182902080548351601f6002600019610100600186161502019093169290920491820184900484028101840190945280845260609392830182828015610ae35780601f10610ab857610100808354040283529160200191610ae3565b820191906000526020600020905b815481529060010190602001808311610ac657829003601f168201915b50505050509050919050565b610af7610ef5565b6001600160a01b0316610b086109de565b6001600160a01b031614610b2e5760405162461bcd60e51b815260040161052190612317565b6001600160a01b03166000908152600160208190526040909120805460ff19169091179055565b610b5d610ef5565b6001600160a01b0316826001600160a01b03161415610b8e5760405162461bcd60e51b8152600401610521906120e9565b8060076000610b9b610ef5565b6001600160a01b03908116825260208083019390935260409182016000908120918716808252919093529120805460ff191692151592909217909155610bdf610ef5565b6001600160a01b03167f17307eab39ab6107e8899845ad3d59bd9653f200f220920489ca2b5937696c3183604051610c179190611f08565b60405180910390a35050565b6000908152600d602052604090205490565b610c46610c40610ef5565b83610f76565b610c625760405162461bcd60e51b815260040161052190612425565b6109d88484848461134e565b6060610c7982610ee8565b610c955760405162461bcd60e51b815260040161052190612395565b6000610ca083610c23565b90506060610cac6107aa565b9050805160001415610cca57610cc182610a4e565b9250505061045f565b6000610cd583610a4e565b511115610d0f5780610ce683610a4e565b604051602001610cf7929190611e88565b6040516020818303038152906040529250505061045f565b80610d1985611381565b604051602001610d2a929190611e88565b60405160208183030381529060405292505050919050565b610d4a6119fd565b506000908152600c60209081526040918290208251608081018452905460ff80821683526101008204811693830193909352620100008104831693820193909352630100000090920416606082015290565b610da4610ef5565b6001600160a01b0316610db56109de565b6001600160a01b031614610ddb5760405162461bcd60e51b815260040161052190612317565b6000828152600f6020908152604090912082516105d992840190611a24565b6001600160a01b03918216600090815260076020908152604080832093909416825291909152205460ff1690565b610e30610ef5565b6001600160a01b0316610e416109de565b6001600160a01b031614610e675760405162461bcd60e51b815260040161052190612317565b6001600160a01b038116610e8d5760405162461bcd60e51b815260040161052190611ff1565b600080546040516001600160a01b03808516939216917f8be0079c531659141344cd1fd0a4f28419497f9722a3daafe3b4186f6b6457e091a3600080546001600160a01b0319166001600160a01b0392909216919091179055565b60006105f560048361145c565b3390565b600081815260066020526040902080546001600160a01b0319166001600160a01b0384169081179091558190610f2e82610782565b6001600160a01b03167f8c5be1e5ebec7d5bd14f71427d1e84f3dd0314c0f7b2291e5b200ac8c7c3b92560405160405180910390a45050565b5490565b60006105f582610f67565b6000610f8182610ee8565b610f9d5760405162461bcd60e51b815260040161052190612120565b6000610fa883610782565b9050806001600160a01b0316846001600160a01b03161480610fe35750836001600160a01b0316610fd8846104fa565b6001600160a01b0316145b80610ff35750610ff38185610dfa565b949350505050565b826001600160a01b031661100e82610782565b6001600160a01b0316146110345760405162461bcd60e51b81526004016105219061234c565b6001600160a01b03821661105a5760405162461bcd60e51b8152600401610521906120a5565b6110658383836105d9565b611070600082610ef9565b6001600160a01b03831660009081526003602052604090206110929082611468565b506001600160a01b03821660009081526003602052604090206110b59082611474565b506110c260048284611480565b5080826001600160a01b0316846001600160a01b03167fddf252ad1be2c89b69c2b068fc378daa952ba7f163c4a11628f55a4df523b3ef60405160405180910390a4505050565b60006106668383611496565b600061112082610782565b905061112e816000846105d9565b611139600083610ef9565b6000828152600a60205260409020546002600019610100600184161502019091160415611177576000828152600a6020526040812061117791611aa2565b6001600160a01b03811660009081526003602052604090206111999083611468565b506111a56004836114db565b5060405182906000906001600160a01b038416907fddf252ad1be2c89b69c2b068fc378daa952ba7f163c4a11628f55a4df523b3ef908390a45050565b60008080806111f186866114e7565b9097909650945050505050565b805161121190600b906020840190611a24565b5050565b6000610ff3848484611543565b600082611231575060006105f5565b8282028284828161123e57fe5b04146106665760405162461bcd60e51b81526004016105219061228a565b6000828201838110156106665760405162461bcd60e51b81526004016105219061206e565b6001600160a01b0382166112a75760405162461bcd60e51b815260040161052190612255565b6112b081610ee8565b156112cd5760405162461bcd60e51b815260040161052190612037565b6112d9600083836105d9565b6001600160a01b03821660009081526003602052604090206112fb9082611474565b5061130860048284611480565b5060405181906001600160a01b038416906000907fddf252ad1be2c89b69c2b068fc378daa952ba7f163c4a11628f55a4df523b3ef908290a45050565b80546001019055565b611359848484610ffb565b611365848484846115a2565b6109d85760405162461bcd60e51b815260040161052190611f9f565b6060816113a657506040805180820190915260018152600360fc1b602082015261045f565b8160005b81156113be57600101600a820491506113aa565b60608167ffffffffffffffff811180156113d757600080fd5b506040519080825280601f01601f191660200182016040528015611402576020820181803683370190505b50859350905060001982015b831561145357600a840660300160f81b8282806001900393508151811061143157fe5b60200101906001600160f81b031916908160001a905350600a8404935061140e565b50949350505050565b60006106668383611681565b60006106668383611699565b6000610666838361175f565b6000610ff384846001600160a01b0385166117a9565b815460009082106114b95760405162461bcd60e51b815260040161052190611f26565b8260000182815481106114c857fe5b9060005260206000200154905092915050565b60006106668383611840565b81546000908190831061150c5760405162461bcd60e51b815260040161052190612213565b600084600001848154811061151d57fe5b906000526020600020906002020190508060000154816001015492509250509250929050565b600082815260018401602052604081205482816115735760405162461bcd60e51b81526004016105219190611f13565b5084600001600182038154811061158657fe5b9060005260206000209060020201600101549150509392505050565b60006115b6846001600160a01b0316611914565b6115c257506001610ff3565b606061164a630a85bd0160e11b6115d7610ef5565b8887876040516024016115ed9493929190611ecb565b604051602081830303815290604052906001600160e01b0319166020820180516001600160e01b0383818316178352505050506040518060600160405280603281526020016125a8603291396001600160a01b038816919061191a565b90506000818060200190518101906116629190611d94565b6001600160e01b031916630a85bd0160e11b1492505050949350505050565b60009081526001919091016020526040902054151590565b6000818152600183016020526040812054801561175557835460001980830191908101906000908790839081106116cc57fe5b90600052602060002001549050808760000184815481106116e957fe5b60009182526020808320909101929092558281526001898101909252604090209084019055865487908061171957fe5b600190038181906000526020600020016000905590558660010160008781526020019081526020016000206000905560019450505050506105f5565b60009150506105f5565b600061176b8383611681565b6117a1575081546001818101845560008481526020808220909301849055845484825282860190935260409020919091556105f5565b5060006105f5565b60008281526001840160205260408120548061180e575050604080518082018252838152602080820184815286546001818101895560008981528481209551600290930290950191825591519082015586548684528188019092529290912055610666565b8285600001600183038154811061182157fe5b9060005260206000209060020201600101819055506000915050610666565b60008181526001830160205260408120548015611755578354600019808301919081019060009087908390811061187357fe5b906000526020600020906002020190508087600001848154811061189357fe5b6000918252602080832084546002909302019182556001938401549184019190915583548252898301905260409020908401905586548790806118d257fe5b60008281526020808220600260001990940193840201828155600190810183905592909355888152898201909252604082209190915594506105f59350505050565b3b151590565b6060610ff384846000858561192e85611914565b61194a5760405162461bcd60e51b8152600401610521906124ad565b60006060866001600160a01b031685876040516119679190611e6c565b60006040518083038185875af1925050503d80600081146119a4576040519150601f19603f3d011682016040523d82523d6000602084013e6119a9565b606091505b50915091506119b98282866119c4565b979650505050505050565b606083156119d3575081610666565b8251156119e35782518084602001fd5b8160405162461bcd60e51b81526004016105219190611f13565b60408051608081018252600080825260208201819052918101829052606081019190915290565b828054600181600116156101000203166002900490600052602060002090601f016020900481019282601f10611a6557805160ff1916838001178555611a92565b82800160010185558215611a92579182015b82811115611a92578251825591602001919060010190611a77565b50611a9e929150611ae2565b5090565b50805460018160011615610100020316600290046000825580601f10611ac857506106c1565b601f0160209004906000526020600020908101906106c191905b5b80821115611a9e5760008155600101611ae3565b80356001600160a01b03811681146105f557600080fd5b600082601f830112611b1e578081fd5b813567ffffffffffffffff811115611b34578182fd5b611b47601f8201601f1916602001612529565b9150808252836020828501011115611b5e57600080fd5b8060208401602084013760009082016020015292915050565b803560ff811681146105f557600080fd5b600060208284031215611b99578081fd5b6106668383611af7565b60008060408385031215611bb5578081fd5b611bbf8484611af7565b9150611bce8460208501611af7565b90509250929050565b600080600060608486031215611beb578081fd5b8335611bf68161257c565b92506020840135611c068161257c565b929592945050506040919091013590565b60008060008060808587031215611c2c578081fd5b611c368686611af7565b9350611c458660208701611af7565b925060408501359150606085013567ffffffffffffffff811115611c67578182fd5b611c7387828801611b0e565b91505092959194509250565b60008060408385031215611c91578182fd5b611c9b8484611af7565b915060208301358015158114611caf578182fd5b809150509250929050565b60008060408385031215611ccc578182fd5b611cd68484611af7565b946020939093013593505050565b600080600083850360c0811215611cf9578384fd5b611d038686611af7565b9350602085013592506080603f1982011215611d1d578182fd5b50611d286080612529565b611d358660408701611b77565b8152611d448660608701611b77565b6020820152611d568660808701611b77565b6040820152611d688660a08701611b77565b6060820152809150509250925092565b600060208284031215611d89578081fd5b813561066681612591565b600060208284031215611da5578081fd5b815161066681612591565b600060208284031215611dc1578081fd5b813567ffffffffffffffff811115611dd7578182fd5b610ff384828501611b0e565b600060208284031215611df4578081fd5b5035919050565b60008060408385031215611e0d578182fd5b82359150602083013567ffffffffffffffff811115611e2a578182fd5b611e3685828601611b0e565b9150509250929050565b60008151808452611e58816020860160208601612550565b601f01601f19169290920160200192915050565b60008251611e7e818460208701612550565b9190910192915050565b60008351611e9a818460208801612550565b835190830190611eae818360208801612550565b01949350505050565b6001600160a01b0391909116815260200190565b6001600160a01b0385811682528416602082015260408101839052608060608201819052600090611efe90830184611e40565b9695505050505050565b901515815260200190565b6000602082526106666020830184611e40565b60208082526022908201527f456e756d657261626c655365743a20696e646578206f7574206f6620626f756e604082015261647360f01b606082015260800190565b6020808252601d908201527f4d696e653a2063616c6c6572206973206e6f7420746865206d696e6572000000604082015260600190565b60208082526032908201527f4552433732313a207472616e7366657220746f206e6f6e20455243373231526560408201527131b2b4bb32b91034b6b83632b6b2b73a32b960711b606082015260800190565b60208082526026908201527f4f776e61626c653a206e6577206f776e657220697320746865207a65726f206160408201526564647265737360d01b606082015260800190565b6020808252601c908201527f4552433732313a20746f6b656e20616c7265616479206d696e74656400000000604082015260600190565b6020808252601b908201527f536166654d6174683a206164646974696f6e206f766572666c6f770000000000604082015260600190565b60208082526024908201527f4552433732313a207472616e7366657220746f20746865207a65726f206164646040820152637265737360e01b606082015260800190565b60208082526019908201527f4552433732313a20617070726f766520746f2063616c6c657200000000000000604082015260600190565b6020808252602c908201527f4552433732313a206f70657261746f7220717565727920666f72206e6f6e657860408201526b34b9ba32b73a103a37b5b2b760a11b606082015260800190565b60208082526038908201527f4552433732313a20617070726f76652063616c6c6572206973206e6f74206f7760408201527f6e6572206e6f7220617070726f76656420666f7220616c6c0000000000000000606082015260800190565b6020808252602a908201527f4552433732313a2062616c616e636520717565727920666f7220746865207a65604082015269726f206164647265737360b01b606082015260800190565b60208082526022908201527f456e756d657261626c654d61703a20696e646578206f7574206f6620626f756e604082015261647360f01b606082015260800190565b6020808252818101527f4552433732313a206d696e7420746f20746865207a65726f2061646472657373604082015260600190565b60208082526021908201527f536166654d6174683a206d756c7469706c69636174696f6e206f766572666c6f6040820152607760f81b606082015260800190565b6020808252602c908201527f4552433732313a20617070726f76656420717565727920666f72206e6f6e657860408201526b34b9ba32b73a103a37b5b2b760a11b606082015260800190565b6020808252818101527f4f776e61626c653a2063616c6c6572206973206e6f7420746865206f776e6572604082015260600190565b60208082526029908201527f4552433732313a207472616e73666572206f6620746f6b656e2074686174206960408201526839903737ba1037bbb760b91b606082015260800190565b6020808252602f908201527f4552433732314d657461646174613a2055524920717565727920666f72206e6f60408201526e3732bc34b9ba32b73a103a37b5b2b760891b606082015260800190565b60208082526021908201527f4552433732313a20617070726f76616c20746f2063757272656e74206f776e656040820152603960f91b606082015260800190565b60208082526031908201527f4552433732313a207472616e736665722063616c6c6572206973206e6f74206f6040820152701ddb995c881b9bdc88185c1c1c9bdd9959607a1b606082015260800190565b6020808252601c908201527f596f7520617265206e6f74207468697320746f6b656e206f776e657200000000604082015260600190565b6020808252601d908201527f416464726573733a2063616c6c20746f206e6f6e2d636f6e7472616374000000604082015260600190565b600060808201905060ff835116825260ff602084015116602083015260ff604084015116604083015260ff606084015116606083015292915050565b90815260200190565b60405181810167ffffffffffffffff8111828210171561254857600080fd5b604052919050565b60005b8381101561256b578181015183820152602001612553565b838111156109d85750506000910152565b6001600160a01b03811681146106c157600080fd5b6001600160e01b0319811681146106c157600080fdfe4552433732313a207472616e7366657220746f206e6f6e20455243373231526563656976657220696d706c656d656e7465724552433732313a206f776e657220717565727920666f72206e6f6e6578697374656e7420746f6b656ea2646970667358221220c79da564d46e749048fb4101ffef4d0d30c3b60cc05ee7d162e8a7911598047364736f6c634300060c0033",
  "immutableReferences": {},
  "source": "// SPDX-License-Identifier: MIT\npragma solidity ^0.6.0;\npragma experimental ABIEncoderV2;\n\nimport './Miner.sol';\nimport \"@openzeppelin/contracts/utils/Counters.sol\";\nimport \"@openzeppelin/contracts/token/ERC721/ERC721.sol\";\n\ncontract Character is Miner, ERC721 {\n    using Counters for Counters.Counter;\n\n    struct CharacterInfo{\n        uint8 HPbase;\n        uint8 ATKbase;\n        uint8 DEFbase;\n        uint8 LUKbase;\n    }\n\n    mapping (uint => CharacterInfo) private _characterInfo;\n    mapping (uint => uint) private _characterIndex; //tokenId => characterIndex\n    \n    mapping (uint => Counters.Counter) private _nftCount; //characterIndex => count\n    mapping (uint => string) private _characterURI; //characterIndex => URI;\n\n    constructor() public ERC721(\"NFTs Battle Character\", \"NFTHERO\") {}\n\n    function characterCount(uint characterIndex) public view returns(uint){\n        return _nftCount[characterIndex].current();\n    }\n\n    function tokenInfo(uint tokenId) public view returns(CharacterInfo memory){\n        return _characterInfo[tokenId];\n    }\n\n    function tokenId2Character(uint tokenId) public view returns(uint){\n        return _characterIndex[tokenId];\n    }\n\n    function mint(\n        address recipient,\n        uint characterIndex,\n        CharacterInfo memory characterInfo\n    ) external onlyMiner{\n\n        uint tokenId = characterIndex.mul(1000).add(characterCount(characterIndex));\n        \n        _characterInfo[tokenId] = characterInfo;\n        _characterIndex[tokenId] = characterIndex;\n        _mint(recipient, tokenId);\n        _nftCount[characterIndex].increment();\n    }\n\n    function burn(uint tokenId) external{\n        require(ownerOf(tokenId) == msg.sender, \"You are not this token owner\");\n        _burn(tokenId);\n    }\n\n    function characterURI(uint characterIndex) public view returns(string memory) {\n        return _characterURI[characterIndex];\n    }\n\n    function tokenURI(uint256 tokenId) public view override returns (string memory) {\n        require(_exists(tokenId), \"ERC721Metadata: URI query for nonexistent token\");\n        uint characterIndex = tokenId2Character(tokenId);\n\n        string memory base = baseURI();\n        \n        // If there is no base URI, return the character URI.\n        if (bytes(base).length == 0) {\n            return characterURI(characterIndex);\n        }\n        // If both are set, concatenate the baseURI and characterURI (via abi.encodePacked).\n        if (bytes(characterURI(characterIndex)).length > 0) {\n            return string(abi.encodePacked(base, characterURI(characterIndex)));\n        }\n        // If there is a baseURI but no characterURI, concatenate the tokenID to the baseURI.\n        return string(abi.encodePacked(base, tokenId.toString()));\n    }\n\n    function setBaseURI(string memory URI) external onlyOwner{\n        _setBaseURI(URI);\n    }\n\n    function setCharacterURI(uint characterIndex, string memory URI) external onlyOwner{\n        _characterURI[characterIndex] = URI;\n    }\n}",
  "sourcePath": "D:\\Solidity\\Solidity\\lottery\\contracts\\Character.sol",
  "compiler": {
    "name": "solc",
    "version": "0.6.12+commit.27d51765.Emscripten.clang"
  },
  "schemaVersion": "3.4.4",
  "updatedAt": "2022-07-03T15:51:28.198Z",
  "devdoc": {
    "kind": "dev",
    "methods": {
      "approve(address,uint256)": {
        "details": "See {IERC721-approve}."
      },
      "balanceOf(address)": {
        "details": "See {IERC721-balanceOf}."
      },
      "baseURI()": {
        "details": "Returns the base URI set via {_setBaseURI}. This will be automatically added as a prefix in {tokenURI} to each token's URI, or to the token ID if no specific URI is set for that token ID."
      },
      "getApproved(uint256)": {
        "details": "See {IERC721-getApproved}."
      },
      "isApprovedForAll(address,address)": {
        "details": "See {IERC721-isApprovedForAll}."
      },
      "name()": {
        "details": "See {IERC721Metadata-name}."
      },
      "owner()": {
        "details": "Returns the address of the current owner."
      },
      "ownerOf(uint256)": {
        "details": "See {IERC721-ownerOf}."
      },
      "renounceOwnership()": {
        "details": "Leaves the contract without owner. It will not be possible to call `onlyOwner` functions anymore. Can only be called by the current owner. NOTE: Renouncing ownership will leave the contract without an owner, thereby removing any functionality that is only available to the owner."
      },
      "safeTransferFrom(address,address,uint256)": {
        "details": "See {IERC721-safeTransferFrom}."
      },
      "safeTransferFrom(address,address,uint256,bytes)": {
        "details": "See {IERC721-safeTransferFrom}."
      },
      "setApprovalForAll(address,bool)": {
        "details": "See {IERC721-setApprovalForAll}."
      },
      "supportsInterface(bytes4)": {
        "details": "See {IERC165-supportsInterface}. Time complexity O(1), guaranteed to always use less than 30 000 gas."
      },
      "symbol()": {
        "details": "See {IERC721Metadata-symbol}."
      },
      "tokenByIndex(uint256)": {
        "details": "See {IERC721Enumerable-tokenByIndex}."
      },
      "tokenOfOwnerByIndex(address,uint256)": {
        "details": "See {IERC721Enumerable-tokenOfOwnerByIndex}."
      },
      "tokenURI(uint256)": {
        "details": "See {IERC721Metadata-tokenURI}."
      },
      "totalSupply()": {
        "details": "See {IERC721Enumerable-totalSupply}."
      },
      "transferFrom(address,address,uint256)": {
        "details": "See {IERC721-transferFrom}."
      },
      "transferOwnership(address)": {
        "details": "Transfers ownership of the contract to a new account (`newOwner`). Can only be called by the current owner."
      }
    },
    "version": 1
  },
  "userdoc": {
    "kind": "user",
    "methods": {},
    "version": 1
  }
}