{
  "contractName": "Chest",
  "abi": [
    {
      "inputs": [],
      "stateMutability": "nonpayable",
      "type": "constructor"
    },
    {
      "anonymous": false,
      "inputs": [
        {
          "indexed": true,
          "internalType": "address",
          "name": "account",
          "type": "address"
        },
        {
          "indexed": true,
          "internalType": "address",
          "name": "operator",
          "type": "address"
        },
        {
          "indexed": false,
          "internalType": "bool",
          "name": "approved",
          "type": "bool"
        }
      ],
      "name": "ApprovalForAll",
      "type": "event"
    },
    {
      "anonymous": false,
      "inputs": [
        {
          "indexed": true,
          "internalType": "address",
          "name": "previousOwner",
          "type": "address"
        },
        {
          "indexed": true,
          "internalType": "address",
          "name": "newOwner",
          "type": "address"
        }
      ],
      "name": "OwnershipTransferred",
      "type": "event"
    },
    {
      "anonymous": false,
      "inputs": [
        {
          "indexed": true,
          "internalType": "address",
          "name": "operator",
          "type": "address"
        },
        {
          "indexed": true,
          "internalType": "address",
          "name": "from",
          "type": "address"
        },
        {
          "indexed": true,
          "internalType": "address",
          "name": "to",
          "type": "address"
        },
        {
          "indexed": false,
          "internalType": "uint256[]",
          "name": "ids",
          "type": "uint256[]"
        },
        {
          "indexed": false,
          "internalType": "uint256[]",
          "name": "values",
          "type": "uint256[]"
        }
      ],
      "name": "TransferBatch",
      "type": "event"
    },
    {
      "anonymous": false,
      "inputs": [
        {
          "indexed": true,
          "internalType": "address",
          "name": "operator",
          "type": "address"
        },
        {
          "indexed": true,
          "internalType": "address",
          "name": "from",
          "type": "address"
        },
        {
          "indexed": true,
          "internalType": "address",
          "name": "to",
          "type": "address"
        },
        {
          "indexed": false,
          "internalType": "uint256",
          "name": "id",
          "type": "uint256"
        },
        {
          "indexed": false,
          "internalType": "uint256",
          "name": "value",
          "type": "uint256"
        }
      ],
      "name": "TransferSingle",
      "type": "event"
    },
    {
      "anonymous": false,
      "inputs": [
        {
          "indexed": false,
          "internalType": "string",
          "name": "value",
          "type": "string"
        },
        {
          "indexed": true,
          "internalType": "uint256",
          "name": "id",
          "type": "uint256"
        }
      ],
      "name": "URI",
      "type": "event"
    },
    {
      "inputs": [
        {
          "internalType": "address",
          "name": "account",
          "type": "address"
        },
        {
          "internalType": "uint256",
          "name": "id",
          "type": "uint256"
        }
      ],
      "name": "balanceOf",
      "outputs": [
        {
          "internalType": "uint256",
          "name": "",
          "type": "uint256"
        }
      ],
      "stateMutability": "view",
      "type": "function"
    },
    {
      "inputs": [
        {
          "internalType": "address[]",
          "name": "accounts",
          "type": "address[]"
        },
        {
          "internalType": "uint256[]",
          "name": "ids",
          "type": "uint256[]"
        }
      ],
      "name": "balanceOfBatch",
      "outputs": [
        {
          "internalType": "uint256[]",
          "name": "",
          "type": "uint256[]"
        }
      ],
      "stateMutability": "view",
      "type": "function"
    },
    {
      "inputs": [
        {
          "internalType": "address",
          "name": "_miner",
          "type": "address"
        }
      ],
      "name": "delMiner",
      "outputs": [],
      "stateMutability": "nonpayable",
      "type": "function"
    },
    {
      "inputs": [
        {
          "internalType": "address",
          "name": "account",
          "type": "address"
        },
        {
          "internalType": "address",
          "name": "operator",
          "type": "address"
        }
      ],
      "name": "isApprovedForAll",
      "outputs": [
        {
          "internalType": "bool",
          "name": "",
          "type": "bool"
        }
      ],
      "stateMutability": "view",
      "type": "function"
    },
    {
      "inputs": [
        {
          "internalType": "address",
          "name": "",
          "type": "address"
        }
      ],
      "name": "isMiner",
      "outputs": [
        {
          "internalType": "bool",
          "name": "",
          "type": "bool"
        }
      ],
      "stateMutability": "view",
      "type": "function"
    },
    {
      "inputs": [],
      "name": "itemContract",
      "outputs": [
        {
          "internalType": "contract IItem2",
          "name": "",
          "type": "address"
        }
      ],
      "stateMutability": "view",
      "type": "function"
    },
    {
      "inputs": [],
      "name": "owner",
      "outputs": [
        {
          "internalType": "address",
          "name": "",
          "type": "address"
        }
      ],
      "stateMutability": "view",
      "type": "function"
    },
    {
      "inputs": [],
      "name": "renounceOwnership",
      "outputs": [],
      "stateMutability": "nonpayable",
      "type": "function"
    },
    {
      "inputs": [
        {
          "internalType": "address",
          "name": "from",
          "type": "address"
        },
        {
          "internalType": "address",
          "name": "to",
          "type": "address"
        },
        {
          "internalType": "uint256[]",
          "name": "ids",
          "type": "uint256[]"
        },
        {
          "internalType": "uint256[]",
          "name": "amounts",
          "type": "uint256[]"
        },
        {
          "internalType": "bytes",
          "name": "data",
          "type": "bytes"
        }
      ],
      "name": "safeBatchTransferFrom",
      "outputs": [],
      "stateMutability": "nonpayable",
      "type": "function"
    },
    {
      "inputs": [
        {
          "internalType": "address",
          "name": "from",
          "type": "address"
        },
        {
          "internalType": "address",
          "name": "to",
          "type": "address"
        },
        {
          "internalType": "uint256",
          "name": "id",
          "type": "uint256"
        },
        {
          "internalType": "uint256",
          "name": "amount",
          "type": "uint256"
        },
        {
          "internalType": "bytes",
          "name": "data",
          "type": "bytes"
        }
      ],
      "name": "safeTransferFrom",
      "outputs": [],
      "stateMutability": "nonpayable",
      "type": "function"
    },
    {
      "inputs": [
        {
          "internalType": "address",
          "name": "operator",
          "type": "address"
        },
        {
          "internalType": "bool",
          "name": "approved",
          "type": "bool"
        }
      ],
      "name": "setApprovalForAll",
      "outputs": [],
      "stateMutability": "nonpayable",
      "type": "function"
    },
    {
      "inputs": [
        {
          "internalType": "address",
          "name": "_miner",
          "type": "address"
        }
      ],
      "name": "setMiner",
      "outputs": [],
      "stateMutability": "nonpayable",
      "type": "function"
    },
    {
      "inputs": [
        {
          "internalType": "bytes4",
          "name": "interfaceId",
          "type": "bytes4"
        }
      ],
      "name": "supportsInterface",
      "outputs": [
        {
          "internalType": "bool",
          "name": "",
          "type": "bool"
        }
      ],
      "stateMutability": "view",
      "type": "function"
    },
    {
      "inputs": [
        {
          "internalType": "address",
          "name": "newOwner",
          "type": "address"
        }
      ],
      "name": "transferOwnership",
      "outputs": [],
      "stateMutability": "nonpayable",
      "type": "function"
    },
    {
      "inputs": [
        {
          "internalType": "uint256",
          "name": "chestIndex",
          "type": "uint256"
        }
      ],
      "name": "chestCount",
      "outputs": [
        {
          "internalType": "uint256",
          "name": "",
          "type": "uint256"
        }
      ],
      "stateMutability": "view",
      "type": "function"
    },
    {
      "inputs": [
        {
          "internalType": "address",
          "name": "recipient",
          "type": "address"
        },
        {
          "internalType": "uint256",
          "name": "chestIndex",
          "type": "uint256"
        },
        {
          "internalType": "uint256",
          "name": "amount",
          "type": "uint256"
        }
      ],
      "name": "mint",
      "outputs": [],
      "stateMutability": "nonpayable",
      "type": "function"
    },
    {
      "inputs": [
        {
          "internalType": "address",
          "name": "recipient",
          "type": "address"
        },
        {
          "internalType": "uint256[]",
          "name": "chestIndex",
          "type": "uint256[]"
        },
        {
          "internalType": "uint256[]",
          "name": "amount",
          "type": "uint256[]"
        }
      ],
      "name": "mintBatch",
      "outputs": [],
      "stateMutability": "nonpayable",
      "type": "function"
    },
    {
      "inputs": [],
      "name": "baseURI",
      "outputs": [
        {
          "internalType": "string",
          "name": "",
          "type": "string"
        }
      ],
      "stateMutability": "view",
      "type": "function"
    },
    {
      "inputs": [
        {
          "internalType": "string",
          "name": "_newURI",
          "type": "string"
        }
      ],
      "name": "setBaseURI",
      "outputs": [],
      "stateMutability": "nonpayable",
      "type": "function"
    },
    {
      "inputs": [
        {
          "internalType": "uint256",
          "name": "chestIndex",
          "type": "uint256"
        }
      ],
      "name": "uri",
      "outputs": [
        {
          "internalType": "string",
          "name": "",
          "type": "string"
        }
      ],
      "stateMutability": "view",
      "type": "function"
    },
    {
      "inputs": [
        {
          "internalType": "uint256",
          "name": "chestIndex",
          "type": "uint256"
        }
      ],
      "name": "tokenURI",
      "outputs": [
        {
          "internalType": "string",
          "name": "",
          "type": "string"
        }
      ],
      "stateMutability": "view",
      "type": "function"
    },
    {
      "inputs": [
        {
          "internalType": "uint256",
          "name": "chestIndex",
          "type": "uint256"
        },
        {
          "internalType": "string",
          "name": "chestURI",
          "type": "string"
        }
      ],
      "name": "setChestURI",
      "outputs": [],
      "stateMutability": "nonpayable",
      "type": "function"
    },
    {
      "inputs": [
        {
          "internalType": "string",
          "name": "newuri",
          "type": "string"
        }
      ],
      "name": "setUri",
      "outputs": [],
      "stateMutability": "nonpayable",
      "type": "function"
    },
    {
      "inputs": [
        {
          "internalType": "uint256",
          "name": "chestIndex",
          "type": "uint256"
        }
      ],
      "name": "isCanOpen",
      "outputs": [
        {
          "internalType": "bool",
          "name": "",
          "type": "bool"
        }
      ],
      "stateMutability": "view",
      "type": "function"
    },
    {
      "inputs": [
        {
          "internalType": "uint256",
          "name": "chestIndex",
          "type": "uint256"
        },
        {
          "internalType": "bool",
          "name": "tf",
          "type": "bool"
        }
      ],
      "name": "setOpen",
      "outputs": [],
      "stateMutability": "nonpayable",
      "type": "function"
    },
    {
      "inputs": [
        {
          "internalType": "uint256",
          "name": "chestIndex",
          "type": "uint256"
        },
        {
          "internalType": "uint256",
          "name": "itemIndex",
          "type": "uint256"
        },
        {
          "internalType": "uint8",
          "name": "itemQuality",
          "type": "uint8"
        },
        {
          "internalType": "uint256",
          "name": "probability",
          "type": "uint256"
        }
      ],
      "name": "setChestItem",
      "outputs": [],
      "stateMutability": "nonpayable",
      "type": "function"
    },
    {
      "inputs": [
        {
          "internalType": "uint256",
          "name": "chestIndex",
          "type": "uint256"
        }
      ],
      "name": "chestItem",
      "outputs": [
        {
          "components": [
            {
              "internalType": "uint256",
              "name": "itemIndex",
              "type": "uint256"
            },
            {
              "internalType": "uint8",
              "name": "itemQuality",
              "type": "uint8"
            },
            {
              "internalType": "uint256",
              "name": "probability",
              "type": "uint256"
            }
          ],
          "internalType": "struct Chest.ItemItem[]",
          "name": "",
          "type": "tuple[]"
        }
      ],
      "stateMutability": "view",
      "type": "function"
    },
    {
      "inputs": [
        {
          "internalType": "uint256",
          "name": "chestIndex",
          "type": "uint256"
        }
      ],
      "name": "initChestItem",
      "outputs": [],
      "stateMutability": "nonpayable",
      "type": "function"
    },
    {
      "inputs": [
        {
          "internalType": "uint256",
          "name": "chestIndex",
          "type": "uint256"
        }
      ],
      "name": "chestProbability",
      "outputs": [
        {
          "internalType": "string[]",
          "name": "",
          "type": "string[]"
        }
      ],
      "stateMutability": "view",
      "type": "function"
    },
    {
      "inputs": [
        {
          "internalType": "uint256",
          "name": "chestIndex",
          "type": "uint256"
        }
      ],
      "name": "initChestProbability",
      "outputs": [],
      "stateMutability": "nonpayable",
      "type": "function"
    },
    {
      "inputs": [
        {
          "internalType": "uint256",
          "name": "chestIndex",
          "type": "uint256"
        },
        {
          "internalType": "string",
          "name": "probability",
          "type": "string"
        }
      ],
      "name": "setChestProbability",
      "outputs": [],
      "stateMutability": "nonpayable",
      "type": "function"
    },
    {
      "inputs": [
        {
          "internalType": "uint256",
          "name": "chestIndex",
          "type": "uint256"
        },
        {
          "internalType": "uint256",
          "name": "amount",
          "type": "uint256"
        }
      ],
      "name": "setChestAmount",
      "outputs": [],
      "stateMutability": "nonpayable",
      "type": "function"
    },
    {
      "inputs": [
        {
          "internalType": "uint256",
          "name": "chestIndex",
          "type": "uint256"
        }
      ],
      "name": "chestAmount",
      "outputs": [
        {
          "internalType": "uint256",
          "name": "",
          "type": "uint256"
        }
      ],
      "stateMutability": "view",
      "type": "function"
    },
    {
      "inputs": [
        {
          "internalType": "uint256",
          "name": "chestIndex",
          "type": "uint256"
        },
        {
          "internalType": "uint256",
          "name": "amount",
          "type": "uint256"
        }
      ],
      "name": "openChest",
      "outputs": [],
      "stateMutability": "nonpayable",
      "type": "function"
    },
    {
      "inputs": [
        {
          "internalType": "contract IItem2",
          "name": "_ItemContract",
          "type": "address"
        }
      ],
      "name": "setItemCardContract",
      "outputs": [],
      "stateMutability": "nonpayable",
      "type": "function"
    }
  ],
  "bytecode": "0x60806040523480156200001157600080fd5b5060408051808201909152601981527f68747470733a2f2f713734353233352f7b69647d2e6a736f6e000000000000006020820152600062000052620000ef565b600080546001600160a01b0319166001600160a01b0383169081178255604051929350917f8be0079c531659141344cd1fd0a4f28419497f9722a3daafe3b4186f6b6457e0908290a350620000a733620000f3565b620000b96301ffc9a760e01b62000169565b620000c481620001bb565b620000d6636cdb3d1360e11b62000169565b620000e86303a24d0760e21b62000169565b50620002eb565b3390565b620000fd620000ef565b6001600160a01b031662000110620001d4565b6001600160a01b031614620001425760405162461bcd60e51b81526004016200013990620002b6565b60405180910390fd5b6001600160a01b03166000908152600160208190526040909120805460ff19169091179055565b6001600160e01b03198082161415620001965760405162461bcd60e51b815260040162000139906200027f565b6001600160e01b0319166000908152600260205260409020805460ff19166001179055565b8051620001d0906005906020840190620001e3565b5050565b6000546001600160a01b031690565b828054600181600116156101000203166002900490600052602060002090601f016020900481019282601f106200022657805160ff191683800117855562000256565b8280016001018555821562000256579182015b828111156200025657825182559160200191906001019062000239565b506200026492915062000268565b5090565b5b8082111562000264576000815560010162000269565b6020808252601c908201527f4552433136353a20696e76616c696420696e7465726661636520696400000000604082015260600190565b6020808252818101527f4f776e61626c653a2063616c6c6572206973206e6f7420746865206f776e6572604082015260600190565b6130be80620002fb6000396000f3fe608060405234801561001057600080fd5b50600436106102105760003560e01c80637ee0db7111610125578063b40f19c4116100ad578063d81d0a151161007c578063d81d0a1514610489578063e985e9c51461049c578063ea324b98146104af578063f242432a146104c2578063f2fde38b146104d557610210565b8063b40f19c414610430578063c87b56dd14610443578063cc01e82c14610456578063d5e32e611461047657610210565b80638da5cb5b116100f45780638da5cb5b146103dc5780639742ca46146103e45780639b642de1146103f75780639bd4786d1461040a578063a22cb4651461041d57610210565b80637ee0db711461038e5780637f7aa897146103a15780638914f85c146103b45780638d76f940146103c757610210565b80633dd26fd6116101a8578063533081ca11610177578063533081ca1461034557806355f804b3146103585780636c0360eb1461036b578063701b70ac14610373578063715018a61461038657610210565b80633dd26fd6146102df5780633e8fd47d146102ff578063451ec35d146103125780634e1273f41461032557610210565b80630e89341c116101e45780630e89341c14610286578063156e29f6146102a65780632e2242cf146102b95780632eb2c2d6146102cc57610210565b8062fdd58e146102155780630124c2611461023e57806301ffc9a7146102535780630378cd0d14610273575b600080fd5b6102286102233660046123ee565b6104e8565b6040516102359190612eda565b60405180910390f35b61025161024c36600461261f565b610541565b005b610266610261366004612510565b6105e9565b60405161023591906129e9565b610266610281366004612583565b610608565b610299610294366004612583565b61061d565b60405161023591906129f4565b6102516102b4366004612419565b610666565b6102286102c7366004612583565b6106e0565b6102516102da366004612239565b6106f2565b6102f26102ed366004612583565b610911565b604051610235919061294c565b61025161030d366004612583565b6109a0565b6102516103203660046121e5565b610a00565b61033861033336600461244d565b610a60565b60405161023591906129a8565b6102516103533660046125fe565b610b2d565b610251610366366004612548565b610b7e565b610299610bd4565b6102666103813660046121e5565b610c6b565b610251610c80565b61022861039c366004612583565b610d09565b6102516103af3660046125c3565b610d1b565b6102516103c2366004612583565b610d8c565b6103cf610de7565b60405161023591906127b1565b6103cf610df6565b6102516103f23660046121e5565b610e05565b610251610405366004612548565b610e6b565b6102516104183660046125fe565b610eb6565b61025161042b3660046123bd565b610f98565b61025161043e36600461259b565b611066565b610299610451366004612583565b6110c5565b610469610464366004612583565b6110d6565b60405161023591906128ec565b6102516104843660046121e5565b6111b6565b61025161049736600461234a565b611217565b6102666104aa366004612201565b6112f2565b6102516104bd3660046125c3565b611320565b6102516104d03660046122e3565b61137e565b6102516104e33660046121e5565b611512565b60006001600160a01b0383166105195760405162461bcd60e51b815260040161051090612ada565b60405180910390fd5b5060009081526003602090815260408083206001600160a01b03949094168352929052205490565b6105496115d2565b6001600160a01b031661055a610df6565b6001600160a01b0316146105805760405162461bcd60e51b815260040161051090612d8a565b6000938452600a60209081526040808620815160608101835295865260ff94851686840190815291860193845280546001808201835591885292909620945160039092029094019081559251938301805460ff1916949092169390931790559051600290910155565b6001600160e01b03191660009081526002602052604090205460ff1690565b60009081526008602052604090205460ff1690565b606080610628610bd4565b905080600c600085815260200190815260200160002060405160200161064f9291906126cf565b604051602081830303815290604052915050919050565b3360009081526001602052604090205460ff166106955760405162461bcd60e51b815260040161051090612aa3565b6106b0838383604051806020016040528060008152506115d6565b6000828152600d60205260409020546106c990826116c1565b6000928352600d6020526040909220919091555050565b6000908152600d602052604090205490565b81518351146107135760405162461bcd60e51b815260040161051090612e51565b6001600160a01b0384166107395760405162461bcd60e51b815260040161051090612c50565b6107416115d2565b6001600160a01b0316856001600160a01b031614806107675750610767856104aa6115d2565b6107835760405162461bcd60e51b815260040161051090612c95565b600061078d6115d2565b905061079d818787878787610909565b60005b84518110156108a35760008582815181106107b757fe5b6020026020010151905060008583815181106107cf57fe5b6020026020010151905061083c816040518060600160405280602a815260200161305f602a91396003600086815260200190815260200160002060008d6001600160a01b03166001600160a01b03168152602001908152602001600020546116ed9092919063ffffffff16565b60008381526003602090815260408083206001600160a01b038e811685529252808320939093558a168152205461087390826116c1565b60009283526003602090815260408085206001600160a01b038c16865290915290922091909155506001016107a0565b50846001600160a01b0316866001600160a01b0316826001600160a01b03167f4a39dc06d4c0dbc64b70af90fd698a233a518aa5d07e595d983b8c0526c8f7fb87876040516108f39291906129bb565b60405180910390a4610909818787878787611719565b505050505050565b6060600a6000838152602001908152602001600020805480602002602001604051908101604052809291908181526020016000905b8282101561099557600084815260209081902060408051606081018252600386029092018054835260018082015460ff1684860152600290910154918301919091529083529092019101610946565b505050509050919050565b6109a86115d2565b6001600160a01b03166109b9610df6565b6001600160a01b0316146109df5760405162461bcd60e51b815260040161051090612d8a565b6000818152600a6020526040812081546109fb91908390611e69565b505050565b610a086115d2565b6001600160a01b0316610a19610df6565b6001600160a01b031614610a3f5760405162461bcd60e51b815260040161051090612d8a565b6001600160a01b03166000908152600160205260409020805460ff19169055565b60608151835114610a835760405162461bcd60e51b815260040161051090612e08565b6060835167ffffffffffffffff81118015610a9d57600080fd5b50604051908082528060200260200182016040528015610ac7578160200160208202803683370190505b50905060005b8451811015610b2557610b06858281518110610ae557fe5b6020026020010151858381518110610af957fe5b60200260200101516104e8565b828281518110610b1257fe5b6020908102919091010152600101610acd565b509392505050565b610b356115d2565b6001600160a01b0316610b46610df6565b6001600160a01b031614610b6c5760405162461bcd60e51b815260040161051090612d8a565b60009182526009602052604090912055565b610b866115d2565b6001600160a01b0316610b97610df6565b6001600160a01b031614610bbd5760405162461bcd60e51b815260040161051090612d8a565b8051610bd090600e906020840190611ee3565b5050565b600e8054604080516020601f6002600019610100600188161502019095169490940493840181900481028201810190925282815260609390929091830182828015610c605780601f10610c3557610100808354040283529160200191610c60565b820191906000526020600020905b815481529060010190602001808311610c4357829003601f168201915b505050505090505b90565b60016020526000908152604090205460ff1681565b610c886115d2565b6001600160a01b0316610c99610df6565b6001600160a01b031614610cbf5760405162461bcd60e51b815260040161051090612d8a565b600080546040516001600160a01b03909116907f8be0079c531659141344cd1fd0a4f28419497f9722a3daafe3b4186f6b6457e0908390a3600080546001600160a01b0319169055565b60009081526009602052604090205490565b610d236115d2565b6001600160a01b0316610d34610df6565b6001600160a01b031614610d5a5760405162461bcd60e51b815260040161051090612d8a565b6000828152600b60209081526040822080546001810182559083529181902083516109fb939190910191840190611ee3565b610d946115d2565b6001600160a01b0316610da5610df6565b6001600160a01b031614610dcb5760405162461bcd60e51b815260040161051090612d8a565b6000818152600b6020526040812081546109fb91908390611f5d565b6007546001600160a01b031681565b6000546001600160a01b031690565b610e0d6115d2565b6001600160a01b0316610e1e610df6565b6001600160a01b031614610e445760405162461bcd60e51b815260040161051090612d8a565b6001600160a01b03166000908152600160208190526040909120805460ff19169091179055565b610e736115d2565b6001600160a01b0316610e84610df6565b6001600160a01b031614610eaa5760405162461bcd60e51b815260040161051090612d8a565b610eb381611835565b50565b60008111610ed65760405162461bcd60e51b815260040161051090612d53565b80610ee133846104e8565b1015610eff5760405162461bcd60e51b815260040161051090612bd9565b610f0882610608565b610f245760405162461bcd60e51b815260040161051090612ce7565b610f2f338383611848565b600082815260096020526040902054610f5a5760405162461bcd60e51b815260040161051090612b6b565b60005b818110156109fb5760005b600084815260096020526040902054811015610f8f57610f878461195e565b600101610f68565b50600101610f5d565b816001600160a01b0316610faa6115d2565b6001600160a01b03161415610fd15760405162461bcd60e51b815260040161051090612dbf565b8060046000610fde6115d2565b6001600160a01b03908116825260208083019390935260409182016000908120918716808252919093529120805460ff1916921515929092179091556110226115d2565b6001600160a01b03167f17307eab39ab6107e8899845ad3d59bd9653f200f220920489ca2b5937696c318360405161105a91906129e9565b60405180910390a35050565b61106e6115d2565b6001600160a01b031661107f610df6565b6001600160a01b0316146110a55760405162461bcd60e51b815260040161051090612d8a565b600091825260086020526040909120805460ff1916911515919091179055565b60606110d08261061d565b92915050565b6060600b6000838152602001908152602001600020805480602002602001604051908101604052809291908181526020016000905b828210156109955760008481526020908190208301805460408051601f60026000196101006001871615020190941693909304928301859004850281018501909152818152928301828280156111a25780601f10611177576101008083540402835291602001916111a2565b820191906000526020600020905b81548152906001019060200180831161118557829003601f168201915b50505050508152602001906001019061110b565b6111be6115d2565b6001600160a01b03166111cf610df6565b6001600160a01b0316146111f55760405162461bcd60e51b815260040161051090612d8a565b600780546001600160a01b0319166001600160a01b0392909216919091179055565b3360009081526001602052604090205460ff166112465760405162461bcd60e51b815260040161051090612aa3565b61126183838360405180602001604052806000815250611a44565b60005b82518110156112ec576112b982828151811061127c57fe5b6020026020010151600d600086858151811061129457fe5b60200260200101518152602001908152602001600020546116c190919063ffffffff16565b600d60008584815181106112c957fe5b602090810291909101810151825281019190915260400160002055600101611264565b50505050565b6001600160a01b03918216600090815260046020908152604080832093909416825291909152205460ff1690565b6113286115d2565b6001600160a01b0316611339610df6565b6001600160a01b03161461135f5760405162461bcd60e51b815260040161051090612d8a565b6000828152600c6020908152604090912082516109fb92840190611ee3565b6001600160a01b0384166113a45760405162461bcd60e51b815260040161051090612c50565b6113ac6115d2565b6001600160a01b0316856001600160a01b031614806113d257506113d2856104aa6115d2565b6113ee5760405162461bcd60e51b815260040161051090612c07565b60006113f86115d2565b905061141881878761140988611bd2565b61141288611bd2565b87610909565b61145f836040518060600160405280602a815260200161305f602a913960008781526003602090815260408083206001600160a01b038d16845290915290205491906116ed565b60008581526003602090815260408083206001600160a01b038b8116855292528083209390935587168152205461149690846116c1565b60008581526003602090815260408083206001600160a01b03808b168086529190935292819020939093559151909188811691908416907fc3d58168c5ae7397731d063d5bbf3d657854427343f4c083240f7aacaa2d0f62906114fc9089908990612ee3565b60405180910390a4610909818787878787611c16565b61151a6115d2565b6001600160a01b031661152b610df6565b6001600160a01b0316146115515760405162461bcd60e51b815260040161051090612d8a565b6001600160a01b0381166115775760405162461bcd60e51b815260040161051090612b25565b600080546040516001600160a01b03808516939216917f8be0079c531659141344cd1fd0a4f28419497f9722a3daafe3b4186f6b6457e091a3600080546001600160a01b0319166001600160a01b0392909216919091179055565b3390565b6001600160a01b0384166115fc5760405162461bcd60e51b815260040161051090612e99565b60006116066115d2565b90506116188160008761140988611bd2565b60008481526003602090815260408083206001600160a01b038916845290915290205461164590846116c1565b60008581526003602090815260408083206001600160a01b03808b16808652919093528184209490945551908416907fc3d58168c5ae7397731d063d5bbf3d657854427343f4c083240f7aacaa2d0f62906116a39089908990612ee3565b60405180910390a46116ba81600087878787611c16565b5050505050565b6000828201838110156116e65760405162461bcd60e51b815260040161051090612ba2565b9392505050565b600081848411156117115760405162461bcd60e51b815260040161051091906129f4565b505050900390565b61172b846001600160a01b0316611ce7565b156109095760405163bc197c8160e01b81526001600160a01b0385169063bc197c819061176490899089908890889088906004016127c5565b602060405180830381600087803b15801561177e57600080fd5b505af19250505080156117ae575060408051601f3d908101601f191682019092526117ab9181019061252c565b60015b6117fc576117ba612f6a565b806117c557506117df565b8060405162461bcd60e51b815260040161051091906129f4565b60405162461bcd60e51b815260040161051090612a07565b610909565b6001600160e01b0319811663bc197c8160e01b1461182c5760405162461bcd60e51b815260040161051090612a5b565b50505050505050565b8051610bd0906005906020840190611ee3565b6001600160a01b03831661186e5760405162461bcd60e51b815260040161051090612d10565b60006118786115d2565b90506118a88185600061188a87611bd2565b61189387611bd2565b60405180602001604052806000815250610909565b6118ef8260405180606001604052806024815260200161303b6024913960008681526003602090815260408083206001600160a01b038b16845290915290205491906116ed565b60008481526003602090815260408083206001600160a01b03808a16808652919093528184209490945551919291908416907fc3d58168c5ae7397731d063d5bbf3d657854427343f4c083240f7aacaa2d0f62906119509088908890612ee3565b60405180910390a450505050565b606061196982610911565b905060008060005b83518110156119ae576119a484828151811061198957fe5b602002602001015160400151836116c190919063ffffffff16565b9150600101611971565b506000816119ba611ced565b816119c157fe5b06905060005b8451811015610909576119fa8582815181106119df57fe5b602002602001015160400151856116c190919063ffffffff16565b9350818410611a3c576117f733868381518110611a1357fe5b602002602001015160200151878481518110611a2b57fe5b602002602001015160000151611d2c565b6001016119c7565b6001600160a01b038416611a6a5760405162461bcd60e51b815260040161051090612e99565b8151835114611a8b5760405162461bcd60e51b815260040161051090612e51565b6000611a956115d2565b9050611aa681600087878787610909565b60005b8451811015611b6a57611b2160036000878481518110611ac557fe5b602002602001015181526020019081526020016000206000886001600160a01b03166001600160a01b0316815260200190815260200160002054858381518110611b0b57fe5b60200260200101516116c190919063ffffffff16565b60036000878481518110611b3157fe5b602090810291909101810151825281810192909252604090810160009081206001600160a01b038b168252909252902055600101611aa9565b50846001600160a01b031660006001600160a01b0316826001600160a01b03167f4a39dc06d4c0dbc64b70af90fd698a233a518aa5d07e595d983b8c0526c8f7fb8787604051611bbb9291906129bb565b60405180910390a46116ba81600087878787611719565b604080516001808252818301909252606091829190602080830190803683370190505090508281600081518110611c0557fe5b602090810291909101015292915050565b611c28846001600160a01b0316611ce7565b156109095760405163f23a6e6160e01b81526001600160a01b0385169063f23a6e6190611c619089908990889088908890600401612823565b602060405180830381600087803b158015611c7b57600080fd5b505af1925050508015611cab575060408051601f3d908101601f19168201909252611ca89181019061252c565b60015b611cb7576117ba612f6a565b6001600160e01b0319811663f23a6e6160e01b1461182c5760405162461bcd60e51b815260040161051090612a5b565b3b151590565b6000611cf7611e5e565b6006544233604051602001611d0e93929190612789565b6040516020818303038152906040528051906020012060001c905090565b60004233604051602001611d41929190612753565b604051602081830303815290604052805190602001209050611d61611fc7565b6040805160c08101909152808360011a846000601091901a020160ff1681526020018360031a846002601091901a020160ff1681526020018360051a846004601091901a020160ff1681526020018360071a846006601091901a020160ff1681526020018360091a846008601091901a020160ff16815260200183600b1a84600a601091901a020160ff16905260075460405163c48820fb60e01b81529192506001600160a01b03169063c48820fb90611e25908890879089908790600401612868565b600060405180830381600087803b158015611e3f57600080fd5b505af1158015611e53573d6000803e3d6000fd5b505050505050505050565b600680546001019055565b828054828255906000526020600020906003028101928215611ed35760005260206000209160030282015b82811115611ed35782548255600180840154908301805460ff191660ff9092169190911790556002808401549083015560039283019290910190611e94565b50611edf929150611ffc565b5090565b828054600181600116156101000203166002900490600052602060002090601f016020900481019282601f10611f2457805160ff1916838001178555611f51565b82800160010185558215611f51579182015b82811115611f51578251825591602001919060010190611f36565b50611edf929150612023565b828054828255906000526020600020908101928215611fbb5760005260206000209182015b82811115611fbb5782829080546001816001161561010002031660029004611fab929190612038565b5091600101919060010190611f82565b50611edf9291506120ad565b6040805160c081018252600080825260208201819052918101829052606081018290526080810182905260a081019190915290565b5b80821115611edf57600080825560018201805460ff191690556002820155600301611ffd565b5b80821115611edf5760008155600101612024565b828054600181600116156101000203166002900490600052602060002090601f016020900481019282601f106120715780548555611f51565b82800160010185558215611f5157600052602060002091601f016020900482015b82811115611f51578254825591600101919060010190612092565b80821115611edf5760006120c182826120ca565b506001016120ad565b50805460018160011615610100020316600290046000825580601f106120f05750610eb3565b601f016020900490600052602060002090810190610eb39190612023565b600082601f83011261211e578081fd5b813561213161212c82612f18565b612ef1565b81815291506020808301908481018184028601820187101561215257600080fd5b60005b8481101561217157813584529282019290820190600101612155565b505050505092915050565b600082601f83011261218c578081fd5b813567ffffffffffffffff8111156121a2578182fd5b6121b5601f8201601f1916602001612ef1565b91508082528360208285010111156121cc57600080fd5b8060208401602084013760009082016020015292915050565b6000602082840312156121f6578081fd5b81356116e68161300f565b60008060408385031215612213578081fd5b823561221e8161300f565b9150602083013561222e8161300f565b809150509250929050565b600080600080600060a08688031215612250578081fd5b853561225b8161300f565b9450602086013561226b8161300f565b9350604086013567ffffffffffffffff80821115612287578283fd5b61229389838a0161210e565b945060608801359150808211156122a8578283fd5b6122b489838a0161210e565b935060808801359150808211156122c9578283fd5b506122d68882890161217c565b9150509295509295909350565b600080600080600060a086880312156122fa578081fd5b85356123058161300f565b945060208601356123158161300f565b93506040860135925060608601359150608086013567ffffffffffffffff81111561233e578182fd5b6122d68882890161217c565b60008060006060848603121561235e578283fd5b83356123698161300f565b9250602084013567ffffffffffffffff80821115612385578384fd5b6123918783880161210e565b935060408601359150808211156123a6578283fd5b506123b38682870161210e565b9150509250925092565b600080604083850312156123cf578182fd5b82356123da8161300f565b91506020830135801515811461222e578182fd5b60008060408385031215612400578182fd5b823561240b8161300f565b946020939093013593505050565b60008060006060848603121561242d578283fd5b83356124388161300f565b95602085013595506040909401359392505050565b6000806040838503121561245f578182fd5b823567ffffffffffffffff80821115612476578384fd5b818501915085601f830112612489578384fd5b813561249761212c82612f18565b80828252602080830192508086018a8283870289010111156124b7578889fd5b8896505b848710156124e25780356124ce8161300f565b8452600196909601959281019281016124bb565b5090965087013593505050808211156124f9578283fd5b506125068582860161210e565b9150509250929050565b600060208284031215612521578081fd5b81356116e681613024565b60006020828403121561253d578081fd5b81516116e681613024565b600060208284031215612559578081fd5b813567ffffffffffffffff81111561256f578182fd5b61257b8482850161217c565b949350505050565b600060208284031215612594578081fd5b5035919050565b600080604083850312156125ad578182fd5b823591506020830135801515811461222e578182fd5b600080604083850312156125d5578182fd5b82359150602083013567ffffffffffffffff8111156125f2578182fd5b6125068582860161217c565b60008060408385031215612610578182fd5b50508035926020909101359150565b60008060008060808587031215612634578182fd5b8435935060208501359250604085013560ff81168114612652578283fd5b9396929550929360600135925050565b6000815180845260208085019450808401835b8381101561269157815187529582019590820190600101612675565b509495945050505050565b600081518084526126b4816020860160208601612f38565b601f01601f19169290920160200192915050565b60ff169052565b6000835160206126e28285838901612f38565b845491840191839060018082168015612702576001811461271957612745565b60ff198316865260028304607f1686019350612745565b60028304898852858820885b8281101561273e57815489820152908401908701612725565b5050860193505b509198975050505050505050565b6a4e46547320426174746c6560a81b8152600b81019290925260601b6bffffffffffffffffffffffff1916602b820152603f0190565b928352602083019190915260601b6bffffffffffffffffffffffff1916604082015260540190565b6001600160a01b0391909116815260200190565b6001600160a01b0386811682528516602082015260a0604082018190526000906127f190830186612662565b82810360608401526128038186612662565b90508281036080840152612817818561269c565b98975050505050505050565b6001600160a01b03868116825285166020820152604081018490526060810183905260a06080820181905260009061285d9083018461269c565b979650505050505050565b60006101208201905060018060a01b038616825284602083015260ff8416604083015260ff835116606083015260ff602084015116608083015260ff60408401511660a083015260ff60608401511660c083015260808301516128ce60e08401826126c8565b5060a08301516128e26101008401826126c8565b5095945050505050565b6000602080830181845280855180835260408601915060408482028701019250838701855b8281101561293f57603f1988860301845261292d85835161269c565b94509285019290850190600101612911565b5092979650505050505050565b602080825282518282018190526000919060409081850190868401855b8281101561299b578151805185528681015160ff16878601528501518585015260609093019290850190600101612969565b5091979650505050505050565b6000602082526116e66020830184612662565b6000604082526129ce6040830185612662565b82810360208401526129e08185612662565b95945050505050565b901515815260200190565b6000602082526116e6602083018461269c565b60208082526034908201527f455243313135353a207472616e7366657220746f206e6f6e20455243313135356040820152732932b1b2b4bb32b91034b6b83632b6b2b73a32b960611b606082015260800190565b60208082526028908201527f455243313135353a204552433131353552656365697665722072656a656374656040820152676420746f6b656e7360c01b606082015260800190565b6020808252601d908201527f4d696e653a2063616c6c6572206973206e6f7420746865206d696e6572000000604082015260600190565b6020808252602b908201527f455243313135353a2062616c616e636520717565727920666f7220746865207a60408201526a65726f206164647265737360a81b606082015260800190565b60208082526026908201527f4f776e61626c653a206e6577206f776e657220697320746865207a65726f206160408201526564647265737360d01b606082015260800190565b6020808252601c908201527f63686573744c656e206d757374206d6f7265207468616e207a65726f00000000604082015260600190565b6020808252601b908201527f536166654d6174683a206164646974696f6e206f766572666c6f770000000000604082015260600190565b602080825260149082015273596f75206e656564206d6f72652063686573747360601b604082015260600190565b60208082526029908201527f455243313135353a2063616c6c6572206973206e6f74206f776e6572206e6f7260408201526808185c1c1c9bdd995960ba1b606082015260800190565b60208082526025908201527f455243313135353a207472616e7366657220746f20746865207a65726f206164604082015264647265737360d81b606082015260800190565b60208082526032908201527f455243313135353a207472616e736665722063616c6c6572206973206e6f74206040820152711bdddb995c881b9bdc88185c1c1c9bdd995960721b606082015260800190565b6020808252600f908201526e43616e6e6f74206f70656e206e6f7760881b604082015260600190565b60208082526023908201527f455243313135353a206275726e2066726f6d20746865207a65726f206164647260408201526265737360e81b606082015260800190565b6020808252601a908201527f416d6f756e74206d757374206d6f7265207468616e207a65726f000000000000604082015260600190565b6020808252818101527f4f776e61626c653a2063616c6c6572206973206e6f7420746865206f776e6572604082015260600190565b60208082526029908201527f455243313135353a2073657474696e6720617070726f76616c20737461747573604082015268103337b91039b2b63360b91b606082015260800190565b60208082526029908201527f455243313135353a206163636f756e747320616e6420696473206c656e677468604082015268040dad2e6dac2e8c6d60bb1b606082015260800190565b60208082526028908201527f455243313135353a2069647320616e6420616d6f756e7473206c656e677468206040820152670dad2e6dac2e8c6d60c31b606082015260800190565b60208082526021908201527f455243313135353a206d696e7420746f20746865207a65726f206164647265736040820152607360f81b606082015260800190565b90815260200190565b918252602082015260400190565b60405181810167ffffffffffffffff81118282101715612f1057600080fd5b604052919050565b600067ffffffffffffffff821115612f2e578081fd5b5060209081020190565b60005b83811015612f53578181015183820152602001612f3b565b838111156112ec5750506000910152565b60e01c90565b600060443d1015612f7a57610c68565b600481823e6308c379a0612f8e8251612f64565b14612f9857610c68565b6040513d600319016004823e80513d67ffffffffffffffff8160248401118184111715612fc85750505050610c68565b82840192508251915080821115612fe25750505050610c68565b503d83016020828401011115612ffa57505050610c68565b601f01601f1916810160200160405291505090565b6001600160a01b0381168114610eb357600080fd5b6001600160e01b031981168114610eb357600080fdfe455243313135353a206275726e20616d6f756e7420657863656564732062616c616e6365455243313135353a20696e73756666696369656e742062616c616e636520666f72207472616e73666572a2646970667358221220b14122440bb5f726a2288b1f035cba26364eee1aeeefd5f1b1c9fcae00b0e55b64736f6c634300060c0033",
  "immutableReferences": {},
  "source": "// SPDX-License-Identifier: MIT\npragma solidity ^0.6.0;\npragma experimental ABIEncoderV2;\n\nimport \"@openzeppelin/contracts/token/ERC1155/ERC1155.sol\";\nimport \"@openzeppelin/contracts/token/ERC721/IERC721.sol\";\nimport \"./Random.sol\";\nimport \"./Miner.sol\";\ninterface IItem2 is IERC721{\n\n    struct ItemInfo{\n        uint8 x1;\n        uint8 x2;\n        uint8 y1;\n        uint8 y2;\n        uint8 z1;\n        uint8 z2;\n    }\n\n    function mint(\n        address recipient,\n        uint itemIndex,\n        uint8 itemQuality,\n        ItemInfo memory itemInfo\n    ) external;\n    \n}\n\ninterface IOpenChest {\n    event Open(address indexed owner);\n}\n\ncontract Chest is Miner, ERC1155, Random{\n    IItem2 public itemContract;\n    // IChest public chestContract;\n    \n    mapping (uint => bool) private _canOpen; //chestIndex => chest canOpen\n    mapping (uint => uint) private _chestAmount; //chestIndex => chestAmount\n    mapping (uint => ItemItem[]) private _chestItem; //chestIndex => chestItem\n    mapping (uint => string[]) private _chestProbability; //chestIndex =>\n    mapping (uint => string) private _chestURI; //chestIndex => chestURI\n\n    struct ItemItem{\n        uint itemIndex;\n        uint8 itemQuality;\n        uint probability;\n    }\n\n    // mint Chest\n\n    mapping (uint => uint) private _nftCount; //chestIndex => count\n\n    constructor() public ERC1155(\"https://q745235/{id}.json\") {}\n\n    function chestCount(uint chestIndex) public view returns(uint){\n        return _nftCount[chestIndex];\n    }\n\n    function mint(address recipient, uint chestIndex, uint amount) external onlyMiner{\n        _mint(recipient, chestIndex, amount, \"\");\n        _nftCount[chestIndex] = _nftCount[chestIndex].add(amount);\n\n    }\n\n    function mintBatch(address recipient, uint[] memory chestIndex, uint[] memory amount) external onlyMiner{\n        _mintBatch(recipient, chestIndex, amount, \"\");\n        for (uint i = 0; i < chestIndex.length; i++) {\n            _nftCount[chestIndex[i]] = _nftCount[chestIndex[i]].add(amount[i]);\n        }\n    }\n\n    string private _baseURI;\n    function baseURI() public view virtual returns (string memory) {\n        return _baseURI;\n    }\n\n    function setBaseURI(string memory _newURI) external onlyOwner{\n        _baseURI = _newURI;\n    }\n\n    function uri(uint256 chestIndex) public  view override  returns (string memory) {\n        string memory base = baseURI();\n        return string(abi.encodePacked(base, _chestURI[chestIndex]));\n    }\n\n    function tokenURI(uint256 chestIndex) public view returns (string memory) {\n        return uri(chestIndex);\n    }\n    \n    function setChestURI(uint chestIndex, string memory chestURI) external onlyOwner {\n        _chestURI[chestIndex] = chestURI;\n    } \n\n    function setUri(string memory newuri)  external onlyOwner {\n        _setURI(newuri);\n    }\n\n\n    // open Chest\n    function isCanOpen(uint chestIndex) public view returns(bool){\n        return _canOpen[chestIndex];\n    }\n\n    function setOpen(uint chestIndex, bool tf) public onlyOwner{\n        _canOpen[chestIndex] =tf;\n    }\n\n    // Set item probability\n    function setChestItem (uint chestIndex, uint itemIndex, uint8 itemQuality, uint probability) external onlyOwner{\n        _chestItem[chestIndex].push(ItemItem(itemIndex, itemQuality, probability));\n    }\n\n    function chestItem (uint chestIndex) view public returns(ItemItem[] memory) {\n        return _chestItem[chestIndex];\n    }\n\n    function initChestItem(uint chestIndex) external onlyOwner{\n        ItemItem[] storage newArray;\n        _chestItem[chestIndex] = newArray;\n    }\n\n    function chestProbability (uint chestIndex) view public returns(string[] memory) {\n        return _chestProbability[chestIndex];\n    }\n\n    // Set chest probability (str)\n\n    function initChestProbability(uint chestIndex) external onlyOwner{\n        string[] storage newArray;\n        _chestProbability[chestIndex] = newArray;\n    }\n\n    function setChestProbability (uint chestIndex, string memory probability) external onlyOwner{\n        _chestProbability[chestIndex].push(probability);\n    }\n\n    // Set item amount\n    function setChestAmount(uint chestIndex, uint amount) external onlyOwner{\n        _chestAmount[chestIndex] = amount;\n    }\n\n    function chestAmount(uint chestIndex) view public returns(uint) {\n        return _chestAmount[chestIndex];\n    }\n\n    function openChest(uint chestIndex, uint amount) external{\n        require(amount > 0, \"Amount must more than zero\");\n        require(balanceOf(msg.sender,chestIndex) >= amount, \"You need more chests\");\n        require(isCanOpen(chestIndex), \"Cannot open now\");\n        //Destroy chest\n        _burn(msg.sender,chestIndex,\n            amount);\n        require(_chestAmount[chestIndex] > 0, \"chestLen must more than zero\");\n        for (uint j = 0; j < amount; j++){\n            for (uint256 i = 0; i < _chestAmount[chestIndex]; i++) {_openChest(chestIndex);}\n        }\n    }\n\n    function _openChest(uint chestIndex)  private{\n        ItemItem[] memory newChestItem = chestItem(chestIndex);\n        uint itemProbability = 0;\n        uint allProbability = 0;\n        // check probability\n        for (uint256 j = 0; j < newChestItem.length; j++){\n            allProbability = allProbability.add(newChestItem[j].probability);\n        }\n        uint randomNumber = _getRandomNumber() % allProbability;\n        for (uint256 i = 0; i < newChestItem.length; i++){\n            itemProbability = itemProbability.add(newChestItem[i].probability);\n            if(itemProbability >= randomNumber){\n                _mintItem(\n                    msg.sender, \n                    newChestItem[i].itemQuality, \n                    newChestItem[i].itemIndex\n                );\n                break;\n            }\n        }\n    }\n\n    function _mintItem(\n        address to,\n        uint8 itemQuality,\n        uint itemIndex\n    ) private{\n        \n        bytes32 seed = keccak256(abi.encodePacked(\"NFTs Battle\", now, msg.sender));\n\n        IItem2.ItemInfo memory itemInfo = IItem2.ItemInfo({\n            x1: uint8(seed[0]) * 16 + uint8(seed[1]),\n            x2: uint8(seed[2]) * 16 + uint8(seed[3]),\n            y1: uint8(seed[4]) * 16 + uint8(seed[5]),\n            y2: uint8(seed[6]) * 16 + uint8(seed[7]),\n            z1: uint8(seed[8]) * 16 + uint8(seed[9]),\n            z2: uint8(seed[10]) * 16 + uint8(seed[11])\n        });\n\n        itemContract.mint(to, itemIndex, itemQuality, itemInfo);\n    }\n\n    function setItemCardContract(IItem2 _ItemContract) external onlyOwner{\n        itemContract = _ItemContract;\n    }\n}",
  "sourcePath": "D:\\Solidity\\Solidity\\lottery\\contracts\\Chest.sol",
  "compiler": {
    "name": "solc",
    "version": "0.6.12+commit.27d51765.Emscripten.clang"
  },
  "schemaVersion": "3.4.4",
  "updatedAt": "2022-07-03T15:51:28.205Z",
  "devdoc": {
    "kind": "dev",
    "methods": {
      "balanceOf(address,uint256)": {
        "details": "See {IERC1155-balanceOf}. Requirements: - `account` cannot be the zero address."
      },
      "balanceOfBatch(address[],uint256[])": {
        "details": "See {IERC1155-balanceOfBatch}. Requirements: - `accounts` and `ids` must have the same length."
      },
      "isApprovedForAll(address,address)": {
        "details": "See {IERC1155-isApprovedForAll}."
      },
      "owner()": {
        "details": "Returns the address of the current owner."
      },
      "renounceOwnership()": {
        "details": "Leaves the contract without owner. It will not be possible to call `onlyOwner` functions anymore. Can only be called by the current owner. NOTE: Renouncing ownership will leave the contract without an owner, thereby removing any functionality that is only available to the owner."
      },
      "safeBatchTransferFrom(address,address,uint256[],uint256[],bytes)": {
        "details": "See {IERC1155-safeBatchTransferFrom}."
      },
      "safeTransferFrom(address,address,uint256,uint256,bytes)": {
        "details": "See {IERC1155-safeTransferFrom}."
      },
      "setApprovalForAll(address,bool)": {
        "details": "See {IERC1155-setApprovalForAll}."
      },
      "supportsInterface(bytes4)": {
        "details": "See {IERC165-supportsInterface}. Time complexity O(1), guaranteed to always use less than 30 000 gas."
      },
      "transferOwnership(address)": {
        "details": "Transfers ownership of the contract to a new account (`newOwner`). Can only be called by the current owner."
      }
    },
    "version": 1
  },
  "userdoc": {
    "kind": "user",
    "methods": {},
    "version": 1
  }
}