{
  "contractName": "ItemCard",
  "abi": [
    {
      "inputs": [],
      "stateMutability": "nonpayable",
      "type": "constructor"
    },
    {
      "anonymous": false,
      "inputs": [
        {
          "indexed": true,
          "internalType": "address",
          "name": "owner",
          "type": "address"
        },
        {
          "indexed": true,
          "internalType": "address",
          "name": "approved",
          "type": "address"
        },
        {
          "indexed": true,
          "internalType": "uint256",
          "name": "tokenId",
          "type": "uint256"
        }
      ],
      "name": "Approval",
      "type": "event"
    },
    {
      "anonymous": false,
      "inputs": [
        {
          "indexed": true,
          "internalType": "address",
          "name": "owner",
          "type": "address"
        },
        {
          "indexed": true,
          "internalType": "address",
          "name": "operator",
          "type": "address"
        },
        {
          "indexed": false,
          "internalType": "bool",
          "name": "approved",
          "type": "bool"
        }
      ],
      "name": "ApprovalForAll",
      "type": "event"
    },
    {
      "anonymous": false,
      "inputs": [
        {
          "indexed": true,
          "internalType": "address",
          "name": "previousOwner",
          "type": "address"
        },
        {
          "indexed": true,
          "internalType": "address",
          "name": "newOwner",
          "type": "address"
        }
      ],
      "name": "OwnershipTransferred",
      "type": "event"
    },
    {
      "anonymous": false,
      "inputs": [
        {
          "indexed": true,
          "internalType": "address",
          "name": "from",
          "type": "address"
        },
        {
          "indexed": true,
          "internalType": "address",
          "name": "to",
          "type": "address"
        },
        {
          "indexed": true,
          "internalType": "uint256",
          "name": "tokenId",
          "type": "uint256"
        }
      ],
      "name": "Transfer",
      "type": "event"
    },
    {
      "inputs": [
        {
          "internalType": "address",
          "name": "to",
          "type": "address"
        },
        {
          "internalType": "uint256",
          "name": "tokenId",
          "type": "uint256"
        }
      ],
      "name": "approve",
      "outputs": [],
      "stateMutability": "nonpayable",
      "type": "function"
    },
    {
      "inputs": [
        {
          "internalType": "address",
          "name": "owner",
          "type": "address"
        }
      ],
      "name": "balanceOf",
      "outputs": [
        {
          "internalType": "uint256",
          "name": "",
          "type": "uint256"
        }
      ],
      "stateMutability": "view",
      "type": "function"
    },
    {
      "inputs": [],
      "name": "baseURI",
      "outputs": [
        {
          "internalType": "string",
          "name": "",
          "type": "string"
        }
      ],
      "stateMutability": "view",
      "type": "function"
    },
    {
      "inputs": [
        {
          "internalType": "address",
          "name": "_miner",
          "type": "address"
        }
      ],
      "name": "delMiner",
      "outputs": [],
      "stateMutability": "nonpayable",
      "type": "function"
    },
    {
      "inputs": [
        {
          "internalType": "uint256",
          "name": "tokenId",
          "type": "uint256"
        }
      ],
      "name": "getApproved",
      "outputs": [
        {
          "internalType": "address",
          "name": "",
          "type": "address"
        }
      ],
      "stateMutability": "view",
      "type": "function"
    },
    {
      "inputs": [
        {
          "internalType": "address",
          "name": "owner",
          "type": "address"
        },
        {
          "internalType": "address",
          "name": "operator",
          "type": "address"
        }
      ],
      "name": "isApprovedForAll",
      "outputs": [
        {
          "internalType": "bool",
          "name": "",
          "type": "bool"
        }
      ],
      "stateMutability": "view",
      "type": "function"
    },
    {
      "inputs": [
        {
          "internalType": "address",
          "name": "",
          "type": "address"
        }
      ],
      "name": "isMiner",
      "outputs": [
        {
          "internalType": "bool",
          "name": "",
          "type": "bool"
        }
      ],
      "stateMutability": "view",
      "type": "function"
    },
    {
      "inputs": [],
      "name": "name",
      "outputs": [
        {
          "internalType": "string",
          "name": "",
          "type": "string"
        }
      ],
      "stateMutability": "view",
      "type": "function"
    },
    {
      "inputs": [],
      "name": "owner",
      "outputs": [
        {
          "internalType": "address",
          "name": "",
          "type": "address"
        }
      ],
      "stateMutability": "view",
      "type": "function"
    },
    {
      "inputs": [
        {
          "internalType": "uint256",
          "name": "tokenId",
          "type": "uint256"
        }
      ],
      "name": "ownerOf",
      "outputs": [
        {
          "internalType": "address",
          "name": "",
          "type": "address"
        }
      ],
      "stateMutability": "view",
      "type": "function"
    },
    {
      "inputs": [],
      "name": "renounceOwnership",
      "outputs": [],
      "stateMutability": "nonpayable",
      "type": "function"
    },
    {
      "inputs": [
        {
          "internalType": "address",
          "name": "from",
          "type": "address"
        },
        {
          "internalType": "address",
          "name": "to",
          "type": "address"
        },
        {
          "internalType": "uint256",
          "name": "tokenId",
          "type": "uint256"
        }
      ],
      "name": "safeTransferFrom",
      "outputs": [],
      "stateMutability": "nonpayable",
      "type": "function"
    },
    {
      "inputs": [
        {
          "internalType": "address",
          "name": "from",
          "type": "address"
        },
        {
          "internalType": "address",
          "name": "to",
          "type": "address"
        },
        {
          "internalType": "uint256",
          "name": "tokenId",
          "type": "uint256"
        },
        {
          "internalType": "bytes",
          "name": "_data",
          "type": "bytes"
        }
      ],
      "name": "safeTransferFrom",
      "outputs": [],
      "stateMutability": "nonpayable",
      "type": "function"
    },
    {
      "inputs": [
        {
          "internalType": "address",
          "name": "operator",
          "type": "address"
        },
        {
          "internalType": "bool",
          "name": "approved",
          "type": "bool"
        }
      ],
      "name": "setApprovalForAll",
      "outputs": [],
      "stateMutability": "nonpayable",
      "type": "function"
    },
    {
      "inputs": [
        {
          "internalType": "address",
          "name": "_miner",
          "type": "address"
        }
      ],
      "name": "setMiner",
      "outputs": [],
      "stateMutability": "nonpayable",
      "type": "function"
    },
    {
      "inputs": [
        {
          "internalType": "bytes4",
          "name": "interfaceId",
          "type": "bytes4"
        }
      ],
      "name": "supportsInterface",
      "outputs": [
        {
          "internalType": "bool",
          "name": "",
          "type": "bool"
        }
      ],
      "stateMutability": "view",
      "type": "function"
    },
    {
      "inputs": [],
      "name": "symbol",
      "outputs": [
        {
          "internalType": "string",
          "name": "",
          "type": "string"
        }
      ],
      "stateMutability": "view",
      "type": "function"
    },
    {
      "inputs": [
        {
          "internalType": "uint256",
          "name": "index",
          "type": "uint256"
        }
      ],
      "name": "tokenByIndex",
      "outputs": [
        {
          "internalType": "uint256",
          "name": "",
          "type": "uint256"
        }
      ],
      "stateMutability": "view",
      "type": "function"
    },
    {
      "inputs": [
        {
          "internalType": "address",
          "name": "owner",
          "type": "address"
        },
        {
          "internalType": "uint256",
          "name": "index",
          "type": "uint256"
        }
      ],
      "name": "tokenOfOwnerByIndex",
      "outputs": [
        {
          "internalType": "uint256",
          "name": "",
          "type": "uint256"
        }
      ],
      "stateMutability": "view",
      "type": "function"
    },
    {
      "inputs": [],
      "name": "totalSupply",
      "outputs": [
        {
          "internalType": "uint256",
          "name": "",
          "type": "uint256"
        }
      ],
      "stateMutability": "view",
      "type": "function"
    },
    {
      "inputs": [
        {
          "internalType": "address",
          "name": "from",
          "type": "address"
        },
        {
          "internalType": "address",
          "name": "to",
          "type": "address"
        },
        {
          "internalType": "uint256",
          "name": "tokenId",
          "type": "uint256"
        }
      ],
      "name": "transferFrom",
      "outputs": [],
      "stateMutability": "nonpayable",
      "type": "function"
    },
    {
      "inputs": [
        {
          "internalType": "address",
          "name": "newOwner",
          "type": "address"
        }
      ],
      "name": "transferOwnership",
      "outputs": [],
      "stateMutability": "nonpayable",
      "type": "function"
    },
    {
      "inputs": [
        {
          "internalType": "uint256",
          "name": "itemIndex",
          "type": "uint256"
        },
        {
          "internalType": "uint8",
          "name": "itemQuality",
          "type": "uint8"
        }
      ],
      "name": "itemCount",
      "outputs": [
        {
          "internalType": "uint256",
          "name": "",
          "type": "uint256"
        }
      ],
      "stateMutability": "view",
      "type": "function"
    },
    {
      "inputs": [
        {
          "internalType": "uint256",
          "name": "tokenId",
          "type": "uint256"
        }
      ],
      "name": "tokenInfo",
      "outputs": [
        {
          "components": [
            {
              "internalType": "uint8",
              "name": "x1",
              "type": "uint8"
            },
            {
              "internalType": "uint8",
              "name": "x2",
              "type": "uint8"
            },
            {
              "internalType": "uint8",
              "name": "y1",
              "type": "uint8"
            },
            {
              "internalType": "uint8",
              "name": "y2",
              "type": "uint8"
            },
            {
              "internalType": "uint8",
              "name": "z1",
              "type": "uint8"
            },
            {
              "internalType": "uint8",
              "name": "z2",
              "type": "uint8"
            }
          ],
          "internalType": "struct ItemCard.ItemInfo",
          "name": "",
          "type": "tuple"
        }
      ],
      "stateMutability": "view",
      "type": "function"
    },
    {
      "inputs": [
        {
          "internalType": "uint256",
          "name": "tokenId",
          "type": "uint256"
        }
      ],
      "name": "tokenId2Item",
      "outputs": [
        {
          "internalType": "uint256",
          "name": "",
          "type": "uint256"
        }
      ],
      "stateMutability": "view",
      "type": "function"
    },
    {
      "inputs": [
        {
          "internalType": "uint256",
          "name": "tokenId",
          "type": "uint256"
        }
      ],
      "name": "tokenId2Quality",
      "outputs": [
        {
          "internalType": "uint8",
          "name": "",
          "type": "uint8"
        }
      ],
      "stateMutability": "view",
      "type": "function"
    },
    {
      "inputs": [
        {
          "internalType": "address",
          "name": "recipient",
          "type": "address"
        },
        {
          "internalType": "uint256",
          "name": "itemIndex",
          "type": "uint256"
        },
        {
          "internalType": "uint8",
          "name": "itemQuality",
          "type": "uint8"
        },
        {
          "components": [
            {
              "internalType": "uint8",
              "name": "x1",
              "type": "uint8"
            },
            {
              "internalType": "uint8",
              "name": "x2",
              "type": "uint8"
            },
            {
              "internalType": "uint8",
              "name": "y1",
              "type": "uint8"
            },
            {
              "internalType": "uint8",
              "name": "y2",
              "type": "uint8"
            },
            {
              "internalType": "uint8",
              "name": "z1",
              "type": "uint8"
            },
            {
              "internalType": "uint8",
              "name": "z2",
              "type": "uint8"
            }
          ],
          "internalType": "struct ItemCard.ItemInfo",
          "name": "itemInfo",
          "type": "tuple"
        }
      ],
      "name": "mint",
      "outputs": [],
      "stateMutability": "nonpayable",
      "type": "function"
    },
    {
      "inputs": [
        {
          "internalType": "uint256",
          "name": "tokenId",
          "type": "uint256"
        }
      ],
      "name": "burn",
      "outputs": [],
      "stateMutability": "nonpayable",
      "type": "function"
    },
    {
      "inputs": [
        {
          "internalType": "uint256",
          "name": "itemIndex",
          "type": "uint256"
        },
        {
          "internalType": "uint8",
          "name": "quality",
          "type": "uint8"
        }
      ],
      "name": "itemURI",
      "outputs": [
        {
          "internalType": "string",
          "name": "",
          "type": "string"
        }
      ],
      "stateMutability": "view",
      "type": "function"
    },
    {
      "inputs": [
        {
          "internalType": "uint256",
          "name": "tokenId",
          "type": "uint256"
        }
      ],
      "name": "tokenURI",
      "outputs": [
        {
          "internalType": "string",
          "name": "",
          "type": "string"
        }
      ],
      "stateMutability": "view",
      "type": "function"
    },
    {
      "inputs": [
        {
          "internalType": "string",
          "name": "URI",
          "type": "string"
        }
      ],
      "name": "setBaseURI",
      "outputs": [],
      "stateMutability": "nonpayable",
      "type": "function"
    },
    {
      "inputs": [
        {
          "internalType": "uint256",
          "name": "itemIndex",
          "type": "uint256"
        },
        {
          "internalType": "uint8",
          "name": "quality",
          "type": "uint8"
        },
        {
          "internalType": "string",
          "name": "URI",
          "type": "string"
        }
      ],
      "name": "setItemURI",
      "outputs": [],
      "stateMutability": "nonpayable",
      "type": "function"
    }
  ],
  "bytecode": "0x60806040523480156200001157600080fd5b506040518060400160405280601581526020017f4e46547320426174746c65204974656d204361726400000000000000000000008152506040518060400160405280600881526020016713919514d2d2531360c21b81525060006200007b6200014c60201b60201c565b600080546001600160a01b0319166001600160a01b0383169081178255604051929350917f8be0079c531659141344cd1fd0a4f28419497f9722a3daafe3b4186f6b6457e0908290a350620000d03362000150565b620000e26301ffc9a760e01b620001c6565b8151620000f790600890602085019062000227565b5080516200010d90600990602084019062000227565b50620001206380ac58cd60e01b620001c6565b62000132635b5e139f60e01b620001c6565b6200014463780e9d6360e01b620001c6565b50506200032f565b3390565b6200015a6200014c565b6001600160a01b03166200016d62000218565b6001600160a01b0316146200019f5760405162461bcd60e51b81526004016200019690620002fa565b60405180910390fd5b6001600160a01b03166000908152600160208190526040909120805460ff19169091179055565b6001600160e01b03198082161415620001f35760405162461bcd60e51b81526004016200019690620002c3565b6001600160e01b0319166000908152600260205260409020805460ff19166001179055565b6000546001600160a01b031690565b828054600181600116156101000203166002900490600052602060002090601f016020900481019282601f106200026a57805160ff19168380011785556200029a565b828001600101855582156200029a579182015b828111156200029a5782518255916020019190600101906200027d565b50620002a8929150620002ac565b5090565b5b80821115620002a85760008155600101620002ad565b6020808252601c908201527f4552433136353a20696e76616c696420696e7465726661636520696400000000604082015260600190565b6020808252818101527f4f776e61626c653a2063616c6c6572206973206e6f7420746865206f776e6572604082015260600190565b612857806200033f6000396000f3fe608060405234801561001057600080fd5b50600436106101f05760003560e01c8063701b70ac1161010f578063a22cb465116100a2578063cc33c87511610071578063cc33c87514610413578063d6f2202914610433578063e985e9c514610446578063f2fde38b14610459576101f0565b8063a22cb465146103c7578063b88d4fde146103da578063c48820fb146103ed578063c87b56dd14610400576101f0565b80638da5cb5b116100de5780638da5cb5b1461039157806395d89b41146103995780639742ca46146103a1578063a1404765146103b4576101f0565b8063701b70ac1461035057806370a0823114610363578063715018a6146103765780637e3aab3c1461037e576101f0565b806342842e0e1161018757806355f804b31161015657806355f804b31461030257806361890a8d146103155780636352211e146103355780636c0360eb14610348576101f0565b806342842e0e146102b657806342966c68146102c9578063451ec35d146102dc5780634f6ccce7146102ef576101f0565b806318160ddd116101c357806318160ddd1461026857806323b872dd1461027d5780632f745c59146102905780634222f5da146102a3576101f0565b806301ffc9a7146101f557806306fdde031461021e578063081812fc14610233578063095ea7b314610253575b600080fd5b610208610203366004611f01565b61046c565b60405161021591906120cb565b60405180910390f35b61022661048f565b60405161021591906120d6565b610246610241366004611f6c565b610525565b604051610215919061207a565b610266610261366004611e0d565b610571565b005b610270610609565b6040516102159190612731565b61026661028b366004611d2a565b61061a565b61027061029e366004611e0d565b610652565b6102706102b1366004611f84565b61067d565b6102666102c4366004611d2a565b6106a2565b6102666102d7366004611f6c565b6106bd565b6102666102ea366004611cdb565b6106f9565b6102706102fd366004611f6c565b610759565b610266610310366004611f39565b61076f565b610328610323366004611f6c565b6107b7565b604051610215919061273a565b610246610343366004611f6c565b6107cc565b6102266107f4565b61020861035e366004611cdb565b610855565b610270610371366004611cdb565b61086a565b6102666108b3565b61026661038c366004611fad565b61093c565b6102466109ab565b6102266109ba565b6102666103af366004611cdb565b610a1b565b6102266103c2366004611f84565b610a81565b6102666103d5366004611dd2565b610b2e565b6102666103e8366004611d6a565b610bfc565b6102666103fb366004611e37565b610c35565b61022661040e366004611f6c565b610dc3565b610426610421366004611f6c565b610eaa565b60405161021591906126de565b610270610441366004611f6c565b610f23565b610208610454366004611cf6565b610f35565b610266610467366004611cdb565b610f63565b6001600160e01b0319811660009081526002602052604090205460ff165b919050565b60088054604080516020601f600260001961010060018816150201909516949094049384018190048102820181019092528281526060939092909183018282801561051b5780601f106104f05761010080835404028352916020019161051b565b820191906000526020600020905b8154815290600101906020018083116104fe57829003601f168201915b5050505050905090565b600061053082611023565b6105555760405162461bcd60e51b815260040161054c9061248e565b60405180910390fd5b506000908152600660205260409020546001600160a01b031690565b600061057c826107cc565b9050806001600160a01b0316836001600160a01b031614156105b05760405162461bcd60e51b815260040161054c906125a7565b806001600160a01b03166105c2611030565b6001600160a01b031614806105de57506105de81610454611030565b6105fa5760405162461bcd60e51b815260040161054c9061232f565b6106048383611034565b505050565b600061061560046110a2565b905090565b61062b610625611030565b826110ad565b6106475760405162461bcd60e51b815260040161054c9061261f565b610604838383611132565b6001600160a01b03821660009081526003602052604081206106749083611240565b90505b92915050565b6000828152600f6020908152604080832060ff8516845290915281206106749061124c565b61060483838360405180602001604052806000815250610bfc565b336106c7826107cc565b6001600160a01b0316146106ed5760405162461bcd60e51b815260040161054c90612670565b6106f681611250565b50565b610701611030565b6001600160a01b03166107126109ab565b6001600160a01b0316146107385760405162461bcd60e51b815260040161054c906124da565b6001600160a01b03166000908152600160205260409020805460ff19169055565b60008061076760048461131d565b509392505050565b610777611030565b6001600160a01b03166107886109ab565b6001600160a01b0316146107ae5760405162461bcd60e51b815260040161054c906124da565b6106f681611339565b6000908152600e602052604090205460ff1690565b6000610677826040518060600160405280602981526020016127f96029913960049190611350565b600b8054604080516020601f600260001961010060018816150201909516949094049384018190048102820181019092528281526060939092909183018282801561051b5780601f106104f05761010080835404028352916020019161051b565b60016020526000908152604090205460ff1681565b60006001600160a01b0382166108925760405162461bcd60e51b815260040161054c9061238c565b6001600160a01b0382166000908152600360205260409020610677906110a2565b6108bb611030565b6001600160a01b03166108cc6109ab565b6001600160a01b0316146108f25760405162461bcd60e51b815260040161054c906124da565b600080546040516001600160a01b03909116907f8be0079c531659141344cd1fd0a4f28419497f9722a3daafe3b4186f6b6457e0908390a3600080546001600160a01b0319169055565b610944611030565b6001600160a01b03166109556109ab565b6001600160a01b03161461097b5760405162461bcd60e51b815260040161054c906124da565b600083815260106020908152604080832060ff86168452825290912082516109a592840190611b42565b50505050565b6000546001600160a01b031690565b60098054604080516020601f600260001961010060018816150201909516949094049384018190048102820181019092528281526060939092909183018282801561051b5780601f106104f05761010080835404028352916020019161051b565b610a23611030565b6001600160a01b0316610a346109ab565b6001600160a01b031614610a5a5760405162461bcd60e51b815260040161054c906124da565b6001600160a01b03166000908152600160208190526040909120805460ff19169091179055565b600082815260106020908152604080832060ff8516845282529182902080548351601f6002600019610100600186161502019093169290920491820184900484028101840190945280845260609392830182828015610b215780601f10610af657610100808354040283529160200191610b21565b820191906000526020600020905b815481529060010190602001808311610b0457829003601f168201915b5050505050905092915050565b610b36611030565b6001600160a01b0316826001600160a01b03161415610b675760405162461bcd60e51b815260040161054c906122ac565b8060076000610b74611030565b6001600160a01b03908116825260208083019390935260409182016000908120918716808252919093529120805460ff191692151592909217909155610bb8611030565b6001600160a01b03167f17307eab39ab6107e8899845ad3d59bd9653f200f220920489ca2b5937696c3183604051610bf091906120cb565b60405180910390a35050565b610c0d610c07611030565b836110ad565b610c295760405162461bcd60e51b815260040161054c9061261f565b6109a584848484611367565b3360009081526001602052604090205460ff16610c645760405162461bcd60e51b815260040161054c9061212b565b60068260ff1611158015610c7b575060008260ff16115b610c975760405162461bcd60e51b815260040161054c906125e8565b6000610cca610ca6858561067d565b610cc4610cb860ff87166103e861139a565b610cc48861271061139a565b906113d4565b6000818152600c6020908152604080832086518154888501518985015160608b015160808c015160a08d015160ff1995861660ff9788161761ff001916610100958816959095029490941762ff0000191662010000938716939093029290921763ff00000019166301000000918616919091021764ff000000001916640100000000918516919091021765ff00000000001916650100000000009184169190910217909255600d84528285208a9055600e909352922080549092169086161790559050610d9785826113f9565b6000848152600f6020908152604080832060ff871684529091529020610dbc906114bd565b5050505050565b6060610dce82611023565b610dea5760405162461bcd60e51b815260040161054c90612558565b6000610df583610f23565b90506000610e02846107b7565b90506060610e0e6107f4565b9050805160001415610e2e57610e248383610a81565b935050505061048a565b6000610e3a8484610a81565b511115610e765780610e4c8484610a81565b604051602001610e5d92919061204b565b604051602081830303815290604052935050505061048a565b80610e80866114c6565b604051602001610e9192919061204b565b6040516020818303038152906040529350505050919050565b610eb2611bc0565b506000908152600c6020908152604091829020825160c081018452905460ff808216835261010082048116938301939093526201000081048316938201939093526301000000830482166060820152640100000000830482166080820152650100000000009092041660a082015290565b6000908152600d602052604090205490565b6001600160a01b03918216600090815260076020908152604080832093909416825291909152205460ff1690565b610f6b611030565b6001600160a01b0316610f7c6109ab565b6001600160a01b031614610fa25760405162461bcd60e51b815260040161054c906124da565b6001600160a01b038116610fc85760405162461bcd60e51b815260040161054c906121b4565b600080546040516001600160a01b03808516939216917f8be0079c531659141344cd1fd0a4f28419497f9722a3daafe3b4186f6b6457e091a3600080546001600160a01b0319166001600160a01b0392909216919091179055565b60006106776004836115a1565b3390565b600081815260066020526040902080546001600160a01b0319166001600160a01b0384169081179091558190611069826107cc565b6001600160a01b03167f8c5be1e5ebec7d5bd14f71427d1e84f3dd0314c0f7b2291e5b200ac8c7c3b92560405160405180910390a45050565b60006106778261124c565b60006110b882611023565b6110d45760405162461bcd60e51b815260040161054c906122e3565b60006110df836107cc565b9050806001600160a01b0316846001600160a01b0316148061111a5750836001600160a01b031661110f84610525565b6001600160a01b0316145b8061112a575061112a8185610f35565b949350505050565b826001600160a01b0316611145826107cc565b6001600160a01b03161461116b5760405162461bcd60e51b815260040161054c9061250f565b6001600160a01b0382166111915760405162461bcd60e51b815260040161054c90612268565b61119c838383610604565b6111a7600082611034565b6001600160a01b03831660009081526003602052604090206111c990826115ad565b506001600160a01b03821660009081526003602052604090206111ec90826115b9565b506111f9600482846115c5565b5080826001600160a01b0316846001600160a01b03167fddf252ad1be2c89b69c2b068fc378daa952ba7f163c4a11628f55a4df523b3ef60405160405180910390a4505050565b600061067483836115db565b5490565b600061125b826107cc565b905061126981600084610604565b611274600083611034565b6000828152600a602052604090205460026000196101006001841615020190911604156112b2576000828152600a602052604081206112b291611bf5565b6001600160a01b03811660009081526003602052604090206112d490836115ad565b506112e0600483611620565b5060405182906000906001600160a01b038416907fddf252ad1be2c89b69c2b068fc378daa952ba7f163c4a11628f55a4df523b3ef908390a45050565b600080808061132c868661162c565b9097909650945050505050565b805161134c90600b906020840190611b42565b5050565b600061135d848484611688565b90505b9392505050565b611372848484611132565b61137e848484846116e7565b6109a55760405162461bcd60e51b815260040161054c90612162565b6000826113a957506000610677565b828202828482816113b657fe5b04146106745760405162461bcd60e51b815260040161054c9061244d565b6000828201838110156106745760405162461bcd60e51b815260040161054c90612231565b6001600160a01b03821661141f5760405162461bcd60e51b815260040161054c90612418565b61142881611023565b156114455760405162461bcd60e51b815260040161054c906121fa565b61145160008383610604565b6001600160a01b038216600090815260036020526040902061147390826115b9565b50611480600482846115c5565b5060405181906001600160a01b038416906000907fddf252ad1be2c89b69c2b068fc378daa952ba7f163c4a11628f55a4df523b3ef908290a45050565b80546001019055565b6060816114eb57506040805180820190915260018152600360fc1b602082015261048a565b8160005b811561150357600101600a820491506114ef565b60608167ffffffffffffffff8111801561151c57600080fd5b506040519080825280601f01601f191660200182016040528015611547576020820181803683370190505b50859350905060001982015b831561159857600a840660300160f81b8282806001900393508151811061157657fe5b60200101906001600160f81b031916908160001a905350600a84049350611553565b50949350505050565b600061067483836117c6565b600061067483836117de565b600061067483836118a4565b600061135d84846001600160a01b0385166118ee565b815460009082106115fe5760405162461bcd60e51b815260040161054c906120e9565b82600001828154811061160d57fe5b9060005260206000200154905092915050565b60006106748383611985565b8154600090819083106116515760405162461bcd60e51b815260040161054c906123d6565b600084600001848154811061166257fe5b906000526020600020906002020190508060000154816001015492509250509250929050565b600082815260018401602052604081205482816116b85760405162461bcd60e51b815260040161054c91906120d6565b508460000160018203815481106116cb57fe5b9060005260206000209060020201600101549150509392505050565b60006116fb846001600160a01b0316611a59565b6117075750600161112a565b606061178f630a85bd0160e11b61171c611030565b888787604051602401611732949392919061208e565b604051602081830303815290604052906001600160e01b0319166020820180516001600160e01b0383818316178352505050506040518060600160405280603281526020016127c7603291396001600160a01b0388169190611a5f565b90506000818060200190518101906117a79190611f1d565b6001600160e01b031916630a85bd0160e11b1492505050949350505050565b60009081526001919091016020526040902054151590565b6000818152600183016020526040812054801561189a578354600019808301919081019060009087908390811061181157fe5b906000526020600020015490508087600001848154811061182e57fe5b60009182526020808320909101929092558281526001898101909252604090209084019055865487908061185e57fe5b60019003818190600052602060002001600090559055866001016000878152602001908152602001600020600090556001945050505050610677565b6000915050610677565b60006118b083836117c6565b6118e657508154600181810184556000848152602080822090930184905584548482528286019093526040902091909155610677565b506000610677565b600082815260018401602052604081205480611953575050604080518082018252838152602080820184815286546001818101895560008981528481209551600290930290950191825591519082015586548684528188019092529290912055611360565b8285600001600183038154811061196657fe5b9060005260206000209060020201600101819055506000915050611360565b6000818152600183016020526040812054801561189a57835460001980830191908101906000908790839081106119b857fe5b90600052602060002090600202019050808760000184815481106119d857fe5b600091825260208083208454600290930201918255600193840154918401919091558354825289830190526040902090840190558654879080611a1757fe5b60008281526020808220600260001990940193840201828155600190810183905592909355888152898201909252604082209190915594506106779350505050565b3b151590565b606061135d848460008585611a7385611a59565b611a8f5760405162461bcd60e51b815260040161054c906126a7565b60006060866001600160a01b03168587604051611aac919061202f565b60006040518083038185875af1925050503d8060008114611ae9576040519150601f19603f3d011682016040523d82523d6000602084013e611aee565b606091505b5091509150611afe828286611b09565b979650505050505050565b60608315611b18575081611360565b825115611b285782518084602001fd5b8160405162461bcd60e51b815260040161054c91906120d6565b828054600181600116156101000203166002900490600052602060002090601f016020900481019282601f10611b8357805160ff1916838001178555611bb0565b82800160010185558215611bb0579182015b82811115611bb0578251825591602001919060010190611b95565b50611bbc929150611c35565b5090565b6040805160c081018252600080825260208201819052918101829052606081018290526080810182905260a081019190915290565b50805460018160011615610100020316600290046000825580601f10611c1b57506106f6565b601f0160209004906000526020600020908101906106f691905b5b80821115611bbc5760008155600101611c36565b80356001600160a01b038116811461067757600080fd5b600082601f830112611c71578081fd5b813567ffffffffffffffff811115611c87578182fd5b611c9a601f8201601f1916602001612748565b9150808252836020828501011115611cb157600080fd5b8060208401602084013760009082016020015292915050565b803560ff8116811461067757600080fd5b600060208284031215611cec578081fd5b6106748383611c4a565b60008060408385031215611d08578081fd5b611d128484611c4a565b9150611d218460208501611c4a565b90509250929050565b600080600060608486031215611d3e578081fd5b8335611d498161279b565b92506020840135611d598161279b565b929592945050506040919091013590565b60008060008060808587031215611d7f578081fd5b611d898686611c4a565b9350611d988660208701611c4a565b925060408501359150606085013567ffffffffffffffff811115611dba578182fd5b611dc687828801611c61565b91505092959194509250565b60008060408385031215611de4578182fd5b611dee8484611c4a565b915060208301358015158114611e02578182fd5b809150509250929050565b60008060408385031215611e1f578182fd5b611e298484611c4a565b946020939093013593505050565b600080600080848603610120811215611e4e578485fd5b611e588787611c4a565b945060208601359350611e6e8760408801611cca565b925060c0605f1982011215611e81578182fd5b50611e8c60c0612748565b611e998760608801611cca565b8152611ea88760808801611cca565b6020820152611eba8760a08801611cca565b6040820152611ecc8760c08801611cca565b6060820152611ede8760e08801611cca565b6080820152611ef1876101008801611cca565b60a0820152939692955090935050565b600060208284031215611f12578081fd5b8135610674816127b0565b600060208284031215611f2e578081fd5b8151610674816127b0565b600060208284031215611f4a578081fd5b813567ffffffffffffffff811115611f60578182fd5b61112a84828501611c61565b600060208284031215611f7d578081fd5b5035919050565b60008060408385031215611f96578182fd5b82359150602083013560ff81168114611e02578182fd5b600080600060608486031215611fc1578081fd5b83359250611fd28560208601611cca565b9150604084013567ffffffffffffffff811115611fed578182fd5b611ff986828701611c61565b9150509250925092565b6000815180845261201b81602086016020860161276f565b601f01601f19169290920160200192915050565b6000825161204181846020870161276f565b9190910192915050565b6000835161205d81846020880161276f565b83519083019061207181836020880161276f565b01949350505050565b6001600160a01b0391909116815260200190565b6001600160a01b03858116825284166020820152604081018390526080606082018190526000906120c190830184612003565b9695505050505050565b901515815260200190565b6000602082526106746020830184612003565b60208082526022908201527f456e756d657261626c655365743a20696e646578206f7574206f6620626f756e604082015261647360f01b606082015260800190565b6020808252601d908201527f4d696e653a2063616c6c6572206973206e6f7420746865206d696e6572000000604082015260600190565b60208082526032908201527f4552433732313a207472616e7366657220746f206e6f6e20455243373231526560408201527131b2b4bb32b91034b6b83632b6b2b73a32b960711b606082015260800190565b60208082526026908201527f4f776e61626c653a206e6577206f776e657220697320746865207a65726f206160408201526564647265737360d01b606082015260800190565b6020808252601c908201527f4552433732313a20746f6b656e20616c7265616479206d696e74656400000000604082015260600190565b6020808252601b908201527f536166654d6174683a206164646974696f6e206f766572666c6f770000000000604082015260600190565b60208082526024908201527f4552433732313a207472616e7366657220746f20746865207a65726f206164646040820152637265737360e01b606082015260800190565b60208082526019908201527f4552433732313a20617070726f766520746f2063616c6c657200000000000000604082015260600190565b6020808252602c908201527f4552433732313a206f70657261746f7220717565727920666f72206e6f6e657860408201526b34b9ba32b73a103a37b5b2b760a11b606082015260800190565b60208082526038908201527f4552433732313a20617070726f76652063616c6c6572206973206e6f74206f7760408201527f6e6572206e6f7220617070726f76656420666f7220616c6c0000000000000000606082015260800190565b6020808252602a908201527f4552433732313a2062616c616e636520717565727920666f7220746865207a65604082015269726f206164647265737360b01b606082015260800190565b60208082526022908201527f456e756d657261626c654d61703a20696e646578206f7574206f6620626f756e604082015261647360f01b606082015260800190565b6020808252818101527f4552433732313a206d696e7420746f20746865207a65726f2061646472657373604082015260600190565b60208082526021908201527f536166654d6174683a206d756c7469706c69636174696f6e206f766572666c6f6040820152607760f81b606082015260800190565b6020808252602c908201527f4552433732313a20617070726f76656420717565727920666f72206e6f6e657860408201526b34b9ba32b73a103a37b5b2b760a11b606082015260800190565b6020808252818101527f4f776e61626c653a2063616c6c6572206973206e6f7420746865206f776e6572604082015260600190565b60208082526029908201527f4552433732313a207472616e73666572206f6620746f6b656e2074686174206960408201526839903737ba1037bbb760b91b606082015260800190565b6020808252602f908201527f4552433732314d657461646174613a2055524920717565727920666f72206e6f60408201526e3732bc34b9ba32b73a103a37b5b2b760891b606082015260800190565b60208082526021908201527f4552433732313a20617070726f76616c20746f2063757272656e74206f776e656040820152603960f91b606082015260800190565b6020808252601c908201527f4974656d20436172643a206974656d5175616c697479206572726f7200000000604082015260600190565b60208082526031908201527f4552433732313a207472616e736665722063616c6c6572206973206e6f74206f6040820152701ddb995c881b9bdc88185c1c1c9bdd9959607a1b606082015260800190565b6020808252601c908201527f596f7520617265206e6f74207468697320746f6b656e206f776e657200000000604082015260600190565b6020808252601d908201527f416464726573733a2063616c6c20746f206e6f6e2d636f6e7472616374000000604082015260600190565b600060c08201905060ff8084511683528060208501511660208401528060408501511660408401528060608501511660608401528060808501511660808401528060a08501511660a08401525092915050565b90815260200190565b60ff91909116815260200190565b60405181810167ffffffffffffffff8111828210171561276757600080fd5b604052919050565b60005b8381101561278a578181015183820152602001612772565b838111156109a55750506000910152565b6001600160a01b03811681146106f657600080fd5b6001600160e01b0319811681146106f657600080fdfe4552433732313a207472616e7366657220746f206e6f6e20455243373231526563656976657220696d706c656d656e7465724552433732313a206f776e657220717565727920666f72206e6f6e6578697374656e7420746f6b656ea26469706673582212200b21056117435d18964b71d25cc83ef0414820b23e560e61bde37ca113aba83164736f6c634300060c0033",
  "immutableReferences": {},
  "source": "// SPDX-License-Identifier: MIT\npragma solidity ^0.6.0;\npragma experimental ABIEncoderV2;\n\nimport './Miner.sol';\n// import \"https://github.com/OpenZeppelin/openzeppelin-contracts/blob/docs-v3.x/contracts/utils/Counters.sol\";\n// import \"https://github.com/OpenZeppelin/openzeppelin-contracts/blob/docs-v3.x/contracts/token/ERC721/ERC721.sol\";\nimport \"@openzeppelin/contracts/utils/Counters.sol\";\nimport \"@openzeppelin/contracts/token/ERC721/ERC721.sol\";\n/*\n    Item Quality:\n    R: 1\n    B: 2\n    A: 3\n    S: 4\n    SR: 5\n    Lengend: 6\n*/\n    \ncontract ItemCard is Miner, ERC721 {\n    using Counters for Counters.Counter;\n\n    struct ItemInfo{\n        uint8 x1;\n        uint8 x2;\n        uint8 y1;\n        uint8 y2;\n        uint8 z1;\n        uint8 z2;\n    }\n\n    mapping (uint => ItemInfo) private _itemInfo; //tokenId => info\n    mapping (uint => uint) private _itemIndex; //tokenId => itemIndex\n    mapping (uint => uint8) private _itemQuality; //tokenId => itemQuality\n    \n    mapping (uint => mapping (uint8 => Counters.Counter)) private _nftCount; //itemIndex => count\n    mapping (uint => mapping(uint8 => string)) private _itemURI; //itemIndex => URI;\n\n    constructor() public ERC721(\"NFTs Battle Item Card\", \"NFTSKILL\") {}\n\n    function itemCount(uint itemIndex, uint8 itemQuality) public view returns(uint){\n        return _nftCount[itemIndex][itemQuality].current();\n    }\n\n    function tokenInfo(uint tokenId) public view returns(ItemInfo memory){\n        return _itemInfo[tokenId];\n    }\n\n    function tokenId2Item(uint tokenId) public view returns(uint){\n        return _itemIndex[tokenId];\n    }\n\n    function tokenId2Quality(uint tokenId) public view returns(uint8){\n        return _itemQuality[tokenId];\n    }\n\n    function mint(address recipient, uint itemIndex, uint8 itemQuality,\n        ItemInfo memory itemInfo) external onlyMiner{\n        require(itemQuality <= 6 && itemQuality > 0, \"Item Card: itemQuality error\");\n        uint tokenId = itemIndex.mul(10000).add(uint(itemQuality).mul(1000)).add(itemCount(itemIndex, itemQuality));\n        _itemInfo[tokenId] = itemInfo;\n        _itemIndex[tokenId] = itemIndex;\n        _itemQuality[tokenId] = itemQuality;\n        _mint(recipient, tokenId);\n        _nftCount[itemIndex][itemQuality].increment();\n    }\n\n    function burn(uint tokenId) external{\n        require(ownerOf(tokenId) == msg.sender, \"You are not this token owner\");\n        _burn(tokenId);\n    }\n\n    function itemURI(uint itemIndex, uint8 quality) public view returns(string memory) {\n        return _itemURI[itemIndex][quality];\n    }\n\n    function tokenURI(uint256 tokenId) public view override returns (string memory) {\n        require(_exists(tokenId), \"ERC721Metadata: URI query for nonexistent token\");\n        uint itemIndex = tokenId2Item(tokenId);\n        uint8 itemQuality = tokenId2Quality(tokenId);\n\n        string memory base = baseURI();\n\n        // If there is no base URI, return the item URI.\n        if (bytes(base).length == 0) {\n            return itemURI(itemIndex, itemQuality);\n        }\n        // If both are set, concatenate the baseURI and itemURI (via abi.encodePacked).\n        if (bytes(itemURI(itemIndex, itemQuality)).length > 0) {\n            return string(abi.encodePacked(base, itemURI(itemIndex, itemQuality)));\n        }\n        // If there is a baseURI but no itemURI, concatenate the tokenID to the baseURI.\n        return string(abi.encodePacked(base, tokenId.toString()));\n    }\n\n    function setBaseURI(string memory URI) external onlyOwner{\n        _setBaseURI(URI);\n    }\n\n    function setItemURI(uint itemIndex, uint8 quality, string memory URI) external onlyOwner{\n        _itemURI[itemIndex][quality] = URI;\n    }\n}",
  "sourcePath": "D:\\Solidity\\Solidity\\lottery\\contracts\\ItemCard.sol",
  "compiler": {
    "name": "solc",
    "version": "0.6.12+commit.27d51765.Emscripten.clang"
  },
  "schemaVersion": "3.4.4",
  "updatedAt": "2022-07-03T15:51:28.232Z",
  "devdoc": {
    "kind": "dev",
    "methods": {
      "approve(address,uint256)": {
        "details": "See {IERC721-approve}."
      },
      "balanceOf(address)": {
        "details": "See {IERC721-balanceOf}."
      },
      "baseURI()": {
        "details": "Returns the base URI set via {_setBaseURI}. This will be automatically added as a prefix in {tokenURI} to each token's URI, or to the token ID if no specific URI is set for that token ID."
      },
      "getApproved(uint256)": {
        "details": "See {IERC721-getApproved}."
      },
      "isApprovedForAll(address,address)": {
        "details": "See {IERC721-isApprovedForAll}."
      },
      "name()": {
        "details": "See {IERC721Metadata-name}."
      },
      "owner()": {
        "details": "Returns the address of the current owner."
      },
      "ownerOf(uint256)": {
        "details": "See {IERC721-ownerOf}."
      },
      "renounceOwnership()": {
        "details": "Leaves the contract without owner. It will not be possible to call `onlyOwner` functions anymore. Can only be called by the current owner. NOTE: Renouncing ownership will leave the contract without an owner, thereby removing any functionality that is only available to the owner."
      },
      "safeTransferFrom(address,address,uint256)": {
        "details": "See {IERC721-safeTransferFrom}."
      },
      "safeTransferFrom(address,address,uint256,bytes)": {
        "details": "See {IERC721-safeTransferFrom}."
      },
      "setApprovalForAll(address,bool)": {
        "details": "See {IERC721-setApprovalForAll}."
      },
      "supportsInterface(bytes4)": {
        "details": "See {IERC165-supportsInterface}. Time complexity O(1), guaranteed to always use less than 30 000 gas."
      },
      "symbol()": {
        "details": "See {IERC721Metadata-symbol}."
      },
      "tokenByIndex(uint256)": {
        "details": "See {IERC721Enumerable-tokenByIndex}."
      },
      "tokenOfOwnerByIndex(address,uint256)": {
        "details": "See {IERC721Enumerable-tokenOfOwnerByIndex}."
      },
      "tokenURI(uint256)": {
        "details": "See {IERC721Metadata-tokenURI}."
      },
      "totalSupply()": {
        "details": "See {IERC721Enumerable-totalSupply}."
      },
      "transferFrom(address,address,uint256)": {
        "details": "See {IERC721-transferFrom}."
      },
      "transferOwnership(address)": {
        "details": "Transfers ownership of the contract to a new account (`newOwner`). Can only be called by the current owner."
      }
    },
    "version": 1
  },
  "userdoc": {
    "kind": "user",
    "methods": {},
    "version": 1
  }
}