{
  "contractName": "ItemCardPack",
  "abi": [
    {
      "inputs": [],
      "stateMutability": "nonpayable",
      "type": "constructor"
    },
    {
      "anonymous": false,
      "inputs": [
        {
          "indexed": true,
          "internalType": "address",
          "name": "owner",
          "type": "address"
        },
        {
          "indexed": true,
          "internalType": "address",
          "name": "approved",
          "type": "address"
        },
        {
          "indexed": true,
          "internalType": "uint256",
          "name": "tokenId",
          "type": "uint256"
        }
      ],
      "name": "Approval",
      "type": "event"
    },
    {
      "anonymous": false,
      "inputs": [
        {
          "indexed": true,
          "internalType": "address",
          "name": "owner",
          "type": "address"
        },
        {
          "indexed": true,
          "internalType": "address",
          "name": "operator",
          "type": "address"
        },
        {
          "indexed": false,
          "internalType": "bool",
          "name": "approved",
          "type": "bool"
        }
      ],
      "name": "ApprovalForAll",
      "type": "event"
    },
    {
      "anonymous": false,
      "inputs": [
        {
          "indexed": true,
          "internalType": "address",
          "name": "previousOwner",
          "type": "address"
        },
        {
          "indexed": true,
          "internalType": "address",
          "name": "newOwner",
          "type": "address"
        }
      ],
      "name": "OwnershipTransferred",
      "type": "event"
    },
    {
      "anonymous": false,
      "inputs": [
        {
          "indexed": true,
          "internalType": "address",
          "name": "from",
          "type": "address"
        },
        {
          "indexed": true,
          "internalType": "address",
          "name": "to",
          "type": "address"
        },
        {
          "indexed": true,
          "internalType": "uint256",
          "name": "tokenId",
          "type": "uint256"
        }
      ],
      "name": "Transfer",
      "type": "event"
    },
    {
      "inputs": [
        {
          "internalType": "address",
          "name": "to",
          "type": "address"
        },
        {
          "internalType": "uint256",
          "name": "tokenId",
          "type": "uint256"
        }
      ],
      "name": "approve",
      "outputs": [],
      "stateMutability": "nonpayable",
      "type": "function"
    },
    {
      "inputs": [
        {
          "internalType": "address",
          "name": "owner",
          "type": "address"
        }
      ],
      "name": "balanceOf",
      "outputs": [
        {
          "internalType": "uint256",
          "name": "",
          "type": "uint256"
        }
      ],
      "stateMutability": "view",
      "type": "function"
    },
    {
      "inputs": [],
      "name": "baseURI",
      "outputs": [
        {
          "internalType": "string",
          "name": "",
          "type": "string"
        }
      ],
      "stateMutability": "view",
      "type": "function"
    },
    {
      "inputs": [
        {
          "internalType": "address",
          "name": "_miner",
          "type": "address"
        }
      ],
      "name": "delMiner",
      "outputs": [],
      "stateMutability": "nonpayable",
      "type": "function"
    },
    {
      "inputs": [
        {
          "internalType": "uint256",
          "name": "tokenId",
          "type": "uint256"
        }
      ],
      "name": "getApproved",
      "outputs": [
        {
          "internalType": "address",
          "name": "",
          "type": "address"
        }
      ],
      "stateMutability": "view",
      "type": "function"
    },
    {
      "inputs": [
        {
          "internalType": "address",
          "name": "owner",
          "type": "address"
        },
        {
          "internalType": "address",
          "name": "operator",
          "type": "address"
        }
      ],
      "name": "isApprovedForAll",
      "outputs": [
        {
          "internalType": "bool",
          "name": "",
          "type": "bool"
        }
      ],
      "stateMutability": "view",
      "type": "function"
    },
    {
      "inputs": [
        {
          "internalType": "address",
          "name": "",
          "type": "address"
        }
      ],
      "name": "isMiner",
      "outputs": [
        {
          "internalType": "bool",
          "name": "",
          "type": "bool"
        }
      ],
      "stateMutability": "view",
      "type": "function"
    },
    {
      "inputs": [],
      "name": "name",
      "outputs": [
        {
          "internalType": "string",
          "name": "",
          "type": "string"
        }
      ],
      "stateMutability": "view",
      "type": "function"
    },
    {
      "inputs": [],
      "name": "owner",
      "outputs": [
        {
          "internalType": "address",
          "name": "",
          "type": "address"
        }
      ],
      "stateMutability": "view",
      "type": "function"
    },
    {
      "inputs": [
        {
          "internalType": "uint256",
          "name": "tokenId",
          "type": "uint256"
        }
      ],
      "name": "ownerOf",
      "outputs": [
        {
          "internalType": "address",
          "name": "",
          "type": "address"
        }
      ],
      "stateMutability": "view",
      "type": "function"
    },
    {
      "inputs": [],
      "name": "renounceOwnership",
      "outputs": [],
      "stateMutability": "nonpayable",
      "type": "function"
    },
    {
      "inputs": [
        {
          "internalType": "address",
          "name": "from",
          "type": "address"
        },
        {
          "internalType": "address",
          "name": "to",
          "type": "address"
        },
        {
          "internalType": "uint256",
          "name": "tokenId",
          "type": "uint256"
        }
      ],
      "name": "safeTransferFrom",
      "outputs": [],
      "stateMutability": "nonpayable",
      "type": "function"
    },
    {
      "inputs": [
        {
          "internalType": "address",
          "name": "from",
          "type": "address"
        },
        {
          "internalType": "address",
          "name": "to",
          "type": "address"
        },
        {
          "internalType": "uint256",
          "name": "tokenId",
          "type": "uint256"
        },
        {
          "internalType": "bytes",
          "name": "_data",
          "type": "bytes"
        }
      ],
      "name": "safeTransferFrom",
      "outputs": [],
      "stateMutability": "nonpayable",
      "type": "function"
    },
    {
      "inputs": [
        {
          "internalType": "address",
          "name": "operator",
          "type": "address"
        },
        {
          "internalType": "bool",
          "name": "approved",
          "type": "bool"
        }
      ],
      "name": "setApprovalForAll",
      "outputs": [],
      "stateMutability": "nonpayable",
      "type": "function"
    },
    {
      "inputs": [
        {
          "internalType": "address",
          "name": "_miner",
          "type": "address"
        }
      ],
      "name": "setMiner",
      "outputs": [],
      "stateMutability": "nonpayable",
      "type": "function"
    },
    {
      "inputs": [
        {
          "internalType": "bytes4",
          "name": "interfaceId",
          "type": "bytes4"
        }
      ],
      "name": "supportsInterface",
      "outputs": [
        {
          "internalType": "bool",
          "name": "",
          "type": "bool"
        }
      ],
      "stateMutability": "view",
      "type": "function"
    },
    {
      "inputs": [],
      "name": "symbol",
      "outputs": [
        {
          "internalType": "string",
          "name": "",
          "type": "string"
        }
      ],
      "stateMutability": "view",
      "type": "function"
    },
    {
      "inputs": [
        {
          "internalType": "uint256",
          "name": "index",
          "type": "uint256"
        }
      ],
      "name": "tokenByIndex",
      "outputs": [
        {
          "internalType": "uint256",
          "name": "",
          "type": "uint256"
        }
      ],
      "stateMutability": "view",
      "type": "function"
    },
    {
      "inputs": [
        {
          "internalType": "address",
          "name": "owner",
          "type": "address"
        },
        {
          "internalType": "uint256",
          "name": "index",
          "type": "uint256"
        }
      ],
      "name": "tokenOfOwnerByIndex",
      "outputs": [
        {
          "internalType": "uint256",
          "name": "",
          "type": "uint256"
        }
      ],
      "stateMutability": "view",
      "type": "function"
    },
    {
      "inputs": [],
      "name": "totalSupply",
      "outputs": [
        {
          "internalType": "uint256",
          "name": "",
          "type": "uint256"
        }
      ],
      "stateMutability": "view",
      "type": "function"
    },
    {
      "inputs": [
        {
          "internalType": "address",
          "name": "from",
          "type": "address"
        },
        {
          "internalType": "address",
          "name": "to",
          "type": "address"
        },
        {
          "internalType": "uint256",
          "name": "tokenId",
          "type": "uint256"
        }
      ],
      "name": "transferFrom",
      "outputs": [],
      "stateMutability": "nonpayable",
      "type": "function"
    },
    {
      "inputs": [
        {
          "internalType": "address",
          "name": "newOwner",
          "type": "address"
        }
      ],
      "name": "transferOwnership",
      "outputs": [],
      "stateMutability": "nonpayable",
      "type": "function"
    },
    {
      "inputs": [
        {
          "internalType": "uint256",
          "name": "itemPackIndex",
          "type": "uint256"
        }
      ],
      "name": "itemCount",
      "outputs": [
        {
          "internalType": "uint256",
          "name": "",
          "type": "uint256"
        }
      ],
      "stateMutability": "view",
      "type": "function"
    },
    {
      "inputs": [
        {
          "internalType": "uint256",
          "name": "tokenId",
          "type": "uint256"
        }
      ],
      "name": "token2Pack",
      "outputs": [
        {
          "internalType": "uint256",
          "name": "",
          "type": "uint256"
        }
      ],
      "stateMutability": "view",
      "type": "function"
    },
    {
      "inputs": [
        {
          "internalType": "address",
          "name": "recipient",
          "type": "address"
        },
        {
          "internalType": "uint256",
          "name": "itemPackIndex",
          "type": "uint256"
        }
      ],
      "name": "mint",
      "outputs": [],
      "stateMutability": "nonpayable",
      "type": "function"
    },
    {
      "inputs": [
        {
          "internalType": "uint256",
          "name": "itemPackIndex",
          "type": "uint256"
        }
      ],
      "name": "itemPackURI",
      "outputs": [
        {
          "internalType": "string",
          "name": "",
          "type": "string"
        }
      ],
      "stateMutability": "view",
      "type": "function"
    },
    {
      "inputs": [
        {
          "internalType": "uint256",
          "name": "tokenId",
          "type": "uint256"
        }
      ],
      "name": "tokenURI",
      "outputs": [
        {
          "internalType": "string",
          "name": "",
          "type": "string"
        }
      ],
      "stateMutability": "view",
      "type": "function"
    },
    {
      "inputs": [
        {
          "internalType": "string",
          "name": "URI",
          "type": "string"
        }
      ],
      "name": "setBaseURI",
      "outputs": [],
      "stateMutability": "nonpayable",
      "type": "function"
    },
    {
      "inputs": [
        {
          "internalType": "uint256",
          "name": "itemPackIndex",
          "type": "uint256"
        },
        {
          "internalType": "string",
          "name": "URI",
          "type": "string"
        }
      ],
      "name": "setItemURI",
      "outputs": [],
      "stateMutability": "nonpayable",
      "type": "function"
    }
  ],
  "bytecode": "0x60806040523480156200001157600080fd5b506040518060400160405280601a81526020017f4e46547320426174746c65204974656d2043617264205061636b000000000000815250604051806040016040528060078152602001664e46545061636b60c81b81525060006200007a6200014b60201b60201c565b600080546001600160a01b0319166001600160a01b0383169081178255604051929350917f8be0079c531659141344cd1fd0a4f28419497f9722a3daafe3b4186f6b6457e0908290a350620000cf336200014f565b620000e16301ffc9a760e01b620001ef565b8151620000f690600890602085019062000283565b5080516200010c90600990602084019062000283565b506200011f6380ac58cd60e01b620001ef565b62000131635b5e139f60e01b620001ef565b6200014363780e9d6360e01b620001ef565b50506200031f565b3390565b620001596200014b565b6001600160a01b03166200016c62000274565b6001600160a01b031614620001c8576040805162461bcd60e51b815260206004820181905260248201527f4f776e61626c653a2063616c6c6572206973206e6f7420746865206f776e6572604482015290519081900360640190fd5b6001600160a01b03166000908152600160208190526040909120805460ff19169091179055565b6001600160e01b031980821614156200024f576040805162461bcd60e51b815260206004820152601c60248201527f4552433136353a20696e76616c696420696e7465726661636520696400000000604482015290519081900360640190fd5b6001600160e01b0319166000908152600260205260409020805460ff19166001179055565b6000546001600160a01b031690565b828054600181600116156101000203166002900490600052602060002090601f016020900481019282601f10620002c657805160ff1916838001178555620002f6565b82800160010185558215620002f6579182015b82811115620002f6578251825591602001919060010190620002d9565b506200030492915062000308565b5090565b5b8082111562000304576000815560010162000309565b6124ac806200032f6000396000f3fe608060405234801561001057600080fd5b50600436106101cf5760003560e01c80636352211e1161010457806395d89b41116100a2578063c87b56dd11610071578063c87b56dd14610744578063e985e9c514610761578063f2fde38b1461078f578063f5c631fd146107b5576101cf565b806395d89b41146106225780639742ca461461062a578063a22cb46514610650578063b88d4fde1461067e576101cf565b806370a08231116100de57806370a08231146105cf578063715018a6146105f55780637dd3f9cc146105fd5780638da5cb5b1461061a576101cf565b80636352211e146105845780636c0360eb146105a1578063701b70ac146105a9576101cf565b80632f745c5911610171578063451ec35d1161014b578063451ec35d1461047e57806348a7f682146104a45780634f6ccce7146104c157806355f804b3146104de576101cf565b80632f745c59146103f057806340c10f191461041c57806342842e0e14610448576101cf565b8063081812fc116101ad578063081812fc1461033b578063095ea7b31461037457806318160ddd146103a057806323b872dd146103ba576101cf565b806301ffc9a7146101d457806303cb92fc1461020f57806306fdde03146102be575b600080fd5b6101fb600480360360208110156101ea57600080fd5b50356001600160e01b0319166107d2565b604080519115158252519081900360200190f35b6102bc6004803603604081101561022557600080fd5b8135919081019060408101602082013564010000000081111561024757600080fd5b82018360208201111561025957600080fd5b8035906020019184600183028401116401000000008311171561027b57600080fd5b91908080601f0160208091040260200160405190810160405280939291908181526020018383808284376000920191909152509295506107f5945050505050565b005b6102c661087b565b6040805160208082528351818301528351919283929083019185019080838360005b838110156103005781810151838201526020016102e8565b50505050905090810190601f16801561032d5780820380516001836020036101000a031916815260200191505b509250505060405180910390f35b6103586004803603602081101561035157600080fd5b5035610911565b604080516001600160a01b039092168252519081900360200190f35b6102bc6004803603604081101561038a57600080fd5b506001600160a01b038135169060200135610973565b6103a8610a49565b60408051918252519081900360200190f35b6102bc600480360360608110156103d057600080fd5b506001600160a01b03813581169160208101359091169060400135610a5a565b6103a86004803603604081101561040657600080fd5b506001600160a01b038135169060200135610ab1565b6102bc6004803603604081101561043257600080fd5b506001600160a01b038135169060200135610adc565b6102bc6004803603606081101561045e57600080fd5b506001600160a01b03813581169160208101359091169060400135610b93565b6102bc6004803603602081101561049457600080fd5b50356001600160a01b0316610bae565b6102c6600480360360208110156104ba57600080fd5b5035610c31565b6103a8600480360360208110156104d757600080fd5b5035610cd2565b6102bc600480360360208110156104f457600080fd5b81019060208101813564010000000081111561050f57600080fd5b82018360208201111561052157600080fd5b8035906020019184600183028401116401000000008311171561054357600080fd5b91908080601f016020809104026020016040519081016040528093929190818152602001838380828437600092019190915250929550610ce8945050505050565b6103586004803603602081101561059a57600080fd5b5035610d56565b6102c6610d7e565b6101fb600480360360208110156105bf57600080fd5b50356001600160a01b0316610ddf565b6103a8600480360360208110156105e557600080fd5b50356001600160a01b0316610df4565b6102bc610e5c565b6103a86004803603602081101561061357600080fd5b5035610f08565b610358610f1a565b6102c6610f29565b6102bc6004803603602081101561064057600080fd5b50356001600160a01b0316610f8a565b6102bc6004803603604081101561066657600080fd5b506001600160a01b0381351690602001351515611013565b6102bc6004803603608081101561069457600080fd5b6001600160a01b038235811692602081013590911691604082013591908101906080810160608201356401000000008111156106cf57600080fd5b8201836020820111156106e157600080fd5b8035906020019184600183028401116401000000008311171561070357600080fd5b91908080601f016020809104026020016040519081016040528093929190818152602001838380828437600092019190915250929550611118945050505050565b6102c66004803603602081101561075a57600080fd5b5035611176565b6101fb6004803603604081101561077757600080fd5b506001600160a01b0381358116916020013516611387565b6102bc600480360360208110156107a557600080fd5b50356001600160a01b03166113b5565b6103a8600480360360208110156107cb57600080fd5b50356114b7565b6001600160e01b0319811660009081526002602052604090205460ff165b919050565b6107fd6114ce565b6001600160a01b031661080e610f1a565b6001600160a01b031614610857576040805162461bcd60e51b815260206004820181905260248201526000805160206123ad833981519152604482015290519081900360640190fd5b6000828152600d60209081526040909120825161087692840190612155565b505050565b60088054604080516020601f60026000196101006001881615020190951694909404938401819004810282018101909252828152606093909290918301828280156109075780601f106108dc57610100808354040283529160200191610907565b820191906000526020600020905b8154815290600101906020018083116108ea57829003601f168201915b5050505050905090565b600061091c826114d2565b6109575760405162461bcd60e51b815260040180806020018281038252602c815260200180612381602c913960400191505060405180910390fd5b506000908152600660205260409020546001600160a01b031690565b600061097e82610d56565b9050806001600160a01b0316836001600160a01b031614156109d15760405162461bcd60e51b81526004018080602001828103825260218152602001806124256021913960400191505060405180910390fd5b806001600160a01b03166109e36114ce565b6001600160a01b03161480610a045750610a04816109ff6114ce565b611387565b610a3f5760405162461bcd60e51b81526004018080602001828103825260388152602001806122b36038913960400191505060405180910390fd5b61087683836114df565b6000610a55600461154d565b905090565b610a6b610a656114ce565b82611558565b610aa65760405162461bcd60e51b81526004018080602001828103825260318152602001806124466031913960400191505060405180910390fd5b6108768383836115fc565b6001600160a01b0382166000908152600360205260408120610ad39083611748565b90505b92915050565b3360009081526001602052604090205460ff16610b40576040805162461bcd60e51b815260206004820152601d60248201527f4d696e653a2063616c6c6572206973206e6f7420746865206d696e6572000000604482015290519081900360640190fd5b6000610b60610b4e836114b7565b610b5a846103e8611754565b906117ad565b9050610b6c8382611807565b6000818152600e60209081526040808320859055848352600c909152902061087690611935565b61087683838360405180602001604052806000815250611118565b610bb66114ce565b6001600160a01b0316610bc7610f1a565b6001600160a01b031614610c10576040805162461bcd60e51b815260206004820181905260248201526000805160206123ad833981519152604482015290519081900360640190fd5b6001600160a01b03166000908152600160205260409020805460ff19169055565b6000818152600d602090815260409182902080548351601f6002600019610100600186161502019093169290920491820184900484028101840190945280845260609392830182828015610cc65780601f10610c9b57610100808354040283529160200191610cc6565b820191906000526020600020905b815481529060010190602001808311610ca957829003601f168201915b50505050509050919050565b600080610ce060048461193e565b509392505050565b610cf06114ce565b6001600160a01b0316610d01610f1a565b6001600160a01b031614610d4a576040805162461bcd60e51b815260206004820181905260248201526000805160206123ad833981519152604482015290519081900360640190fd5b610d538161195a565b50565b6000610ad6826040518060600160405280602981526020016123156029913960049190611971565b600b8054604080516020601f60026000196101006001881615020190951694909404938401819004810282018101909252828152606093909290918301828280156109075780601f106108dc57610100808354040283529160200191610907565b60016020526000908152604090205460ff1681565b60006001600160a01b038216610e3b5760405162461bcd60e51b815260040180806020018281038252602a8152602001806122eb602a913960400191505060405180910390fd5b6001600160a01b0382166000908152600360205260409020610ad69061154d565b610e646114ce565b6001600160a01b0316610e75610f1a565b6001600160a01b031614610ebe576040805162461bcd60e51b815260206004820181905260248201526000805160206123ad833981519152604482015290519081900360640190fd5b600080546040516001600160a01b03909116907f8be0079c531659141344cd1fd0a4f28419497f9722a3daafe3b4186f6b6457e0908390a3600080546001600160a01b0319169055565b6000908152600e602052604090205490565b6000546001600160a01b031690565b60098054604080516020601f60026000196101006001881615020190951694909404938401819004810282018101909252828152606093909290918301828280156109075780601f106108dc57610100808354040283529160200191610907565b610f926114ce565b6001600160a01b0316610fa3610f1a565b6001600160a01b031614610fec576040805162461bcd60e51b815260206004820181905260248201526000805160206123ad833981519152604482015290519081900360640190fd5b6001600160a01b03166000908152600160208190526040909120805460ff19169091179055565b61101b6114ce565b6001600160a01b0316826001600160a01b03161415611081576040805162461bcd60e51b815260206004820152601960248201527f4552433732313a20617070726f766520746f2063616c6c657200000000000000604482015290519081900360640190fd5b806007600061108e6114ce565b6001600160a01b03908116825260208083019390935260409182016000908120918716808252919093529120805460ff1916921515929092179091556110d26114ce565b6001600160a01b03167f17307eab39ab6107e8899845ad3d59bd9653f200f220920489ca2b5937696c318360405180821515815260200191505060405180910390a35050565b6111296111236114ce565b83611558565b6111645760405162461bcd60e51b81526004018080602001828103825260318152602001806124466031913960400191505060405180910390fd5b61117084848484611988565b50505050565b6060611181826114d2565b6111bc5760405162461bcd60e51b815260040180806020018281038252602f8152602001806123f6602f913960400191505060405180910390fd5b60006111c783610f08565b905060606111d3610d7e565b90508051600014156111f1576111e882610c31565b925050506107f0565b60006111fc83610c31565b5111156112c5578061120d83610c31565b6040516020018083805190602001908083835b6020831061123f5780518252601f199092019160209182019101611220565b51815160209384036101000a600019018019909216911617905285519190930192850191508083835b602083106112875780518252601f199092019160209182019101611268565b6001836020036101000a03801982511681845116808217855250505050505090500192505050604051602081830303815290604052925050506107f0565b806112cf856119da565b6040516020018083805190602001908083835b602083106113015780518252601f1990920191602091820191016112e2565b51815160209384036101000a600019018019909216911617905285519190930192850191508083835b602083106113495780518252601f19909201916020918201910161132a565b6001836020036101000a0380198251168184511680821785525050505050509050019250505060405160208183030381529060405292505050919050565b6001600160a01b03918216600090815260076020908152604080832093909416825291909152205460ff1690565b6113bd6114ce565b6001600160a01b03166113ce610f1a565b6001600160a01b031614611417576040805162461bcd60e51b815260206004820181905260248201526000805160206123ad833981519152604482015290519081900360640190fd5b6001600160a01b03811661145c5760405162461bcd60e51b815260040180806020018281038252602681526020018061223d6026913960400191505060405180910390fd5b600080546040516001600160a01b03808516939216917f8be0079c531659141344cd1fd0a4f28419497f9722a3daafe3b4186f6b6457e091a3600080546001600160a01b0319166001600160a01b0392909216919091179055565b6000818152600c60205260408120610ad690611ab5565b3390565b6000610ad6600483611ab9565b600081815260066020526040902080546001600160a01b0319166001600160a01b038416908117909155819061151482610d56565b6001600160a01b03167f8c5be1e5ebec7d5bd14f71427d1e84f3dd0314c0f7b2291e5b200ac8c7c3b92560405160405180910390a45050565b6000610ad682611ab5565b6000611563826114d2565b61159e5760405162461bcd60e51b815260040180806020018281038252602c815260200180612287602c913960400191505060405180910390fd5b60006115a983610d56565b9050806001600160a01b0316846001600160a01b031614806115e45750836001600160a01b03166115d984610911565b6001600160a01b0316145b806115f457506115f48185611387565b949350505050565b826001600160a01b031661160f82610d56565b6001600160a01b0316146116545760405162461bcd60e51b81526004018080602001828103825260298152602001806123cd6029913960400191505060405180910390fd5b6001600160a01b0382166116995760405162461bcd60e51b81526004018080602001828103825260248152602001806122636024913960400191505060405180910390fd5b6116a4838383610876565b6116af6000826114df565b6001600160a01b03831660009081526003602052604090206116d19082611ac5565b506001600160a01b03821660009081526003602052604090206116f49082611ad1565b5061170160048284611add565b5080826001600160a01b0316846001600160a01b03167fddf252ad1be2c89b69c2b068fc378daa952ba7f163c4a11628f55a4df523b3ef60405160405180910390a4505050565b6000610ad38383611af3565b60008261176357506000610ad6565b8282028284828161177057fe5b0414610ad35760405162461bcd60e51b81526004018080602001828103825260218152602001806123606021913960400191505060405180910390fd5b600082820183811015610ad3576040805162461bcd60e51b815260206004820152601b60248201527f536166654d6174683a206164646974696f6e206f766572666c6f770000000000604482015290519081900360640190fd5b6001600160a01b038216611862576040805162461bcd60e51b815260206004820181905260248201527f4552433732313a206d696e7420746f20746865207a65726f2061646472657373604482015290519081900360640190fd5b61186b816114d2565b156118bd576040805162461bcd60e51b815260206004820152601c60248201527f4552433732313a20746f6b656e20616c7265616479206d696e74656400000000604482015290519081900360640190fd5b6118c960008383610876565b6001600160a01b03821660009081526003602052604090206118eb9082611ad1565b506118f860048284611add565b5060405181906001600160a01b038416906000907fddf252ad1be2c89b69c2b068fc378daa952ba7f163c4a11628f55a4df523b3ef908290a45050565b80546001019055565b600080808061194d8686611b57565b9097909650945050505050565b805161196d90600b906020840190612155565b5050565b600061197e848484611bd2565b90505b9392505050565b6119938484846115fc565b61199f84848484611c9c565b6111705760405162461bcd60e51b815260040180806020018281038252603281526020018061220b6032913960400191505060405180910390fd5b6060816119ff57506040805180820190915260018152600360fc1b60208201526107f0565b8160005b8115611a1757600101600a82049150611a03565b60608167ffffffffffffffff81118015611a3057600080fd5b506040519080825280601f01601f191660200182016040528015611a5b576020820181803683370190505b50859350905060001982015b8315611aac57600a840660300160f81b82828060019003935081518110611a8a57fe5b60200101906001600160f81b031916908160001a905350600a84049350611a67565b50949350505050565b5490565b6000610ad38383611e04565b6000610ad38383611e1c565b6000610ad38383611ee2565b600061197e84846001600160a01b038516611f2c565b81546000908210611b355760405162461bcd60e51b81526004018080602001828103825260228152602001806121e96022913960400191505060405180910390fd5b826000018281548110611b4457fe5b9060005260206000200154905092915050565b815460009081908310611b9b5760405162461bcd60e51b815260040180806020018281038252602281526020018061233e6022913960400191505060405180910390fd5b6000846000018481548110611bac57fe5b906000526020600020906002020190508060000154816001015492509250509250929050565b60008281526001840160205260408120548281611c6d5760405162461bcd60e51b81526004018080602001828103825283818151815260200191508051906020019080838360005b83811015611c32578181015183820152602001611c1a565b50505050905090810190601f168015611c5f5780820380516001836020036101000a031916815260200191505b509250505060405180910390fd5b50846000016001820381548110611c8057fe5b9060005260206000209060020201600101549150509392505050565b6000611cb0846001600160a01b0316611fc3565b611cbc575060016115f4565b6060611dca630a85bd0160e11b611cd16114ce565b88878760405160240180856001600160a01b03168152602001846001600160a01b0316815260200183815260200180602001828103825283818151815260200191508051906020019080838360005b83811015611d38578181015183820152602001611d20565b50505050905090810190601f168015611d655780820380516001836020036101000a031916815260200191505b5095505050505050604051602081830303815290604052906001600160e01b0319166020820180516001600160e01b03838183161783525050505060405180606001604052806032815260200161220b603291396001600160a01b0388169190611fc9565b90506000818060200190516020811015611de357600080fd5b50516001600160e01b031916630a85bd0160e11b1492505050949350505050565b60009081526001919091016020526040902054151590565b60008181526001830160205260408120548015611ed85783546000198083019190810190600090879083908110611e4f57fe5b9060005260206000200154905080876000018481548110611e6c57fe5b600091825260208083209091019290925582815260018981019092526040902090840190558654879080611e9c57fe5b60019003818190600052602060002001600090559055866001016000878152602001908152602001600020600090556001945050505050610ad6565b6000915050610ad6565b6000611eee8383611e04565b611f2457508154600181810184556000848152602080822090930184905584548482528286019093526040902091909155610ad6565b506000610ad6565b600082815260018401602052604081205480611f91575050604080518082018252838152602080820184815286546001818101895560008981528481209551600290930290950191825591519082015586548684528188019092529290912055611981565b82856000016001830381548110611fa457fe5b9060005260206000209060020201600101819055506000915050611981565b3b151590565b606061197e848460008585611fdd85611fc3565b61202e576040805162461bcd60e51b815260206004820152601d60248201527f416464726573733a2063616c6c20746f206e6f6e2d636f6e7472616374000000604482015290519081900360640190fd5b60006060866001600160a01b031685876040518082805190602001908083835b6020831061206d5780518252601f19909201916020918201910161204e565b6001836020036101000a03801982511681845116808217855250505050505090500191505060006040518083038185875af1925050503d80600081146120cf576040519150601f19603f3d011682016040523d82523d6000602084013e6120d4565b606091505b50915091506120e48282866120ef565b979650505050505050565b606083156120fe575081611981565b82511561210e5782518084602001fd5b60405162461bcd60e51b8152602060048201818152845160248401528451859391928392604401919085019080838360008315611c32578181015183820152602001611c1a565b828054600181600116156101000203166002900490600052602060002090601f016020900481019282601f1061219657805160ff19168380011785556121c3565b828001600101855582156121c3579182015b828111156121c35782518255916020019190600101906121a8565b506121cf9291506121d3565b5090565b5b808211156121cf57600081556001016121d456fe456e756d657261626c655365743a20696e646578206f7574206f6620626f756e64734552433732313a207472616e7366657220746f206e6f6e20455243373231526563656976657220696d706c656d656e7465724f776e61626c653a206e6577206f776e657220697320746865207a65726f20616464726573734552433732313a207472616e7366657220746f20746865207a65726f20616464726573734552433732313a206f70657261746f7220717565727920666f72206e6f6e6578697374656e7420746f6b656e4552433732313a20617070726f76652063616c6c6572206973206e6f74206f776e6572206e6f7220617070726f76656420666f7220616c6c4552433732313a2062616c616e636520717565727920666f7220746865207a65726f20616464726573734552433732313a206f776e657220717565727920666f72206e6f6e6578697374656e7420746f6b656e456e756d657261626c654d61703a20696e646578206f7574206f6620626f756e6473536166654d6174683a206d756c7469706c69636174696f6e206f766572666c6f774552433732313a20617070726f76656420717565727920666f72206e6f6e6578697374656e7420746f6b656e4f776e61626c653a2063616c6c6572206973206e6f7420746865206f776e65724552433732313a207472616e73666572206f6620746f6b656e2074686174206973206e6f74206f776e4552433732314d657461646174613a2055524920717565727920666f72206e6f6e6578697374656e7420746f6b656e4552433732313a20617070726f76616c20746f2063757272656e74206f776e65724552433732313a207472616e736665722063616c6c6572206973206e6f74206f776e6572206e6f7220617070726f766564a2646970667358221220411b4f085b71ce28b88be628180738acccf334927a152d232cd319d243f41c6d64736f6c634300060c0033",
  "immutableReferences": {},
  "source": "// SPDX-License-Identifier: MIT\r\npragma solidity ^0.6.0;\r\n\r\nimport './Miner.sol';\r\nimport \"@openzeppelin/contracts/utils/Counters.sol\";\r\nimport \"@openzeppelin/contracts/token/ERC721/ERC721.sol\";\r\n\r\ncontract ItemCardPack is Miner, ERC721 {\r\n    using Counters for Counters.Counter;\r\n\r\n    mapping (uint => Counters.Counter) private _nftCount; //itemPackIndex => count\r\n    mapping (uint => string) private _itemPackURI; //itemPackIndex => URI;\r\n    mapping (uint => uint) private _packIndex; //itemPackIndex => URI;\r\n\r\n    constructor() public ERC721(\"NFTs Battle Item Card Pack\", \"NFTPack\") {}\r\n\r\n    function itemCount(uint itemPackIndex) public view returns(uint){\r\n        return _nftCount[itemPackIndex].current();\r\n    }\r\n\r\n    function token2Pack(uint tokenId) public view returns(uint){\r\n        return _packIndex[tokenId];\r\n    }\r\n\r\n    function mint(address recipient, uint itemPackIndex) external onlyMiner{\r\n        //Item Id = Item Index * 1000 + counter\r\n        uint tokenId = itemPackIndex.mul(1000).add(itemCount(itemPackIndex));\r\n        _mint(recipient, tokenId);\r\n        _packIndex[tokenId] = itemPackIndex;\r\n        _nftCount[itemPackIndex].increment();\r\n    }\r\n\r\n    function itemPackURI(uint itemPackIndex) public view returns(string memory) {\r\n        return _itemPackURI[itemPackIndex];\r\n    }\r\n\r\n    function tokenURI(uint256 tokenId) public view override returns (string memory) {\r\n        require(_exists(tokenId), \"ERC721Metadata: URI query for nonexistent token\");\r\n        uint itemPackIndex = token2Pack(tokenId);\r\n\r\n        string memory base = baseURI();\r\n\r\n        // If there is no base URI, return the item URI.\r\n        if (bytes(base).length == 0) {\r\n            return itemPackURI(itemPackIndex);\r\n        }\r\n        // If both are set, concatenate the baseURI and itemURI (via abi.encodePacked).\r\n        if (bytes(itemPackURI(itemPackIndex)).length > 0) {\r\n            return string(abi.encodePacked(base, itemPackURI(itemPackIndex)));\r\n        }\r\n        // If there is a baseURI but no itemPackURI, concatenate the tokenID to the baseURI.\r\n        return string(abi.encodePacked(base, tokenId.toString()));\r\n    }\r\n\r\n    function setBaseURI(string memory URI) external onlyOwner{\r\n        _setBaseURI(URI);\r\n    }\r\n\r\n    function setItemURI(uint itemPackIndex, string memory URI) external onlyOwner{\r\n        _itemPackURI[itemPackIndex] = URI;\r\n    }\r\n}",
  "sourcePath": "D:\\Solidity\\Solidity\\lottery\\contracts\\ItemCardPack.sol",
  "compiler": {
    "name": "solc",
    "version": "0.6.12+commit.27d51765.Emscripten.clang"
  },
  "schemaVersion": "3.4.4",
  "updatedAt": "2022-07-03T15:51:28.237Z",
  "devdoc": {
    "kind": "dev",
    "methods": {
      "approve(address,uint256)": {
        "details": "See {IERC721-approve}."
      },
      "balanceOf(address)": {
        "details": "See {IERC721-balanceOf}."
      },
      "baseURI()": {
        "details": "Returns the base URI set via {_setBaseURI}. This will be automatically added as a prefix in {tokenURI} to each token's URI, or to the token ID if no specific URI is set for that token ID."
      },
      "getApproved(uint256)": {
        "details": "See {IERC721-getApproved}."
      },
      "isApprovedForAll(address,address)": {
        "details": "See {IERC721-isApprovedForAll}."
      },
      "name()": {
        "details": "See {IERC721Metadata-name}."
      },
      "owner()": {
        "details": "Returns the address of the current owner."
      },
      "ownerOf(uint256)": {
        "details": "See {IERC721-ownerOf}."
      },
      "renounceOwnership()": {
        "details": "Leaves the contract without owner. It will not be possible to call `onlyOwner` functions anymore. Can only be called by the current owner. NOTE: Renouncing ownership will leave the contract without an owner, thereby removing any functionality that is only available to the owner."
      },
      "safeTransferFrom(address,address,uint256)": {
        "details": "See {IERC721-safeTransferFrom}."
      },
      "safeTransferFrom(address,address,uint256,bytes)": {
        "details": "See {IERC721-safeTransferFrom}."
      },
      "setApprovalForAll(address,bool)": {
        "details": "See {IERC721-setApprovalForAll}."
      },
      "supportsInterface(bytes4)": {
        "details": "See {IERC165-supportsInterface}. Time complexity O(1), guaranteed to always use less than 30 000 gas."
      },
      "symbol()": {
        "details": "See {IERC721Metadata-symbol}."
      },
      "tokenByIndex(uint256)": {
        "details": "See {IERC721Enumerable-tokenByIndex}."
      },
      "tokenOfOwnerByIndex(address,uint256)": {
        "details": "See {IERC721Enumerable-tokenOfOwnerByIndex}."
      },
      "tokenURI(uint256)": {
        "details": "See {IERC721Metadata-tokenURI}."
      },
      "totalSupply()": {
        "details": "See {IERC721Enumerable-totalSupply}."
      },
      "transferFrom(address,address,uint256)": {
        "details": "See {IERC721-transferFrom}."
      },
      "transferOwnership(address)": {
        "details": "Transfers ownership of the contract to a new account (`newOwner`). Can only be called by the current owner."
      }
    },
    "version": 1
  },
  "userdoc": {
    "kind": "user",
    "methods": {},
    "version": 1
  }
}