{
  "contractName": "Lottery",
  "abi": [
    {
      "anonymous": false,
      "inputs": [
        {
          "indexed": false,
          "internalType": "address",
          "name": "buyer",
          "type": "address"
        },
        {
          "indexed": false,
          "internalType": "uint256",
          "name": "time",
          "type": "uint256"
        },
        {
          "indexed": false,
          "internalType": "uint256",
          "name": "amount",
          "type": "uint256"
        }
      ],
      "name": "GetBNB",
      "type": "event"
    },
    {
      "anonymous": false,
      "inputs": [
        {
          "indexed": false,
          "internalType": "address",
          "name": "buyer",
          "type": "address"
        },
        {
          "indexed": false,
          "internalType": "uint256",
          "name": "time",
          "type": "uint256"
        },
        {
          "indexed": false,
          "internalType": "uint256",
          "name": "characterIndex",
          "type": "uint256"
        }
      ],
      "name": "GetCharacter",
      "type": "event"
    },
    {
      "anonymous": false,
      "inputs": [
        {
          "indexed": false,
          "internalType": "address",
          "name": "buyer",
          "type": "address"
        },
        {
          "indexed": false,
          "internalType": "uint256",
          "name": "time",
          "type": "uint256"
        },
        {
          "indexed": false,
          "internalType": "uint256",
          "name": "chestIndex",
          "type": "uint256"
        }
      ],
      "name": "GetChest",
      "type": "event"
    },
    {
      "anonymous": false,
      "inputs": [
        {
          "indexed": false,
          "internalType": "address",
          "name": "buyer",
          "type": "address"
        },
        {
          "indexed": false,
          "internalType": "uint256",
          "name": "time",
          "type": "uint256"
        },
        {
          "indexed": false,
          "internalType": "uint256",
          "name": "itemIndex",
          "type": "uint256"
        }
      ],
      "name": "GetItem",
      "type": "event"
    },
    {
      "anonymous": false,
      "inputs": [
        {
          "indexed": false,
          "internalType": "address",
          "name": "buyer",
          "type": "address"
        },
        {
          "indexed": false,
          "internalType": "uint256",
          "name": "time",
          "type": "uint256"
        }
      ],
      "name": "Lottery",
      "type": "event"
    },
    {
      "anonymous": false,
      "inputs": [
        {
          "indexed": true,
          "internalType": "address",
          "name": "previousOwner",
          "type": "address"
        },
        {
          "indexed": true,
          "internalType": "address",
          "name": "newOwner",
          "type": "address"
        }
      ],
      "name": "OwnershipTransferred",
      "type": "event"
    },
    {
      "anonymous": false,
      "inputs": [
        {
          "indexed": false,
          "internalType": "address",
          "name": "account",
          "type": "address"
        }
      ],
      "name": "Paused",
      "type": "event"
    },
    {
      "anonymous": false,
      "inputs": [
        {
          "indexed": false,
          "internalType": "address",
          "name": "account",
          "type": "address"
        }
      ],
      "name": "Unpaused",
      "type": "event"
    },
    {
      "inputs": [],
      "name": "characterContract",
      "outputs": [
        {
          "internalType": "contract ICharacter",
          "name": "",
          "type": "address"
        }
      ],
      "stateMutability": "view",
      "type": "function"
    },
    {
      "inputs": [],
      "name": "chestContract",
      "outputs": [
        {
          "internalType": "contract IChest",
          "name": "",
          "type": "address"
        }
      ],
      "stateMutability": "view",
      "type": "function"
    },
    {
      "inputs": [],
      "name": "itemContract",
      "outputs": [
        {
          "internalType": "contract IItem",
          "name": "",
          "type": "address"
        }
      ],
      "stateMutability": "view",
      "type": "function"
    },
    {
      "inputs": [],
      "name": "lotteryEndTime",
      "outputs": [
        {
          "internalType": "uint256",
          "name": "",
          "type": "uint256"
        }
      ],
      "stateMutability": "view",
      "type": "function"
    },
    {
      "inputs": [],
      "name": "lotteryLaunchTime",
      "outputs": [
        {
          "internalType": "uint256",
          "name": "",
          "type": "uint256"
        }
      ],
      "stateMutability": "view",
      "type": "function"
    },
    {
      "inputs": [],
      "name": "owner",
      "outputs": [
        {
          "internalType": "address",
          "name": "",
          "type": "address"
        }
      ],
      "stateMutability": "view",
      "type": "function"
    },
    {
      "inputs": [],
      "name": "packContract",
      "outputs": [
        {
          "internalType": "contract IPack",
          "name": "",
          "type": "address"
        }
      ],
      "stateMutability": "view",
      "type": "function"
    },
    {
      "inputs": [],
      "name": "paused",
      "outputs": [
        {
          "internalType": "bool",
          "name": "",
          "type": "bool"
        }
      ],
      "stateMutability": "view",
      "type": "function"
    },
    {
      "inputs": [],
      "name": "renounceOwnership",
      "outputs": [],
      "stateMutability": "nonpayable",
      "type": "function"
    },
    {
      "inputs": [
        {
          "internalType": "uint256",
          "name": "_lotteryLaunchTime",
          "type": "uint256"
        },
        {
          "internalType": "uint256",
          "name": "_lotteryEndTime",
          "type": "uint256"
        }
      ],
      "name": "setLotteryLaunchTime",
      "outputs": [],
      "stateMutability": "nonpayable",
      "type": "function"
    },
    {
      "inputs": [
        {
          "internalType": "address",
          "name": "newOwner",
          "type": "address"
        }
      ],
      "name": "transferOwnership",
      "outputs": [],
      "stateMutability": "nonpayable",
      "type": "function"
    },
    {
      "inputs": [],
      "name": "usdtContract",
      "outputs": [
        {
          "internalType": "contract IERC20",
          "name": "",
          "type": "address"
        }
      ],
      "stateMutability": "view",
      "type": "function"
    },
    {
      "inputs": [],
      "name": "wallet",
      "outputs": [
        {
          "internalType": "address",
          "name": "",
          "type": "address"
        }
      ],
      "stateMutability": "view",
      "type": "function"
    },
    {
      "stateMutability": "payable",
      "type": "receive"
    },
    {
      "inputs": [],
      "name": "getLotteryPriceForUSDT",
      "outputs": [
        {
          "internalType": "uint256",
          "name": "",
          "type": "uint256"
        }
      ],
      "stateMutability": "view",
      "type": "function"
    },
    {
      "inputs": [
        {
          "internalType": "uint256",
          "name": "amount",
          "type": "uint256"
        }
      ],
      "name": "setLotteryPriceForUSDT",
      "outputs": [],
      "stateMutability": "nonpayable",
      "type": "function"
    },
    {
      "inputs": [
        {
          "internalType": "address",
          "name": "user",
          "type": "address"
        }
      ],
      "name": "isBuyer",
      "outputs": [
        {
          "internalType": "bool",
          "name": "",
          "type": "bool"
        }
      ],
      "stateMutability": "view",
      "type": "function"
    },
    {
      "inputs": [],
      "name": "totalSellAmount",
      "outputs": [
        {
          "internalType": "uint256",
          "name": "",
          "type": "uint256"
        }
      ],
      "stateMutability": "view",
      "type": "function"
    },
    {
      "inputs": [
        {
          "internalType": "uint256",
          "name": "index",
          "type": "uint256"
        }
      ],
      "name": "lotteryAmount",
      "outputs": [
        {
          "internalType": "uint256",
          "name": "",
          "type": "uint256"
        }
      ],
      "stateMutability": "view",
      "type": "function"
    },
    {
      "inputs": [
        {
          "internalType": "uint256[]",
          "name": "_tokenId",
          "type": "uint256[]"
        }
      ],
      "name": "setTokenId",
      "outputs": [],
      "stateMutability": "nonpayable",
      "type": "function"
    },
    {
      "inputs": [],
      "name": "lotteryByUsdt",
      "outputs": [],
      "stateMutability": "nonpayable",
      "type": "function"
    },
    {
      "inputs": [],
      "name": "setPuase",
      "outputs": [],
      "stateMutability": "nonpayable",
      "type": "function"
    },
    {
      "inputs": [],
      "name": "setUnpuase",
      "outputs": [],
      "stateMutability": "nonpayable",
      "type": "function"
    },
    {
      "inputs": [
        {
          "internalType": "contract IERC20",
          "name": "_usdtContract",
          "type": "address"
        }
      ],
      "name": "setUsdtContract",
      "outputs": [],
      "stateMutability": "nonpayable",
      "type": "function"
    },
    {
      "inputs": [
        {
          "internalType": "contract ICharacter",
          "name": "_characterContract",
          "type": "address"
        }
      ],
      "name": "setCharacterContract",
      "outputs": [],
      "stateMutability": "nonpayable",
      "type": "function"
    },
    {
      "inputs": [
        {
          "internalType": "contract IChest",
          "name": "_chestContract",
          "type": "address"
        }
      ],
      "name": "setChestContract",
      "outputs": [],
      "stateMutability": "nonpayable",
      "type": "function"
    },
    {
      "inputs": [
        {
          "internalType": "contract IItem",
          "name": "_itemContract",
          "type": "address"
        }
      ],
      "name": "setItemContract",
      "outputs": [],
      "stateMutability": "nonpayable",
      "type": "function"
    },
    {
      "inputs": [
        {
          "internalType": "contract IPack",
          "name": "_packContract",
          "type": "address"
        }
      ],
      "name": "setPackContract",
      "outputs": [],
      "stateMutability": "nonpayable",
      "type": "function"
    },
    {
      "inputs": [
        {
          "internalType": "address",
          "name": "_wallet",
          "type": "address"
        }
      ],
      "name": "setWallet",
      "outputs": [],
      "stateMutability": "nonpayable",
      "type": "function"
    },
    {
      "inputs": [],
      "name": "withdraw",
      "outputs": [],
      "stateMutability": "nonpayable",
      "type": "function"
    },
    {
      "inputs": [],
      "name": "withdrawBNB",
      "outputs": [],
      "stateMutability": "nonpayable",
      "type": "function"
    },
    {
      "inputs": [],
      "name": "withdrawItem",
      "outputs": [],
      "stateMutability": "nonpayable",
      "type": "function"
    },
    {
      "inputs": [
        {
          "internalType": "uint256",
          "name": "index",
          "type": "uint256"
        }
      ],
      "name": "withdrawCharacter",
      "outputs": [],
      "stateMutability": "nonpayable",
      "type": "function"
    },
    {
      "inputs": [
        {
          "internalType": "uint256",
          "name": "index",
          "type": "uint256"
        }
      ],
      "name": "withdrawPack",
      "outputs": [],
      "stateMutability": "nonpayable",
      "type": "function"
    }
  ],
  "bytecode": "0x6080604052600c80546001600160a01b0319167355d398326f99059ff775485246999027b3197955179055670de0b6b3a7640000600d556004600e908155600f5534801561004c57600080fd5b506000805460ff1916815561005f6100b6565b60008054610100600160a81b0319166101006001600160a01b038416908102919091178255604051929350917f8be0079c531659141344cd1fd0a4f28419497f9722a3daafe3b4186f6b6457e0908290a3506100ba565b3390565b612ad4806100c96000396000f3fe6080604052600436106101f25760003560e01c8063715018a61161010d578063cf58a8b3116100a0578063e3f5d2ba1161006f578063e3f5d2ba14610500578063f2fde38b14610515578063f4ae78f714610535578063fa91ab4a14610555578063ff31a7fa1461056a576101f9565b8063cf58a8b314610496578063deaa59df146104ab578063e168b9fe146104cb578063e245626f146104eb576101f9565b80639af3c67c116100dc5780639af3c67c14610421578063a304f6e714610441578063a712043314610456578063c13f690b14610476576101f9565b8063715018a6146103cd5780637e907cfd146103e25780638d76f940146103f75780638da5cb5b1461040c576101f9565b806343b60f7411610185578063576338a511610154578063576338a51461036e5780635c975abb1461038e5780635dd8d06d146103a357806361150923146103b8576101f9565b806343b60f74146102f757806343d8384f146103195780634b195b0814610339578063521eb27314610359576101f9565b8063364f4313116101c1578063364f43131461028b5780633a20a354146102a05780633ccfd60b146102c057806343662a7e146102d5576101f9565b80631b2e6a4c146101fe5780631d111d131461022057806323ada87f146102355780632a55feec14610255576101f9565b366101f957005b600080fd5b34801561020a57600080fd5b5061021e6102193660046123e2565b61057f565b005b34801561022c57600080fd5b5061021e6105e9565b34801561024157600080fd5b5061021e6102503660046124e3565b610664565b34801561026157600080fd5b506102756102703660046123e2565b6106cd565b60405161028291906126d9565b60405180910390f35b34801561029757600080fd5b5061021e6106eb565b3480156102ac57600080fd5b5061021e6102bb3660046123e2565b6107af565b3480156102cc57600080fd5b5061021e610810565b3480156102e157600080fd5b506102ea610985565b60405161028291906129ed565b34801561030357600080fd5b5061030c61098b565b60405161028291906125a1565b34801561032557600080fd5b5061021e6103343660046123fe565b61099a565b34801561034557600080fd5b5061021e6103543660046124b3565b6109f0565b34801561036557600080fd5b5061030c610a3e565b34801561037a57600080fd5b5061021e6103893660046123e2565b610a4d565b34801561039a57600080fd5b50610275610aae565b3480156103af57600080fd5b506102ea610ab7565b3480156103c457600080fd5b5061030c610aef565b3480156103d957600080fd5b5061021e610afe565b3480156103ee57600080fd5b506102ea610b8c565b34801561040357600080fd5b5061030c610b92565b34801561041857600080fd5b5061030c610ba1565b34801561042d57600080fd5b5061021e61043c3660046123e2565b610bb5565b34801561044d57600080fd5b5061021e610c16565b34801561046257600080fd5b5061021e6104713660046123e2565b610c5f565b34801561048257600080fd5b506102ea6104913660046124b3565b610cc0565b3480156104a257600080fd5b506102ea610cdd565b3480156104b757600080fd5b5061021e6104c63660046123e2565b610ce3565b3480156104d757600080fd5b5061021e6104e63660046124b3565b610d44565b3480156104f757600080fd5b5061021e610e09565b34801561050c57600080fd5b5061030c610ece565b34801561052157600080fd5b5061021e6105303660046123e2565b610edd565b34801561054157600080fd5b5061021e6105503660046124b3565b610fa8565b34801561056157600080fd5b5061030c61100f565b34801561057657600080fd5b5061021e61101e565b610587611065565b6001600160a01b0316610598610ba1565b6001600160a01b0316146105c75760405162461bcd60e51b81526004016105be90612900565b60405180910390fd5b600a80546001600160a01b0319166001600160a01b0392909216919091179055565b6105f1611065565b6001600160a01b0316610602610ba1565b6001600160a01b0316146106285760405162461bcd60e51b81526004016105be90612900565b6002546040516001600160a01b03909116904780156108fc02916000818181858888f19350505050158015610661573d6000803e3d6000fd5b50565b61066c611065565b6001600160a01b031661067d610ba1565b6001600160a01b0316146106a35760405162461bcd60e51b81526004016105be90612900565b8181116106c25760405162461bcd60e51b81526004016105be906127c2565b600391909155600455565b6001600160a01b031660009081526005602052604090205460ff1690565b6106f3610aae565b156107105760405162461bcd60e51b81526004016105be90612895565b60035442118015610722575042600454115b61073e5760405162461bcd60e51b81526004016105be906129b6565b60025461076c9033906001600160a01b0316610758610b8c565b600c546001600160a01b0316929190611069565b6107746110c1565b7fbbfa80d5a54baf5590b0bbe42cd4d30dbf44307ed6875f699cd0ee8a7f9cd1d633426040516107a59291906125d9565b60405180910390a1565b6107b7611065565b6001600160a01b03166107c8610ba1565b6001600160a01b0316146107ee5760405162461bcd60e51b81526004016105be90612900565b600880546001600160a01b0319166001600160a01b0392909216919091179055565b610818611065565b6001600160a01b0316610829610ba1565b6001600160a01b03161461084f5760405162461bcd60e51b81526004016105be90612900565b6002546040516001600160a01b03909116904780156108fc02916000818181858888f19350505050158015610888573d6000803e3d6000fd5b50600c546002546040516370a0823160e01b81526001600160a01b039283169263a9059cbb92169083906370a08231906108c69030906004016125a1565b60206040518083038186803b1580156108de57600080fd5b505afa1580156108f2573d6000803e3d6000fd5b505050506040513d601f19601f8201168201806040525081019061091691906124cb565b6040518363ffffffff1660e01b81526004016109339291906125d9565b602060405180830381600087803b15801561094d57600080fd5b505af1158015610961573d6000803e3d6000fd5b505050506040513d601f19601f820116820180604052508101906106619190612493565b60045481565b6009546001600160a01b031681565b6109a2611065565b6001600160a01b03166109b3610ba1565b6001600160a01b0316146109d95760405162461bcd60e51b81526004016105be90612900565b80516109ec906007906020840190612307565b5050565b6109f8611065565b6001600160a01b0316610a09610ba1565b6001600160a01b031614610a2f5760405162461bcd60e51b81526004016105be90612900565b670de0b6b3a764000002600d55565b6002546001600160a01b031681565b610a55611065565b6001600160a01b0316610a66610ba1565b6001600160a01b031614610a8c5760405162461bcd60e51b81526004016105be90612900565b600c80546001600160a01b0319166001600160a01b0392909216919091179055565b60005460ff1690565b60008080526006602052610aea7f54cdd369e4e8a8515e52ca72ec816c2101831ad1f18bf44102ed171459c9b4f8611bae565b905090565b600c546001600160a01b031681565b610b06611065565b6001600160a01b0316610b17610ba1565b6001600160a01b031614610b3d5760405162461bcd60e51b81526004016105be90612900565b600080546040516101009091046001600160a01b0316907f8be0079c531659141344cd1fd0a4f28419497f9722a3daafe3b4186f6b6457e0908390a360008054610100600160a81b0319169055565b600d5490565b600b546001600160a01b031681565b60005461010090046001600160a01b031690565b610bbd611065565b6001600160a01b0316610bce610ba1565b6001600160a01b031614610bf45760405162461bcd60e51b81526004016105be90612900565b600980546001600160a01b0319166001600160a01b0392909216919091179055565b610c1e611065565b6001600160a01b0316610c2f610ba1565b6001600160a01b031614610c555760405162461bcd60e51b81526004016105be90612900565b610c5d611bb2565b565b610c67611065565b6001600160a01b0316610c78610ba1565b6001600160a01b031614610c9e5760405162461bcd60e51b81526004016105be90612900565b600b80546001600160a01b0319166001600160a01b0392909216919091179055565b6000818152600660205260408120610cd790611bae565b92915050565b60035481565b610ceb611065565b6001600160a01b0316610cfc610ba1565b6001600160a01b031614610d225760405162461bcd60e51b81526004016105be90612900565b600280546001600160a01b0319166001600160a01b0392909216919091179055565b610d4c611065565b6001600160a01b0316610d5d610ba1565b6001600160a01b031614610d835760405162461bcd60e51b81526004016105be90612900565b600954600780546001600160a01b03909216916342842e0e91309133919086908110610dab57fe5b90600052602060002001546040518463ffffffff1660e01b8152600401610dd4939291906125b5565b600060405180830381600087803b158015610dee57600080fd5b505af1158015610e02573d6000803e3d6000fd5b5050505050565b610e11611065565b6001600160a01b0316610e22610ba1565b6001600160a01b031614610e485760405162461bcd60e51b81526004016105be90612900565b600b54600780546001600160a01b03909216916342842e0e9130913391906003908110610e7157fe5b90600052602060002001546040518463ffffffff1660e01b8152600401610e9a939291906125b5565b600060405180830381600087803b158015610eb457600080fd5b505af1158015610ec8573d6000803e3d6000fd5b50505050565b6008546001600160a01b031681565b610ee5611065565b6001600160a01b0316610ef6610ba1565b6001600160a01b031614610f1c5760405162461bcd60e51b81526004016105be90612900565b6001600160a01b038116610f425760405162461bcd60e51b81526004016105be90612745565b600080546040516001600160a01b038085169361010090930416917f8be0079c531659141344cd1fd0a4f28419497f9722a3daafe3b4186f6b6457e091a3600080546001600160a01b0390921661010002610100600160a81b0319909216919091179055565b610fb0611065565b6001600160a01b0316610fc1610ba1565b6001600160a01b031614610fe75760405162461bcd60e51b81526004016105be90612900565b600854600780546001600160a01b03909216916342842e0e91309133919086908110610dab57fe5b600a546001600160a01b031681565b611026611065565b6001600160a01b0316611037610ba1565b6001600160a01b03161461105d5760405162461bcd60e51b81526004016105be90612900565b610c5d611c16565b3390565b610ec8846323b872dd60e01b85858560405160240161108a939291906125b5565b60408051601f198184030181529190526020810180516001600160e01b03166001600160e01b031990931692909217909152611c71565b3360009081526005602090815260408220805460ff191660011790559080526006905261110d7f54cdd369e4e8a8515e52ca72ec816c2101831ad1f18bf44102ed171459c9b4f8611d05565b600061271061111a611d0e565b8161112157fe5b069050612345811161113b5761113633611d4d565b610661565b6123458111801561114e57506123a98111155b156112415760016000526006602052600a6111887f3e5fec24aa4dc4e5aee2e025e51e1392c72a2500577559fae9665c6d52bd6a31611bae565b101561123857600160005260066020526111c17f3e5fec24aa4dc4e5aee2e025e51e1392c72a2500577559fae9665c6d52bd6a31611d05565b604051339060009066470de4df8200009082818181858883f193505050501580156111f0573d6000803e3d6000fd5b507fded2f748ac3d1e0ecc6147c1a2f4e3404845fbb4dd20ec6c9884dd61cd35acdf334266470de4df82000060405161122b939291906125f2565b60405180910390a1611136565b61113633611d4d565b6123a98111801561125457506124a38111155b156112d75760026000526006602052603261128e7f8819ef417987f8ae7a81f42cdfb18815282fe989326fbff903d13cf0e03ace29611bae565b101561123857600260005260066020526112c77f8819ef417987f8ae7a81f42cdfb18815282fe989326fbff903d13cf0e03ace29611d05565b6112d2336007611f37565b611136565b6124a3811180156112ea575061259d8111155b15611368576003600052600660205260326113247f75f96ab15d697e93042dc45b5c896c4b27e89bb6eaf39475c5c371cb2513f7d2611bae565b1015611238576003600052600660205261135d7f75f96ab15d697e93042dc45b5c896c4b27e89bb6eaf39475c5c371cb2513f7d2611d05565b6112d2336002611f37565b61259d8111801561137b57506125cf8111155b156114c55760046000526006602052600a6113b57fc5069e24aaadb2addc3e52e868fcf3f4f8acf5a87e24300992fd4540c2a87eed611bae565b101561123857600460005260066020526113ee7fc5069e24aaadb2addc3e52e868fcf3f4f8acf5a87e24300992fd4540c2a87eed611d05565b600860009054906101000a90046001600160a01b03166001600160a01b03166342842e0e30336007600e548154811061142357fe5b90600052602060002001546040518463ffffffff1660e01b815260040161144c939291906125b5565b600060405180830381600087803b15801561146657600080fd5b505af115801561147a573d6000803e3d6000fd5b5050600e5461148d925090506001611fdd565b600e556040517f73243c8f9b8849372b6e2f2818ba365ea56fc9764d3442b696a7819c125e2e4d9061122b9033904290600b906125f2565b6125cf811180156114d857506126018111155b156116225760056000526006602052600a6115127fbfd358e93f18da3ed276c3afdbdba00b8f0b6008a03476a6a86bd6320ee6938b611bae565b1015611238576005600052600660205261154b7fbfd358e93f18da3ed276c3afdbdba00b8f0b6008a03476a6a86bd6320ee6938b611d05565b600860009054906101000a90046001600160a01b03166001600160a01b03166342842e0e30336007600f548154811061158057fe5b90600052602060002001546040518463ffffffff1660e01b81526004016115a9939291906125b5565b600060405180830381600087803b1580156115c357600080fd5b505af11580156115d7573d6000803e3d6000fd5b5050600f546115ea925090506001611fdd565b600f556040517f73243c8f9b8849372b6e2f2818ba365ea56fc9764d3442b696a7819c125e2e4d9061122b90339042906001906125f2565b6126018111801561163557506126fb8111155b156116d75760066000819052602052603261166f7f697b2bd7bb2984c4e0dc14c79c987d37818484a62958b9c45a0e8b962f20650f611bae565b101561123857600660008190526020526116a87f697b2bd7bb2984c4e0dc14c79c987d37818484a62958b9c45a0e8b962f20650f611d05565b6116b433610387612009565b600080516020612a7f833981519152334261038760405161122b939291906125f2565b6126fb811180156116ea57506127008111155b15611801576007600052600660205260016117247f4ced6d0d36392b04cc5d8761b1327b3bbba6e1089c77f60a9a9ca18e05e4f00e611bae565b1015611238576007600052600660205261175d7f4ced6d0d36392b04cc5d8761b1327b3bbba6e1089c77f60a9a9ca18e05e4f00e611d05565b600954600780546001600160a01b03909216916342842e0e91309133919060009061178457fe5b90600052602060002001546040518463ffffffff1660e01b81526004016117ad939291906125b5565b600060405180830381600087803b1580156117c757600080fd5b505af11580156117db573d6000803e3d6000fd5b50505050600080516020612a7f833981519152334260c960405161122b939291906125f2565b6127008111801561181457506127058111155b1561192d5760086000526006602052600161184e7fb8d683c9d414f481826f3e7fe14b3ac6ae8c73450778287390c4bb8cb9f2e80b611bae565b101561123857600860005260066020526118877fb8d683c9d414f481826f3e7fe14b3ac6ae8c73450778287390c4bb8cb9f2e80b611d05565b600954600780546001600160a01b03909216916342842e0e91309133919060019081106118b057fe5b90600052602060002001546040518463ffffffff1660e01b81526004016118d9939291906125b5565b600060405180830381600087803b1580156118f357600080fd5b505af1158015611907573d6000803e3d6000fd5b50505050600080516020612a7f833981519152334260ca60405161122b939291906125f2565b61270581118015611940575061270a8111155b15611a595760096000526006602052600161197a7fca4d0c6c94a9477136dd41a99cc19ecbe441c8f6609efe7c6fa65be007a47323611bae565b101561123857600960005260066020526119b37fca4d0c6c94a9477136dd41a99cc19ecbe441c8f6609efe7c6fa65be007a47323611d05565b600954600780546001600160a01b03909216916342842e0e91309133919060029081106119dc57fe5b90600052602060002001546040518463ffffffff1660e01b8152600401611a05939291906125b5565b600060405180830381600087803b158015611a1f57600080fd5b505af1158015611a33573d6000803e3d6000fd5b50505050600080516020612a7f833981519152334260cb60405161122b939291906125f2565b61270a81118015611a6c575061270f8111155b1561066157600a60005260066020526001611aa67f4da38fc8e544afc56a4c2a17752b8ddb67d8e23ac4583c9029d2e2d1dbe6c988611bae565b1015611ba557600a6000526006602052611adf7f4da38fc8e544afc56a4c2a17752b8ddb67d8e23ac4583c9029d2e2d1dbe6c988611d05565b600b54600780546001600160a01b03909216916342842e0e9130913391906003908110611b0857fe5b90600052602060002001546040518463ffffffff1660e01b8152600401611b31939291906125b5565b600060405180830381600087803b158015611b4b57600080fd5b505af1158015611b5f573d6000803e3d6000fd5b505050507fcb468107d745bec1f6dca7a9a3c97970ccdef9c67db357179e5d5d96758b199b33426107d6604051611b98939291906125f2565b60405180910390a1610661565b61066133611d4d565b5490565b611bba610aae565b611bd65760405162461bcd60e51b81526004016105be90612717565b6000805460ff191690557f5db9ee0a495bf2e6ff9c91a7834c1ba4fdd244a5e8aa4e537bd38aeae4b073aa611c09611065565b6040516107a591906125a1565b611c1e610aae565b15611c3b5760405162461bcd60e51b81526004016105be90612895565b6000805460ff191660011790557f62e78cea01bee320cd4e420270b5ea74000d11b0c9f74754ebdbfc544b05a258611c09611065565b6060611cc6826040518060400160405280602081526020017f5361666545524332303a206c6f772d6c6576656c2063616c6c206661696c6564815250856001600160a01b031661217a9092919063ffffffff16565b805190915015611d005780806020019051810190611ce49190612493565b611d005760405162461bcd60e51b81526004016105be9061296c565b505050565b80546001019055565b6000611d18612191565b6001544233604051602001611d2f9392919061257e565b6040516020818303038152906040528051906020012060001c905090565b60004233604051602001611d62929190612520565b604051602081830303815290604052805190602001209050611d82612352565b50604080516101208101825260018152600260208201526003918101919091526065606082015260666080820152606760a082015260c960c082015260ca60e082015260cb610100820152600081600a611dda611d0e565b81611de157fe5b0660098110611dec57fe5b602002015160ff169050611dfe612371565b6040805160c08101909152808560011a866000601091901a020160ff1681526020018560031a866002601091901a020160ff1681526020018560051a866004601091901a020160ff1681526020018560071a866006601091901a020160ff1681526020018560091a866008601091901a020160ff16815260200185600b1a86600a601091901a020160ff169052600b5460405163c48820fb60e01b81529192506001600160a01b03169063c48820fb90611ec390889086906001908790600401612613565b600060405180830381600087803b158015611edd57600080fd5b505af1158015611ef1573d6000803e3d6000fd5b505050507fcb468107d745bec1f6dca7a9a3c97970ccdef9c67db357179e5d5d96758b199b334284604051611f28939291906125f2565b60405180910390a15050505050565b600a54604051630ab714fb60e11b81526001600160a01b039091169063156e29f690611f6c90859085906001906004016125f2565b600060405180830381600087803b158015611f8657600080fd5b505af1158015611f9a573d6000803e3d6000fd5b505050507f73243c8f9b8849372b6e2f2818ba365ea56fc9764d3442b696a7819c125e2e4d334283604051611fd1939291906125f2565b60405180910390a15050565b6000828201838110156120025760405162461bcd60e51b81526004016105be9061278b565b9392505050565b6000423360405160200161201e92919061254d565b60408051808303601f190181529190528051602090910120905060ff600082811a6010908102600185901a01831692600285901a8202600386901a01811692600486901a8302600587901a01821692600687901a02600787901a01909116906120938261208d85818989611fdd565b90611fdd565b905061209d6123a6565b6040805160808101909152806120be846120b88a606461219b565b906121d5565b60ff1681526020016120d5846120b889606461219b565b60ff1681526020016120ec846120b888606461219b565b60ff168152602001612103846120b887606461219b565b60ff169052600954604051633b0d534360e11b81529192506001600160a01b03169063761aa6869061213d908c908c908690600401612687565b600060405180830381600087803b15801561215757600080fd5b505af115801561216b573d6000803e3d6000fd5b50505050505050505050505050565b60606121898484600085612207565b949350505050565b6001805481019055565b6000826121aa57506000610cd7565b828202828482816121b757fe5b04146120025760405162461bcd60e51b81526004016105be906128bf565b60008082116121f65760405162461bcd60e51b81526004016105be9061285e565b8183816121ff57fe5b049392505050565b6060824710156122295760405162461bcd60e51b81526004016105be90612818565b612232856122c8565b61224e5760405162461bcd60e51b81526004016105be90612935565b60006060866001600160a01b0316858760405161226b9190612504565b60006040518083038185875af1925050503d80600081146122a8576040519150601f19603f3d011682016040523d82523d6000602084013e6122ad565b606091505b50915091506122bd8282866122ce565b979650505050505050565b3b151590565b606083156122dd575081612002565b8251156122ed5782518084602001fd5b8160405162461bcd60e51b81526004016105be91906126e4565b828054828255906000526020600020908101928215612342579160200282015b82811115612342578251825591602001919060010190612327565b5061234e9291506123cd565b5090565b6040518061012001604052806009906020820280368337509192915050565b6040805160c081018252600080825260208201819052918101829052606081018290526080810182905260a081019190915290565b60408051608081018252600080825260208201819052918101829052606081019190915290565b5b8082111561234e57600081556001016123ce565b6000602082840312156123f3578081fd5b813561200281612a69565b60006020808385031215612410578182fd5b823567ffffffffffffffff811115612426578283fd5b8301601f81018513612436578283fd5b803561244961244482612a1d565b6129f6565b8181528381019083850185840285018601891015612465578687fd5b8694505b83851015612487578035835260019490940193918501918501612469565b50979650505050505050565b6000602082840312156124a4578081fd5b81518015158114612002578182fd5b6000602082840312156124c4578081fd5b5035919050565b6000602082840312156124dc578081fd5b5051919050565b600080604083850312156124f5578081fd5b50508035926020909101359150565b60008251612516818460208701612a3d565b9190910192915050565b667137343532333560c81b8152600781019290925260601b6001600160601b0319166027820152603b0190565b6a4e46547320426174746c6560a81b8152600b81019290925260601b6001600160601b031916602b820152603f0190565b928352602083019190915260601b6001600160601b031916604082015260540190565b6001600160a01b0391909116815260200190565b6001600160a01b039384168152919092166020820152604081019190915260600190565b6001600160a01b03929092168252602082015260400190565b6001600160a01b039390931683526020830191909152604082015260600190565b60006101208201905060018060a01b038616825284602083015260ff80851660408401528084511660608401528060208501511660808401528060408501511660a08401528060608501511660c08401528060808501511660e08401528060a0850151166101008401525095945050505050565b600060c08201905060018060a01b038516825283602083015260ff835116604083015260ff602084015116606083015260ff604084015116608083015260ff60608401511660a0830152949350505050565b901515815260200190565b6000602082528251806020840152612703816040850160208701612a3d565b601f01601f19169190910160400192915050565b60208082526014908201527314185d5cd8589b194e881b9bdd081c185d5cd95960621b604082015260600190565b60208082526026908201527f4f776e61626c653a206e6577206f776e657220697320746865207a65726f206160408201526564647265737360d01b606082015260800190565b6020808252601b908201527f536166654d6174683a206164646974696f6e206f766572666c6f770000000000604082015260600190565b60208082526036908201527f53656c6c54696d653a2054686520456e6454696d652073686f756c642062652060408201527567726561746572207468616e20537461727454696d6560501b606082015260800190565b60208082526026908201527f416464726573733a20696e73756666696369656e742062616c616e636520666f6040820152651c8818d85b1b60d21b606082015260800190565b6020808252601a908201527f536166654d6174683a206469766973696f6e206279207a65726f000000000000604082015260600190565b60208082526010908201526f14185d5cd8589b194e881c185d5cd95960821b604082015260600190565b60208082526021908201527f536166654d6174683a206d756c7469706c69636174696f6e206f766572666c6f6040820152607760f81b606082015260800190565b6020808252818101527f4f776e61626c653a2063616c6c6572206973206e6f7420746865206f776e6572604082015260600190565b6020808252601d908201527f416464726573733a2063616c6c20746f206e6f6e2d636f6e7472616374000000604082015260600190565b6020808252602a908201527f5361666545524332303a204552433230206f7065726174696f6e20646964206e6040820152691bdd081cdd58d8d9595960b21b606082015260800190565b6020808252601a908201527f53656c6c54696d653a204e6f7420696e2073616c652074696d65000000000000604082015260600190565b90815260200190565b60405181810167ffffffffffffffff81118282101715612a1557600080fd5b604052919050565b600067ffffffffffffffff821115612a33578081fd5b5060209081020190565b60005b83811015612a58578181015183820152602001612a40565b83811115610ec85750506000910152565b6001600160a01b038116811461066157600080fdfef0e302b1cf58c3009bad1e31827f1b04fa29f6f2d55894b75abbfada05eb1607a2646970667358221220e02d9a432c39c97bac9c5f583de14bf381abfd9d16536a405bcc4356ed3f1e5e64736f6c634300060c0033",
  "immutableReferences": {},
  "source": "// SPDX-License-Identifier: MIT\r\npragma experimental ABIEncoderV2;\r\npragma solidity ^0.6.0;\r\n\r\nimport \"@openzeppelin/contracts/access/Ownable.sol\";\r\nimport \"@openzeppelin/contracts/token/ERC20/IERC20.sol\";\r\nimport \"@openzeppelin/contracts/utils/Pausable.sol\";\r\nimport \"@openzeppelin/contracts/token/ERC20/SafeERC20.sol\";\r\nimport \"@openzeppelin/contracts/utils/Counters.sol\";\r\nimport './Random.sol';\r\n\r\ninterface IPack {\r\n    function safeTransferFrom(\r\n        address from, address to, uint256 tokenId\r\n    ) external;\r\n}\r\n\r\ninterface IItem{\r\n    struct ItemInfo{\r\n        uint8 x1;\r\n        uint8 x2;\r\n        uint8 y1;\r\n        uint8 y2;\r\n        uint8 z1;\r\n        uint8 z2;\r\n    }\r\n    function mint(address recipient, uint itemIndex, uint8 itemQuality,\r\n        ItemInfo memory itemInfo) external;\r\n    \r\n    function safeTransferFrom(\r\n        address from, address to, uint256 tokenId\r\n    ) external;\r\n}\r\n\r\ninterface ICharacter{\r\n    struct CharacterInfo{\r\n        uint8 HPbase;\r\n        uint8 ATKbase;\r\n        uint8 DEFbase;\r\n        uint8 LUKbase;\r\n    }\r\n\r\n    function mint(\r\n        address recipient, uint characterIndex, CharacterInfo memory characterInfo\r\n    ) external;\r\n\r\n    function safeTransferFrom(\r\n        address from, address to, uint256 tokenId\r\n    ) external;\r\n}\r\n\r\ninterface IChest{\r\n    function mint(address recipient, uint chestIndex, uint amount) external;\r\n}\r\n\r\ncontract SellTime is Ownable, Random{\r\n\r\n    using SafeERC20 for IERC20;\r\n    using SafeMath for uint;\r\n\r\n    address public wallet ;\r\n    uint public lotteryLaunchTime;\r\n    uint public lotteryEndTime;\r\n    \r\n    function setLotteryLaunchTime(\r\n        uint _lotteryLaunchTime,\r\n        uint _lotteryEndTime\r\n    ) external onlyOwner{\r\n        require(_lotteryEndTime > _lotteryLaunchTime,\r\n            \"SellTime: The EndTime should be greater than StartTime\"\r\n        );\r\n        lotteryLaunchTime = _lotteryLaunchTime;\r\n        lotteryEndTime = _lotteryEndTime;\r\n    }\r\n\r\n    modifier lotterySellTime(){\r\n        require(now > lotteryLaunchTime && lotteryEndTime > now,\r\n            \"SellTime: Not in sale time\"\r\n        );\r\n        _;\r\n    }\r\n}\r\n\r\ninterface ILottery {\r\n    //change to Lottery\r\n    event GetCharacter(address buyer, uint time, uint characterIndex);\r\n    event GetChest(address buyer, uint time, uint chestIndex);\r\n    event GetItem(address buyer, uint time, uint itemIndex);\r\n    event GetBNB(address buyer, uint time, uint amount);\r\n    event Lottery(address buyer, uint time);\r\n}\r\n\r\ncontract Lottery is Pausable, SellTime, ILottery{\r\n\r\n    using Counters for Counters.Counter;\r\n\r\n    mapping(address => bool) _buyer;\r\n\r\n    mapping (uint => Counters.Counter) sellAmount;\r\n    uint[] private tokenId;\r\n\r\n    //Contracts\r\n    IPack public packContract;\r\n    ICharacter public characterContract;\r\n    IChest public chestContract;\r\n    IItem public itemContract;\r\n    IERC20 public usdtContract = IERC20(0x55d398326f99059fF775485246999027B3197955);\r\n    // IBNBPrice public bnbPriceContract = IBNBPrice(0x52D3Ec80C702530D6f862Ce4bA1d20D9A7620315);\r\n    \r\n    uint private _lotteryPriceForUSDT = 1e18; //decimal = 18\r\n    uint private _ultraCount = 4;\r\n    uint private _superCount = 14;\r\n\r\n    receive () payable external{\r\n\r\n    }\r\n\r\n    function getLotteryPriceForUSDT() public view returns(uint){\r\n        return _lotteryPriceForUSDT;\r\n    }\r\n\r\n    function setLotteryPriceForUSDT(uint amount) external onlyOwner {\r\n        _lotteryPriceForUSDT = amount * 1e18;\r\n    }\r\n\r\n    function isBuyer(address user) external view returns(bool){\r\n        return _buyer[user];\r\n    }\r\n\r\n    function totalSellAmount() external view returns(uint){\r\n        return sellAmount[0].current();\r\n    }\r\n\r\n    function lotteryAmount(uint index) external view returns(uint){\r\n        return sellAmount[index].current();\r\n    }\r\n\r\n    function setTokenId(uint[] memory _tokenId) external onlyOwner{\r\n        tokenId = _tokenId;\r\n    }\r\n\r\n    function lotteryByUsdt() external whenNotPaused lotterySellTime{\r\n        usdtContract.safeTransferFrom(\r\n            msg.sender,\r\n            wallet, \r\n            getLotteryPriceForUSDT()\r\n        );\r\n        _lottery();\r\n        emit Lottery(msg.sender, now);\r\n    }\r\n\r\n//_lottery\r\n    function _lottery()  private{\r\n        _buyer[msg.sender] = true;\r\n\r\n        // check probability\r\n        sellAmount[0].increment();\r\n        uint randomNumber = _getRandomNumber() % 10000;\r\n        if(randomNumber <= 9029){\r\n            _mintItem(msg.sender);\r\n        }else if(randomNumber > 9029 && randomNumber <= 9129){\r\n            if(sellAmount[1].current() < 10){\r\n                sellAmount[1].increment();\r\n                (msg.sender).transfer(0.02 ether);\r\n                emit GetBNB(msg.sender, now, 0.02 ether);\r\n            }else{_mintItem(msg.sender);}\r\n        }else if(randomNumber > 9129 && randomNumber <= 9379){\r\n            if(sellAmount[2].current() < 50){\r\n                sellAmount[2].increment();\r\n                _mintChest(msg.sender,7);\r\n            }else{_mintItem(msg.sender);}\r\n        }else if(randomNumber > 9379 && randomNumber <= 9629){\r\n            if(sellAmount[3].current() < 50){\r\n                sellAmount[3].increment();\r\n                _mintChest(msg.sender,2);\r\n            }else{_mintItem(msg.sender);}\r\n        }else if(randomNumber > 9629 && randomNumber <= 9679){\r\n            if(sellAmount[4].current() < 10){\r\n                sellAmount[4].increment();\r\n                packContract.safeTransferFrom(\r\n                    address(this),\r\n                    msg.sender,\r\n                    tokenId[_ultraCount]   \r\n                );\r\n                _ultraCount = _ultraCount.add(1);\r\n                emit GetChest(msg.sender, now, 11);\r\n            }else{_mintItem(msg.sender);}\r\n        }else if(randomNumber > 9679 && randomNumber <= 9729){\r\n            if(sellAmount[5].current() < 10){\r\n                sellAmount[5].increment();\r\n                packContract.safeTransferFrom(\r\n                    address(this),\r\n                    msg.sender,\r\n                    tokenId[_superCount]   \r\n                );\r\n                _superCount = _superCount.add(1);\r\n                emit GetChest(msg.sender, now, 1);\r\n            }else{_mintItem(msg.sender);}\r\n        }else if(randomNumber > 9729 && randomNumber <= 9979){\r\n            if(sellAmount[6].current() < 50){\r\n                sellAmount[6].increment();\r\n                _mintCharacter(msg.sender,903); \r\n                emit GetCharacter(msg.sender, now, 903);\r\n            }else{_mintItem(msg.sender);}\r\n        }else if(randomNumber > 9979 && randomNumber <= 9984){\r\n            if(sellAmount[7].current() < 1){\r\n                sellAmount[7].increment();\r\n                characterContract.safeTransferFrom(\r\n                    address(this),\r\n                    msg.sender,\r\n                    tokenId[0]   \r\n                );\r\n                emit GetCharacter(msg.sender, now, 201);\r\n            }else{_mintItem(msg.sender);}\r\n        }else if(randomNumber > 9984 && randomNumber <= 9989){\r\n            if(sellAmount[8].current() < 1){\r\n                sellAmount[8].increment();\r\n                characterContract.safeTransferFrom(\r\n                    address(this),\r\n                    msg.sender,\r\n                    tokenId[1]   \r\n                );\r\n                emit GetCharacter(msg.sender, now, 202);\r\n            }else{_mintItem(msg.sender);}\r\n        }else if(randomNumber > 9989 && randomNumber <= 9994){\r\n            if(sellAmount[9].current() < 1){\r\n                sellAmount[9].increment();\r\n                characterContract.safeTransferFrom(\r\n                    address(this),\r\n                    msg.sender,\r\n                    tokenId[2]   \r\n                );\r\n                emit GetCharacter(msg.sender, now, 203);\r\n            }else{_mintItem(msg.sender);}\r\n        }else if(randomNumber > 9994 && randomNumber <= 9999){\r\n            if(sellAmount[10].current() < 1){\r\n                sellAmount[10].increment();\r\n                itemContract.safeTransferFrom(\r\n                    address(this),\r\n                    msg.sender,\r\n                    tokenId[3]   \r\n                );\r\n                emit GetItem(msg.sender, now, 2006);\r\n            }else{_mintItem(msg.sender);}\r\n        }\r\n    }\r\n\r\n//_mint\r\n\r\n    function _mintCharacter(address to, uint characterIndex) private{\r\n        \r\n        bytes32 seed = keccak256(abi.encodePacked(\"NFTs Battle\", now, msg.sender));\r\n        \r\n        uint hpInit = (uint8(seed[0]) * 16 + uint8(seed[1]));\r\n        uint atkInit = (uint8(seed[2]) * 16 + uint8(seed[3]));\r\n        uint defInit = (uint8(seed[4]) * 16 + uint8(seed[5]));\r\n        uint lukInit = (uint8(seed[6]) * 16 + uint8(seed[7]));\r\n\r\n        uint normalization = hpInit.add(atkInit).add(defInit).add(lukInit);\r\n        \r\n        ICharacter.CharacterInfo memory characterInfo = ICharacter.CharacterInfo({\r\n            HPbase: uint8(hpInit.mul(100).div(normalization)),\r\n            ATKbase: uint8(atkInit.mul(100).div(normalization)),\r\n            DEFbase: uint8(defInit.mul(100).div(normalization)),\r\n            LUKbase: uint8(lukInit.mul(100).div(normalization))\r\n        });\r\n\r\n        characterContract.mint(to, characterIndex, characterInfo);\r\n    }\r\n\r\n    function _mintItem(address to) private{\r\n        \r\n        bytes32 seed = keccak256(abi.encodePacked(\"q745235\", now, msg.sender));\r\n        uint8[9] memory items = [1, 2, 3, 101, 102, 103, 201, 202, 203];\r\n        uint itemIdex = items[_getRandomNumber() % 10];\r\n        IItem.ItemInfo memory itemInfo = IItem.ItemInfo({\r\n            x1: uint8(seed[0]) * 16 + uint8(seed[1]),\r\n            x2: uint8(seed[2]) * 16 + uint8(seed[3]),\r\n            y1: uint8(seed[4]) * 16 + uint8(seed[5]),\r\n            y2: uint8(seed[6]) * 16 + uint8(seed[7]),\r\n            z1: uint8(seed[8]) * 16 + uint8(seed[9]),\r\n            z2: uint8(seed[10]) * 16 + uint8(seed[11])\r\n        });\r\n        itemContract.mint(to, itemIdex, 1, itemInfo);\r\n        emit GetItem(msg.sender, now, itemIdex);\r\n    }\r\n\r\n    function _mintChest(address to, uint chestIndex) private{\r\n        chestContract.mint(to, chestIndex, 1);\r\n        emit GetChest(msg.sender, now, chestIndex);\r\n    }\r\n\r\n//onlyOwner\r\n    function setPuase() external onlyOwner{\r\n        _pause();\r\n    }\r\n\r\n    function setUnpuase() external onlyOwner{\r\n        _unpause();\r\n    }\r\n\r\n    function setUsdtContract(IERC20 _usdtContract) external onlyOwner{\r\n        usdtContract = _usdtContract;\r\n    }\r\n\r\n    function setCharacterContract(ICharacter _characterContract) external onlyOwner{\r\n        characterContract = _characterContract;\r\n    }\r\n\r\n    function setChestContract(IChest _chestContract) external onlyOwner{\r\n        chestContract = _chestContract;\r\n    }\r\n\r\n    function setItemContract(IItem _itemContract) external onlyOwner{\r\n        itemContract = _itemContract;\r\n    }\r\n\r\n    function setPackContract(IPack _packContract) external onlyOwner{\r\n        packContract = _packContract;\r\n    }\r\n\r\n    function setWallet(address _wallet) external onlyOwner{\r\n        wallet = _wallet;\r\n    }\r\n\r\n    function withdraw() external onlyOwner{\r\n        payable(wallet).transfer(address(this).balance);\r\n        usdtContract.transfer(wallet, usdtContract.balanceOf(address(this)));\r\n    }\r\n\r\n    function withdrawBNB() external onlyOwner{\r\n        payable(wallet).transfer(address(this).balance);\r\n    }\r\n\r\n    function withdrawItem() external onlyOwner{\r\n        itemContract.safeTransferFrom(\r\n            address(this),\r\n            msg.sender,\r\n            tokenId[3]   \r\n        );\r\n    }\r\n\r\n    function withdrawCharacter(uint index) external onlyOwner{\r\n        characterContract.safeTransferFrom(\r\n            address(this),\r\n            msg.sender,\r\n            tokenId[index]   \r\n        );\r\n    }\r\n\r\n    function withdrawPack(uint index) external onlyOwner{\r\n        packContract.safeTransferFrom(\r\n            address(this),\r\n            msg.sender,\r\n            tokenId[index]   \r\n        );\r\n    }\r\n}",
  "sourcePath": "D:\\Solidity\\Solidity\\lottery\\contracts\\Lottery.sol",
  "compiler": {
    "name": "solc",
    "version": "0.6.12+commit.27d51765.Emscripten.clang"
  },
  "schemaVersion": "3.4.4",
  "updatedAt": "2022-07-03T15:51:28.363Z",
  "devdoc": {
    "kind": "dev",
    "methods": {
      "owner()": {
        "details": "Returns the address of the current owner."
      },
      "paused()": {
        "details": "Returns true if the contract is paused, and false otherwise."
      },
      "renounceOwnership()": {
        "details": "Leaves the contract without owner. It will not be possible to call `onlyOwner` functions anymore. Can only be called by the current owner. NOTE: Renouncing ownership will leave the contract without an owner, thereby removing any functionality that is only available to the owner."
      },
      "transferOwnership(address)": {
        "details": "Transfers ownership of the contract to a new account (`newOwner`). Can only be called by the current owner."
      }
    },
    "version": 1
  },
  "userdoc": {
    "kind": "user",
    "methods": {},
    "version": 1
  }
}