{
  "contractName": "RandomNFT",
  "abi": [
    {
      "inputs": [],
      "stateMutability": "nonpayable",
      "type": "constructor"
    },
    {
      "anonymous": false,
      "inputs": [
        {
          "indexed": true,
          "internalType": "address",
          "name": "account",
          "type": "address"
        },
        {
          "indexed": true,
          "internalType": "address",
          "name": "operator",
          "type": "address"
        },
        {
          "indexed": false,
          "internalType": "bool",
          "name": "approved",
          "type": "bool"
        }
      ],
      "name": "ApprovalForAll",
      "type": "event"
    },
    {
      "anonymous": false,
      "inputs": [
        {
          "indexed": false,
          "internalType": "address",
          "name": "buyer",
          "type": "address"
        },
        {
          "indexed": false,
          "internalType": "uint256",
          "name": "time",
          "type": "uint256"
        },
        {
          "indexed": false,
          "internalType": "uint256",
          "name": "chipsIndex",
          "type": "uint256"
        },
        {
          "indexed": false,
          "internalType": "uint256",
          "name": "amount",
          "type": "uint256"
        }
      ],
      "name": "BuyChips",
      "type": "event"
    },
    {
      "anonymous": false,
      "inputs": [
        {
          "indexed": true,
          "internalType": "address",
          "name": "previousOwner",
          "type": "address"
        },
        {
          "indexed": true,
          "internalType": "address",
          "name": "newOwner",
          "type": "address"
        }
      ],
      "name": "OwnershipTransferred",
      "type": "event"
    },
    {
      "anonymous": false,
      "inputs": [
        {
          "indexed": false,
          "internalType": "address",
          "name": "account",
          "type": "address"
        }
      ],
      "name": "Paused",
      "type": "event"
    },
    {
      "anonymous": false,
      "inputs": [
        {
          "indexed": true,
          "internalType": "address",
          "name": "operator",
          "type": "address"
        },
        {
          "indexed": true,
          "internalType": "address",
          "name": "from",
          "type": "address"
        },
        {
          "indexed": true,
          "internalType": "address",
          "name": "to",
          "type": "address"
        },
        {
          "indexed": false,
          "internalType": "uint256[]",
          "name": "ids",
          "type": "uint256[]"
        },
        {
          "indexed": false,
          "internalType": "uint256[]",
          "name": "values",
          "type": "uint256[]"
        }
      ],
      "name": "TransferBatch",
      "type": "event"
    },
    {
      "anonymous": false,
      "inputs": [
        {
          "indexed": true,
          "internalType": "address",
          "name": "operator",
          "type": "address"
        },
        {
          "indexed": true,
          "internalType": "address",
          "name": "from",
          "type": "address"
        },
        {
          "indexed": true,
          "internalType": "address",
          "name": "to",
          "type": "address"
        },
        {
          "indexed": false,
          "internalType": "uint256",
          "name": "id",
          "type": "uint256"
        },
        {
          "indexed": false,
          "internalType": "uint256",
          "name": "value",
          "type": "uint256"
        }
      ],
      "name": "TransferSingle",
      "type": "event"
    },
    {
      "anonymous": false,
      "inputs": [
        {
          "indexed": false,
          "internalType": "string",
          "name": "value",
          "type": "string"
        },
        {
          "indexed": true,
          "internalType": "uint256",
          "name": "id",
          "type": "uint256"
        }
      ],
      "name": "URI",
      "type": "event"
    },
    {
      "anonymous": false,
      "inputs": [
        {
          "indexed": false,
          "internalType": "address",
          "name": "account",
          "type": "address"
        }
      ],
      "name": "Unpaused",
      "type": "event"
    },
    {
      "inputs": [],
      "name": "OneWallet",
      "outputs": [
        {
          "internalType": "address",
          "name": "",
          "type": "address"
        }
      ],
      "stateMutability": "view",
      "type": "function"
    },
    {
      "inputs": [],
      "name": "RandomNFTWallet",
      "outputs": [
        {
          "internalType": "address",
          "name": "",
          "type": "address"
        }
      ],
      "stateMutability": "view",
      "type": "function"
    },
    {
      "inputs": [],
      "name": "ThreeWallet",
      "outputs": [
        {
          "internalType": "address",
          "name": "",
          "type": "address"
        }
      ],
      "stateMutability": "view",
      "type": "function"
    },
    {
      "inputs": [],
      "name": "TwoWallet",
      "outputs": [
        {
          "internalType": "address",
          "name": "",
          "type": "address"
        }
      ],
      "stateMutability": "view",
      "type": "function"
    },
    {
      "inputs": [],
      "name": "_openWhitelist",
      "outputs": [
        {
          "internalType": "bool",
          "name": "",
          "type": "bool"
        }
      ],
      "stateMutability": "view",
      "type": "function"
    },
    {
      "inputs": [
        {
          "internalType": "address",
          "name": "account",
          "type": "address"
        },
        {
          "internalType": "uint256",
          "name": "id",
          "type": "uint256"
        }
      ],
      "name": "balanceOf",
      "outputs": [
        {
          "internalType": "uint256",
          "name": "",
          "type": "uint256"
        }
      ],
      "stateMutability": "view",
      "type": "function"
    },
    {
      "inputs": [
        {
          "internalType": "address[]",
          "name": "accounts",
          "type": "address[]"
        },
        {
          "internalType": "uint256[]",
          "name": "ids",
          "type": "uint256[]"
        }
      ],
      "name": "balanceOfBatch",
      "outputs": [
        {
          "internalType": "uint256[]",
          "name": "",
          "type": "uint256[]"
        }
      ],
      "stateMutability": "view",
      "type": "function"
    },
    {
      "inputs": [
        {
          "internalType": "address",
          "name": "_miner",
          "type": "address"
        }
      ],
      "name": "delMiner",
      "outputs": [],
      "stateMutability": "nonpayable",
      "type": "function"
    },
    {
      "inputs": [
        {
          "internalType": "address",
          "name": "account",
          "type": "address"
        },
        {
          "internalType": "address",
          "name": "operator",
          "type": "address"
        }
      ],
      "name": "isApprovedForAll",
      "outputs": [
        {
          "internalType": "bool",
          "name": "",
          "type": "bool"
        }
      ],
      "stateMutability": "view",
      "type": "function"
    },
    {
      "inputs": [
        {
          "internalType": "address",
          "name": "",
          "type": "address"
        }
      ],
      "name": "isMiner",
      "outputs": [
        {
          "internalType": "bool",
          "name": "",
          "type": "bool"
        }
      ],
      "stateMutability": "view",
      "type": "function"
    },
    {
      "inputs": [],
      "name": "jpg1",
      "outputs": [
        {
          "internalType": "uint256",
          "name": "",
          "type": "uint256"
        }
      ],
      "stateMutability": "view",
      "type": "function"
    },
    {
      "inputs": [],
      "name": "jpg2",
      "outputs": [
        {
          "internalType": "uint256",
          "name": "",
          "type": "uint256"
        }
      ],
      "stateMutability": "view",
      "type": "function"
    },
    {
      "inputs": [],
      "name": "limit",
      "outputs": [
        {
          "internalType": "uint256",
          "name": "",
          "type": "uint256"
        }
      ],
      "stateMutability": "view",
      "type": "function"
    },
    {
      "inputs": [],
      "name": "owner",
      "outputs": [
        {
          "internalType": "address",
          "name": "",
          "type": "address"
        }
      ],
      "stateMutability": "view",
      "type": "function"
    },
    {
      "inputs": [],
      "name": "paused",
      "outputs": [
        {
          "internalType": "bool",
          "name": "",
          "type": "bool"
        }
      ],
      "stateMutability": "view",
      "type": "function"
    },
    {
      "inputs": [],
      "name": "permitSellAmount",
      "outputs": [
        {
          "internalType": "uint256",
          "name": "",
          "type": "uint256"
        }
      ],
      "stateMutability": "view",
      "type": "function"
    },
    {
      "inputs": [],
      "name": "purchaseEnd",
      "outputs": [
        {
          "internalType": "uint256",
          "name": "",
          "type": "uint256"
        }
      ],
      "stateMutability": "view",
      "type": "function"
    },
    {
      "inputs": [],
      "name": "purchaseTime",
      "outputs": [
        {
          "internalType": "uint256",
          "name": "",
          "type": "uint256"
        }
      ],
      "stateMutability": "view",
      "type": "function"
    },
    {
      "inputs": [],
      "name": "renounceOwnership",
      "outputs": [],
      "stateMutability": "nonpayable",
      "type": "function"
    },
    {
      "inputs": [
        {
          "internalType": "address",
          "name": "from",
          "type": "address"
        },
        {
          "internalType": "address",
          "name": "to",
          "type": "address"
        },
        {
          "internalType": "uint256[]",
          "name": "ids",
          "type": "uint256[]"
        },
        {
          "internalType": "uint256[]",
          "name": "amounts",
          "type": "uint256[]"
        },
        {
          "internalType": "bytes",
          "name": "data",
          "type": "bytes"
        }
      ],
      "name": "safeBatchTransferFrom",
      "outputs": [],
      "stateMutability": "nonpayable",
      "type": "function"
    },
    {
      "inputs": [
        {
          "internalType": "address",
          "name": "from",
          "type": "address"
        },
        {
          "internalType": "address",
          "name": "to",
          "type": "address"
        },
        {
          "internalType": "uint256",
          "name": "id",
          "type": "uint256"
        },
        {
          "internalType": "uint256",
          "name": "amount",
          "type": "uint256"
        },
        {
          "internalType": "bytes",
          "name": "data",
          "type": "bytes"
        }
      ],
      "name": "safeTransferFrom",
      "outputs": [],
      "stateMutability": "nonpayable",
      "type": "function"
    },
    {
      "inputs": [
        {
          "internalType": "address",
          "name": "_miner",
          "type": "address"
        }
      ],
      "name": "setMiner",
      "outputs": [],
      "stateMutability": "nonpayable",
      "type": "function"
    },
    {
      "inputs": [
        {
          "internalType": "uint256",
          "name": "_purchaseTime",
          "type": "uint256"
        },
        {
          "internalType": "uint256",
          "name": "_purchaseEnd",
          "type": "uint256"
        }
      ],
      "name": "setPurchaseTime",
      "outputs": [],
      "stateMutability": "nonpayable",
      "type": "function"
    },
    {
      "inputs": [
        {
          "internalType": "bytes4",
          "name": "interfaceId",
          "type": "bytes4"
        }
      ],
      "name": "supportsInterface",
      "outputs": [
        {
          "internalType": "bool",
          "name": "",
          "type": "bool"
        }
      ],
      "stateMutability": "view",
      "type": "function"
    },
    {
      "inputs": [],
      "name": "totalSellAmount",
      "outputs": [
        {
          "internalType": "uint256",
          "name": "",
          "type": "uint256"
        }
      ],
      "stateMutability": "view",
      "type": "function"
    },
    {
      "inputs": [
        {
          "internalType": "address",
          "name": "newOwner",
          "type": "address"
        }
      ],
      "name": "transferOwnership",
      "outputs": [],
      "stateMutability": "nonpayable",
      "type": "function"
    },
    {
      "inputs": [],
      "name": "usdtContract",
      "outputs": [
        {
          "internalType": "contract IERC20",
          "name": "",
          "type": "address"
        }
      ],
      "stateMutability": "view",
      "type": "function"
    },
    {
      "inputs": [
        {
          "internalType": "address",
          "name": "operator",
          "type": "address"
        },
        {
          "internalType": "bool",
          "name": "approved",
          "type": "bool"
        }
      ],
      "name": "setApprovalForAll",
      "outputs": [],
      "stateMutability": "nonpayable",
      "type": "function"
    },
    {
      "inputs": [
        {
          "internalType": "bool",
          "name": "tf",
          "type": "bool"
        }
      ],
      "name": "setOpenWhitelist",
      "outputs": [],
      "stateMutability": "nonpayable",
      "type": "function"
    },
    {
      "inputs": [
        {
          "internalType": "address",
          "name": "_address",
          "type": "address"
        },
        {
          "internalType": "bool",
          "name": "tf",
          "type": "bool"
        }
      ],
      "name": "setWhitelist",
      "outputs": [],
      "stateMutability": "nonpayable",
      "type": "function"
    },
    {
      "inputs": [
        {
          "internalType": "address",
          "name": "_address",
          "type": "address"
        }
      ],
      "name": "isWhitelist",
      "outputs": [
        {
          "internalType": "bool",
          "name": "",
          "type": "bool"
        }
      ],
      "stateMutability": "view",
      "type": "function"
    },
    {
      "inputs": [],
      "name": "name",
      "outputs": [
        {
          "internalType": "string",
          "name": "",
          "type": "string"
        }
      ],
      "stateMutability": "view",
      "type": "function"
    },
    {
      "inputs": [],
      "name": "symbol",
      "outputs": [
        {
          "internalType": "string",
          "name": "",
          "type": "string"
        }
      ],
      "stateMutability": "view",
      "type": "function"
    },
    {
      "inputs": [],
      "name": "getPriceForUSDT",
      "outputs": [
        {
          "internalType": "uint256",
          "name": "",
          "type": "uint256"
        }
      ],
      "stateMutability": "view",
      "type": "function"
    },
    {
      "inputs": [
        {
          "internalType": "address",
          "name": "user",
          "type": "address"
        }
      ],
      "name": "isBuyer",
      "outputs": [
        {
          "internalType": "bool",
          "name": "",
          "type": "bool"
        }
      ],
      "stateMutability": "view",
      "type": "function"
    },
    {
      "inputs": [
        {
          "internalType": "uint256",
          "name": "chipsIndex",
          "type": "uint256"
        }
      ],
      "name": "chipsCount",
      "outputs": [
        {
          "internalType": "uint256",
          "name": "",
          "type": "uint256"
        }
      ],
      "stateMutability": "view",
      "type": "function"
    },
    {
      "inputs": [],
      "name": "buyChipsByUsdt",
      "outputs": [],
      "stateMutability": "nonpayable",
      "type": "function"
    },
    {
      "inputs": [
        {
          "internalType": "uint256",
          "name": "amount",
          "type": "uint256"
        }
      ],
      "name": "buyChipsBatchByUsdt",
      "outputs": [],
      "stateMutability": "nonpayable",
      "type": "function"
    },
    {
      "inputs": [
        {
          "internalType": "address",
          "name": "recipient",
          "type": "address"
        },
        {
          "internalType": "uint256",
          "name": "chipsIndex",
          "type": "uint256"
        },
        {
          "internalType": "uint256",
          "name": "amount",
          "type": "uint256"
        }
      ],
      "name": "mint",
      "outputs": [],
      "stateMutability": "nonpayable",
      "type": "function"
    },
    {
      "inputs": [
        {
          "internalType": "address",
          "name": "recipient",
          "type": "address"
        },
        {
          "internalType": "uint256[]",
          "name": "chipsIndex",
          "type": "uint256[]"
        },
        {
          "internalType": "uint256[]",
          "name": "amount",
          "type": "uint256[]"
        }
      ],
      "name": "mintBatch",
      "outputs": [],
      "stateMutability": "nonpayable",
      "type": "function"
    },
    {
      "inputs": [],
      "name": "baseURI",
      "outputs": [
        {
          "internalType": "string",
          "name": "",
          "type": "string"
        }
      ],
      "stateMutability": "view",
      "type": "function"
    },
    {
      "inputs": [
        {
          "internalType": "string",
          "name": "_newURI",
          "type": "string"
        }
      ],
      "name": "setBaseURI",
      "outputs": [],
      "stateMutability": "nonpayable",
      "type": "function"
    },
    {
      "inputs": [
        {
          "internalType": "uint256",
          "name": "chipsIndex",
          "type": "uint256"
        }
      ],
      "name": "uri",
      "outputs": [
        {
          "internalType": "string",
          "name": "",
          "type": "string"
        }
      ],
      "stateMutability": "view",
      "type": "function"
    },
    {
      "inputs": [
        {
          "internalType": "uint256",
          "name": "chipsIndex",
          "type": "uint256"
        }
      ],
      "name": "tokenURI",
      "outputs": [
        {
          "internalType": "string",
          "name": "",
          "type": "string"
        }
      ],
      "stateMutability": "view",
      "type": "function"
    },
    {
      "inputs": [
        {
          "internalType": "uint256",
          "name": "chipsIndex",
          "type": "uint256"
        },
        {
          "internalType": "string",
          "name": "chipsURI",
          "type": "string"
        }
      ],
      "name": "setChestURI",
      "outputs": [],
      "stateMutability": "nonpayable",
      "type": "function"
    },
    {
      "inputs": [
        {
          "internalType": "string",
          "name": "newuri",
          "type": "string"
        }
      ],
      "name": "setUri",
      "outputs": [],
      "stateMutability": "nonpayable",
      "type": "function"
    },
    {
      "inputs": [],
      "name": "setPuase",
      "outputs": [],
      "stateMutability": "nonpayable",
      "type": "function"
    },
    {
      "inputs": [],
      "name": "setUnpuase",
      "outputs": [],
      "stateMutability": "nonpayable",
      "type": "function"
    },
    {
      "inputs": [
        {
          "internalType": "uint256",
          "name": "amount",
          "type": "uint256"
        }
      ],
      "name": "setTotalSellAmount",
      "outputs": [],
      "stateMutability": "nonpayable",
      "type": "function"
    },
    {
      "inputs": [
        {
          "internalType": "uint256",
          "name": "amount",
          "type": "uint256"
        }
      ],
      "name": "setPermitSellAmount",
      "outputs": [],
      "stateMutability": "nonpayable",
      "type": "function"
    },
    {
      "inputs": [
        {
          "internalType": "uint256",
          "name": "amount",
          "type": "uint256"
        }
      ],
      "name": "setJpg1",
      "outputs": [],
      "stateMutability": "nonpayable",
      "type": "function"
    },
    {
      "inputs": [
        {
          "internalType": "uint256",
          "name": "amount",
          "type": "uint256"
        }
      ],
      "name": "setJpg2",
      "outputs": [],
      "stateMutability": "nonpayable",
      "type": "function"
    },
    {
      "inputs": [
        {
          "internalType": "uint256",
          "name": "amount",
          "type": "uint256"
        }
      ],
      "name": "setLimit",
      "outputs": [],
      "stateMutability": "nonpayable",
      "type": "function"
    },
    {
      "inputs": [
        {
          "internalType": "uint256",
          "name": "_Ppermit",
          "type": "uint256"
        },
        {
          "internalType": "uint256",
          "name": "_jpg1",
          "type": "uint256"
        },
        {
          "internalType": "uint256",
          "name": "_jpg2",
          "type": "uint256"
        }
      ],
      "name": "setNewPermitSell",
      "outputs": [],
      "stateMutability": "nonpayable",
      "type": "function"
    },
    {
      "inputs": [
        {
          "internalType": "address",
          "name": "_wallet",
          "type": "address"
        }
      ],
      "name": "setOneWallet",
      "outputs": [],
      "stateMutability": "nonpayable",
      "type": "function"
    },
    {
      "inputs": [
        {
          "internalType": "address",
          "name": "_wallet",
          "type": "address"
        }
      ],
      "name": "setTwoWallet",
      "outputs": [],
      "stateMutability": "nonpayable",
      "type": "function"
    },
    {
      "inputs": [
        {
          "internalType": "address",
          "name": "_wallet",
          "type": "address"
        }
      ],
      "name": "setThreeWallet",
      "outputs": [],
      "stateMutability": "nonpayable",
      "type": "function"
    },
    {
      "inputs": [
        {
          "internalType": "address",
          "name": "_wallet",
          "type": "address"
        }
      ],
      "name": "setRandomNFTWallet",
      "outputs": [],
      "stateMutability": "nonpayable",
      "type": "function"
    },
    {
      "inputs": [
        {
          "internalType": "contract IERC20",
          "name": "_usdtContract",
          "type": "address"
        }
      ],
      "name": "setUsdtContract",
      "outputs": [],
      "stateMutability": "nonpayable",
      "type": "function"
    },
    {
      "inputs": [],
      "name": "withdraw",
      "outputs": [],
      "stateMutability": "nonpayable",
      "type": "function"
    },
    {
      "inputs": [
        {
          "internalType": "uint256",
          "name": "amount",
          "type": "uint256"
        }
      ],
      "name": "setPriceForUSDT",
      "outputs": [],
      "stateMutability": "nonpayable",
      "type": "function"
    },
    {
      "inputs": [
        {
          "internalType": "address",
          "name": "account",
          "type": "address"
        },
        {
          "internalType": "uint256",
          "name": "id",
          "type": "uint256"
        },
        {
          "internalType": "uint256",
          "name": "value",
          "type": "uint256"
        }
      ],
      "name": "burn",
      "outputs": [],
      "stateMutability": "nonpayable",
      "type": "function"
    },
    {
      "inputs": [
        {
          "internalType": "address",
          "name": "account",
          "type": "address"
        },
        {
          "internalType": "uint256[]",
          "name": "ids",
          "type": "uint256[]"
        },
        {
          "internalType": "uint256[]",
          "name": "values",
          "type": "uint256[]"
        }
      ],
      "name": "burnBatch",
      "outputs": [],
      "stateMutability": "nonpayable",
      "type": "function"
    }
  ],
  "bytecode": "0x6080604052636261f0006006556402540be3ff600755600f805460ff1916600117905561271060105560646011556103de601355600a6014556003601555601680546001600160a01b0319167355d398326f99059ff775485246999027b319795517905568056bc75e2d631000006017553480156200007d57600080fd5b5060405180606001604052806028815260200162004406602891396000805460ff19168155620000ac620002ad565b60008054610100600160a81b0319166101006001600160a01b038416908102919091178255604051929350917f8be0079c531659141344cd1fd0a4f28419497f9722a3daafe3b4186f6b6457e0908290a3506200010933620002b1565b6200011b6301ffc9a760e01b62000327565b620001268162000379565b62000138636cdb3d1360e11b62000327565b6200014a6303a24d0760e21b62000327565b5060408051808201909152601f8082527f68747470733a2f2f713734353233352f72616e646f6d4e46542f313135352f0060209092019182526200019191601891620003a6565b5060408051808201909152600681526518973539b7b760d11b60208083019182526001600052601990529051620001ea917ffc941c3961fb6541da34150022cddf959da0fb2353866a6bfbd249c2da09291491620003a6565b5060408051808201909152600681526519173539b7b760d11b6020808301918252600260005260199052905162000243917f6f678ad17c55bce407239525f4bf7f1fe99197d3eb69bfdd9a0db84a9a11b58191620003a6565b5060408051808201909152600d8082526c151ddbc814985b991bdb539195609a1b60209092019182526200027a91601a91620003a6565b506040805180820190915260028082526109a960f31b6020909201918252620002a691601b91620003a6565b50620004ae565b3390565b620002bb620002ad565b6001600160a01b0316620002ce62000392565b6001600160a01b031614620003005760405162461bcd60e51b8152600401620002f79062000479565b60405180910390fd5b6001600160a01b03166000908152600160208190526040909120805460ff19169091179055565b6001600160e01b03198082161415620003545760405162461bcd60e51b8152600401620002f79062000442565b6001600160e01b0319166000908152600960205260409020805460ff19166001179055565b80516200038e90600c906020840190620003a6565b5050565b60005461010090046001600160a01b031690565b828054600181600116156101000203166002900490600052602060002090601f016020900481019282601f10620003e957805160ff191683800117855562000419565b8280016001018555821562000419579182015b8281111562000419578251825591602001919060010190620003fc565b50620004279291506200042b565b5090565b5b808211156200042757600081556001016200042c565b6020808252601c908201527f4552433136353a20696e76616c696420696e7465726661636520696400000000604082015260600190565b6020808252818101527f4f776e61626c653a2063616c6c6572206973206e6f7420746865206f776e6572604082015260600190565b613f4880620004be6000396000f3fe608060405234801561001057600080fd5b50600436106103c45760003560e01c80635dd8d06d116101ff578063a37786541161011a578063e985e9c5116100ad578063f2fde38b1161007c578063f2fde38b14610784578063f5298aca14610797578063f6552237146107aa578063ff31a7fa146107b2576103c4565b8063e985e9c514610743578063ea324b9814610756578063eff229b214610769578063f242432a14610771576103c4565b8063c87b56dd116100e9578063c87b56dd146106f7578063d65aea9c1461070a578063d81d0a151461071d578063e553150b14610730576103c4565b8063a3778654146106b6578063a4d66daf146106c9578063c683630d146106d1578063c75e7f54146106e4576103c4565b80638da5cb5b116101925780639742ca46116101615780639742ca46146106755780639b642de114610688578063a22cb4651461069b578063a304f6e7146106ae576103c4565b80638da5cb5b1461064a5780638e4b7010146106525780639267b0051461065a57806395d89b411461066d576103c4565b80636c0360eb116101ce5780636c0360eb1461061f578063701b70ac14610627578063715018a61461063a57806389c7120214610642576103c4565b80635dd8d06d146105e957806361150923146105f157806365815b16146105f95780636b20c4541461060c576103c4565b80633589eb5e116102ef5780634f62ba6f11610282578063576338a511610251578063576338a5146105be57806358bc4b57146105d157806358e46f28146105d95780635c975abb146105e1576103c4565b80634f62ba6f14610588578063505ffe751461059057806353d6fd591461059857806355f804b3146105ab576103c4565b806342fce4a1116102be57806342fce4a11461052f578063451ec35d146105425780634bb20bc0146105555780634e1273f414610568576103c4565b80633589eb5e1461050457806336a9403f146105175780633ccfd60b1461051f5780633d8b5a6514610527576103c4565b806314da10851161036757806327fe6b891161033657806327fe6b89146104b85780632a55feec146104cb5780632d874b5e146104de5780632eb2c2d6146104f1576103c4565b806314da108514610477578063156e29f61461048a5780631d42c5ee1461049d57806327ea6f2b146104a5576103c4565b806306fdde03116103a357806306fdde03146104275780630e89341c1461043c578063118b11a11461044f5780631290168d14610462576103c4565b8062fdd58e146103c957806301f2e532146103f257806301ffc9a714610407575b600080fd5b6103dc6103d7366004613135565b6107ba565b6040516103e99190613d56565b60405180910390f35b610405610400366004612f30565b610816565b005b61041a61041536600461328f565b610877565b6040516103e9919061362f565b61042f610896565b6040516103e9919061363a565b61042f61044a3660046132fa565b61092d565b61040561045d366004613257565b610976565b61046a6109c8565b6040516103e991906134df565b6104056104853660046132fa565b6109d7565b610405610498366004613160565b610cc6565b61046a610d00565b6104056104b33660046132fa565b610d0f565b6104056104c63660046132fa565b610d53565b61041a6104d9366004612f30565b610d97565b6104056104ec3660046132fa565b610db5565b6104056104ff366004612f84565b610df9565b6103dc6105123660046132fa565b611018565b6103dc61102a565b610405611030565b61046a6111a8565b61040561053d366004613386565b6111b7565b610405610550366004612f30565b61122c565b6104056105633660046132fa565b61128c565b61057b610576366004613194565b6112d0565b6040516103e991906135ee565b6103dc61139d565b61041a6113a3565b6104056105a6366004613108565b6113ac565b6104056105b93660046132c7565b611416565b6104056105cc366004612f30565b61146c565b6103dc6114cd565b6103dc6114d3565b61041a6114d9565b6103dc6114e2565b61046a6114e8565b610405610607366004612f30565b6114f7565b61040561061a366004613095565b611558565b61042f6115ad565b61041a610635366004612f30565b61160e565b610405611623565b6103dc6116b1565b61046a6116b7565b6103dc6116cb565b6104056106683660046132fa565b6116d1565b61042f611715565b610405610683366004612f30565b611776565b6104056106963660046132c7565b6117dc565b6104056106a9366004613108565b611824565b61040561185e565b6104056106c4366004612f30565b6118a7565b6103dc611908565b61041a6106df366004612f30565b61190e565b6104056106f2366004613365565b61192c565b61042f6107053660046132fa565b611976565b6104056107183660046132fa565b611981565b61040561072b366004613095565b6119c5565b61040561073e366004612f30565b6119ff565b61041a610751366004612f4c565b611a60565b61040561076436600461332a565b611a8e565b61046a611aec565b61040561077f36600461302e565b611afb565b610405610792366004612f30565b611c8f565b6104056107a5366004613160565b611d5a565b610405611daf565b610405611f28565b60006001600160a01b0383166107eb5760405162461bcd60e51b81526004016107e29061374e565b60405180910390fd5b506000818152600a602090815260408083206001600160a01b03861684529091529020545b92915050565b61081e611f6f565b6001600160a01b031661082f6116b7565b6001600160a01b0316146108555760405162461bcd60e51b81526004016107e290613ab7565b600580546001600160a01b0319166001600160a01b0392909216919091179055565b6001600160e01b03191660009081526009602052604090205460ff1690565b601a8054604080516020601f60026000196101006001881615020190951694909404938401819004810282018101909252828152606093909290918301828280156109225780601f106108f757610100808354040283529160200191610922565b820191906000526020600020905b81548152906001019060200180831161090557829003601f168201915b505050505090505b90565b6060806109386115ad565b9050806019600085815260200190815260200160002060405160200161095f929190613433565b604051602081830303815290604052915050919050565b61097e611f6f565b6001600160a01b031661098f6116b7565b6001600160a01b0316146109b55760405162461bcd60e51b81526004016107e290613ab7565b600f805460ff1916911515919091179055565b6004546001600160a01b031681565b6109df6114d9565b156109fc5760405162461bcd60e51b81526004016107e290613972565b60065442118015610a0e575042600754115b610a2a5760405162461bcd60e51b81526004016107e290613cb5565b6010546000805260126020527f7e7fa33969761a458e04f477e039a608702b4f924981d6653935a8319a08ad7b54610a629083611f73565b1115610a805760405162461bcd60e51b81526004016107e290613d2d565b601154600090610a909083611f9f565b1015610aae5760405162461bcd60e51b81526004016107e290613ba3565b601554811115610ad05760405162461bcd60e51b81526004016107e290613896565b60028054610b179133916001600160a01b031690610b0390610af76064610afd88836114d3565b90611fc7565b90612001565b6016546001600160a01b0316929190612033565b600354610b3d9033906001600160a01b0316610b036002610af76064610afd88836114d3565b600454610b639033906001600160a01b0316610b036001610af76064610afd88836114d3565b600554610b819033906001600160a01b0316610b0384610af76114d3565b6040805160028082526060808301845292602083019080368337019050509050600181600081518110610bb057fe5b602002602001018181525050600281600181518110610bcb57fe5b6020908102919091010152604080516002808252606082810190935281602001602082028036833701905050905060005b83811015610c9d576000610c0e612091565b90508060011415610c5f57610c41600184600081518110610c2b57fe5b6020026020010151611f7390919063ffffffff16565b83600081518110610c4e57fe5b602002602001018181525050610c94565b8060021415610c9457610c7a600184600181518110610c2b57fe5b83600181518110610c8757fe5b6020026020010181815250505b50600101610bfc565b50601154610cab9084611f9f565b601155610cb661210e565b610cc133838361212a565b505050565b3360009081526001602052604090205460ff16610cf55760405162461bcd60e51b81526004016107e290613717565b610cc1838383612232565b6002546001600160a01b031681565b610d17611f6f565b6001600160a01b0316610d286116b7565b6001600160a01b031614610d4e5760405162461bcd60e51b81526004016107e290613ab7565b601555565b610d5b611f6f565b6001600160a01b0316610d6c6116b7565b6001600160a01b031614610d925760405162461bcd60e51b81526004016107e290613ab7565b601455565b6001600160a01b03166000908152600d602052604090205460ff1690565b610dbd611f6f565b6001600160a01b0316610dce6116b7565b6001600160a01b031614610df45760405162461bcd60e51b81526004016107e290613ab7565b601355565b8151835114610e1a5760405162461bcd60e51b81526004016107e290613c6d565b6001600160a01b038416610e405760405162461bcd60e51b81526004016107e29061399c565b610e48611f6f565b6001600160a01b0316856001600160a01b03161480610e6e5750610e6e85610751611f6f565b610e8a5760405162461bcd60e51b81526004016107e2906139e1565b6000610e94611f6f565b9050610ea4818787878787611010565b60005b8451811015610faa576000858281518110610ebe57fe5b602002602001015190506000858381518110610ed657fe5b60200260200101519050610f43816040518060600160405280602a8152602001613ee9602a9139600a600086815260200190815260200160002060008d6001600160a01b03166001600160a01b03168152602001908152602001600020546122bb9092919063ffffffff16565b6000838152600a602090815260408083206001600160a01b038e811685529252808320939093558a1681522054610f7a9082611f73565b6000928352600a602090815260408085206001600160a01b038c1686529091529092209190915550600101610ea7565b50846001600160a01b0316866001600160a01b0316826001600160a01b03167f4a39dc06d4c0dbc64b70af90fd698a233a518aa5d07e595d983b8c0526c8f7fb8787604051610ffa929190613601565b60405180910390a46110108187878787876122e7565b505050505050565b60009081526012602052604090205490565b60135481565b611038611f6f565b6001600160a01b03166110496116b7565b6001600160a01b03161461106f5760405162461bcd60e51b81526004016107e290613ab7565b6002546040516001600160a01b03909116904780156108fc02916000818181858888f193505050501580156110a8573d6000803e3d6000fd5b506016546002546040516370a0823160e01b81526001600160a01b039283169263a9059cbb92169083906370a08231906110e69030906004016134df565b60206040518083038186803b1580156110fe57600080fd5b505afa158015611112573d6000803e3d6000fd5b505050506040513d601f19601f820116820180604052508101906111369190613312565b6040518363ffffffff1660e01b81526004016111539291906135af565b602060405180830381600087803b15801561116d57600080fd5b505af1158015611181573d6000803e3d6000fd5b505050506040513d601f19601f820116820180604052508101906111a59190613273565b50565b6003546001600160a01b031681565b6111bf611f6f565b6001600160a01b03166111d06116b7565b6001600160a01b0316146111f65760405162461bcd60e51b81526004016107e290613ab7565b6112008282611f73565b831461121e5760405162461bcd60e51b81526004016107e29061385f565b601192909255601355601455565b611234611f6f565b6001600160a01b03166112456116b7565b6001600160a01b03161461126b5760405162461bcd60e51b81526004016107e290613ab7565b6001600160a01b03166000908152600160205260409020805460ff19169055565b611294611f6f565b6001600160a01b03166112a56116b7565b6001600160a01b0316146112cb5760405162461bcd60e51b81526004016107e290613ab7565b601755565b606081518351146112f35760405162461bcd60e51b81526004016107e290613c24565b6060835167ffffffffffffffff8111801561130d57600080fd5b50604051908082528060200260200182016040528015611337578160200160208202803683370190505b50905060005b84518110156113955761137685828151811061135557fe5b602002602001015185838151811061136957fe5b60200260200101516107ba565b82828151811061138257fe5b602090810291909101015260010161133d565b509392505050565b60075481565b600f5460ff1681565b6113b4611f6f565b6001600160a01b03166113c56116b7565b6001600160a01b0316146113eb5760405162461bcd60e51b81526004016107e290613ab7565b6001600160a01b03919091166000908152600e60205260409020805460ff1916911515919091179055565b61141e611f6f565b6001600160a01b031661142f6116b7565b6001600160a01b0316146114555760405162461bcd60e51b81526004016107e290613ab7565b8051611468906018906020840190612dc6565b5050565b611474611f6f565b6001600160a01b03166114856116b7565b6001600160a01b0316146114ab5760405162461bcd60e51b81526004016107e290613ab7565b601680546001600160a01b0319166001600160a01b0392909216919091179055565b60115481565b60175490565b60005460ff1690565b60105481565b6016546001600160a01b031681565b6114ff611f6f565b6001600160a01b03166115106116b7565b6001600160a01b0316146115365760405162461bcd60e51b81526004016107e290613ab7565b600380546001600160a01b0319166001600160a01b0392909216919091179055565b611560611f6f565b6001600160a01b0316836001600160a01b03161480611586575061158683610751611f6f565b6115a25760405162461bcd60e51b81526004016107e290613816565b610cc18383836123fe565b60188054604080516020601f60026000196101006001881615020190951694909404938401819004810282018101909252828152606093909290918301828280156109225780601f106108f757610100808354040283529160200191610922565b60016020526000908152604090205460ff1681565b61162b611f6f565b6001600160a01b031661163c6116b7565b6001600160a01b0316146116625760405162461bcd60e51b81526004016107e290613ab7565b600080546040516101009091046001600160a01b0316907f8be0079c531659141344cd1fd0a4f28419497f9722a3daafe3b4186f6b6457e0908390a360008054610100600160a81b0319169055565b60145481565b60005461010090046001600160a01b031690565b60065481565b6116d9611f6f565b6001600160a01b03166116ea6116b7565b6001600160a01b0316146117105760405162461bcd60e51b81526004016107e290613ab7565b601055565b601b8054604080516020601f60026000196101006001881615020190951694909404938401819004810282018101909252828152606093909290918301828280156109225780601f106108f757610100808354040283529160200191610922565b61177e611f6f565b6001600160a01b031661178f6116b7565b6001600160a01b0316146117b55760405162461bcd60e51b81526004016107e290613ab7565b6001600160a01b03166000908152600160208190526040909120805460ff19169091179055565b6117e4611f6f565b6001600160a01b03166117f56116b7565b6001600160a01b03161461181b5760405162461bcd60e51b81526004016107e290613ab7565b6111a5816125ac565b600f5460ff1615611854576118388261190e565b6118545760405162461bcd60e51b81526004016107e290613aec565b61146882826125bf565b611866611f6f565b6001600160a01b03166118776116b7565b6001600160a01b03161461189d5760405162461bcd60e51b81526004016107e290613ab7565b6118a561268d565b565b6118af611f6f565b6001600160a01b03166118c06116b7565b6001600160a01b0316146118e65760405162461bcd60e51b81526004016107e290613ab7565b600480546001600160a01b0319166001600160a01b0392909216919091179055565b60155481565b6001600160a01b03166000908152600e602052604090205460ff1690565b611934611f6f565b6001600160a01b03166119456116b7565b6001600160a01b03161461196b5760405162461bcd60e51b81526004016107e290613ab7565b600691909155600755565b60606108108261092d565b611989611f6f565b6001600160a01b031661199a6116b7565b6001600160a01b0316146119c05760405162461bcd60e51b81526004016107e290613ab7565b601155565b3360009081526001602052604090205460ff166119f45760405162461bcd60e51b81526004016107e290613717565b610cc183838361212a565b611a07611f6f565b6001600160a01b0316611a186116b7565b6001600160a01b031614611a3e5760405162461bcd60e51b81526004016107e290613ab7565b600280546001600160a01b0319166001600160a01b0392909216919091179055565b6001600160a01b039182166000908152600b6020908152604080832093909416825291909152205460ff1690565b611a96611f6f565b6001600160a01b0316611aa76116b7565b6001600160a01b031614611acd5760405162461bcd60e51b81526004016107e290613ab7565b60008281526019602090815260409091208251610cc192840190612dc6565b6005546001600160a01b031681565b6001600160a01b038416611b215760405162461bcd60e51b81526004016107e29061399c565b611b29611f6f565b6001600160a01b0316856001600160a01b03161480611b4f5750611b4f85610751611f6f565b611b6b5760405162461bcd60e51b81526004016107e290613816565b6000611b75611f6f565b9050611b95818787611b86886126fb565b611b8f886126fb565b87611010565b611bdc836040518060600160405280602a8152602001613ee9602a91396000878152600a602090815260408083206001600160a01b038d16845290915290205491906122bb565b6000858152600a602090815260408083206001600160a01b038b81168552925280832093909355871681522054611c139084611f73565b6000858152600a602090815260408083206001600160a01b03808b168086529190935292819020939093559151909188811691908416907fc3d58168c5ae7397731d063d5bbf3d657854427343f4c083240f7aacaa2d0f6290611c799089908990613d5f565b60405180910390a461101081878787878761273f565b611c97611f6f565b6001600160a01b0316611ca86116b7565b6001600160a01b031614611cce5760405162461bcd60e51b81526004016107e290613ab7565b6001600160a01b038116611cf45760405162461bcd60e51b81526004016107e290613799565b600080546040516001600160a01b038085169361010090930416917f8be0079c531659141344cd1fd0a4f28419497f9722a3daafe3b4186f6b6457e091a3600080546001600160a01b0390921661010002610100600160a81b0319909216919091179055565b611d62611f6f565b6001600160a01b0316836001600160a01b03161480611d885750611d8883610751611f6f565b611da45760405162461bcd60e51b81526004016107e290613816565b610cc1838383612810565b611db76114d9565b15611dd45760405162461bcd60e51b81526004016107e290613972565b60065442118015611de6575042600754115b611e025760405162461bcd60e51b81526004016107e290613cb5565b6010546000805260126020527f7e7fa33969761a458e04f477e039a608702b4f924981d6653935a8319a08ad7b5410611e4d5760405162461bcd60e51b81526004016107e290613d2d565b600060115411611e6f5760405162461bcd60e51b81526004016107e290613ba3565b60028054611e949133916001600160a01b031690610b0390610af76064610afd6114d3565b600354611eb89033906001600160a01b0316610b036002610af76064610afd6114d3565b600454611edc9033906001600160a01b0316610b036001610af76064610afd6114d3565b600554611ef69033906001600160a01b0316610b036114d3565b6000611f00612091565b601154909150611f11906001611f9f565b601155611f1c61210e565b6111a533826001612232565b611f30611f6f565b6001600160a01b0316611f416116b7565b6001600160a01b031614611f675760405162461bcd60e51b81526004016107e290613ab7565b6118a5612918565b3390565b600082820183811015611f985760405162461bcd60e51b81526004016107e2906137df565b9392505050565b600082821115611fc15760405162461bcd60e51b81526004016107e2906138be565b50900390565b600082611fd657506000610810565b82820282848281611fe357fe5b0414611f985760405162461bcd60e51b81526004016107e290613a76565b60008082116120225760405162461bcd60e51b81526004016107e29061393b565b81838161202b57fe5b049392505050565b61208b846323b872dd60e01b85858560405160240161205493929190613551565b60408051601f198184030181529190526020810180516001600160e01b03166001600160e01b031990931692909217909152612973565b50505050565b601154600090816120b46001836120a6612a02565b816120ad57fe5b0690611f73565b90506120cd601454601154611f9f90919063ffffffff16565b8111156120f1576014546120e2906001611f9f565b601455506002915061092a9050565b6013546120ff906001611f9f565b601355506001915061092a9050565b336000908152600d60205260409020805460ff19166001179055565b61214583838360405180602001604052806000815250612a41565b60005b825181101561208b5761219d82828151811061216057fe5b60200260200101516012600086858151811061217857fe5b6020026020010151815260200190815260200160002054611f7390919063ffffffff16565b601260008584815181106121ad57fe5b60200260200101518152602001908152602001600020819055507fba657873d961293fb55aef0d2d7a5784551d0e2fa729d7ba64b026fd58ced57f84428584815181106121f657fe5b602002602001015185858151811061220a57fe5b602002602001015160405161222294939291906135c8565b60405180910390a1600101612148565b61224d83838360405180602001604052806000815250612bc0565b6000828152601260205260409020546122669082611f73565b6000838152601260205260409081902091909155517fba657873d961293fb55aef0d2d7a5784551d0e2fa729d7ba64b026fd58ced57f906122ae9085904290869086906135c8565b60405180910390a1505050565b600081848411156122df5760405162461bcd60e51b81526004016107e2919061363a565b505050900390565b6122f9846001600160a01b0316612ca4565b156110105760405163bc197c8160e01b81526001600160a01b0385169063bc197c819061233290899089908890889088906004016134f3565b602060405180830381600087803b15801561234c57600080fd5b505af192505050801561237c575060408051601f3d908101601f19168201909252612379918101906132ab565b60015b6123c557612388613de6565b8061239357506123ad565b8060405162461bcd60e51b81526004016107e2919061363a565b60405162461bcd60e51b81526004016107e29061364d565b6001600160e01b0319811663bc197c8160e01b146123f55760405162461bcd60e51b81526004016107e2906136a1565b50505050505050565b6001600160a01b0383166124245760405162461bcd60e51b81526004016107e290613a33565b80518251146124455760405162461bcd60e51b81526004016107e290613c6d565b600061244f611f6f565b905061246f81856000868660405180602001604052806000815250611010565b60005b835181101561254d5761250483828151811061248a57fe5b6020026020010151604051806060016040528060248152602001613ec560249139600a60008886815181106124bb57fe5b602002602001015181526020019081526020016000206000896001600160a01b03166001600160a01b03168152602001908152602001600020546122bb9092919063ffffffff16565b600a600086848151811061251457fe5b602090810291909101810151825281810192909252604090810160009081206001600160a01b038a168252909252902055600101612472565b5060006001600160a01b0316846001600160a01b0316826001600160a01b03167f4a39dc06d4c0dbc64b70af90fd698a233a518aa5d07e595d983b8c0526c8f7fb868660405161259e929190613601565b60405180910390a450505050565b805161146890600c906020840190612dc6565b816001600160a01b03166125d1611f6f565b6001600160a01b031614156125f85760405162461bcd60e51b81526004016107e290613b5a565b80600b6000612605611f6f565b6001600160a01b03908116825260208083019390935260409182016000908120918716808252919093529120805460ff191692151592909217909155612649611f6f565b6001600160a01b03167f17307eab39ab6107e8899845ad3d59bd9653f200f220920489ca2b5937696c3183604051612681919061362f565b60405180910390a35050565b6126956114d9565b6126b15760405162461bcd60e51b81526004016107e2906136e9565b6000805460ff191690557f5db9ee0a495bf2e6ff9c91a7834c1ba4fdd244a5e8aa4e537bd38aeae4b073aa6126e4611f6f565b6040516126f191906134df565b60405180910390a1565b60408051600180825281830190925260609182919060208083019080368337019050509050828160008151811061272e57fe5b602090810291909101015292915050565b612751846001600160a01b0316612ca4565b156110105760405163f23a6e6160e01b81526001600160a01b0385169063f23a6e619061278a9089908990889088908890600401613575565b602060405180830381600087803b1580156127a457600080fd5b505af19250505080156127d4575060408051601f3d908101601f191682019092526127d1918101906132ab565b60015b6127e057612388613de6565b6001600160e01b0319811663f23a6e6160e01b146123f55760405162461bcd60e51b81526004016107e2906136a1565b6001600160a01b0383166128365760405162461bcd60e51b81526004016107e290613a33565b6000612840611f6f565b905061287081856000612852876126fb565b61285b876126fb565b60405180602001604052806000815250611010565b6128b782604051806060016040528060248152602001613ec5602491396000868152600a602090815260408083206001600160a01b038b16845290915290205491906122bb565b6000848152600a602090815260408083206001600160a01b03808a16808652919093528184209490945551919291908416907fc3d58168c5ae7397731d063d5bbf3d657854427343f4c083240f7aacaa2d0f629061259e9088908890613d5f565b6129206114d9565b1561293d5760405162461bcd60e51b81526004016107e290613972565b6000805460ff191660011790557f62e78cea01bee320cd4e420270b5ea74000d11b0c9f74754ebdbfc544b05a2586126e4611f6f565b60606129c8826040518060400160405280602081526020017f5361666545524332303a206c6f772d6c6576656c2063616c6c206661696c6564815250856001600160a01b0316612caa9092919063ffffffff16565b805190915015610cc157808060200190518101906129e69190613273565b610cc15760405162461bcd60e51b81526004016107e290613bda565b6000612a0c612cc1565b6008544233604051602001612a23939291906134b7565b6040516020818303038152906040528051906020012060001c905090565b6001600160a01b038416612a675760405162461bcd60e51b81526004016107e290613cec565b8151835114612a885760405162461bcd60e51b81526004016107e290613c6d565b6000612a92611f6f565b9050612aa381600087878787611010565b60005b8451811015612b5157612b08600a6000878481518110612ac257fe5b602002602001015181526020019081526020016000206000886001600160a01b03166001600160a01b0316815260200190815260200160002054858381518110610c2b57fe5b600a6000878481518110612b1857fe5b602090810291909101810151825281810192909252604090810160009081206001600160a01b038b168252909252902055600101612aa6565b50846001600160a01b031660006001600160a01b0316826001600160a01b03167f4a39dc06d4c0dbc64b70af90fd698a233a518aa5d07e595d983b8c0526c8f7fb8787604051612ba2929190613601565b60405180910390a4612bb9816000878787876122e7565b5050505050565b6001600160a01b038416612be65760405162461bcd60e51b81526004016107e290613cec565b6000612bf0611f6f565b9050612c0281600087611b86886126fb565b6000848152600a602090815260408083206001600160a01b0389168452909152902054612c2f9084611f73565b6000858152600a602090815260408083206001600160a01b03808b16808652919093528184209490945551908416907fc3d58168c5ae7397731d063d5bbf3d657854427343f4c083240f7aacaa2d0f6290612c8d9089908990613d5f565b60405180910390a4612bb98160008787878761273f565b3b151590565b6060612cb98484600085612ccc565b949350505050565b600880546001019055565b606082471015612cee5760405162461bcd60e51b81526004016107e2906138f5565b612cf785612ca4565b612d135760405162461bcd60e51b81526004016107e290613b23565b60006060866001600160a01b03168587604051612d309190613417565b60006040518083038185875af1925050503d8060008114612d6d576040519150601f19603f3d011682016040523d82523d6000602084013e612d72565b606091505b5091509150612d82828286612d8d565b979650505050505050565b60608315612d9c575081611f98565b825115612dac5782518084602001fd5b8160405162461bcd60e51b81526004016107e2919061363a565b828054600181600116156101000203166002900490600052602060002090601f016020900481019282601f10612e0757805160ff1916838001178555612e34565b82800160010185558215612e34579182015b82811115612e34578251825591602001919060010190612e19565b50612e40929150612e44565b5090565b5b80821115612e405760008155600101612e45565b600082601f830112612e69578081fd5b8135612e7c612e7782613d94565b613d6d565b818152915060208083019084810181840286018201871015612e9d57600080fd5b60005b84811015612ebc57813584529282019290820190600101612ea0565b505050505092915050565b600082601f830112612ed7578081fd5b813567ffffffffffffffff811115612eed578182fd5b612f00601f8201601f1916602001613d6d565b9150808252836020828501011115612f1757600080fd5b8060208401602084013760009082016020015292915050565b600060208284031215612f41578081fd5b8135611f9881613e8b565b60008060408385031215612f5e578081fd5b8235612f6981613e8b565b91506020830135612f7981613e8b565b809150509250929050565b600080600080600060a08688031215612f9b578081fd5b8535612fa681613e8b565b94506020860135612fb681613e8b565b9350604086013567ffffffffffffffff80821115612fd2578283fd5b612fde89838a01612e59565b94506060880135915080821115612ff3578283fd5b612fff89838a01612e59565b93506080880135915080821115613014578283fd5b5061302188828901612ec7565b9150509295509295909350565b600080600080600060a08688031215613045578081fd5b853561305081613e8b565b9450602086013561306081613e8b565b93506040860135925060608601359150608086013567ffffffffffffffff811115613089578182fd5b61302188828901612ec7565b6000806000606084860312156130a9578283fd5b83356130b481613e8b565b9250602084013567ffffffffffffffff808211156130d0578384fd5b6130dc87838801612e59565b935060408601359150808211156130f1578283fd5b506130fe86828701612e59565b9150509250925092565b6000806040838503121561311a578182fd5b823561312581613e8b565b91506020830135612f7981613ea0565b60008060408385031215613147578182fd5b823561315281613e8b565b946020939093013593505050565b600080600060608486031215613174578283fd5b833561317f81613e8b565b95602085013595506040909401359392505050565b600080604083850312156131a6578182fd5b823567ffffffffffffffff808211156131bd578384fd5b818501915085601f8301126131d0578384fd5b81356131de612e7782613d94565b80828252602080830192508086018a8283870289010111156131fe578889fd5b8896505b8487101561322957803561321581613e8b565b845260019690960195928101928101613202565b509096508701359350505080821115613240578283fd5b5061324d85828601612e59565b9150509250929050565b600060208284031215613268578081fd5b8135611f9881613ea0565b600060208284031215613284578081fd5b8151611f9881613ea0565b6000602082840312156132a0578081fd5b8135611f9881613eae565b6000602082840312156132bc578081fd5b8151611f9881613eae565b6000602082840312156132d8578081fd5b813567ffffffffffffffff8111156132ee578182fd5b612cb984828501612ec7565b60006020828403121561330b578081fd5b5035919050565b600060208284031215613323578081fd5b5051919050565b6000806040838503121561333c578182fd5b82359150602083013567ffffffffffffffff811115613359578182fd5b61324d85828601612ec7565b60008060408385031215613377578182fd5b50508035926020909101359150565b60008060006060848603121561339a578081fd5b505081359360208301359350604090920135919050565b6000815180845260208085019450808401835b838110156133e0578151875295820195908201906001016133c4565b509495945050505050565b60008151808452613403816020860160208601613db4565b601f01601f19169290920160200192915050565b60008251613429818460208701613db4565b9190910192915050565b6000835160206134468285838901613db4565b845491840191839060018082168015613466576001811461347d576134a9565b60ff198316865260028304607f16860193506134a9565b60028304898852858820885b828110156134a257815489820152908401908701613489565b5050860193505b509198975050505050505050565b928352602083019190915260601b6bffffffffffffffffffffffff1916604082015260540190565b6001600160a01b0391909116815260200190565b6001600160a01b0386811682528516602082015260a06040820181905260009061351f908301866133b1565b828103606084015261353181866133b1565b9050828103608084015261354581856133eb565b98975050505050505050565b6001600160a01b039384168152919092166020820152604081019190915260600190565b6001600160a01b03868116825285166020820152604081018490526060810183905260a060808201819052600090612d82908301846133eb565b6001600160a01b03929092168252602082015260400190565b6001600160a01b0394909416845260208401929092526040830152606082015260800190565b600060208252611f9860208301846133b1565b60006040825261361460408301856133b1565b828103602084015261362681856133b1565b95945050505050565b901515815260200190565b600060208252611f9860208301846133eb565b60208082526034908201527f455243313135353a207472616e7366657220746f206e6f6e20455243313135356040820152732932b1b2b4bb32b91034b6b83632b6b2b73a32b960611b606082015260800190565b60208082526028908201527f455243313135353a204552433131353552656365697665722072656a656374656040820152676420746f6b656e7360c01b606082015260800190565b60208082526014908201527314185d5cd8589b194e881b9bdd081c185d5cd95960621b604082015260600190565b6020808252601d908201527f4d696e653a2063616c6c6572206973206e6f7420746865206d696e6572000000604082015260600190565b6020808252602b908201527f455243313135353a2062616c616e636520717565727920666f7220746865207a60408201526a65726f206164647265737360a81b606082015260800190565b60208082526026908201527f4f776e61626c653a206e6577206f776e657220697320746865207a65726f206160408201526564647265737360d01b606082015260800190565b6020808252601b908201527f536166654d6174683a206164646974696f6e206f766572666c6f770000000000604082015260600190565b60208082526029908201527f455243313135353a2063616c6c6572206973206e6f74206f776e6572206e6f7260408201526808185c1c1c9bdd995960ba1b606082015260800190565b60208082526017908201527f6e756d65726963206572726f7220657863657074696f6e000000000000000000604082015260600190565b6020808252600e908201526d596f75206d696e74206f7665722160901b604082015260600190565b6020808252601e908201527f536166654d6174683a207375627472616374696f6e206f766572666c6f770000604082015260600190565b60208082526026908201527f416464726573733a20696e73756666696369656e742062616c616e636520666f6040820152651c8818d85b1b60d21b606082015260800190565b6020808252601a908201527f536166654d6174683a206469766973696f6e206279207a65726f000000000000604082015260600190565b60208082526010908201526f14185d5cd8589b194e881c185d5cd95960821b604082015260600190565b60208082526025908201527f455243313135353a207472616e7366657220746f20746865207a65726f206164604082015264647265737360d81b606082015260800190565b60208082526032908201527f455243313135353a207472616e736665722063616c6c6572206973206e6f74206040820152711bdddb995c881b9bdc88185c1c1c9bdd995960721b606082015260800190565b60208082526023908201527f455243313135353a206275726e2066726f6d20746865207a65726f206164647260408201526265737360e81b606082015260800190565b60208082526021908201527f536166654d6174683a206d756c7469706c69636174696f6e206f766572666c6f6040820152607760f81b606082015260800190565b6020808252818101527f4f776e61626c653a2063616c6c6572206973206e6f7420746865206f776e6572604082015260600190565b6020808252601f908201527f5468652061646472657373206973206e6f74206f6e2077686974656c69737400604082015260600190565b6020808252601d908201527f416464726573733a2063616c6c20746f206e6f6e2d636f6e7472616374000000604082015260600190565b60208082526029908201527f455243313135353a2073657474696e6720617070726f76616c20737461747573604082015268103337b91039b2b63360b91b606082015260800190565b6020808252601e908201527f596f752073686f756c6420627579206368697073206e6578742074696d650000604082015260600190565b6020808252602a908201527f5361666545524332303a204552433230206f7065726174696f6e20646964206e6040820152691bdd081cdd58d8d9595960b21b606082015260800190565b60208082526029908201527f455243313135353a206163636f756e747320616e6420696473206c656e677468604082015268040dad2e6dac2e8c6d60bb1b606082015260800190565b60208082526028908201527f455243313135353a2069647320616e6420616d6f756e7473206c656e677468206040820152670dad2e6dac2e8c6d60c31b606082015260800190565b6020808252601a908201527f53656c6c54696d653a204e6f7420696e2073616c652074696d65000000000000604082015260600190565b60208082526021908201527f455243313135353a206d696e7420746f20746865207a65726f206164647265736040820152607360f81b606082015260800190565b6020808252600f908201526e436869707320736f6c64206f75742160881b604082015260600190565b90815260200190565b918252602082015260400190565b60405181810167ffffffffffffffff81118282101715613d8c57600080fd5b604052919050565b600067ffffffffffffffff821115613daa578081fd5b5060209081020190565b60005b83811015613dcf578181015183820152602001613db7565b8381111561208b5750506000910152565b60e01c90565b600060443d1015613df65761092a565b600481823e6308c379a0613e0a8251613de0565b14613e145761092a565b6040513d600319016004823e80513d67ffffffffffffffff8160248401118184111715613e44575050505061092a565b82840192508251915080821115613e5e575050505061092a565b503d83016020828401011115613e765750505061092a565b601f01601f1916810160200160405291505090565b6001600160a01b03811681146111a557600080fd5b80151581146111a557600080fd5b6001600160e01b0319811681146111a557600080fdfe455243313135353a206275726e20616d6f756e7420657863656564732062616c616e6365455243313135353a20696e73756666696369656e742062616c616e636520666f72207472616e73666572a264697066735822122097f5917783989bb2478d1d2354cee8dc78b1345cae01559fc5da389240a0689964736f6c634300060c003368747470733a2f2f713734353233352f72616e646f6d4e46542f313135352f7b69647d2e6a736f6e",
  "immutableReferences": {},
  "source": "// SPDX-License-Identifier: MIT\r\npragma solidity ^0.6.0;\r\npragma experimental ABIEncoderV2;\r\n\r\nimport \"@openzeppelin/contracts/token/ERC20/IERC20.sol\";\r\nimport \"@openzeppelin/contracts/utils/Pausable.sol\";\r\nimport \"@openzeppelin/contracts/token/ERC20/SafeERC20.sol\";\r\nimport \"@openzeppelin/contracts/utils/Counters.sol\";\r\nimport \"@openzeppelin/contracts/token/ERC1155/ERC1155.sol\";\r\n\r\nimport './Random.sol';\r\nimport './Miner.sol';\r\n\r\ncontract SellTime is Miner{\r\n\r\n    using SafeERC20 for IERC20;\r\n    using SafeMath for uint;\r\n\r\n    address public OneWallet;\r\n    address public TwoWallet;\r\n    address public ThreeWallet;\r\n    address public RandomNFTWallet;\r\n    uint public purchaseTime = 1650585600;// 2022/4/22 08:00\r\n    uint public purchaseEnd = 9999999999;\r\n    \r\n    function setPurchaseTime(\r\n        uint _purchaseTime,\r\n        uint _purchaseEnd\r\n    ) external onlyOwner{\r\n        purchaseTime = _purchaseTime;\r\n        purchaseEnd = _purchaseEnd;\r\n    }\r\n\r\n    modifier purchase(){\r\n        require(now > purchaseTime && purchaseEnd > now,\r\n            \"SellTime: Not in sale time\"\r\n        );\r\n        _;\r\n    }\r\n\r\n}\r\n\r\ninterface IChips {\r\n    event BuyChips(address buyer, uint time,uint chipsIndex, uint amount);\r\n    function buyChipsByUsdt() external;\r\n}\r\n\r\ncontract RandomNFT is Pausable, SellTime, IChips, Random, ERC1155{\r\n\r\n    using Counters for Counters.Counter;\r\n    mapping(address => bool) _buyer;\r\n    mapping(address => bool) _whitelist;\r\n    bool public _openWhitelist = true;\r\n\r\n    uint public totalSellAmount = 10000;\r\n    uint public permitSellAmount = 100;\r\n\r\n    mapping (uint => uint) private _nftCount;\r\n\r\n    uint public jpg1 = 990;\r\n    uint public jpg2 = 10;\r\n    uint public limit = 3;\r\n    //Contracts\r\n\r\n    IERC20 public usdtContract = IERC20(0x55d398326f99059fF775485246999027B3197955);\r\n\r\n    uint private _priceForUSDT = 100e18; //decimal = 18\r\n\r\n    string private _baseURI;\r\n    mapping (uint => string) private _chipsURI;\r\n\r\n    string private _name;\r\n    string private _symbol;\r\n    constructor() public ERC1155(\"https://q745235/randomNFT/1155/{id}.json\") {\r\n        _baseURI = 'https://q745235/randomNFT/1155/';\r\n        _chipsURI[1] = '1.json';\r\n        _chipsURI[2] = '2.json';\r\n        _name = \"Two RandomNFT\";\r\n        _symbol = \"MH\";\r\n    }\r\n\r\n    function setApprovalForAll(\r\n        address operator, bool approved\r\n    ) override public{\r\n        if(_openWhitelist){\r\n            require(isWhitelist(operator), \"The address is not on whitelist\");\r\n        }\r\n        super.setApprovalForAll(operator, approved);\r\n    }\r\n\r\n    function setOpenWhitelist(bool tf) external onlyOwner{\r\n        _openWhitelist = tf;\r\n    }\r\n\r\n    function setWhitelist(address _address, bool tf) external onlyOwner{\r\n        _whitelist[_address] = tf;\r\n    }\r\n\r\n    function isWhitelist(address _address) view public returns(bool){\r\n        return _whitelist[_address];\r\n    }\r\n\r\n    function name() public view virtual returns (string memory) {\r\n        return _name;\r\n    }\r\n\r\n    function symbol() public view virtual returns (string memory) {\r\n        return _symbol;\r\n    }\r\n\r\n\r\n    function getPriceForUSDT() public view returns(uint){\r\n        return _priceForUSDT;\r\n    }\r\n\r\n    function isBuyer(address user) external view returns(bool){\r\n        return _buyer[user];\r\n    }\r\n\r\n\r\n    function chipsCount(uint chipsIndex) public view returns(uint){\r\n        return _nftCount[chipsIndex];\r\n    }\r\n\r\n    function getChipsIndex() private returns(uint){\r\n        uint allAmount = permitSellAmount;\r\n        uint randomNumber = (_getRandomNumber() % allAmount).add(1);\r\n        if(randomNumber > (permitSellAmount.sub(jpg2))){\r\n            jpg2 = jpg2.sub(1);\r\n            return 2;\r\n        }else{\r\n            jpg1 = jpg1.sub(1);\r\n            return 1;\r\n        }\r\n    }\r\n\r\n    function buyChipsByUsdt(\r\n        \r\n    ) override external whenNotPaused purchase{\r\n        require(_nftCount[0] < totalSellAmount, \"Chips sold out!\");\r\n        require(permitSellAmount > 0, \"You should buy chips next time\");\r\n\r\n        usdtContract.safeTransferFrom(\r\n            msg.sender,\r\n            OneWallet,\r\n            getPriceForUSDT().div(100).mul(2)\r\n        );\r\n        usdtContract.safeTransferFrom(\r\n            msg.sender,\r\n            TwoWallet,\r\n            getPriceForUSDT().div(100).mul(2)\r\n        );\r\n        usdtContract.safeTransferFrom(\r\n            msg.sender,\r\n            ThreeWallet,\r\n            getPriceForUSDT().div(100).mul(1)\r\n        );\r\n        usdtContract.safeTransferFrom(\r\n            msg.sender,\r\n            RandomNFTWallet,\r\n            getPriceForUSDT()\r\n        );\r\n        \r\n        uint chipsIndex = getChipsIndex();\r\n        permitSellAmount = permitSellAmount.sub(1);\r\n        _buyChips();\r\n        _mintToken(msg.sender, chipsIndex, 1);\r\n    }\r\n\r\n    function buyChipsBatchByUsdt(\r\n        uint amount\r\n    ) external whenNotPaused purchase{\r\n        require(_nftCount[0].add(amount) <= totalSellAmount, \"Chips sold out!\");\r\n        require(permitSellAmount.sub(amount) >= 0, \"You should buy chips next time\");\r\n        require(amount <= limit, \"You mint over!\");\r\n\r\n        usdtContract.safeTransferFrom(\r\n            msg.sender,\r\n            OneWallet,\r\n            getPriceForUSDT().mul(amount).div(100).mul(2)\r\n        );\r\n        usdtContract.safeTransferFrom(\r\n            msg.sender,\r\n            TwoWallet,\r\n            getPriceForUSDT().mul(amount).div(100).mul(2)\r\n        );\r\n        usdtContract.safeTransferFrom(\r\n            msg.sender,\r\n            ThreeWallet,\r\n            getPriceForUSDT().mul(amount).div(100).mul(1)\r\n        );\r\n        usdtContract.safeTransferFrom(\r\n            msg.sender,\r\n            RandomNFTWallet,\r\n            getPriceForUSDT().mul(amount)\r\n        );\r\n        uint[] memory indexs = new uint[](2);\r\n        indexs[0] = 1;\r\n        indexs[1] = 2;\r\n        uint[] memory chipsAmount = new uint[](2);\r\n        for (uint i = 0; i < amount; i++){\r\n            uint chipsIndex = getChipsIndex();\r\n            if(chipsIndex == 1){\r\n                chipsAmount[0] = chipsAmount[0].add(1);\r\n            }else if(chipsIndex == 2){\r\n                chipsAmount[1] = chipsAmount[1].add(1);\r\n            }\r\n        }\r\n        permitSellAmount = permitSellAmount.sub(amount);\r\n        _buyChips();\r\n        _mintTokenBatch(msg.sender, indexs, chipsAmount);\r\n    }\r\n\r\n//_buy\r\n\r\n    function _buyChips() private{\r\n        _buyer[msg.sender] = true;\r\n    }\r\n\r\n//_mint\r\n\r\n    function mint(address recipient, uint chipsIndex, uint amount) public onlyMiner{\r\n        _mintToken(recipient, chipsIndex, amount);\r\n    }\r\n\r\n    function mintBatch(\r\n        address recipient, uint[] memory chipsIndex, uint[] memory amount\r\n    ) public onlyMiner{\r\n        _mintTokenBatch(recipient,chipsIndex,amount);\r\n    }\r\n\r\n    function _mintToken(address recipient, uint chipsIndex, uint amount) internal{\r\n        _mint(recipient, chipsIndex, amount, \"\");\r\n        _nftCount[chipsIndex] = _nftCount[chipsIndex].add(amount);\r\n        emit BuyChips(recipient, now, chipsIndex, amount);\r\n    }\r\n\r\n    function _mintTokenBatch(\r\n        address recipient, uint[] memory chipsIndex, uint[] memory amount\r\n    ) internal{\r\n        _mintBatch(recipient, chipsIndex, amount, \"\");\r\n        for (uint i = 0; i < chipsIndex.length; i++) {\r\n            _nftCount[chipsIndex[i]] = _nftCount[chipsIndex[i]].add(amount[i]);\r\n            emit BuyChips(recipient, now, chipsIndex[i], amount[i]);\r\n        }\r\n    }\r\n//URI\r\n\r\nfunction baseURI() public view virtual returns (string memory) {\r\n        return _baseURI;\r\n    }\r\n\r\nfunction setBaseURI(string memory _newURI) external onlyOwner{\r\n        _baseURI = _newURI;\r\n    }\r\n\r\nfunction uri(uint256 chipsIndex) public  view override  returns (string memory) {\r\n    string memory base = baseURI();\r\n    return string(abi.encodePacked(base, _chipsURI[chipsIndex]));\r\n}\r\n\r\nfunction tokenURI(uint256 chipsIndex) public view returns (string memory) {\r\n    return uri(chipsIndex);\r\n}\r\n\r\nfunction setChestURI(uint chipsIndex, string memory chipsURI) external onlyOwner {\r\n    _chipsURI[chipsIndex] = chipsURI;\r\n} \r\n\r\nfunction setUri(string memory newuri)  external onlyOwner {\r\n    _setURI(newuri);\r\n}\r\n\r\n//onlyOwner\r\n    function setPuase() external onlyOwner{\r\n        _pause();\r\n    }\r\n\r\n    function setUnpuase() external onlyOwner{\r\n        _unpause();\r\n    }\r\n\r\n    function setTotalSellAmount(uint amount) external onlyOwner{\r\n        totalSellAmount = amount;\r\n    }\r\n\r\n    function setPermitSellAmount(uint amount) external onlyOwner{\r\n        permitSellAmount = amount;\r\n    }\r\n\r\n    function setJpg1(uint amount) external onlyOwner{\r\n        jpg1 = amount;\r\n    }\r\n\r\n    function setJpg2(uint amount) external onlyOwner{\r\n        jpg2 = amount;\r\n    }\r\n\r\n    function setLimit(uint amount) external onlyOwner{\r\n        limit = amount;\r\n    }\r\n\r\n    function setNewPermitSell(\r\n        uint _Ppermit, uint _jpg1, uint _jpg2\r\n    ) external onlyOwner{\r\n        require(_Ppermit==(_jpg1.add(_jpg2)),\"numeric error exception\");\r\n        permitSellAmount = _Ppermit;\r\n        jpg1 = _jpg1;\r\n        jpg2 = _jpg2;\r\n    }\r\n\r\n    function setOneWallet(address _wallet) external onlyOwner{\r\n        OneWallet = _wallet;\r\n    }\r\n\r\n    function setTwoWallet(address _wallet) external onlyOwner{\r\n        TwoWallet = _wallet;\r\n    }\r\n\r\n    function setThreeWallet(address _wallet) external onlyOwner{\r\n        ThreeWallet = _wallet;\r\n    }\r\n\r\n    function setRandomNFTWallet(address _wallet) external onlyOwner{\r\n        RandomNFTWallet = _wallet;\r\n    }\r\n\r\n    function setUsdtContract(IERC20 _usdtContract) external onlyOwner{\r\n        usdtContract = _usdtContract;\r\n    }\r\n\r\n    function withdraw() external onlyOwner{\r\n        payable(OneWallet).transfer(address(this).balance);\r\n        usdtContract.transfer(OneWallet, usdtContract.balanceOf(address(this)));\r\n    }\r\n\r\n    function setPriceForUSDT(uint amount) external onlyOwner {\r\n        _priceForUSDT = amount;\r\n    }\r\n//\r\n    function burn(\r\n        address account,\r\n        uint256 id,\r\n        uint256 value\r\n    ) public virtual {\r\n        require(\r\n            account == _msgSender() || isApprovedForAll(account, _msgSender()),\r\n            \"ERC1155: caller is not owner nor approved\"\r\n        );\r\n\r\n        _burn(account, id, value);\r\n    }\r\n\r\n    function burnBatch(\r\n        address account,\r\n        uint256[] memory ids,\r\n        uint256[] memory values\r\n    ) public virtual {\r\n        require(\r\n            account == _msgSender() || isApprovedForAll(account, _msgSender()),\r\n            \"ERC1155: caller is not owner nor approved\"\r\n        );\r\n\r\n        _burnBatch(account, ids, values);\r\n    }\r\n    \r\n}",
  "sourcePath": "D:\\Solidity\\Solidity\\randomNFT_1155\\contracts\\RandomNFT.sol",
  "compiler": {
    "name": "solc",
    "version": "0.6.12+commit.27d51765.Emscripten.clang"
  },
  "schemaVersion": "3.4.5",
  "updatedAt": "2022-07-03T15:46:44.913Z",
  "devdoc": {
    "kind": "dev",
    "methods": {
      "balanceOf(address,uint256)": {
        "details": "See {IERC1155-balanceOf}. Requirements: - `account` cannot be the zero address."
      },
      "balanceOfBatch(address[],uint256[])": {
        "details": "See {IERC1155-balanceOfBatch}. Requirements: - `accounts` and `ids` must have the same length."
      },
      "isApprovedForAll(address,address)": {
        "details": "See {IERC1155-isApprovedForAll}."
      },
      "owner()": {
        "details": "Returns the address of the current owner."
      },
      "paused()": {
        "details": "Returns true if the contract is paused, and false otherwise."
      },
      "renounceOwnership()": {
        "details": "Leaves the contract without owner. It will not be possible to call `onlyOwner` functions anymore. Can only be called by the current owner. NOTE: Renouncing ownership will leave the contract without an owner, thereby removing any functionality that is only available to the owner."
      },
      "safeBatchTransferFrom(address,address,uint256[],uint256[],bytes)": {
        "details": "See {IERC1155-safeBatchTransferFrom}."
      },
      "safeTransferFrom(address,address,uint256,uint256,bytes)": {
        "details": "See {IERC1155-safeTransferFrom}."
      },
      "setApprovalForAll(address,bool)": {
        "details": "See {IERC1155-setApprovalForAll}."
      },
      "supportsInterface(bytes4)": {
        "details": "See {IERC165-supportsInterface}. Time complexity O(1), guaranteed to always use less than 30 000 gas."
      },
      "transferOwnership(address)": {
        "details": "Transfers ownership of the contract to a new account (`newOwner`). Can only be called by the current owner."
      }
    },
    "version": 1
  },
  "userdoc": {
    "kind": "user",
    "methods": {},
    "version": 1
  }
}