{
  "contractName": "RandomNFT",
  "abi": [
    {
      "inputs": [],
      "stateMutability": "nonpayable",
      "type": "constructor"
    },
    {
      "anonymous": false,
      "inputs": [
        {
          "indexed": true,
          "internalType": "address",
          "name": "owner",
          "type": "address"
        },
        {
          "indexed": true,
          "internalType": "address",
          "name": "approved",
          "type": "address"
        },
        {
          "indexed": true,
          "internalType": "uint256",
          "name": "tokenId",
          "type": "uint256"
        }
      ],
      "name": "Approval",
      "type": "event"
    },
    {
      "anonymous": false,
      "inputs": [
        {
          "indexed": true,
          "internalType": "address",
          "name": "owner",
          "type": "address"
        },
        {
          "indexed": true,
          "internalType": "address",
          "name": "operator",
          "type": "address"
        },
        {
          "indexed": false,
          "internalType": "bool",
          "name": "approved",
          "type": "bool"
        }
      ],
      "name": "ApprovalForAll",
      "type": "event"
    },
    {
      "anonymous": false,
      "inputs": [
        {
          "indexed": false,
          "internalType": "address",
          "name": "recipient",
          "type": "address"
        },
        {
          "indexed": false,
          "internalType": "uint256",
          "name": "time",
          "type": "uint256"
        },
        {
          "indexed": false,
          "internalType": "uint256",
          "name": "tokenId",
          "type": "uint256"
        },
        {
          "indexed": false,
          "internalType": "uint256",
          "name": "randomNFTIndex",
          "type": "uint256"
        }
      ],
      "name": "BuyRandomNFTNFT",
      "type": "event"
    },
    {
      "anonymous": false,
      "inputs": [
        {
          "indexed": true,
          "internalType": "address",
          "name": "previousOwner",
          "type": "address"
        },
        {
          "indexed": true,
          "internalType": "address",
          "name": "newOwner",
          "type": "address"
        }
      ],
      "name": "OwnershipTransferred",
      "type": "event"
    },
    {
      "anonymous": false,
      "inputs": [
        {
          "indexed": false,
          "internalType": "address",
          "name": "account",
          "type": "address"
        }
      ],
      "name": "Paused",
      "type": "event"
    },
    {
      "anonymous": false,
      "inputs": [
        {
          "indexed": true,
          "internalType": "address",
          "name": "from",
          "type": "address"
        },
        {
          "indexed": true,
          "internalType": "address",
          "name": "to",
          "type": "address"
        },
        {
          "indexed": true,
          "internalType": "uint256",
          "name": "tokenId",
          "type": "uint256"
        }
      ],
      "name": "Transfer",
      "type": "event"
    },
    {
      "anonymous": false,
      "inputs": [
        {
          "indexed": false,
          "internalType": "address",
          "name": "account",
          "type": "address"
        }
      ],
      "name": "Unpaused",
      "type": "event"
    },
    {
      "inputs": [],
      "name": "OneWallet",
      "outputs": [
        {
          "internalType": "address",
          "name": "",
          "type": "address"
        }
      ],
      "stateMutability": "view",
      "type": "function"
    },
    {
      "inputs": [],
      "name": "RandomNFTWallet",
      "outputs": [
        {
          "internalType": "address",
          "name": "",
          "type": "address"
        }
      ],
      "stateMutability": "view",
      "type": "function"
    },
    {
      "inputs": [],
      "name": "ThreeWallet",
      "outputs": [
        {
          "internalType": "address",
          "name": "",
          "type": "address"
        }
      ],
      "stateMutability": "view",
      "type": "function"
    },
    {
      "inputs": [],
      "name": "TwoWallet",
      "outputs": [
        {
          "internalType": "address",
          "name": "",
          "type": "address"
        }
      ],
      "stateMutability": "view",
      "type": "function"
    },
    {
      "inputs": [
        {
          "internalType": "address",
          "name": "to",
          "type": "address"
        },
        {
          "internalType": "uint256",
          "name": "tokenId",
          "type": "uint256"
        }
      ],
      "name": "approve",
      "outputs": [],
      "stateMutability": "nonpayable",
      "type": "function"
    },
    {
      "inputs": [
        {
          "internalType": "address",
          "name": "owner",
          "type": "address"
        }
      ],
      "name": "balanceOf",
      "outputs": [
        {
          "internalType": "uint256",
          "name": "",
          "type": "uint256"
        }
      ],
      "stateMutability": "view",
      "type": "function"
    },
    {
      "inputs": [],
      "name": "baseURI",
      "outputs": [
        {
          "internalType": "string",
          "name": "",
          "type": "string"
        }
      ],
      "stateMutability": "view",
      "type": "function"
    },
    {
      "inputs": [],
      "name": "copper",
      "outputs": [
        {
          "internalType": "uint256",
          "name": "",
          "type": "uint256"
        }
      ],
      "stateMutability": "view",
      "type": "function"
    },
    {
      "inputs": [
        {
          "internalType": "address",
          "name": "_miner",
          "type": "address"
        }
      ],
      "name": "delMiner",
      "outputs": [],
      "stateMutability": "nonpayable",
      "type": "function"
    },
    {
      "inputs": [
        {
          "internalType": "uint256",
          "name": "tokenId",
          "type": "uint256"
        }
      ],
      "name": "getApproved",
      "outputs": [
        {
          "internalType": "address",
          "name": "",
          "type": "address"
        }
      ],
      "stateMutability": "view",
      "type": "function"
    },
    {
      "inputs": [],
      "name": "gold",
      "outputs": [
        {
          "internalType": "uint256",
          "name": "",
          "type": "uint256"
        }
      ],
      "stateMutability": "view",
      "type": "function"
    },
    {
      "inputs": [
        {
          "internalType": "address",
          "name": "owner",
          "type": "address"
        },
        {
          "internalType": "address",
          "name": "operator",
          "type": "address"
        }
      ],
      "name": "isApprovedForAll",
      "outputs": [
        {
          "internalType": "bool",
          "name": "",
          "type": "bool"
        }
      ],
      "stateMutability": "view",
      "type": "function"
    },
    {
      "inputs": [
        {
          "internalType": "address",
          "name": "",
          "type": "address"
        }
      ],
      "name": "isMiner",
      "outputs": [
        {
          "internalType": "bool",
          "name": "",
          "type": "bool"
        }
      ],
      "stateMutability": "view",
      "type": "function"
    },
    {
      "inputs": [],
      "name": "name",
      "outputs": [
        {
          "internalType": "string",
          "name": "",
          "type": "string"
        }
      ],
      "stateMutability": "view",
      "type": "function"
    },
    {
      "inputs": [],
      "name": "owner",
      "outputs": [
        {
          "internalType": "address",
          "name": "",
          "type": "address"
        }
      ],
      "stateMutability": "view",
      "type": "function"
    },
    {
      "inputs": [
        {
          "internalType": "uint256",
          "name": "tokenId",
          "type": "uint256"
        }
      ],
      "name": "ownerOf",
      "outputs": [
        {
          "internalType": "address",
          "name": "",
          "type": "address"
        }
      ],
      "stateMutability": "view",
      "type": "function"
    },
    {
      "inputs": [],
      "name": "paused",
      "outputs": [
        {
          "internalType": "bool",
          "name": "",
          "type": "bool"
        }
      ],
      "stateMutability": "view",
      "type": "function"
    },
    {
      "inputs": [],
      "name": "permitSellAmount",
      "outputs": [
        {
          "internalType": "uint256",
          "name": "",
          "type": "uint256"
        }
      ],
      "stateMutability": "view",
      "type": "function"
    },
    {
      "inputs": [],
      "name": "renounceOwnership",
      "outputs": [],
      "stateMutability": "nonpayable",
      "type": "function"
    },
    {
      "inputs": [
        {
          "internalType": "address",
          "name": "from",
          "type": "address"
        },
        {
          "internalType": "address",
          "name": "to",
          "type": "address"
        },
        {
          "internalType": "uint256",
          "name": "tokenId",
          "type": "uint256"
        }
      ],
      "name": "safeTransferFrom",
      "outputs": [],
      "stateMutability": "nonpayable",
      "type": "function"
    },
    {
      "inputs": [
        {
          "internalType": "address",
          "name": "from",
          "type": "address"
        },
        {
          "internalType": "address",
          "name": "to",
          "type": "address"
        },
        {
          "internalType": "uint256",
          "name": "tokenId",
          "type": "uint256"
        },
        {
          "internalType": "bytes",
          "name": "_data",
          "type": "bytes"
        }
      ],
      "name": "safeTransferFrom",
      "outputs": [],
      "stateMutability": "nonpayable",
      "type": "function"
    },
    {
      "inputs": [],
      "name": "sellEndTime",
      "outputs": [
        {
          "internalType": "uint256",
          "name": "",
          "type": "uint256"
        }
      ],
      "stateMutability": "view",
      "type": "function"
    },
    {
      "inputs": [],
      "name": "sellStartTime",
      "outputs": [
        {
          "internalType": "uint256",
          "name": "",
          "type": "uint256"
        }
      ],
      "stateMutability": "view",
      "type": "function"
    },
    {
      "inputs": [
        {
          "internalType": "address",
          "name": "_miner",
          "type": "address"
        }
      ],
      "name": "setMiner",
      "outputs": [],
      "stateMutability": "nonpayable",
      "type": "function"
    },
    {
      "inputs": [
        {
          "internalType": "uint256",
          "name": "_sellStartTime",
          "type": "uint256"
        },
        {
          "internalType": "uint256",
          "name": "_sellEndTime",
          "type": "uint256"
        }
      ],
      "name": "setSellTime",
      "outputs": [],
      "stateMutability": "nonpayable",
      "type": "function"
    },
    {
      "inputs": [],
      "name": "silver",
      "outputs": [
        {
          "internalType": "uint256",
          "name": "",
          "type": "uint256"
        }
      ],
      "stateMutability": "view",
      "type": "function"
    },
    {
      "inputs": [
        {
          "internalType": "bytes4",
          "name": "interfaceId",
          "type": "bytes4"
        }
      ],
      "name": "supportsInterface",
      "outputs": [
        {
          "internalType": "bool",
          "name": "",
          "type": "bool"
        }
      ],
      "stateMutability": "view",
      "type": "function"
    },
    {
      "inputs": [],
      "name": "symbol",
      "outputs": [
        {
          "internalType": "string",
          "name": "",
          "type": "string"
        }
      ],
      "stateMutability": "view",
      "type": "function"
    },
    {
      "inputs": [
        {
          "internalType": "uint256",
          "name": "index",
          "type": "uint256"
        }
      ],
      "name": "tokenByIndex",
      "outputs": [
        {
          "internalType": "uint256",
          "name": "",
          "type": "uint256"
        }
      ],
      "stateMutability": "view",
      "type": "function"
    },
    {
      "inputs": [
        {
          "internalType": "address",
          "name": "owner",
          "type": "address"
        },
        {
          "internalType": "uint256",
          "name": "index",
          "type": "uint256"
        }
      ],
      "name": "tokenOfOwnerByIndex",
      "outputs": [
        {
          "internalType": "uint256",
          "name": "",
          "type": "uint256"
        }
      ],
      "stateMutability": "view",
      "type": "function"
    },
    {
      "inputs": [],
      "name": "totalSellAmount",
      "outputs": [
        {
          "internalType": "uint256",
          "name": "",
          "type": "uint256"
        }
      ],
      "stateMutability": "view",
      "type": "function"
    },
    {
      "inputs": [],
      "name": "totalSupply",
      "outputs": [
        {
          "internalType": "uint256",
          "name": "",
          "type": "uint256"
        }
      ],
      "stateMutability": "view",
      "type": "function"
    },
    {
      "inputs": [
        {
          "internalType": "address",
          "name": "from",
          "type": "address"
        },
        {
          "internalType": "address",
          "name": "to",
          "type": "address"
        },
        {
          "internalType": "uint256",
          "name": "tokenId",
          "type": "uint256"
        }
      ],
      "name": "transferFrom",
      "outputs": [],
      "stateMutability": "nonpayable",
      "type": "function"
    },
    {
      "inputs": [
        {
          "internalType": "address",
          "name": "newOwner",
          "type": "address"
        }
      ],
      "name": "transferOwnership",
      "outputs": [],
      "stateMutability": "nonpayable",
      "type": "function"
    },
    {
      "inputs": [],
      "name": "usdtContract",
      "outputs": [
        {
          "internalType": "contract IERC20",
          "name": "",
          "type": "address"
        }
      ],
      "stateMutability": "view",
      "type": "function"
    },
    {
      "inputs": [
        {
          "internalType": "address",
          "name": "operator",
          "type": "address"
        },
        {
          "internalType": "bool",
          "name": "approved",
          "type": "bool"
        }
      ],
      "name": "setApprovalForAll",
      "outputs": [],
      "stateMutability": "nonpayable",
      "type": "function"
    },
    {
      "inputs": [
        {
          "internalType": "address",
          "name": "_address",
          "type": "address"
        },
        {
          "internalType": "bool",
          "name": "tf",
          "type": "bool"
        }
      ],
      "name": "setWhitelist",
      "outputs": [],
      "stateMutability": "nonpayable",
      "type": "function"
    },
    {
      "inputs": [
        {
          "internalType": "address",
          "name": "_address",
          "type": "address"
        }
      ],
      "name": "isWhitelist",
      "outputs": [
        {
          "internalType": "bool",
          "name": "",
          "type": "bool"
        }
      ],
      "stateMutability": "view",
      "type": "function"
    },
    {
      "inputs": [],
      "name": "getPriceForUSDT",
      "outputs": [
        {
          "internalType": "uint256",
          "name": "",
          "type": "uint256"
        }
      ],
      "stateMutability": "view",
      "type": "function"
    },
    {
      "inputs": [
        {
          "internalType": "address",
          "name": "user",
          "type": "address"
        }
      ],
      "name": "isBuyer",
      "outputs": [
        {
          "internalType": "bool",
          "name": "",
          "type": "bool"
        }
      ],
      "stateMutability": "view",
      "type": "function"
    },
    {
      "inputs": [],
      "name": "buyRandomNFTbyUsdt",
      "outputs": [],
      "stateMutability": "nonpayable",
      "type": "function"
    },
    {
      "inputs": [
        {
          "internalType": "uint256",
          "name": "index",
          "type": "uint256"
        }
      ],
      "name": "randomNFTCount",
      "outputs": [
        {
          "internalType": "uint256",
          "name": "",
          "type": "uint256"
        }
      ],
      "stateMutability": "view",
      "type": "function"
    },
    {
      "inputs": [
        {
          "internalType": "address",
          "name": "recipient",
          "type": "address"
        },
        {
          "internalType": "uint256",
          "name": "randomNFTIndex",
          "type": "uint256"
        }
      ],
      "name": "mint",
      "outputs": [],
      "stateMutability": "nonpayable",
      "type": "function"
    },
    {
      "inputs": [
        {
          "internalType": "uint256",
          "name": "tokenId",
          "type": "uint256"
        }
      ],
      "name": "burn",
      "outputs": [],
      "stateMutability": "nonpayable",
      "type": "function"
    },
    {
      "inputs": [
        {
          "internalType": "uint256",
          "name": "tokenId",
          "type": "uint256"
        }
      ],
      "name": "randomNFTURI",
      "outputs": [
        {
          "internalType": "string",
          "name": "",
          "type": "string"
        }
      ],
      "stateMutability": "view",
      "type": "function"
    },
    {
      "inputs": [
        {
          "internalType": "uint256",
          "name": "tokenId",
          "type": "uint256"
        }
      ],
      "name": "tokenURI",
      "outputs": [
        {
          "internalType": "string",
          "name": "",
          "type": "string"
        }
      ],
      "stateMutability": "view",
      "type": "function"
    },
    {
      "inputs": [
        {
          "internalType": "string",
          "name": "URI",
          "type": "string"
        }
      ],
      "name": "setBaseURI",
      "outputs": [],
      "stateMutability": "nonpayable",
      "type": "function"
    },
    {
      "inputs": [
        {
          "internalType": "uint256",
          "name": "tokenId",
          "type": "uint256"
        },
        {
          "internalType": "string",
          "name": "URI",
          "type": "string"
        }
      ],
      "name": "setRandomNFTURI",
      "outputs": [],
      "stateMutability": "nonpayable",
      "type": "function"
    },
    {
      "inputs": [
        {
          "internalType": "uint256",
          "name": "amount",
          "type": "uint256"
        }
      ],
      "name": "setTotalSellAmount",
      "outputs": [],
      "stateMutability": "nonpayable",
      "type": "function"
    },
    {
      "inputs": [
        {
          "internalType": "uint256",
          "name": "amount",
          "type": "uint256"
        }
      ],
      "name": "setPermitSellAmount",
      "outputs": [],
      "stateMutability": "nonpayable",
      "type": "function"
    },
    {
      "inputs": [
        {
          "internalType": "uint256",
          "name": "amount",
          "type": "uint256"
        }
      ],
      "name": "setGold",
      "outputs": [],
      "stateMutability": "nonpayable",
      "type": "function"
    },
    {
      "inputs": [
        {
          "internalType": "uint256",
          "name": "amount",
          "type": "uint256"
        }
      ],
      "name": "setSilver",
      "outputs": [],
      "stateMutability": "nonpayable",
      "type": "function"
    },
    {
      "inputs": [
        {
          "internalType": "uint256",
          "name": "amount",
          "type": "uint256"
        }
      ],
      "name": "setCopper",
      "outputs": [],
      "stateMutability": "nonpayable",
      "type": "function"
    },
    {
      "inputs": [
        {
          "internalType": "uint256",
          "name": "_permitSell",
          "type": "uint256"
        },
        {
          "internalType": "uint256",
          "name": "_gold",
          "type": "uint256"
        },
        {
          "internalType": "uint256",
          "name": "_silver",
          "type": "uint256"
        },
        {
          "internalType": "uint256",
          "name": "_normal",
          "type": "uint256"
        }
      ],
      "name": "setNewSell",
      "outputs": [],
      "stateMutability": "nonpayable",
      "type": "function"
    },
    {
      "inputs": [
        {
          "internalType": "address",
          "name": "wallet",
          "type": "address"
        }
      ],
      "name": "setOneWallet",
      "outputs": [],
      "stateMutability": "nonpayable",
      "type": "function"
    },
    {
      "inputs": [
        {
          "internalType": "address",
          "name": "wallet",
          "type": "address"
        }
      ],
      "name": "setTwoWallet",
      "outputs": [],
      "stateMutability": "nonpayable",
      "type": "function"
    },
    {
      "inputs": [
        {
          "internalType": "address",
          "name": "wallet",
          "type": "address"
        }
      ],
      "name": "setThreeWallet",
      "outputs": [],
      "stateMutability": "nonpayable",
      "type": "function"
    },
    {
      "inputs": [
        {
          "internalType": "address",
          "name": "wallet",
          "type": "address"
        }
      ],
      "name": "setRandomNFTWallet",
      "outputs": [],
      "stateMutability": "nonpayable",
      "type": "function"
    },
    {
      "inputs": [
        {
          "internalType": "uint256",
          "name": "amount",
          "type": "uint256"
        }
      ],
      "name": "setPriceForUSDT",
      "outputs": [],
      "stateMutability": "nonpayable",
      "type": "function"
    },
    {
      "inputs": [
        {
          "internalType": "contract IERC20",
          "name": "newContract",
          "type": "address"
        }
      ],
      "name": "setUsdtContract",
      "outputs": [],
      "stateMutability": "nonpayable",
      "type": "function"
    },
    {
      "inputs": [
        {
          "internalType": "uint256",
          "name": "u",
          "type": "uint256"
        }
      ],
      "name": "uintToString",
      "outputs": [
        {
          "internalType": "string",
          "name": "str",
          "type": "string"
        }
      ],
      "stateMutability": "pure",
      "type": "function"
    }
  ],
  "bytecode": "0x6080604052636245193060025564020338d3806003908155601080546001600160a01b03199081167355d398326f99059ff775485246999027b319795517909155601580548216733a5d7eff1ff7835d36cb3a370928f177779a2c1817905560168054821673dd4c24268cc4d134b9185b92701d3158130ed1561790556017805482167365d98663a0acb3b1b326ddd30e8b254bd6755c6e1790556018805490911673e99635818a71e5e24dba64d30216ec535b310a0d1790556103e860195560c8601a55601b55600a601c5560bb601d55680821ab0d4414980000601e55348015620000eb57600080fd5b506040518060400160405280600d81526020016c14985b991bdb53919508139195609a1b8152506040518060400160405280600381526020016224a8a760e91b8152506000620001406200025a60201b60201c565b600080546001600160a01b0319166001600160a01b0383169081178255604051929350917f8be0079c531659141344cd1fd0a4f28419497f9722a3daafe3b4186f6b6457e0908290a35062000195336200025e565b620001a76301ffc9a760e01b620002d4565b8151620001bc90600a9060208501906200034e565b508051620001d290600b9060208401906200034e565b50620001e56380ac58cd60e01b620002d4565b620001f7635b5e139f60e01b620002d4565b6200020963780e9d6360e01b620002d4565b5050600e805460ff1916905560408051808201909152601a81527f68747470733a2f2f713734353233352f72616e646f6d4e46542f0000000000006020820152620002549062000326565b62000456565b3390565b620002686200025a565b6001600160a01b03166200027b6200033f565b6001600160a01b031614620002ad5760405162461bcd60e51b8152600401620002a49062000421565b60405180910390fd5b6001600160a01b03166000908152600160208190526040909120805460ff19169091179055565b6001600160e01b03198082161415620003015760405162461bcd60e51b8152600401620002a490620003ea565b6001600160e01b0319166000908152600460205260409020805460ff19166001179055565b80516200033b90600d9060208401906200034e565b5050565b6000546001600160a01b031690565b828054600181600116156101000203166002900490600052602060002090601f016020900481019282601f106200039157805160ff1916838001178555620003c1565b82800160010185558215620003c1579182015b82811115620003c1578251825591602001919060010190620003a4565b50620003cf929150620003d3565b5090565b5b80821115620003cf5760008155600101620003d4565b6020808252601c908201527f4552433136353a20696e76616c696420696e7465726661636520696400000000604082015260600190565b6020808252818101527f4f776e61626c653a2063616c6c6572206973206e6f7420746865206f776e6572604082015260600190565b6136c180620004666000396000f3fe608060405234801561001057600080fd5b50600436106103af5760003560e01c80636352211e116101f4578063acb14bd31161011a578063e553150b116100ad578063eff229b21161007c578063eff229b21461075d578063f2fde38b14610765578063f6f0f2a714610778578063fbec6f211461078b576103af565b8063e553150b1461071c578063e93956791461072f578063e985e9c514610742578063ecbfe37e14610755576103af565b8063c87b56dd116100e9578063c87b56dd146106db578063cb60f8b4146106ee578063d65aea9c146106f6578063d9387f6014610709576103af565b8063acb14bd31461068f578063b2347b65146106a2578063b88d4fde146106b5578063c683630d146106c8576103af565b8063715018a6116101925780639742ca46116101615780639742ca4614610643578063a22cb46514610656578063a377865414610669578063ab67097a1461067c576103af565b8063715018a6146106185780638da5cb5b146106205780639267b0051461062857806395d89b411461063b576103af565b80636c0360eb116101ce5780636c0360eb146105d75780636c4b398e146105df578063701b70ac146105f257806370a0823114610605576103af565b80636352211e1461059e57806365815b16146105b15780636c017370146105c4576103af565b806342842e0e116102d957806353d6fd591161027757806358e46f281161024657806358e46f281461057e5780635c975abb146105865780635dd8d06d1461058e5780636115092314610596576103af565b806353d6fd591461053d57806355f804b314610550578063576338a51461056357806358bc4b5714610576576103af565b80634bb20bc0116102b35780634bb20bc0146104fc5780634f6ccce71461050f5780635061b0e71461052257806352cba41c14610535576103af565b806342842e0e146104c357806342966c68146104d6578063451ec35d146104e9576103af565b806318160ddd116103515780632a55feec116103205780632a55feec146104825780632f745c59146104955780633d8b5a65146104a857806340c10f19146104b0576103af565b806318160ddd146104575780631d42c5ee1461045f5780631ee45da01461046757806323b872dd1461046f576103af565b806306fdde031161038d57806306fdde0314610407578063081812fc1461041c578063095ea7b31461043c5780631290168d1461044f576103af565b806301f2e532146103b457806301ffc9a7146103c95780630314214c146103f2575b600080fd5b6103c76103c23660046129ba565b610793565b005b6103dc6103d7366004612b2c565b6107fd565b6040516103e99190612da9565b60405180910390f35b6103fa610820565b6040516103e991906135c2565b61040f610826565b6040516103e99190612db4565b61042f61042a366004612b97565b6108bd565b6040516103e99190612d0e565b6103c761044a366004612ae5565b610900565b61042f610998565b6103fa6109a7565b61042f6109b8565b6103fa6109c7565b6103c761047d366004612a0e565b6109cd565b6103dc6104903660046129ba565b610a05565b6103fa6104a3366004612ae5565b610a23565b61042f610a4e565b6103c76104be366004612ae5565b610a5d565b6103c76104d1366004612a0e565b610aec565b6103c76104e4366004612b97565b610b07565b6103c76104f73660046129ba565b610b43565b6103c761050a366004612b97565b610ba3565b6103fa61051d366004612b97565b610be7565b6103c7610530366004612baf565b610bfd565b6103fa610c5b565b6103c761054b366004612ab8565b610c61565b6103c761055e366004612b64565b610ccb565b6103c76105713660046129ba565b610d13565b6103fa610d74565b6103fa610d7a565b6103dc610d80565b6103fa610d89565b61042f610d8f565b61042f6105ac366004612b97565b610d9e565b6103c76105bf3660046129ba565b610dc6565b6103c76105d2366004612b97565b610e27565b61040f610e6b565b6103c76105ed366004612c15565b610ecc565b6103dc6106003660046129ba565b610f51565b6103fa6106133660046129ba565b610f66565b6103c7610faf565b61042f611038565b6103c7610636366004612b97565b611047565b61040f61108b565b6103c76106513660046129ba565b6110ec565b6103c7610664366004612ab8565b611152565b6103c76106773660046129ba565b611181565b6103c761068a366004612b97565b6111e2565b6103fa61069d366004612b97565b611226565b61040f6106b0366004612b97565b61123d565b6103c76106c3366004612a4e565b6112de565b6103dc6106d63660046129ba565b61131d565b61040f6106e9366004612b97565b61133b565b6103fa6113ff565b6103c7610704366004612b97565b611405565b6103c7610717366004612bf4565b611449565b6103c761072a3660046129ba565b611493565b61040f61073d366004612b97565b6114f4565b6103dc6107503660046129d6565b611607565b6103c7611635565b61042f6117f1565b6103c76107733660046129ba565b611800565b6103c7610786366004612b97565b6118c0565b6103fa611904565b61079b61190a565b6001600160a01b03166107ac611038565b6001600160a01b0316146107db5760405162461bcd60e51b81526004016107d2906132fa565b60405180910390fd5b601880546001600160a01b0319166001600160a01b0392909216919091179055565b6001600160e01b0319811660009081526004602052604090205460ff165b919050565b601c5481565b600a8054604080516020601f60026000196101006001881615020190951694909404938401819004810282018101909252828152606093909290918301828280156108b25780601f10610887576101008083540402835291602001916108b2565b820191906000526020600020905b81548152906001019060200180831161089557829003601f168201915b505050505090505b90565b60006108c88261190e565b6108e45760405162461bcd60e51b81526004016107d2906132ae565b506000908152600860205260409020546001600160a01b031690565b600061090b82610d9e565b9050806001600160a01b0316836001600160a01b0316141561093f5760405162461bcd60e51b81526004016107d29061340a565b806001600160a01b031661095161190a565b6001600160a01b0316148061096d575061096d8161075061190a565b6109895760405162461bcd60e51b81526004016107d29061314f565b610993838361191b565b505050565b6017546001600160a01b031681565b60006109b36006611989565b905090565b6015546001600160a01b031681565b60035481565b6109de6109d861190a565b82611994565b6109fa5760405162461bcd60e51b81526004016107d290613482565b610993838383611a19565b6001600160a01b031660009081526013602052604090205460ff1690565b6001600160a01b0382166000908152600560205260408120610a459083611b27565b90505b92915050565b6016546001600160a01b031681565b3360009081526001602052604090205460ff16610a8c5760405162461bcd60e51b81526004016107d290612e09565b601954600080526011602052610ac17f4ad3b33220dddc71b994a52d72c06b10862965f7d926534c05c00fb7e819e7b7611b33565b10610ade5760405162461bcd60e51b81526004016107d290612f7d565b610ae88282611b37565b5050565b610993838383604051806020016040528060008152506112de565b33610b1182610d9e565b6001600160a01b031614610b375760405162461bcd60e51b81526004016107d2906134d3565b610b4081611c38565b50565b610b4b61190a565b6001600160a01b0316610b5c611038565b6001600160a01b031614610b825760405162461bcd60e51b81526004016107d2906132fa565b6001600160a01b03166000908152600160205260409020805460ff19169055565b610bab61190a565b6001600160a01b0316610bbc611038565b6001600160a01b031614610be25760405162461bcd60e51b81526004016107d2906132fa565b601e55565b600080610bf5600684611d05565b509392505050565b610c0561190a565b6001600160a01b0316610c16611038565b6001600160a01b031614610c3c5760405162461bcd60e51b81526004016107d2906132fa565b6000828152601260209081526040909120825161099392840190612869565b601d5481565b610c6961190a565b6001600160a01b0316610c7a611038565b6001600160a01b031614610ca05760405162461bcd60e51b81526004016107d2906132fa565b6001600160a01b03919091166000908152601460205260409020805460ff1916911515919091179055565b610cd361190a565b6001600160a01b0316610ce4611038565b6001600160a01b031614610d0a5760405162461bcd60e51b81526004016107d2906132fa565b610b4081611d21565b610d1b61190a565b6001600160a01b0316610d2c611038565b6001600160a01b031614610d525760405162461bcd60e51b81526004016107d2906132fa565b601080546001600160a01b0319166001600160a01b0392909216919091179055565b601a5481565b601e5490565b600e5460ff1690565b60195481565b6010546001600160a01b031681565b6000610a48826040518060600160405280602981526020016136636029913960069190611d34565b610dce61190a565b6001600160a01b0316610ddf611038565b6001600160a01b031614610e055760405162461bcd60e51b81526004016107d2906132fa565b601680546001600160a01b0319166001600160a01b0392909216919091179055565b610e2f61190a565b6001600160a01b0316610e40611038565b6001600160a01b031614610e665760405162461bcd60e51b81526004016107d2906132fa565b601c55565b600d8054604080516020601f60026000196101006001881615020190951694909404938401819004810282018101909252828152606093909290918301828280156108b25780601f10610887576101008083540402835291602001916108b2565b610ed461190a565b6001600160a01b0316610ee5611038565b6001600160a01b031614610f0b5760405162461bcd60e51b81526004016107d2906132fa565b610f1f81610f198585611d4b565b90611d4b565b8414610f3d5760405162461bcd60e51b81526004016107d290612f46565b601a93909355601b91909155601c55601d55565b60016020526000908152604090205460ff1681565b60006001600160a01b038216610f8e5760405162461bcd60e51b81526004016107d2906131ac565b6001600160a01b0382166000908152600560205260409020610a4890611989565b610fb761190a565b6001600160a01b0316610fc8611038565b6001600160a01b031614610fee5760405162461bcd60e51b81526004016107d2906132fa565b600080546040516001600160a01b03909116907f8be0079c531659141344cd1fd0a4f28419497f9722a3daafe3b4186f6b6457e0908390a3600080546001600160a01b0319169055565b6000546001600160a01b031690565b61104f61190a565b6001600160a01b0316611060611038565b6001600160a01b0316146110865760405162461bcd60e51b81526004016107d2906132fa565b601955565b600b8054604080516020601f60026000196101006001881615020190951694909404938401819004810282018101909252828152606093909290918301828280156108b25780601f10610887576101008083540402835291602001916108b2565b6110f461190a565b6001600160a01b0316611105611038565b6001600160a01b03161461112b5760405162461bcd60e51b81526004016107d2906132fa565b6001600160a01b03166000908152600160208190526040909120805460ff19169091179055565b61115b8261131d565b6111775760405162461bcd60e51b81526004016107d29061344b565b610ae88282611d70565b61118961190a565b6001600160a01b031661119a611038565b6001600160a01b0316146111c05760405162461bcd60e51b81526004016107d2906132fa565b601780546001600160a01b0319166001600160a01b0392909216919091179055565b6111ea61190a565b6001600160a01b03166111fb611038565b6001600160a01b0316146112215760405162461bcd60e51b81526004016107d2906132fa565b601d55565b6000818152601160205260408120610a4890611b33565b60008181526012602090815260409182902080548351601f60026000196101006001861615020190931692909204918201849004840281018401909452808452606093928301828280156112d25780601f106112a7576101008083540402835291602001916112d2565b820191906000526020600020905b8154815290600101906020018083116112b557829003601f168201915b50505050509050919050565b6112ef6112e961190a565b83611994565b61130b5760405162461bcd60e51b81526004016107d290613482565b61131784848484611e3e565b50505050565b6001600160a01b031660009081526014602052604090205460ff1690565b60606113468261190e565b6113625760405162461bcd60e51b81526004016107d290613378565b606061136c610e6b565b9050805160001415611389576113818361123d565b91505061081b565b60006113948461123d565b5111156113cd57806113a58461123d565b6040516020016113b6929190612c8e565b60405160208183030381529060405291505061081b565b806113d784611e71565b6040516020016113e8929190612c8e565b604051602081830303815290604052915050919050565b60025481565b61140d61190a565b6001600160a01b031661141e611038565b6001600160a01b0316146114445760405162461bcd60e51b81526004016107d2906132fa565b601a55565b61145161190a565b6001600160a01b0316611462611038565b6001600160a01b0316146114885760405162461bcd60e51b81526004016107d2906132fa565b600291909155600355565b61149b61190a565b6001600160a01b03166114ac611038565b6001600160a01b0316146114d25760405162461bcd60e51b81526004016107d2906132fa565b601580546001600160a01b0319166001600160a01b0392909216919091179055565b60408051606480825260a08201909252606091839183908260208201818036833701905050905060005b8315611564578151600a808604956001840193919006916030830160f81b918591811061154757fe5b60200101906001600160f81b031916908160001a9053505061151e565b60608160010167ffffffffffffffff8111801561158057600080fd5b506040519080825280601f01601f1916602001820160405280156115ab576020820181803683370190505b50905060005b8281116115fc5783818403815181106115c657fe5b602001015160f81c60f81b8282815181106115dd57fe5b60200101906001600160f81b031916908160001a9053506001016115b1565b509695505050505050565b6001600160a01b03918216600090815260096020908152604080832093909416825291909152205460ff1690565b61163d610d80565b1561165a5760405162461bcd60e51b81526004016107d290613125565b6002544211801561166c575042600354115b6116885760405162461bcd60e51b81526004016107d29061358b565b6019546000805260116020526116bd7f4ad3b33220dddc71b994a52d72c06b10862965f7d926534c05c00fb7e819e7b7611b33565b106116da5760405162461bcd60e51b81526004016107d290612f7d565b6000601a54116116fc5760405162461bcd60e51b81526004016107d2906133c7565b6016546117409033906001600160a01b031661172c600c6117266064611720610d7a565b90611f4c565b90611f7e565b6010546001600160a01b0316929190611fb8565b6015546117649033906001600160a01b031661172c600c6117266064611720610d7a565b6017546117889033906001600160a01b031661172c60066117266064611720610d7a565b6018546117ac9033906001600160a01b031661172c60466117266064611720610d7a565b60006117b6612010565b601a549091506117c79060016120d4565b601a556117d43382611b37565b50336000908152601360205260409020805460ff19166001179055565b6018546001600160a01b031681565b61180861190a565b6001600160a01b0316611819611038565b6001600160a01b03161461183f5760405162461bcd60e51b81526004016107d2906132fa565b6001600160a01b0381166118655760405162461bcd60e51b81526004016107d290612e92565b600080546040516001600160a01b03808516939216917f8be0079c531659141344cd1fd0a4f28419497f9722a3daafe3b4186f6b6457e091a3600080546001600160a01b0319166001600160a01b0392909216919091179055565b6118c861190a565b6001600160a01b03166118d9611038565b6001600160a01b0316146118ff5760405162461bcd60e51b81526004016107d2906132fa565b601b55565b601b5481565b3390565b6000610a486006836120fc565b600081815260086020526040902080546001600160a01b0319166001600160a01b038416908117909155819061195082610d9e565b6001600160a01b03167f8c5be1e5ebec7d5bd14f71427d1e84f3dd0314c0f7b2291e5b200ac8c7c3b92560405160405180910390a45050565b6000610a4882611b33565b600061199f8261190e565b6119bb5760405162461bcd60e51b81526004016107d2906130a2565b60006119c683610d9e565b9050806001600160a01b0316846001600160a01b03161480611a015750836001600160a01b03166119f6846108bd565b6001600160a01b0316145b80611a115750611a118185611607565b949350505050565b826001600160a01b0316611a2c82610d9e565b6001600160a01b031614611a525760405162461bcd60e51b81526004016107d29061332f565b6001600160a01b038216611a785760405162461bcd60e51b81526004016107d290612faa565b611a83838383610993565b611a8e60008261191b565b6001600160a01b0383166000908152600560205260409020611ab09082612108565b506001600160a01b0382166000908152600560205260409020611ad39082612114565b50611ae060068284612120565b5080826001600160a01b0316846001600160a01b03167fddf252ad1be2c89b69c2b068fc378daa952ba7f163c4a11628f55a4df523b3ef60405160405180910390a4505050565b6000610a458383612136565b5490565b600080526011602052611b697f4ad3b33220dddc71b994a52d72c06b10862965f7d926534c05c00fb7e819e7b761217b565b6000818152601160205260409020611b809061217b565b6000611b9a611b8e83611226565b610f19846103e8611f7e565b9050611ba68382612184565b6060611bb1826114f4565b905080604051602001611bc49190612cbd565b60408051601f198184030181529181526000848152601260209081529190208251611bf493919290910190612869565b507ff5b06571c6a72871446421896a0196ce5006b9f3d8ce72c643a3c25ff468afa184428486604051611c2a9493929190612d83565b60405180910390a150505050565b6000611c4382610d9e565b9050611c5181600084610993565b611c5c60008361191b565b6000828152600c60205260409020546002600019610100600184161502019091160415611c9a576000828152600c60205260408120611c9a916128e7565b6001600160a01b0381166000908152600560205260409020611cbc9083612108565b50611cc8600683612248565b5060405182906000906001600160a01b038416907fddf252ad1be2c89b69c2b068fc378daa952ba7f163c4a11628f55a4df523b3ef908390a45050565b6000808080611d148686612254565b9097909650945050505050565b8051610ae890600d906020840190612869565b6000611d418484846122b0565b90505b9392505050565b600082820183811015610a455760405162461bcd60e51b81526004016107d290612f0f565b611d7861190a565b6001600160a01b0316826001600160a01b03161415611da95760405162461bcd60e51b81526004016107d290612fee565b8060096000611db661190a565b6001600160a01b03908116825260208083019390935260409182016000908120918716808252919093529120805460ff191692151592909217909155611dfa61190a565b6001600160a01b03167f17307eab39ab6107e8899845ad3d59bd9653f200f220920489ca2b5937696c3183604051611e329190612da9565b60405180910390a35050565b611e49848484611a19565b611e558484848461230f565b6113175760405162461bcd60e51b81526004016107d290612e40565b606081611e9657506040805180820190915260018152600360fc1b602082015261081b565b8160005b8115611eae57600101600a82049150611e9a565b60608167ffffffffffffffff81118015611ec757600080fd5b506040519080825280601f01601f191660200182016040528015611ef2576020820181803683370190505b50859350905060001982015b8315611f4357600a840660300160f81b82828060019003935081518110611f2157fe5b60200101906001600160f81b031916908160001a905350600a84049350611efe565b50949350505050565b6000808211611f6d5760405162461bcd60e51b81526004016107d2906130ee565b818381611f7657fe5b049392505050565b600082611f8d57506000610a48565b82820282848281611f9a57fe5b0414610a455760405162461bcd60e51b81526004016107d29061326d565b611317846323b872dd60e01b858585604051602401611fd993929190612d5f565b60408051601f198184030181529190526020810180516001600160e01b03166001600160e01b0319909316929092179091526123ee565b601a546000908161203360018361202561247d565b8161202c57fe5b0690611d4b565b905061204c601b54601a546120d490919063ffffffff16565b81111561207057601b546120619060016120d4565b601b5550600391506108ba9050565b612093601c5461208d601b54601a546120d490919063ffffffff16565b906120d4565b8111156120b757601c546120a89060016120d4565b601c5550600291506108ba9050565b601d546120c59060016120d4565b601d5550600191506108ba9050565b6000828211156120f65760405162461bcd60e51b81526004016107d290613025565b50900390565b6000610a4583836124bc565b6000610a4583836124d4565b6000610a45838361259a565b6000611d4184846001600160a01b0385166125e4565b815460009082106121595760405162461bcd60e51b81526004016107d290612dc7565b82600001828154811061216857fe5b9060005260206000200154905092915050565b80546001019055565b6001600160a01b0382166121aa5760405162461bcd60e51b81526004016107d290613238565b6121b38161190e565b156121d05760405162461bcd60e51b81526004016107d290612ed8565b6121dc60008383610993565b6001600160a01b03821660009081526005602052604090206121fe9082612114565b5061220b60068284612120565b5060405181906001600160a01b038416906000907fddf252ad1be2c89b69c2b068fc378daa952ba7f163c4a11628f55a4df523b3ef908290a45050565b6000610a45838361267b565b8154600090819083106122795760405162461bcd60e51b81526004016107d2906131f6565b600084600001848154811061228a57fe5b906000526020600020906002020190508060000154816001015492509250509250929050565b600082815260018401602052604081205482816122e05760405162461bcd60e51b81526004016107d29190612db4565b508460000160018203815481106122f357fe5b9060005260206000209060020201600101549150509392505050565b6000612323846001600160a01b031661274f565b61232f57506001611a11565b60606123b7630a85bd0160e11b61234461190a565b88878760405160240161235a9493929190612d22565b604051602081830303815290604052906001600160e01b0319166020820180516001600160e01b038381831617835250505050604051806060016040528060328152602001613631603291396001600160a01b0388169190612755565b90506000818060200190518101906123cf9190612b48565b6001600160e01b031916630a85bd0160e11b1492505050949350505050565b6060612443826040518060400160405280602081526020017f5361666545524332303a206c6f772d6c6576656c2063616c6c206661696c6564815250856001600160a01b03166127559092919063ffffffff16565b80519091501561099357808060200190518101906124619190612b10565b6109935760405162461bcd60e51b81526004016107d290613541565b6000612487612764565b600f54423360405160200161249e93929190612ce6565b6040516020818303038152906040528051906020012060001c905090565b60009081526001919091016020526040902054151590565b60008181526001830160205260408120548015612590578354600019808301919081019060009087908390811061250757fe5b906000526020600020015490508087600001848154811061252457fe5b60009182526020808320909101929092558281526001898101909252604090209084019055865487908061255457fe5b60019003818190600052602060002001600090559055866001016000878152602001908152602001600020600090556001945050505050610a48565b6000915050610a48565b60006125a683836124bc565b6125dc57508154600181810184556000848152602080822090930184905584548482528286019093526040902091909155610a48565b506000610a48565b600082815260018401602052604081205480612649575050604080518082018252838152602080820184815286546001818101895560008981528481209551600290930290950191825591519082015586548684528188019092529290912055611d44565b8285600001600183038154811061265c57fe5b9060005260206000209060020201600101819055506000915050611d44565b6000818152600183016020526040812054801561259057835460001980830191908101906000908790839081106126ae57fe5b90600052602060002090600202019050808760000184815481106126ce57fe5b60009182526020808320845460029093020191825560019384015491840191909155835482528983019052604090209084019055865487908061270d57fe5b6000828152602080822060026000199094019384020182815560019081018390559290935588815289820190925260408220919091559450610a489350505050565b3b151590565b6060611d41848460008561276f565b600f80546001019055565b6060824710156127915760405162461bcd60e51b81526004016107d29061305c565b61279a8561274f565b6127b65760405162461bcd60e51b81526004016107d29061350a565b60006060866001600160a01b031685876040516127d39190612c72565b60006040518083038185875af1925050503d8060008114612810576040519150601f19603f3d011682016040523d82523d6000602084013e612815565b606091505b5091509150612825828286612830565b979650505050505050565b6060831561283f575081611d44565b82511561284f5782518084602001fd5b8160405162461bcd60e51b81526004016107d29190612db4565b828054600181600116156101000203166002900490600052602060002090601f016020900481019282601f106128aa57805160ff19168380011785556128d7565b828001600101855582156128d7579182015b828111156128d75782518255916020019190600101906128bc565b506128e3929150612927565b5090565b50805460018160011615610100020316600290046000825580601f1061290d5750610b40565b601f016020900490600052602060002090810190610b4091905b5b808211156128e35760008155600101612928565b600082601f83011261294c578081fd5b813567ffffffffffffffff80821115612963578283fd5b604051601f8301601f191681016020018281118282101715612983578485fd5b60405282815292508284830160200186101561299e57600080fd5b8260208601602083013760006020848301015250505092915050565b6000602082840312156129cb578081fd5b8135610a45816135f7565b600080604083850312156129e8578081fd5b82356129f3816135f7565b91506020830135612a03816135f7565b809150509250929050565b600080600060608486031215612a22578081fd5b8335612a2d816135f7565b92506020840135612a3d816135f7565b929592945050506040919091013590565b60008060008060808587031215612a63578081fd5b8435612a6e816135f7565b93506020850135612a7e816135f7565b925060408501359150606085013567ffffffffffffffff811115612aa0578182fd5b612aac8782880161293c565b91505092959194509250565b60008060408385031215612aca578182fd5b8235612ad5816135f7565b91506020830135612a038161360c565b60008060408385031215612af7578182fd5b8235612b02816135f7565b946020939093013593505050565b600060208284031215612b21578081fd5b8151610a458161360c565b600060208284031215612b3d578081fd5b8135610a458161361a565b600060208284031215612b59578081fd5b8151610a458161361a565b600060208284031215612b75578081fd5b813567ffffffffffffffff811115612b8b578182fd5b611a118482850161293c565b600060208284031215612ba8578081fd5b5035919050565b60008060408385031215612bc1578182fd5b82359150602083013567ffffffffffffffff811115612bde578182fd5b612bea8582860161293c565b9150509250929050565b60008060408385031215612c06578182fd5b50508035926020909101359150565b60008060008060808587031215612c2a578182fd5b5050823594602084013594506040840135936060013592509050565b60008151808452612c5e8160208601602086016135cb565b601f01601f19169290920160200192915050565b60008251612c848184602087016135cb565b9190910192915050565b60008351612ca08184602088016135cb565b835190830190612cb48183602088016135cb565b01949350505050565b60008251612ccf8184602087016135cb565b64173539b7b760d91b920191825250600501919050565b928352602083019190915260601b6bffffffffffffffffffffffff1916604082015260540190565b6001600160a01b0391909116815260200190565b6001600160a01b0385811682528416602082015260408101839052608060608201819052600090612d5590830184612c46565b9695505050505050565b6001600160a01b039384168152919092166020820152604081019190915260600190565b6001600160a01b0394909416845260208401929092526040830152606082015260800190565b901515815260200190565b600060208252610a456020830184612c46565b60208082526022908201527f456e756d657261626c655365743a20696e646578206f7574206f6620626f756e604082015261647360f01b606082015260800190565b6020808252601d908201527f4d696e653a2063616c6c6572206973206e6f7420746865206d696e6572000000604082015260600190565b60208082526032908201527f4552433732313a207472616e7366657220746f206e6f6e20455243373231526560408201527131b2b4bb32b91034b6b83632b6b2b73a32b960711b606082015260800190565b60208082526026908201527f4f776e61626c653a206e6577206f776e657220697320746865207a65726f206160408201526564647265737360d01b606082015260800190565b6020808252601c908201527f4552433732313a20746f6b656e20616c7265616479206d696e74656400000000604082015260600190565b6020808252601b908201527f536166654d6174683a206164646974696f6e206f766572666c6f770000000000604082015260600190565b60208082526017908201527f6e756d65726963206572726f7220657863657074696f6e000000000000000000604082015260600190565b60208082526013908201527252616e646f6d4e465420736f6c64206f75742160681b604082015260600190565b60208082526024908201527f4552433732313a207472616e7366657220746f20746865207a65726f206164646040820152637265737360e01b606082015260800190565b60208082526019908201527f4552433732313a20617070726f766520746f2063616c6c657200000000000000604082015260600190565b6020808252601e908201527f536166654d6174683a207375627472616374696f6e206f766572666c6f770000604082015260600190565b60208082526026908201527f416464726573733a20696e73756666696369656e742062616c616e636520666f6040820152651c8818d85b1b60d21b606082015260800190565b6020808252602c908201527f4552433732313a206f70657261746f7220717565727920666f72206e6f6e657860408201526b34b9ba32b73a103a37b5b2b760a11b606082015260800190565b6020808252601a908201527f536166654d6174683a206469766973696f6e206279207a65726f000000000000604082015260600190565b60208082526010908201526f14185d5cd8589b194e881c185d5cd95960821b604082015260600190565b60208082526038908201527f4552433732313a20617070726f76652063616c6c6572206973206e6f74206f7760408201527f6e6572206e6f7220617070726f76656420666f7220616c6c0000000000000000606082015260800190565b6020808252602a908201527f4552433732313a2062616c616e636520717565727920666f7220746865207a65604082015269726f206164647265737360b01b606082015260800190565b60208082526022908201527f456e756d657261626c654d61703a20696e646578206f7574206f6620626f756e604082015261647360f01b606082015260800190565b6020808252818101527f4552433732313a206d696e7420746f20746865207a65726f2061646472657373604082015260600190565b60208082526021908201527f536166654d6174683a206d756c7469706c69636174696f6e206f766572666c6f6040820152607760f81b606082015260800190565b6020808252602c908201527f4552433732313a20617070726f76656420717565727920666f72206e6f6e657860408201526b34b9ba32b73a103a37b5b2b760a11b606082015260800190565b6020808252818101527f4f776e61626c653a2063616c6c6572206973206e6f7420746865206f776e6572604082015260600190565b60208082526029908201527f4552433732313a207472616e73666572206f6620746f6b656e2074686174206960408201526839903737ba1037bbb760b91b606082015260800190565b6020808252602f908201527f4552433732314d657461646174613a2055524920717565727920666f72206e6f60408201526e3732bc34b9ba32b73a103a37b5b2b760891b606082015260800190565b60208082526023908201527f596f752073686f756c64206275792052616e646f6d4e4654206e6578742074696040820152626d652160e81b606082015260800190565b60208082526021908201527f4552433732313a20617070726f76616c20746f2063757272656e74206f776e656040820152603960f91b606082015260800190565b6020808252601f908201527f5468652061646472657373206973206e6f74206f6e2077686974656c69737400604082015260600190565b60208082526031908201527f4552433732313a207472616e736665722063616c6c6572206973206e6f74206f6040820152701ddb995c881b9bdc88185c1c1c9bdd9959607a1b606082015260800190565b6020808252601c908201527f596f7520617265206e6f74207468697320746f6b656e206f776e657200000000604082015260600190565b6020808252601d908201527f416464726573733a2063616c6c20746f206e6f6e2d636f6e7472616374000000604082015260600190565b6020808252602a908201527f5361666545524332303a204552433230206f7065726174696f6e20646964206e6040820152691bdd081cdd58d8d9595960b21b606082015260800190565b6020808252601a908201527f53656c6c54696d653a204e6f7420696e2073616c652074696d65000000000000604082015260600190565b90815260200190565b60005b838110156135e65781810151838201526020016135ce565b838111156113175750506000910152565b6001600160a01b0381168114610b4057600080fd5b8015158114610b4057600080fd5b6001600160e01b031981168114610b4057600080fdfe4552433732313a207472616e7366657220746f206e6f6e20455243373231526563656976657220696d706c656d656e7465724552433732313a206f776e657220717565727920666f72206e6f6e6578697374656e7420746f6b656ea2646970667358221220b4ad6e91794d9ec0e327df4ae37aadbb687a7ead2aa8feefc58d331f8d9de25d64736f6c634300060c0033",
  "immutableReferences": {},
  "source": "// SPDX-License-Identifier: MIT\r\npragma solidity ^0.6.0;\r\npragma experimental ABIEncoderV2;\r\n\r\nimport './Miner.sol';\r\nimport './Random.sol';\r\n\r\nimport \"@openzeppelin/contracts/utils/Counters.sol\";\r\nimport \"@openzeppelin/contracts/token/ERC721/ERC721.sol\";\r\nimport \"@openzeppelin/contracts/utils/Pausable.sol\";\r\nimport \"@openzeppelin/contracts/token/ERC20/SafeERC20.sol\";\r\nimport \"@openzeppelin/contracts/token/ERC20/IERC20.sol\";\r\n\r\ncontract SellTime is Miner{\r\n\r\n    using SafeERC20 for IERC20;\r\n    using SafeMath for uint;\r\n\r\n    uint public sellStartTime = 1648695600;//\"2022/3/31 21:00\": 1648731600\r\n    uint public sellEndTime = 8643990400; //1643990400\r\n\r\n    function setSellTime(\r\n        uint _sellStartTime,\r\n        uint _sellEndTime\r\n    ) external onlyOwner{\r\n        sellStartTime = _sellStartTime;\r\n        sellEndTime = _sellEndTime;\r\n    }\r\n\r\n    modifier sellTime(){\r\n        require(now > sellStartTime && sellEndTime > now,\r\n            \"SellTime: Not in sale time\"\r\n        );\r\n        _;\r\n    }\r\n}\r\n    \r\ncontract RandomNFT is SellTime, ERC721, Pausable, Random {\r\n    using Counters for Counters.Counter;\r\n    IERC20 public usdtContract = IERC20(0x55d398326f99059fF775485246999027B3197955);\r\n    \r\n    mapping (uint => Counters.Counter) private _nftCount; //randomNFTIndex => count\r\n    mapping (uint => string) private _randomNFTURI;\r\n    mapping(address => bool) _buyer;\r\n    mapping(address => bool) _whitelist;\r\n\r\n    address public OneWallet = 0x3A5d7eFf1FF7835d36CB3A370928F177779A2c18;\r\n    address public TwoWallet = 0xdD4c24268cC4D134B9185b92701d3158130ED156;\r\n    address public ThreeWallet = 0x65d98663a0AcB3B1B326DdD30E8b254BD6755C6E;\r\n    address public RandomNFTWallet = 0xE99635818A71E5e24dba64d30216ec535b310a0d;\r\n\r\n    uint public totalSellAmount = 1000;\r\n    uint public permitSellAmount = 200;\r\n    uint public gold = 3;\r\n    uint public silver = 10;\r\n    uint public copper = 187;\r\n\r\n    uint private _priceForUSDT = 150e18;\r\n\r\n    event BuyRandomNFTNFT(address recipient,uint time, uint tokenId, uint randomNFTIndex);\r\n\r\n    constructor() public ERC721(\"RandomNFT NFT\", \"IQN\") {\r\n        _setBaseURI('https://q745235/randomNFT/');\r\n    }\r\n\r\n    function setApprovalForAll(\r\n        address operator, bool approved\r\n    ) override public{\r\n        require(isWhitelist(operator), \"The address is not on whitelist\");\r\n        super.setApprovalForAll(operator, approved);\r\n    }\r\n\r\n    function setWhitelist(address _address, bool tf) external onlyOwner{\r\n        _whitelist[_address] = tf;\r\n    }\r\n\r\n    function isWhitelist(address _address) view public returns(bool){\r\n        return _whitelist[_address];\r\n    }\r\n\r\n    function getPriceForUSDT() public view returns(uint){\r\n        return _priceForUSDT;\r\n    }\r\n\r\n    function isBuyer(address user) public view returns(bool){\r\n        return _buyer[user];\r\n    }\r\n\r\n    function getRandomNFTIndex() private returns(uint){\r\n        uint allAmount = permitSellAmount;\r\n        uint randomNumber = (_getRandomNumber() % allAmount).add(1);\r\n        if(randomNumber > (permitSellAmount.sub(gold))){\r\n            gold = gold.sub(1);\r\n            return 3;\r\n        }else if(randomNumber > (permitSellAmount.sub(gold).sub(silver))){\r\n            silver = silver.sub(1);\r\n            return 2;\r\n        }else{\r\n            copper = copper.sub(1);\r\n            return 1;\r\n        }\r\n    }\r\n\r\n    function buyRandomNFTbyUsdt() external whenNotPaused sellTime {\r\n\r\n        require(_nftCount[0].current() < totalSellAmount, \"RandomNFT sold out!\");\r\n        require(permitSellAmount > 0, \"You should buy RandomNFT next time!\");\r\n        \r\n        usdtContract.safeTransferFrom(\r\n            msg.sender,\r\n            TwoWallet,\r\n            getPriceForUSDT().div(100).mul(12)\r\n        );\r\n        usdtContract.safeTransferFrom(\r\n            msg.sender,\r\n            OneWallet,\r\n            getPriceForUSDT().div(100).mul(12)\r\n        );\r\n        usdtContract.safeTransferFrom(\r\n            msg.sender,\r\n            ThreeWallet,\r\n            getPriceForUSDT().div(100).mul(6)\r\n        );\r\n        usdtContract.safeTransferFrom(\r\n            msg.sender,\r\n            RandomNFTWallet,\r\n            getPriceForUSDT().div(100).mul(70)\r\n        );\r\n        uint cardIndex = getRandomNFTIndex();\r\n        permitSellAmount = permitSellAmount.sub(1);\r\n        _mintToken(msg.sender, cardIndex);\r\n        _buyer[msg.sender] = true;\r\n        \r\n    }\r\n\r\n    function randomNFTCount(uint index) public view returns(uint){\r\n        return _nftCount[index].current();\r\n    }\r\n\r\n    function mint(address recipient, uint randomNFTIndex) external onlyMiner{\r\n        require(_nftCount[0].current() < totalSellAmount, \"RandomNFT sold out!\");\r\n        _mintToken(recipient, randomNFTIndex);\r\n    }\r\n\r\n    function _mintToken(address recipient, uint randomNFTIndex) internal{\r\n        _nftCount[0].increment();\r\n        _nftCount[randomNFTIndex].increment();\r\n        uint tokenId = randomNFTIndex.mul(1000).add(randomNFTCount(randomNFTIndex));\r\n        _mint(recipient, tokenId);\r\n        string memory i = uintToString(tokenId);\r\n        _randomNFTURI[tokenId] = string(abi.encodePacked( string(i), \".json\"));\r\n        emit BuyRandomNFTNFT(recipient, now, tokenId, randomNFTIndex);\r\n    }\r\n\r\n    function burn(uint tokenId) external{\r\n        require(ownerOf(tokenId) == msg.sender, \"You are not this token owner\");\r\n        _burn(tokenId);\r\n    }\r\n\r\n    function randomNFTURI(uint tokenId) public view returns(string memory) {\r\n        return _randomNFTURI[tokenId];\r\n    }\r\n\r\n    function tokenURI(uint256 tokenId) public view override returns (string memory) {\r\n        require(_exists(tokenId), \"ERC721Metadata: URI query for nonexistent token\");\r\n\r\n        string memory base = baseURI();\r\n\r\n        // If there is no base URI, return the ticket URI.\r\n        if (bytes(base).length == 0) {\r\n            return randomNFTURI(tokenId);\r\n        }\r\n        // If both are set, concatenate the baseURI and randomNFTURI (via abi.encodePacked).\r\n        if (bytes(randomNFTURI(tokenId)).length > 0) {\r\n            return string(abi.encodePacked(base, randomNFTURI(tokenId)));\r\n        }\r\n        // If there is a baseURI but no randomNFTURI, concatenate the tokenID to the baseURI.\r\n        return string(abi.encodePacked(base, tokenId.toString()));\r\n    }\r\n\r\n    function setBaseURI(string memory URI) external onlyOwner{\r\n        _setBaseURI(URI);\r\n    }\r\n\r\n    function setRandomNFTURI(uint tokenId, string memory URI) external onlyOwner{\r\n        _randomNFTURI[tokenId] = URI;\r\n    }\r\n\r\n    function setTotalSellAmount(uint amount) external onlyOwner{\r\n        totalSellAmount = amount;\r\n    }\r\n\r\n    function setPermitSellAmount(uint amount) external onlyOwner{\r\n        permitSellAmount = amount;\r\n    }\r\n\r\n    function setGold(uint amount) external onlyOwner{\r\n        gold = amount;\r\n    }\r\n\r\n    function setSilver(uint amount) external onlyOwner{\r\n        silver = amount;\r\n    }\r\n\r\n    function setCopper(uint amount) external onlyOwner{\r\n        copper = amount;\r\n    }\r\n\r\n    function setNewSell(\r\n        uint _permitSell, uint _gold, uint _silver, uint _normal\r\n    ) external onlyOwner{\r\n        require(\r\n            _permitSell == (_gold.add(_silver).add(_normal)),\r\n            \"numeric error exception\"\r\n        );\r\n        permitSellAmount = _permitSell;\r\n        gold = _gold;\r\n        silver = _silver;\r\n        copper = _normal;\r\n    }\r\n\r\n    function setOneWallet(address wallet) external onlyOwner{\r\n        OneWallet = wallet;\r\n    }\r\n\r\n    function setTwoWallet(address wallet) external onlyOwner{\r\n        TwoWallet = wallet;\r\n    }\r\n\r\n    function setThreeWallet(address wallet) external onlyOwner{\r\n        ThreeWallet = wallet;\r\n    }\r\n\r\n    function setRandomNFTWallet(address wallet) external onlyOwner{\r\n        RandomNFTWallet = wallet;\r\n    }\r\n\r\n    function setPriceForUSDT(uint amount) external onlyOwner {\r\n        _priceForUSDT = amount;\r\n    }\r\n\r\n    function setUsdtContract(IERC20 newContract) external onlyOwner {\r\n        usdtContract = newContract;\r\n    }\r\n\r\n// uint to string\r\n    function uintToString(uint u) public pure returns (string memory str) {\r\n        uint _u = u;\r\n        uint maxlength = 100;\r\n        bytes memory reversed = new bytes(maxlength);\r\n        uint i = 0;\r\n        while (_u != 0) {\r\n            uint remainder = _u % 10;\r\n            _u = _u / 10;\r\n            reversed[i++] = byte(uint8(48 + remainder));\r\n        }\r\n        bytes memory s = new bytes(i + 1);\r\n        for (uint j = 0; j <= i; j++) {\r\n            s[j] = reversed[i - j];\r\n        }\r\n        str = string(s);\r\n    }\r\n}",
  "sourcePath": "D:\\Solidity\\Solidity\\randomNFT_721\\contracts\\RandomNFT.sol",
  "compiler": {
    "name": "solc",
    "version": "0.6.12+commit.27d51765.Emscripten.clang"
  },
  "schemaVersion": "3.4.5",
  "updatedAt": "2022-07-03T15:47:31.427Z",
  "devdoc": {
    "kind": "dev",
    "methods": {
      "approve(address,uint256)": {
        "details": "See {IERC721-approve}."
      },
      "balanceOf(address)": {
        "details": "See {IERC721-balanceOf}."
      },
      "baseURI()": {
        "details": "Returns the base URI set via {_setBaseURI}. This will be automatically added as a prefix in {tokenURI} to each token's URI, or to the token ID if no specific URI is set for that token ID."
      },
      "getApproved(uint256)": {
        "details": "See {IERC721-getApproved}."
      },
      "isApprovedForAll(address,address)": {
        "details": "See {IERC721-isApprovedForAll}."
      },
      "name()": {
        "details": "See {IERC721Metadata-name}."
      },
      "owner()": {
        "details": "Returns the address of the current owner."
      },
      "ownerOf(uint256)": {
        "details": "See {IERC721-ownerOf}."
      },
      "paused()": {
        "details": "Returns true if the contract is paused, and false otherwise."
      },
      "renounceOwnership()": {
        "details": "Leaves the contract without owner. It will not be possible to call `onlyOwner` functions anymore. Can only be called by the current owner. NOTE: Renouncing ownership will leave the contract without an owner, thereby removing any functionality that is only available to the owner."
      },
      "safeTransferFrom(address,address,uint256)": {
        "details": "See {IERC721-safeTransferFrom}."
      },
      "safeTransferFrom(address,address,uint256,bytes)": {
        "details": "See {IERC721-safeTransferFrom}."
      },
      "setApprovalForAll(address,bool)": {
        "details": "See {IERC721-setApprovalForAll}."
      },
      "supportsInterface(bytes4)": {
        "details": "See {IERC165-supportsInterface}. Time complexity O(1), guaranteed to always use less than 30 000 gas."
      },
      "symbol()": {
        "details": "See {IERC721Metadata-symbol}."
      },
      "tokenByIndex(uint256)": {
        "details": "See {IERC721Enumerable-tokenByIndex}."
      },
      "tokenOfOwnerByIndex(address,uint256)": {
        "details": "See {IERC721Enumerable-tokenOfOwnerByIndex}."
      },
      "tokenURI(uint256)": {
        "details": "See {IERC721Metadata-tokenURI}."
      },
      "totalSupply()": {
        "details": "See {IERC721Enumerable-totalSupply}."
      },
      "transferFrom(address,address,uint256)": {
        "details": "See {IERC721-transferFrom}."
      },
      "transferOwnership(address)": {
        "details": "Transfers ownership of the contract to a new account (`newOwner`). Can only be called by the current owner."
      }
    },
    "version": 1
  },
  "userdoc": {
    "kind": "user",
    "methods": {},
    "version": 1
  }
}