{
  "contractName": "SellTime",
  "abi": [
    {
      "anonymous": false,
      "inputs": [
        {
          "indexed": true,
          "internalType": "address",
          "name": "previousOwner",
          "type": "address"
        },
        {
          "indexed": true,
          "internalType": "address",
          "name": "newOwner",
          "type": "address"
        }
      ],
      "name": "OwnershipTransferred",
      "type": "event"
    },
    {
      "inputs": [
        {
          "internalType": "address",
          "name": "_miner",
          "type": "address"
        }
      ],
      "name": "delMiner",
      "outputs": [],
      "stateMutability": "nonpayable",
      "type": "function"
    },
    {
      "inputs": [
        {
          "internalType": "address",
          "name": "",
          "type": "address"
        }
      ],
      "name": "isMiner",
      "outputs": [
        {
          "internalType": "bool",
          "name": "",
          "type": "bool"
        }
      ],
      "stateMutability": "view",
      "type": "function"
    },
    {
      "inputs": [],
      "name": "owner",
      "outputs": [
        {
          "internalType": "address",
          "name": "",
          "type": "address"
        }
      ],
      "stateMutability": "view",
      "type": "function"
    },
    {
      "inputs": [],
      "name": "renounceOwnership",
      "outputs": [],
      "stateMutability": "nonpayable",
      "type": "function"
    },
    {
      "inputs": [],
      "name": "sellEndTime",
      "outputs": [
        {
          "internalType": "uint256",
          "name": "",
          "type": "uint256"
        }
      ],
      "stateMutability": "view",
      "type": "function"
    },
    {
      "inputs": [],
      "name": "sellStartTime",
      "outputs": [
        {
          "internalType": "uint256",
          "name": "",
          "type": "uint256"
        }
      ],
      "stateMutability": "view",
      "type": "function"
    },
    {
      "inputs": [
        {
          "internalType": "address",
          "name": "_miner",
          "type": "address"
        }
      ],
      "name": "setMiner",
      "outputs": [],
      "stateMutability": "nonpayable",
      "type": "function"
    },
    {
      "inputs": [
        {
          "internalType": "address",
          "name": "newOwner",
          "type": "address"
        }
      ],
      "name": "transferOwnership",
      "outputs": [],
      "stateMutability": "nonpayable",
      "type": "function"
    },
    {
      "inputs": [
        {
          "internalType": "uint256",
          "name": "_sellStartTime",
          "type": "uint256"
        },
        {
          "internalType": "uint256",
          "name": "_sellEndTime",
          "type": "uint256"
        }
      ],
      "name": "setSellTime",
      "outputs": [],
      "stateMutability": "nonpayable",
      "type": "function"
    }
  ],
  "bytecode": "0x6080604052636245193060025564020338d38060035534801561002157600080fd5b50600061002c610084565b600080546001600160a01b0319166001600160a01b0383169081178255604051929350917f8be0079c531659141344cd1fd0a4f28419497f9722a3daafe3b4186f6b6457e0908290a35061007f33610088565b61013b565b3390565b610090610084565b6001600160a01b03166100a16100f7565b6001600160a01b0316146100d05760405162461bcd60e51b81526004016100c790610106565b60405180910390fd5b6001600160a01b03166000908152600160208190526040909120805460ff19169091179055565b6000546001600160a01b031690565b6020808252818101527f4f776e61626c653a2063616c6c6572206973206e6f7420746865206f776e6572604082015260600190565b6105078061014a6000396000f3fe608060405234801561001057600080fd5b50600436106100935760003560e01c80638da5cb5b116100665780638da5cb5b146100f35780639742ca4614610108578063cb60f8b41461011b578063d9387f6014610123578063f2fde38b1461013657610093565b80631ee45da014610098578063451ec35d146100b6578063701b70ac146100cb578063715018a6146100eb575b600080fd5b6100a0610149565b6040516100ad91906104c8565b60405180910390f35b6100c96100c43660046103df565b61014f565b005b6100de6100d93660046103df565b6101b8565b6040516100ad9190610442565b6100c96101cd565b6100fb610256565b6040516100ad919061042e565b6100c96101163660046103df565b610265565b6100a06102cb565b6100c961013136600461040d565b6102d1565b6100c96101443660046103df565b61031b565b60035481565b6101576103db565b6001600160a01b0316610168610256565b6001600160a01b0316146101975760405162461bcd60e51b815260040161018e90610493565b60405180910390fd5b6001600160a01b03166000908152600160205260409020805460ff19169055565b60016020526000908152604090205460ff1681565b6101d56103db565b6001600160a01b03166101e6610256565b6001600160a01b03161461020c5760405162461bcd60e51b815260040161018e90610493565b600080546040516001600160a01b03909116907f8be0079c531659141344cd1fd0a4f28419497f9722a3daafe3b4186f6b6457e0908390a3600080546001600160a01b0319169055565b6000546001600160a01b031690565b61026d6103db565b6001600160a01b031661027e610256565b6001600160a01b0316146102a45760405162461bcd60e51b815260040161018e90610493565b6001600160a01b03166000908152600160208190526040909120805460ff19169091179055565b60025481565b6102d96103db565b6001600160a01b03166102ea610256565b6001600160a01b0316146103105760405162461bcd60e51b815260040161018e90610493565b600291909155600355565b6103236103db565b6001600160a01b0316610334610256565b6001600160a01b03161461035a5760405162461bcd60e51b815260040161018e90610493565b6001600160a01b0381166103805760405162461bcd60e51b815260040161018e9061044d565b600080546040516001600160a01b03808516939216917f8be0079c531659141344cd1fd0a4f28419497f9722a3daafe3b4186f6b6457e091a3600080546001600160a01b0319166001600160a01b0392909216919091179055565b3390565b6000602082840312156103f0578081fd5b81356001600160a01b0381168114610406578182fd5b9392505050565b6000806040838503121561041f578081fd5b50508035926020909101359150565b6001600160a01b0391909116815260200190565b901515815260200190565b60208082526026908201527f4f776e61626c653a206e6577206f776e657220697320746865207a65726f206160408201526564647265737360d01b606082015260800190565b6020808252818101527f4f776e61626c653a2063616c6c6572206973206e6f7420746865206f776e6572604082015260600190565b9081526020019056fea264697066735822122081eabe424b859fcadf2d817788abd65037d349d9348d1d7f0d59daed3b24820764736f6c634300060c0033",
  "immutableReferences": {},
  "source": "// SPDX-License-Identifier: MIT\r\npragma solidity ^0.6.0;\r\npragma experimental ABIEncoderV2;\r\n\r\nimport './Miner.sol';\r\nimport './Random.sol';\r\n\r\nimport \"@openzeppelin/contracts/utils/Counters.sol\";\r\nimport \"@openzeppelin/contracts/token/ERC721/ERC721.sol\";\r\nimport \"@openzeppelin/contracts/utils/Pausable.sol\";\r\nimport \"@openzeppelin/contracts/token/ERC20/SafeERC20.sol\";\r\nimport \"@openzeppelin/contracts/token/ERC20/IERC20.sol\";\r\n\r\ncontract SellTime is Miner{\r\n\r\n    using SafeERC20 for IERC20;\r\n    using SafeMath for uint;\r\n\r\n    uint public sellStartTime = 1648695600;//\"2022/3/31 21:00\": 1648731600\r\n    uint public sellEndTime = 8643990400; //1643990400\r\n\r\n    function setSellTime(\r\n        uint _sellStartTime,\r\n        uint _sellEndTime\r\n    ) external onlyOwner{\r\n        sellStartTime = _sellStartTime;\r\n        sellEndTime = _sellEndTime;\r\n    }\r\n\r\n    modifier sellTime(){\r\n        require(now > sellStartTime && sellEndTime > now,\r\n            \"SellTime: Not in sale time\"\r\n        );\r\n        _;\r\n    }\r\n}\r\n    \r\ncontract RandomNFT is SellTime, ERC721, Pausable, Random {\r\n    using Counters for Counters.Counter;\r\n    IERC20 public usdtContract = IERC20(0x55d398326f99059fF775485246999027B3197955);\r\n    \r\n    mapping (uint => Counters.Counter) private _nftCount; //randomNFTIndex => count\r\n    mapping (uint => string) private _randomNFTURI;\r\n    mapping(address => bool) _buyer;\r\n    mapping(address => bool) _whitelist;\r\n\r\n    address public OneWallet = 0x3A5d7eFf1FF7835d36CB3A370928F177779A2c18;\r\n    address public TwoWallet = 0xdD4c24268cC4D134B9185b92701d3158130ED156;\r\n    address public ThreeWallet = 0x65d98663a0AcB3B1B326DdD30E8b254BD6755C6E;\r\n    address public RandomNFTWallet = 0xE99635818A71E5e24dba64d30216ec535b310a0d;\r\n\r\n    uint public totalSellAmount = 1000;\r\n    uint public permitSellAmount = 200;\r\n    uint public gold = 3;\r\n    uint public silver = 10;\r\n    uint public copper = 187;\r\n\r\n    uint private _priceForUSDT = 150e18;\r\n\r\n    event BuyRandomNFTNFT(address recipient,uint time, uint tokenId, uint randomNFTIndex);\r\n\r\n    constructor() public ERC721(\"RandomNFT NFT\", \"IQN\") {\r\n        _setBaseURI('https://q745235/randomNFT/');\r\n    }\r\n\r\n    function setApprovalForAll(\r\n        address operator, bool approved\r\n    ) override public{\r\n        require(isWhitelist(operator), \"The address is not on whitelist\");\r\n        super.setApprovalForAll(operator, approved);\r\n    }\r\n\r\n    function setWhitelist(address _address, bool tf) external onlyOwner{\r\n        _whitelist[_address] = tf;\r\n    }\r\n\r\n    function isWhitelist(address _address) view public returns(bool){\r\n        return _whitelist[_address];\r\n    }\r\n\r\n    function getPriceForUSDT() public view returns(uint){\r\n        return _priceForUSDT;\r\n    }\r\n\r\n    function isBuyer(address user) public view returns(bool){\r\n        return _buyer[user];\r\n    }\r\n\r\n    function getRandomNFTIndex() private returns(uint){\r\n        uint allAmount = permitSellAmount;\r\n        uint randomNumber = (_getRandomNumber() % allAmount).add(1);\r\n        if(randomNumber > (permitSellAmount.sub(gold))){\r\n            gold = gold.sub(1);\r\n            return 3;\r\n        }else if(randomNumber > (permitSellAmount.sub(gold).sub(silver))){\r\n            silver = silver.sub(1);\r\n            return 2;\r\n        }else{\r\n            copper = copper.sub(1);\r\n            return 1;\r\n        }\r\n    }\r\n\r\n    function buyRandomNFTbyUsdt() external whenNotPaused sellTime {\r\n\r\n        require(_nftCount[0].current() < totalSellAmount, \"RandomNFT sold out!\");\r\n        require(permitSellAmount > 0, \"You should buy RandomNFT next time!\");\r\n        \r\n        usdtContract.safeTransferFrom(\r\n            msg.sender,\r\n            TwoWallet,\r\n            getPriceForUSDT().div(100).mul(12)\r\n        );\r\n        usdtContract.safeTransferFrom(\r\n            msg.sender,\r\n            OneWallet,\r\n            getPriceForUSDT().div(100).mul(12)\r\n        );\r\n        usdtContract.safeTransferFrom(\r\n            msg.sender,\r\n            ThreeWallet,\r\n            getPriceForUSDT().div(100).mul(6)\r\n        );\r\n        usdtContract.safeTransferFrom(\r\n            msg.sender,\r\n            RandomNFTWallet,\r\n            getPriceForUSDT().div(100).mul(70)\r\n        );\r\n        uint cardIndex = getRandomNFTIndex();\r\n        permitSellAmount = permitSellAmount.sub(1);\r\n        _mintToken(msg.sender, cardIndex);\r\n        _buyer[msg.sender] = true;\r\n        \r\n    }\r\n\r\n    function randomNFTCount(uint index) public view returns(uint){\r\n        return _nftCount[index].current();\r\n    }\r\n\r\n    function mint(address recipient, uint randomNFTIndex) external onlyMiner{\r\n        require(_nftCount[0].current() < totalSellAmount, \"RandomNFT sold out!\");\r\n        _mintToken(recipient, randomNFTIndex);\r\n    }\r\n\r\n    function _mintToken(address recipient, uint randomNFTIndex) internal{\r\n        _nftCount[0].increment();\r\n        _nftCount[randomNFTIndex].increment();\r\n        uint tokenId = randomNFTIndex.mul(1000).add(randomNFTCount(randomNFTIndex));\r\n        _mint(recipient, tokenId);\r\n        string memory i = uintToString(tokenId);\r\n        _randomNFTURI[tokenId] = string(abi.encodePacked( string(i), \".json\"));\r\n        emit BuyRandomNFTNFT(recipient, now, tokenId, randomNFTIndex);\r\n    }\r\n\r\n    function burn(uint tokenId) external{\r\n        require(ownerOf(tokenId) == msg.sender, \"You are not this token owner\");\r\n        _burn(tokenId);\r\n    }\r\n\r\n    function randomNFTURI(uint tokenId) public view returns(string memory) {\r\n        return _randomNFTURI[tokenId];\r\n    }\r\n\r\n    function tokenURI(uint256 tokenId) public view override returns (string memory) {\r\n        require(_exists(tokenId), \"ERC721Metadata: URI query for nonexistent token\");\r\n\r\n        string memory base = baseURI();\r\n\r\n        // If there is no base URI, return the ticket URI.\r\n        if (bytes(base).length == 0) {\r\n            return randomNFTURI(tokenId);\r\n        }\r\n        // If both are set, concatenate the baseURI and randomNFTURI (via abi.encodePacked).\r\n        if (bytes(randomNFTURI(tokenId)).length > 0) {\r\n            return string(abi.encodePacked(base, randomNFTURI(tokenId)));\r\n        }\r\n        // If there is a baseURI but no randomNFTURI, concatenate the tokenID to the baseURI.\r\n        return string(abi.encodePacked(base, tokenId.toString()));\r\n    }\r\n\r\n    function setBaseURI(string memory URI) external onlyOwner{\r\n        _setBaseURI(URI);\r\n    }\r\n\r\n    function setRandomNFTURI(uint tokenId, string memory URI) external onlyOwner{\r\n        _randomNFTURI[tokenId] = URI;\r\n    }\r\n\r\n    function setTotalSellAmount(uint amount) external onlyOwner{\r\n        totalSellAmount = amount;\r\n    }\r\n\r\n    function setPermitSellAmount(uint amount) external onlyOwner{\r\n        permitSellAmount = amount;\r\n    }\r\n\r\n    function setGold(uint amount) external onlyOwner{\r\n        gold = amount;\r\n    }\r\n\r\n    function setSilver(uint amount) external onlyOwner{\r\n        silver = amount;\r\n    }\r\n\r\n    function setCopper(uint amount) external onlyOwner{\r\n        copper = amount;\r\n    }\r\n\r\n    function setNewSell(\r\n        uint _permitSell, uint _gold, uint _silver, uint _normal\r\n    ) external onlyOwner{\r\n        require(\r\n            _permitSell == (_gold.add(_silver).add(_normal)),\r\n            \"numeric error exception\"\r\n        );\r\n        permitSellAmount = _permitSell;\r\n        gold = _gold;\r\n        silver = _silver;\r\n        copper = _normal;\r\n    }\r\n\r\n    function setOneWallet(address wallet) external onlyOwner{\r\n        OneWallet = wallet;\r\n    }\r\n\r\n    function setTwoWallet(address wallet) external onlyOwner{\r\n        TwoWallet = wallet;\r\n    }\r\n\r\n    function setThreeWallet(address wallet) external onlyOwner{\r\n        ThreeWallet = wallet;\r\n    }\r\n\r\n    function setRandomNFTWallet(address wallet) external onlyOwner{\r\n        RandomNFTWallet = wallet;\r\n    }\r\n\r\n    function setPriceForUSDT(uint amount) external onlyOwner {\r\n        _priceForUSDT = amount;\r\n    }\r\n\r\n    function setUsdtContract(IERC20 newContract) external onlyOwner {\r\n        usdtContract = newContract;\r\n    }\r\n\r\n// uint to string\r\n    function uintToString(uint u) public pure returns (string memory str) {\r\n        uint _u = u;\r\n        uint maxlength = 100;\r\n        bytes memory reversed = new bytes(maxlength);\r\n        uint i = 0;\r\n        while (_u != 0) {\r\n            uint remainder = _u % 10;\r\n            _u = _u / 10;\r\n            reversed[i++] = byte(uint8(48 + remainder));\r\n        }\r\n        bytes memory s = new bytes(i + 1);\r\n        for (uint j = 0; j <= i; j++) {\r\n            s[j] = reversed[i - j];\r\n        }\r\n        str = string(s);\r\n    }\r\n}",
  "sourcePath": "D:\\Solidity\\Solidity\\randomNFT_721\\contracts\\RandomNFT.sol",
  "compiler": {
    "name": "solc",
    "version": "0.6.12+commit.27d51765.Emscripten.clang"
  },
  "schemaVersion": "3.4.5",
  "updatedAt": "2022-07-03T15:47:31.440Z",
  "devdoc": {
    "kind": "dev",
    "methods": {
      "owner()": {
        "details": "Returns the address of the current owner."
      },
      "renounceOwnership()": {
        "details": "Leaves the contract without owner. It will not be possible to call `onlyOwner` functions anymore. Can only be called by the current owner. NOTE: Renouncing ownership will leave the contract without an owner, thereby removing any functionality that is only available to the owner."
      },
      "transferOwnership(address)": {
        "details": "Transfers ownership of the contract to a new account (`newOwner`). Can only be called by the current owner."
      }
    },
    "version": 1
  },
  "userdoc": {
    "kind": "user",
    "methods": {},
    "version": 1
  }
}