{
  "contractName": "AuctionTime",
  "abi": [
    {
      "anonymous": false,
      "inputs": [
        {
          "indexed": true,
          "internalType": "address",
          "name": "previousOwner",
          "type": "address"
        },
        {
          "indexed": true,
          "internalType": "address",
          "name": "newOwner",
          "type": "address"
        }
      ],
      "name": "OwnershipTransferred",
      "type": "event"
    },
    {
      "inputs": [],
      "name": "OneWallet",
      "outputs": [
        {
          "internalType": "address",
          "name": "",
          "type": "address"
        }
      ],
      "stateMutability": "view",
      "type": "function"
    },
    {
      "inputs": [],
      "name": "TwoWallet",
      "outputs": [
        {
          "internalType": "address",
          "name": "",
          "type": "address"
        }
      ],
      "stateMutability": "view",
      "type": "function"
    },
    {
      "inputs": [],
      "name": "auctionEndTime",
      "outputs": [
        {
          "internalType": "uint256",
          "name": "",
          "type": "uint256"
        }
      ],
      "stateMutability": "view",
      "type": "function"
    },
    {
      "inputs": [],
      "name": "auctionStartTime",
      "outputs": [
        {
          "internalType": "uint256",
          "name": "",
          "type": "uint256"
        }
      ],
      "stateMutability": "view",
      "type": "function"
    },
    {
      "inputs": [],
      "name": "owner",
      "outputs": [
        {
          "internalType": "address",
          "name": "",
          "type": "address"
        }
      ],
      "stateMutability": "view",
      "type": "function"
    },
    {
      "inputs": [],
      "name": "renounceOwnership",
      "outputs": [],
      "stateMutability": "nonpayable",
      "type": "function"
    },
    {
      "inputs": [
        {
          "internalType": "address",
          "name": "newOwner",
          "type": "address"
        }
      ],
      "name": "transferOwnership",
      "outputs": [],
      "stateMutability": "nonpayable",
      "type": "function"
    },
    {
      "inputs": [
        {
          "internalType": "uint256",
          "name": "_auctionStartTime",
          "type": "uint256"
        },
        {
          "internalType": "uint256",
          "name": "_auctionEndTime",
          "type": "uint256"
        }
      ],
      "name": "setAuctionTime",
      "outputs": [],
      "stateMutability": "nonpayable",
      "type": "function"
    }
  ],
  "bytecode": "0x6080604052636222c100600455636224128060055534801561002057600080fd5b50600061002b61007a565b600080546001600160a01b0319166001600160a01b0383169081178255604051929350917f8be0079c531659141344cd1fd0a4f28419497f9722a3daafe3b4186f6b6457e0908290a35061007e565b3390565b6103fe8061008d6000396000f3fe608060405234801561001057600080fd5b50600436106100885760003560e01c8063715018a61161005b578063715018a6146100dd5780638da5cb5b146100e5578063eb54f9ec146100ed578063f2fde38b146100f557610088565b80631d42c5ee1461008d5780633d8b5a65146100ab5780634b449cba146100b35780636ae260c1146100c8575b600080fd5b610095610108565b6040516100a29190610330565b60405180910390f35b610095610117565b6100bb610126565b6040516100a291906103bf565b6100db6100d636600461030f565b61012c565b005b6100db61017f565b610095610208565b6100bb610217565b6100db6101033660046102e1565b61021d565b6002546001600160a01b031681565b6003546001600160a01b031681565b60055481565b6101346102dd565b6001600160a01b0316610145610208565b6001600160a01b0316146101745760405162461bcd60e51b815260040161016b9061038a565b60405180910390fd5b600491909155600555565b6101876102dd565b6001600160a01b0316610198610208565b6001600160a01b0316146101be5760405162461bcd60e51b815260040161016b9061038a565b600080546040516001600160a01b03909116907f8be0079c531659141344cd1fd0a4f28419497f9722a3daafe3b4186f6b6457e0908390a3600080546001600160a01b0319169055565b6000546001600160a01b031690565b60045481565b6102256102dd565b6001600160a01b0316610236610208565b6001600160a01b03161461025c5760405162461bcd60e51b815260040161016b9061038a565b6001600160a01b0381166102825760405162461bcd60e51b815260040161016b90610344565b600080546040516001600160a01b03808516939216917f8be0079c531659141344cd1fd0a4f28419497f9722a3daafe3b4186f6b6457e091a3600080546001600160a01b0319166001600160a01b0392909216919091179055565b3390565b6000602082840312156102f2578081fd5b81356001600160a01b0381168114610308578182fd5b9392505050565b60008060408385031215610321578081fd5b50508035926020909101359150565b6001600160a01b0391909116815260200190565b60208082526026908201527f4f776e61626c653a206e6577206f776e657220697320746865207a65726f206160408201526564647265737360d01b606082015260800190565b6020808252818101527f4f776e61626c653a2063616c6c6572206973206e6f7420746865206f776e6572604082015260600190565b9081526020019056fea26469706673582212205ab57c2d91f5bbb36b7bcfec26476c8b25ee6d26844dcd1bbefd20db264ea80564736f6c634300060c0033",
  "immutableReferences": {},
  "source": "// SPDX-License-Identifier: MIT\r\npragma experimental ABIEncoderV2;\r\npragma solidity ^0.6.0;\r\n\r\nimport \"@openzeppelin/contracts/access/Ownable.sol\";\r\nimport \"@openzeppelin/contracts/token/ERC20/IERC20.sol\";\r\nimport \"@openzeppelin/contracts/utils/Pausable.sol\";\r\nimport \"@openzeppelin/contracts/token/ERC20/SafeERC20.sol\";\r\nimport \"@openzeppelin/contracts/utils/Counters.sol\";\r\nimport './Random.sol';\r\n\r\ncontract AuctionTime is Ownable, Random{\r\n\r\n    using SafeERC20 for IERC20;\r\n    using SafeMath for uint;\r\n\r\n    address public OneWallet;\r\n    address public TwoWallet;\r\n    uint public auctionStartTime = 1646444800;// 2022/3/21 20:00\r\n    uint public auctionEndTime = 1646531200;// 2022/3/22 20:00\r\n    \r\n    function setAuctionTime(\r\n        uint _auctionStartTime,\r\n        uint _auctionEndTime\r\n    ) external onlyOwner{\r\n        auctionStartTime = _auctionStartTime;\r\n        auctionEndTime = _auctionEndTime;\r\n    }\r\n\r\n    modifier auctionTime(){\r\n        require(now > auctionStartTime && auctionEndTime > now,\r\n            \"auctionTime: Not in auction time\"\r\n        );\r\n        _;\r\n    }\r\n}\r\n\r\ninterface ICharacter{\r\n    struct CharacterInfo{\r\n        uint8 HPbase;\r\n        uint8 ATKbase;\r\n        uint8 DEFbase;\r\n        uint8 LUKbase;\r\n    }\r\n\r\n    function mint(\r\n        address recipient, uint characterIndex, CharacterInfo memory characterInfo\r\n    ) external;\r\n\r\n    function safeTransferFrom(\r\n        address from, address to, uint256 tokenId\r\n    ) external;\r\n}\r\n\r\ninterface ITwo {\r\n    event WinTheBid(address buyer, uint time, uint tokenId, uint price);\r\n    function winTheBidByUsdt() external;\r\n}\r\n\r\ncontract WhiteAuction is Pausable, AuctionTime, ITwo{\r\n\r\n    using Counters for Counters.Counter;\r\n    mapping(address => bool) _buyer;\r\n    mapping(address => bool) _customer;\r\n\r\n    mapping (uint => Counters.Counter) private auctionAmount;\r\n\r\n    //Contracts\r\n\r\n    IERC20 public usdtContract = IERC20(0x55d398326f99059fF775485246999027B3197955);\r\n    ICharacter public characterContract;\r\n    uint private _priceForUSDT = 80e18; //decimal = 18\r\n\r\n    function getPriceForUSDT() public view returns(uint){\r\n        return _priceForUSDT;\r\n    }\r\n\r\n    function isBuyer(address user) public view returns(bool){\r\n        return _buyer[user];\r\n    }\r\n\r\n    function isCustomer(address user) public view returns(bool){\r\n        return _customer[user];\r\n    }\r\n\r\n    function totalAuctionAmount() public view returns(uint){\r\n        return auctionAmount[0].current();\r\n    }\r\n\r\n    function normalAuctionAmount() public view returns(uint){\r\n        return auctionAmount[1].current();\r\n    }\r\n\r\n    function specialAuctionAmount() public view returns(uint){\r\n        return auctionAmount[2].current();\r\n    }\r\n\r\n    function winTheBidByUsdt(\r\n        \r\n    ) override external whenNotPaused auctionTime{\r\n        require(totalAuctionAmount() < 20, \"Auction has ended.\");\r\n        require(isCustomer(msg.sender), \"You are not on whitelist.\");\r\n        require(!isBuyer(msg.sender), \"You already have one.\");\r\n        uint lastPrice = getPriceForUSDT();\r\n        auctionAmount[0].increment();\r\n        usdtContract.safeTransferFrom(\r\n            msg.sender,\r\n            OneWallet,\r\n            lastPrice.div(100).mul(40)\r\n        );\r\n        usdtContract.safeTransferFrom(\r\n            msg.sender,\r\n            TwoWallet,\r\n            lastPrice.div(100).mul(60)\r\n        );\r\n        _winningBidder();\r\n        _winTheBid(lastPrice);\r\n    }\r\n\r\n//_buy\r\n\r\n    function _winningBidder() private{\r\n        _buyer[msg.sender] = true;\r\n    }\r\n\r\n//_winTheBid\r\n\r\n    function _winTheBid(uint lastPrice) private{\r\n        uint allItem = 20;\r\n        uint normalItem = 19;\r\n        uint characterIndex = 905;\r\n        uint allAmount = allItem.sub(normalAuctionAmount()).sub(specialAuctionAmount());\r\n        uint randomNumber = (_getRandomNumber() % allAmount).add(1);\r\n        if(randomNumber > (normalItem.sub(normalAuctionAmount()))){\r\n            characterIndex = 906;\r\n            auctionAmount[2].increment();\r\n        }else{\r\n            auctionAmount[1].increment();\r\n        }\r\n        _mintCharacter(msg.sender, characterIndex);\r\n        emit WinTheBid(msg.sender, now, characterIndex, lastPrice);\r\n    }\r\n\r\n//_mint\r\n\r\n    function _mintCharacter(address to, uint characterIndex) private{\r\n        \r\n        bytes32 seed = keccak256(abi.encodePacked(\"NFTs Battle\", now, msg.sender));\r\n        \r\n        uint hpInit = (uint8(seed[0]) * 16 + uint8(seed[1]));\r\n        uint atkInit = (uint8(seed[2]) * 16 + uint8(seed[3]));\r\n        uint defInit = (uint8(seed[4]) * 16 + uint8(seed[5]));\r\n        uint lukInit = (uint8(seed[6]) * 16 + uint8(seed[7]));\r\n\r\n        uint normalization = hpInit.add(atkInit).add(defInit).add(lukInit);\r\n        \r\n        ICharacter.CharacterInfo memory characterInfo = ICharacter.CharacterInfo({\r\n            HPbase: uint8(hpInit.mul(100).div(normalization)),\r\n            ATKbase: uint8(atkInit.mul(100).div(normalization)),\r\n            DEFbase: uint8(defInit.mul(100).div(normalization)),\r\n            LUKbase: uint8(lukInit.mul(100).div(normalization))\r\n        });\r\n\r\n        characterContract.mint(to, characterIndex, characterInfo);\r\n    }\r\n\r\n//onlyOwner\r\n    function setPuase() external onlyOwner{\r\n        _pause();\r\n    }\r\n\r\n    function setUnpuase() external onlyOwner{\r\n        _unpause();\r\n    }\r\n\r\n    function setUsdtContract(IERC20 _usdtContract) external onlyOwner{\r\n        usdtContract = _usdtContract;\r\n    }\r\n\r\n    function setOneWallet(address _wallet) external onlyOwner{\r\n        OneWallet = _wallet;\r\n    }\r\n\r\n    function setTwoWallet(address _wallet) external onlyOwner{\r\n        TwoWallet = _wallet;\r\n    }\r\n\r\n    function setCharacterContract(ICharacter _characterContract) external onlyOwner{\r\n        characterContract = _characterContract;\r\n    }\r\n\r\n    function withdraw() external onlyOwner{\r\n        payable(OneWallet).transfer(address(this).balance);\r\n        usdtContract.transfer(OneWallet, usdtContract.balanceOf(address(this)));\r\n    }\r\n\r\n    function setPriceForUSDT(uint amount) external onlyOwner {\r\n        _priceForUSDT = amount;\r\n    }\r\n\r\n    function setCustomer(address[] memory _address,bool tf) external onlyOwner{\r\n        for(uint i = 0 ;i< _address.length;i++){\r\n            _customer[_address[i]] = tf;\r\n        }\r\n    }\r\n}",
  "sourcePath": "D:\\Solidity\\Solidity\\WhiteAuction\\contracts\\WhiteAuction.sol",
  "compiler": {
    "name": "solc",
    "version": "0.6.12+commit.27d51765.Emscripten.clang"
  },
  "schemaVersion": "3.4.4",
  "updatedAt": "2022-07-03T15:41:21.841Z",
  "devdoc": {
    "kind": "dev",
    "methods": {
      "owner()": {
        "details": "Returns the address of the current owner."
      },
      "renounceOwnership()": {
        "details": "Leaves the contract without owner. It will not be possible to call `onlyOwner` functions anymore. Can only be called by the current owner. NOTE: Renouncing ownership will leave the contract without an owner, thereby removing any functionality that is only available to the owner."
      },
      "transferOwnership(address)": {
        "details": "Transfers ownership of the contract to a new account (`newOwner`). Can only be called by the current owner."
      }
    },
    "version": 1
  },
  "userdoc": {
    "kind": "user",
    "methods": {},
    "version": 1
  }
}