{
  "contractName": "WhiteAuction",
  "abi": [
    {
      "anonymous": false,
      "inputs": [
        {
          "indexed": true,
          "internalType": "address",
          "name": "previousOwner",
          "type": "address"
        },
        {
          "indexed": true,
          "internalType": "address",
          "name": "newOwner",
          "type": "address"
        }
      ],
      "name": "OwnershipTransferred",
      "type": "event"
    },
    {
      "anonymous": false,
      "inputs": [
        {
          "indexed": false,
          "internalType": "address",
          "name": "account",
          "type": "address"
        }
      ],
      "name": "Paused",
      "type": "event"
    },
    {
      "anonymous": false,
      "inputs": [
        {
          "indexed": false,
          "internalType": "address",
          "name": "account",
          "type": "address"
        }
      ],
      "name": "Unpaused",
      "type": "event"
    },
    {
      "anonymous": false,
      "inputs": [
        {
          "indexed": false,
          "internalType": "address",
          "name": "buyer",
          "type": "address"
        },
        {
          "indexed": false,
          "internalType": "uint256",
          "name": "time",
          "type": "uint256"
        },
        {
          "indexed": false,
          "internalType": "uint256",
          "name": "tokenId",
          "type": "uint256"
        },
        {
          "indexed": false,
          "internalType": "uint256",
          "name": "price",
          "type": "uint256"
        }
      ],
      "name": "WinTheBid",
      "type": "event"
    },
    {
      "inputs": [],
      "name": "OneWallet",
      "outputs": [
        {
          "internalType": "address",
          "name": "",
          "type": "address"
        }
      ],
      "stateMutability": "view",
      "type": "function"
    },
    {
      "inputs": [],
      "name": "TwoWallet",
      "outputs": [
        {
          "internalType": "address",
          "name": "",
          "type": "address"
        }
      ],
      "stateMutability": "view",
      "type": "function"
    },
    {
      "inputs": [],
      "name": "auctionEndTime",
      "outputs": [
        {
          "internalType": "uint256",
          "name": "",
          "type": "uint256"
        }
      ],
      "stateMutability": "view",
      "type": "function"
    },
    {
      "inputs": [],
      "name": "auctionStartTime",
      "outputs": [
        {
          "internalType": "uint256",
          "name": "",
          "type": "uint256"
        }
      ],
      "stateMutability": "view",
      "type": "function"
    },
    {
      "inputs": [],
      "name": "characterContract",
      "outputs": [
        {
          "internalType": "contract ICharacter",
          "name": "",
          "type": "address"
        }
      ],
      "stateMutability": "view",
      "type": "function"
    },
    {
      "inputs": [],
      "name": "owner",
      "outputs": [
        {
          "internalType": "address",
          "name": "",
          "type": "address"
        }
      ],
      "stateMutability": "view",
      "type": "function"
    },
    {
      "inputs": [],
      "name": "paused",
      "outputs": [
        {
          "internalType": "bool",
          "name": "",
          "type": "bool"
        }
      ],
      "stateMutability": "view",
      "type": "function"
    },
    {
      "inputs": [],
      "name": "renounceOwnership",
      "outputs": [],
      "stateMutability": "nonpayable",
      "type": "function"
    },
    {
      "inputs": [
        {
          "internalType": "uint256",
          "name": "_auctionStartTime",
          "type": "uint256"
        },
        {
          "internalType": "uint256",
          "name": "_auctionEndTime",
          "type": "uint256"
        }
      ],
      "name": "setAuctionTime",
      "outputs": [],
      "stateMutability": "nonpayable",
      "type": "function"
    },
    {
      "inputs": [
        {
          "internalType": "address",
          "name": "newOwner",
          "type": "address"
        }
      ],
      "name": "transferOwnership",
      "outputs": [],
      "stateMutability": "nonpayable",
      "type": "function"
    },
    {
      "inputs": [],
      "name": "usdtContract",
      "outputs": [
        {
          "internalType": "contract IERC20",
          "name": "",
          "type": "address"
        }
      ],
      "stateMutability": "view",
      "type": "function"
    },
    {
      "inputs": [],
      "name": "getPriceForUSDT",
      "outputs": [
        {
          "internalType": "uint256",
          "name": "",
          "type": "uint256"
        }
      ],
      "stateMutability": "view",
      "type": "function"
    },
    {
      "inputs": [
        {
          "internalType": "address",
          "name": "user",
          "type": "address"
        }
      ],
      "name": "isBuyer",
      "outputs": [
        {
          "internalType": "bool",
          "name": "",
          "type": "bool"
        }
      ],
      "stateMutability": "view",
      "type": "function"
    },
    {
      "inputs": [
        {
          "internalType": "address",
          "name": "user",
          "type": "address"
        }
      ],
      "name": "isCustomer",
      "outputs": [
        {
          "internalType": "bool",
          "name": "",
          "type": "bool"
        }
      ],
      "stateMutability": "view",
      "type": "function"
    },
    {
      "inputs": [],
      "name": "totalAuctionAmount",
      "outputs": [
        {
          "internalType": "uint256",
          "name": "",
          "type": "uint256"
        }
      ],
      "stateMutability": "view",
      "type": "function"
    },
    {
      "inputs": [],
      "name": "normalAuctionAmount",
      "outputs": [
        {
          "internalType": "uint256",
          "name": "",
          "type": "uint256"
        }
      ],
      "stateMutability": "view",
      "type": "function"
    },
    {
      "inputs": [],
      "name": "specialAuctionAmount",
      "outputs": [
        {
          "internalType": "uint256",
          "name": "",
          "type": "uint256"
        }
      ],
      "stateMutability": "view",
      "type": "function"
    },
    {
      "inputs": [],
      "name": "winTheBidByUsdt",
      "outputs": [],
      "stateMutability": "nonpayable",
      "type": "function"
    },
    {
      "inputs": [],
      "name": "setPuase",
      "outputs": [],
      "stateMutability": "nonpayable",
      "type": "function"
    },
    {
      "inputs": [],
      "name": "setUnpuase",
      "outputs": [],
      "stateMutability": "nonpayable",
      "type": "function"
    },
    {
      "inputs": [
        {
          "internalType": "contract IERC20",
          "name": "_usdtContract",
          "type": "address"
        }
      ],
      "name": "setUsdtContract",
      "outputs": [],
      "stateMutability": "nonpayable",
      "type": "function"
    },
    {
      "inputs": [
        {
          "internalType": "address",
          "name": "_wallet",
          "type": "address"
        }
      ],
      "name": "setOneWallet",
      "outputs": [],
      "stateMutability": "nonpayable",
      "type": "function"
    },
    {
      "inputs": [
        {
          "internalType": "address",
          "name": "_wallet",
          "type": "address"
        }
      ],
      "name": "setTwoWallet",
      "outputs": [],
      "stateMutability": "nonpayable",
      "type": "function"
    },
    {
      "inputs": [
        {
          "internalType": "contract ICharacter",
          "name": "_characterContract",
          "type": "address"
        }
      ],
      "name": "setCharacterContract",
      "outputs": [],
      "stateMutability": "nonpayable",
      "type": "function"
    },
    {
      "inputs": [],
      "name": "withdraw",
      "outputs": [],
      "stateMutability": "nonpayable",
      "type": "function"
    },
    {
      "inputs": [
        {
          "internalType": "uint256",
          "name": "amount",
          "type": "uint256"
        }
      ],
      "name": "setPriceForUSDT",
      "outputs": [],
      "stateMutability": "nonpayable",
      "type": "function"
    },
    {
      "inputs": [
        {
          "internalType": "address[]",
          "name": "_address",
          "type": "address[]"
        },
        {
          "internalType": "bool",
          "name": "tf",
          "type": "bool"
        }
      ],
      "name": "setCustomer",
      "outputs": [],
      "stateMutability": "nonpayable",
      "type": "function"
    }
  ],
  "bytecode": "0x6080604052636222c1006004556362241280600555600980546001600160a01b0319167355d398326f99059ff775485246999027b31979551790556804563918244f400000600b5534801561005357600080fd5b506000805460ff191681556100666100bd565b60008054610100600160a81b0319166101006001600160a01b038416908102919091178255604051929350917f8be0079c531659141344cd1fd0a4f28419497f9722a3daafe3b4186f6b6457e0908290a3506100c1565b3390565b611996806100d06000396000f3fe608060405234801561001057600080fd5b50600436106101a95760003560e01c806361150923116100f95780639af3c67c11610097578063e553150b11610071578063e553150b146102f0578063eb54f9ec14610303578063f2fde38b1461030b578063ff31a7fa1461031e576101a9565b80639af3c67c146102cd578063a304f6e7146102e0578063b7e9659e146102e8576101a9565b80636d618037116100d35780636d618037146102a2578063715018a6146102b55780637e475a56146102bd5780638da5cb5b146102c5576101a9565b8063611509231461027457806365815b161461027c5780636ae260c11461028f576101a9565b80634518c01311610166578063576338a511610140578063576338a51461024957806357f775501461025c57806358e46f28146102645780635c975abb1461026c576101a9565b80634518c013146102195780634b449cba146102215780634bb20bc014610236576101a9565b80631d42c5ee146101ae57806328fd5e83146101cc5780632a55feec146101ec5780633ccfd60b146101ff5780633d8b5a651461020957806343b60f7414610211575b600080fd5b6101b6610326565b6040516101c39190611493565b60405180910390f35b6101df6101da3660046112d1565b610335565b6040516101c3919061155c565b6101df6101fa3660046112d1565b610353565b610207610371565b005b6101b66104f2565b6101b6610501565b610207610510565b610229610682565b6040516101c391906118e1565b6102076102443660046113c8565b610688565b6102076102573660046112d1565b6106cc565b61022961072d565b610229610767565b6101df61076d565b6101b6610776565b61020761028a3660046112d1565b610785565b61020761029d3660046113f8565b6107e6565b6102076102b03660046112ed565b610830565b6102076108cb565b610229610959565b6101b661098e565b6102076102db3660046112d1565b6109a2565b610207610a03565b610229610a4c565b6102076102fe3660046112d1565b610a7f565b610229610ae0565b6102076103193660046112d1565b610ae6565b610207610bb1565b6002546001600160a01b031681565b6001600160a01b031660009081526007602052604090205460ff1690565b6001600160a01b031660009081526006602052604090205460ff1690565b610379610bf8565b6001600160a01b031661038a61098e565b6001600160a01b0316146103b95760405162461bcd60e51b81526004016103b09061182b565b60405180910390fd5b6002546040516001600160a01b03909116904780156108fc02916000818181858888f193505050501580156103f2573d6000803e3d6000fd5b506009546002546040516370a0823160e01b81526001600160a01b039283169263a9059cbb92169083906370a0823190610430903090600401611493565b60206040518083038186803b15801561044857600080fd5b505afa15801561045c573d6000803e3d6000fd5b505050506040513d601f19601f8201168201806040525081019061048091906113e0565b6040518363ffffffff1660e01b815260040161049d9291906114f1565b602060405180830381600087803b1580156104b757600080fd5b505af11580156104cb573d6000803e3d6000fd5b505050506040513d601f19601f820116820180604052508101906104ef91906113ac565b50565b6003546001600160a01b031681565b600a546001600160a01b031681565b61051861076d565b156105355760405162461bcd60e51b81526004016103b0906117c0565b60045442118015610547575042600554115b6105635760405162461bcd60e51b81526004016103b090611671565b601461056d610a4c565b1061058a5760405162461bcd60e51b81526004016103b090611645565b61059333610335565b6105af5760405162461bcd60e51b81526004016103b090611789565b6105b833610353565b156105d55760405162461bcd60e51b81526004016103b09061175a565b60006105df610767565b60008052600860205290506106137f5eff886ea0ce6ca488a3d6e336d6c0f75f46d19b42c06ce5ee98e42c96d256c7610bfc565b60025461064f9033906001600160a01b031661063b6028610635866064610c05565b90610c39565b6009546001600160a01b0316929190610c7a565b6003546106719033906001600160a01b031661063b603c610635866064610c05565b610679610cd8565b6104ef81610cf4565b60055481565b610690610bf8565b6001600160a01b03166106a161098e565b6001600160a01b0316146106c75760405162461bcd60e51b81526004016103b09061182b565b600b55565b6106d4610bf8565b6001600160a01b03166106e561098e565b6001600160a01b03161461070b5760405162461bcd60e51b81526004016103b09061182b565b600980546001600160a01b0319166001600160a01b0392909216919091179055565b6002600090815260086020526107627f6add646517a5b0f6793cd5891b7937d28a5b2981a5d88ebc7cd776088fea9041610e1a565b905090565b600b5490565b60005460ff1690565b6009546001600160a01b031681565b61078d610bf8565b6001600160a01b031661079e61098e565b6001600160a01b0316146107c45760405162461bcd60e51b81526004016103b09061182b565b600380546001600160a01b0319166001600160a01b0392909216919091179055565b6107ee610bf8565b6001600160a01b03166107ff61098e565b6001600160a01b0316146108255760405162461bcd60e51b81526004016103b09061182b565b600491909155600555565b610838610bf8565b6001600160a01b031661084961098e565b6001600160a01b03161461086f5760405162461bcd60e51b81526004016103b09061182b565b60005b82518110156108c657816007600085848151811061088c57fe5b6020908102919091018101516001600160a01b03168252810191909152604001600020805460ff1916911515919091179055600101610872565b505050565b6108d3610bf8565b6001600160a01b03166108e461098e565b6001600160a01b03161461090a5760405162461bcd60e51b81526004016103b09061182b565b600080546040516101009091046001600160a01b0316907f8be0079c531659141344cd1fd0a4f28419497f9722a3daafe3b4186f6b6457e0908390a360008054610100600160a81b0319169055565b6001600090815260086020526107627fad67d757c34507f157cacfa2e3153e9f260a2244f30428821be7be64587ac55f610e1a565b60005461010090046001600160a01b031690565b6109aa610bf8565b6001600160a01b03166109bb61098e565b6001600160a01b0316146109e15760405162461bcd60e51b81526004016103b09061182b565b600a80546001600160a01b0319166001600160a01b0392909216919091179055565b610a0b610bf8565b6001600160a01b0316610a1c61098e565b6001600160a01b031614610a425760405162461bcd60e51b81526004016103b09061182b565b610a4a610e1e565b565b600080805260086020526107627f5eff886ea0ce6ca488a3d6e336d6c0f75f46d19b42c06ce5ee98e42c96d256c7610e1a565b610a87610bf8565b6001600160a01b0316610a9861098e565b6001600160a01b031614610abe5760405162461bcd60e51b81526004016103b09061182b565b600280546001600160a01b0319166001600160a01b0392909216919091179055565b60045481565b610aee610bf8565b6001600160a01b0316610aff61098e565b6001600160a01b031614610b255760405162461bcd60e51b81526004016103b09061182b565b6001600160a01b038116610b4b5760405162461bcd60e51b81526004016103b0906115c8565b600080546040516001600160a01b038085169361010090930416917f8be0079c531659141344cd1fd0a4f28419497f9722a3daafe3b4186f6b6457e091a3600080546001600160a01b0390921661010002610100600160a81b0319909216919091179055565b610bb9610bf8565b6001600160a01b0316610bca61098e565b6001600160a01b031614610bf05760405162461bcd60e51b81526004016103b09061182b565b610a4a610e8c565b3390565b80546001019055565b6000808211610c265760405162461bcd60e51b81526004016103b090611723565b818381610c2f57fe5b0490505b92915050565b600082610c4857506000610c33565b82820282848281610c5557fe5b0414610c735760405162461bcd60e51b81526004016103b0906117ea565b9392505050565b610cd2846323b872dd60e01b858585604051602401610c9b939291906114cd565b60408051601f198184030181529190526020810180516001600160e01b03166001600160e01b031990931692909217909152610ee7565b50505050565b336000908152600660205260409020805460ff19166001179055565b601460136103896000610d20610d0861072d565b610d1a610d13610959565b8790610f76565b90610f76565b90506000610d40600183610d32610f9e565b81610d3957fe5b0690610fdd565b9050610d54610d4d610959565b8590610f76565b811115610d98576002600052600860205261038a9250610d937f6add646517a5b0f6793cd5891b7937d28a5b2981a5d88ebc7cd776088fea9041610bfc565b610dcb565b60016000526008602052610dcb7fad67d757c34507f157cacfa2e3153e9f260a2244f30428821be7be64587ac55f610bfc565b610dd53384611002565b7f6ce906c869fb56dde2ae806228dc107cc6486d4a87b2c8915e57a34f2caa291633428589604051610e0a94939291906114a7565b60405180910390a1505050505050565b5490565b610e2661076d565b610e425760405162461bcd60e51b81526004016103b09061159a565b6000805460ff191690557f5db9ee0a495bf2e6ff9c91a7834c1ba4fdd244a5e8aa4e537bd38aeae4b073aa610e75610bf8565b604051610e829190611493565b60405180910390a1565b610e9461076d565b15610eb15760405162461bcd60e51b81526004016103b0906117c0565b6000805460ff191660011790557f62e78cea01bee320cd4e420270b5ea74000d11b0c9f74754ebdbfc544b05a258610e75610bf8565b6060610f3c826040518060400160405280602081526020017f5361666545524332303a206c6f772d6c6576656c2063616c6c206661696c6564815250856001600160a01b03166111739092919063ffffffff16565b8051909150156108c65780806020019051810190610f5a91906113ac565b6108c65760405162461bcd60e51b81526004016103b090611897565b600082821115610f985760405162461bcd60e51b81526004016103b0906116a6565b50900390565b6000610fa861118a565b6001544233604051602001610fbf9392919061146b565b6040516020818303038152906040528051906020012060001c905090565b600082820183811015610c735760405162461bcd60e51b81526004016103b09061160e565b60004233604051602001611017929190611435565b60408051808303601f190181529190528051602090910120905060ff600082811a6010908102600185901a01831692600285901a8202600386901a01811692600486901a8302600587901a01821692600687901a02600787901a019091169061108c8261108685818989610fdd565b90610fdd565b9050611096611294565b6040805160808101909152806110b7846110b18a6064610c39565b90610c05565b60ff1681526020016110ce846110b1896064610c39565b60ff1681526020016110e5846110b1886064610c39565b60ff1681526020016110fc846110b1876064610c39565b60ff169052600a54604051633b0d534360e11b81529192506001600160a01b03169063761aa68690611136908c908c90869060040161150a565b600060405180830381600087803b15801561115057600080fd5b505af1158015611164573d6000803e3d6000fd5b50505050505050505050505050565b60606111828484600085611194565b949350505050565b6001805481019055565b6060824710156111b65760405162461bcd60e51b81526004016103b0906116dd565b6111bf85611255565b6111db5760405162461bcd60e51b81526004016103b090611860565b60006060866001600160a01b031685876040516111f89190611419565b60006040518083038185875af1925050503d8060008114611235576040519150601f19603f3d011682016040523d82523d6000602084013e61123a565b606091505b509150915061124a82828661125b565b979650505050505050565b3b151590565b6060831561126a575081610c73565b82511561127a5782518084602001fd5b8160405162461bcd60e51b81526004016103b09190611567565b60408051608081018252600080825260208201819052918101829052606081019190915290565b8035610c338161193d565b8035610c3381611952565b6000602082840312156112e2578081fd5b8135610c738161193d565b600080604083850312156112ff578081fd5b823567ffffffffffffffff80821115611316578283fd5b818501915085601f830112611329578283fd5b813581811115611337578384fd5b602091508181026113498382016118ea565b8281528381019085850183870186018b1015611363578788fd5b8796505b8487101561138d576113798b826112bb565b835260019690960195918501918501611367565b50809750505050506113a1868287016112c6565b925050509250929050565b6000602082840312156113bd578081fd5b8151610c7381611952565b6000602082840312156113d9578081fd5b5035919050565b6000602082840312156113f1578081fd5b5051919050565b6000806040838503121561140a578182fd5b50508035926020909101359150565b6000825161142b818460208701611911565b9190910192915050565b6a4e46547320426174746c6560a81b8152600b81019290925260601b6bffffffffffffffffffffffff1916602b820152603f0190565b928352602083019190915260601b6bffffffffffffffffffffffff1916604082015260540190565b6001600160a01b0391909116815260200190565b6001600160a01b0394909416845260208401929092526040830152606082015260800190565b6001600160a01b039384168152919092166020820152604081019190915260600190565b6001600160a01b03929092168252602082015260400190565b600060c08201905060018060a01b038516825283602083015260ff835116604083015260ff602084015116606083015260ff604084015116608083015260ff60608401511660a0830152949350505050565b901515815260200190565b6000602082528251806020840152611586816040850160208701611911565b601f01601f19169190910160400192915050565b60208082526014908201527314185d5cd8589b194e881b9bdd081c185d5cd95960621b604082015260600190565b60208082526026908201527f4f776e61626c653a206e6577206f776e657220697320746865207a65726f206160408201526564647265737360d01b606082015260800190565b6020808252601b908201527f536166654d6174683a206164646974696f6e206f766572666c6f770000000000604082015260600190565b60208082526012908201527120bab1ba34b7b7103430b99032b73232b21760711b604082015260600190565b6020808252818101527f61756374696f6e54696d653a204e6f7420696e2061756374696f6e2074696d65604082015260600190565b6020808252601e908201527f536166654d6174683a207375627472616374696f6e206f766572666c6f770000604082015260600190565b60208082526026908201527f416464726573733a20696e73756666696369656e742062616c616e636520666f6040820152651c8818d85b1b60d21b606082015260800190565b6020808252601a908201527f536166654d6174683a206469766973696f6e206279207a65726f000000000000604082015260600190565b6020808252601590820152742cb7ba9030b63932b0b23c903430bb329037b7329760591b604082015260600190565b60208082526019908201527f596f7520617265206e6f74206f6e2077686974656c6973742e00000000000000604082015260600190565b60208082526010908201526f14185d5cd8589b194e881c185d5cd95960821b604082015260600190565b60208082526021908201527f536166654d6174683a206d756c7469706c69636174696f6e206f766572666c6f6040820152607760f81b606082015260800190565b6020808252818101527f4f776e61626c653a2063616c6c6572206973206e6f7420746865206f776e6572604082015260600190565b6020808252601d908201527f416464726573733a2063616c6c20746f206e6f6e2d636f6e7472616374000000604082015260600190565b6020808252602a908201527f5361666545524332303a204552433230206f7065726174696f6e20646964206e6040820152691bdd081cdd58d8d9595960b21b606082015260800190565b90815260200190565b60405181810167ffffffffffffffff8111828210171561190957600080fd5b604052919050565b60005b8381101561192c578181015183820152602001611914565b83811115610cd25750506000910152565b6001600160a01b03811681146104ef57600080fd5b80151581146104ef57600080fdfea26469706673582212207b2dee52cfd7eed33158924fedd04631649d6bc91ffe5cd3e1d932aaf60271d064736f6c634300060c0033",
  "immutableReferences": {},
  "source": "// SPDX-License-Identifier: MIT\r\npragma experimental ABIEncoderV2;\r\npragma solidity ^0.6.0;\r\n\r\nimport \"@openzeppelin/contracts/access/Ownable.sol\";\r\nimport \"@openzeppelin/contracts/token/ERC20/IERC20.sol\";\r\nimport \"@openzeppelin/contracts/utils/Pausable.sol\";\r\nimport \"@openzeppelin/contracts/token/ERC20/SafeERC20.sol\";\r\nimport \"@openzeppelin/contracts/utils/Counters.sol\";\r\nimport './Random.sol';\r\n\r\ncontract AuctionTime is Ownable, Random{\r\n\r\n    using SafeERC20 for IERC20;\r\n    using SafeMath for uint;\r\n\r\n    address public OneWallet;\r\n    address public TwoWallet;\r\n    uint public auctionStartTime = 1646444800;// 2022/3/21 20:00\r\n    uint public auctionEndTime = 1646531200;// 2022/3/22 20:00\r\n    \r\n    function setAuctionTime(\r\n        uint _auctionStartTime,\r\n        uint _auctionEndTime\r\n    ) external onlyOwner{\r\n        auctionStartTime = _auctionStartTime;\r\n        auctionEndTime = _auctionEndTime;\r\n    }\r\n\r\n    modifier auctionTime(){\r\n        require(now > auctionStartTime && auctionEndTime > now,\r\n            \"auctionTime: Not in auction time\"\r\n        );\r\n        _;\r\n    }\r\n}\r\n\r\ninterface ICharacter{\r\n    struct CharacterInfo{\r\n        uint8 HPbase;\r\n        uint8 ATKbase;\r\n        uint8 DEFbase;\r\n        uint8 LUKbase;\r\n    }\r\n\r\n    function mint(\r\n        address recipient, uint characterIndex, CharacterInfo memory characterInfo\r\n    ) external;\r\n\r\n    function safeTransferFrom(\r\n        address from, address to, uint256 tokenId\r\n    ) external;\r\n}\r\n\r\ninterface ITwo {\r\n    event WinTheBid(address buyer, uint time, uint tokenId, uint price);\r\n    function winTheBidByUsdt() external;\r\n}\r\n\r\ncontract WhiteAuction is Pausable, AuctionTime, ITwo{\r\n\r\n    using Counters for Counters.Counter;\r\n    mapping(address => bool) _buyer;\r\n    mapping(address => bool) _customer;\r\n\r\n    mapping (uint => Counters.Counter) private auctionAmount;\r\n\r\n    //Contracts\r\n\r\n    IERC20 public usdtContract = IERC20(0x55d398326f99059fF775485246999027B3197955);\r\n    ICharacter public characterContract;\r\n    uint private _priceForUSDT = 80e18; //decimal = 18\r\n\r\n    function getPriceForUSDT() public view returns(uint){\r\n        return _priceForUSDT;\r\n    }\r\n\r\n    function isBuyer(address user) public view returns(bool){\r\n        return _buyer[user];\r\n    }\r\n\r\n    function isCustomer(address user) public view returns(bool){\r\n        return _customer[user];\r\n    }\r\n\r\n    function totalAuctionAmount() public view returns(uint){\r\n        return auctionAmount[0].current();\r\n    }\r\n\r\n    function normalAuctionAmount() public view returns(uint){\r\n        return auctionAmount[1].current();\r\n    }\r\n\r\n    function specialAuctionAmount() public view returns(uint){\r\n        return auctionAmount[2].current();\r\n    }\r\n\r\n    function winTheBidByUsdt(\r\n        \r\n    ) override external whenNotPaused auctionTime{\r\n        require(totalAuctionAmount() < 20, \"Auction has ended.\");\r\n        require(isCustomer(msg.sender), \"You are not on whitelist.\");\r\n        require(!isBuyer(msg.sender), \"You already have one.\");\r\n        uint lastPrice = getPriceForUSDT();\r\n        auctionAmount[0].increment();\r\n        usdtContract.safeTransferFrom(\r\n            msg.sender,\r\n            OneWallet,\r\n            lastPrice.div(100).mul(40)\r\n        );\r\n        usdtContract.safeTransferFrom(\r\n            msg.sender,\r\n            TwoWallet,\r\n            lastPrice.div(100).mul(60)\r\n        );\r\n        _winningBidder();\r\n        _winTheBid(lastPrice);\r\n    }\r\n\r\n//_buy\r\n\r\n    function _winningBidder() private{\r\n        _buyer[msg.sender] = true;\r\n    }\r\n\r\n//_winTheBid\r\n\r\n    function _winTheBid(uint lastPrice) private{\r\n        uint allItem = 20;\r\n        uint normalItem = 19;\r\n        uint characterIndex = 905;\r\n        uint allAmount = allItem.sub(normalAuctionAmount()).sub(specialAuctionAmount());\r\n        uint randomNumber = (_getRandomNumber() % allAmount).add(1);\r\n        if(randomNumber > (normalItem.sub(normalAuctionAmount()))){\r\n            characterIndex = 906;\r\n            auctionAmount[2].increment();\r\n        }else{\r\n            auctionAmount[1].increment();\r\n        }\r\n        _mintCharacter(msg.sender, characterIndex);\r\n        emit WinTheBid(msg.sender, now, characterIndex, lastPrice);\r\n    }\r\n\r\n//_mint\r\n\r\n    function _mintCharacter(address to, uint characterIndex) private{\r\n        \r\n        bytes32 seed = keccak256(abi.encodePacked(\"NFTs Battle\", now, msg.sender));\r\n        \r\n        uint hpInit = (uint8(seed[0]) * 16 + uint8(seed[1]));\r\n        uint atkInit = (uint8(seed[2]) * 16 + uint8(seed[3]));\r\n        uint defInit = (uint8(seed[4]) * 16 + uint8(seed[5]));\r\n        uint lukInit = (uint8(seed[6]) * 16 + uint8(seed[7]));\r\n\r\n        uint normalization = hpInit.add(atkInit).add(defInit).add(lukInit);\r\n        \r\n        ICharacter.CharacterInfo memory characterInfo = ICharacter.CharacterInfo({\r\n            HPbase: uint8(hpInit.mul(100).div(normalization)),\r\n            ATKbase: uint8(atkInit.mul(100).div(normalization)),\r\n            DEFbase: uint8(defInit.mul(100).div(normalization)),\r\n            LUKbase: uint8(lukInit.mul(100).div(normalization))\r\n        });\r\n\r\n        characterContract.mint(to, characterIndex, characterInfo);\r\n    }\r\n\r\n//onlyOwner\r\n    function setPuase() external onlyOwner{\r\n        _pause();\r\n    }\r\n\r\n    function setUnpuase() external onlyOwner{\r\n        _unpause();\r\n    }\r\n\r\n    function setUsdtContract(IERC20 _usdtContract) external onlyOwner{\r\n        usdtContract = _usdtContract;\r\n    }\r\n\r\n    function setOneWallet(address _wallet) external onlyOwner{\r\n        OneWallet = _wallet;\r\n    }\r\n\r\n    function setTwoWallet(address _wallet) external onlyOwner{\r\n        TwoWallet = _wallet;\r\n    }\r\n\r\n    function setCharacterContract(ICharacter _characterContract) external onlyOwner{\r\n        characterContract = _characterContract;\r\n    }\r\n\r\n    function withdraw() external onlyOwner{\r\n        payable(OneWallet).transfer(address(this).balance);\r\n        usdtContract.transfer(OneWallet, usdtContract.balanceOf(address(this)));\r\n    }\r\n\r\n    function setPriceForUSDT(uint amount) external onlyOwner {\r\n        _priceForUSDT = amount;\r\n    }\r\n\r\n    function setCustomer(address[] memory _address,bool tf) external onlyOwner{\r\n        for(uint i = 0 ;i< _address.length;i++){\r\n            _customer[_address[i]] = tf;\r\n        }\r\n    }\r\n}",
  "sourcePath": "D:\\Solidity\\Solidity\\WhiteAuction\\contracts\\WhiteAuction.sol",
  "compiler": {
    "name": "solc",
    "version": "0.6.12+commit.27d51765.Emscripten.clang"
  },
  "schemaVersion": "3.4.4",
  "updatedAt": "2022-07-03T15:41:21.865Z",
  "devdoc": {
    "kind": "dev",
    "methods": {
      "owner()": {
        "details": "Returns the address of the current owner."
      },
      "paused()": {
        "details": "Returns true if the contract is paused, and false otherwise."
      },
      "renounceOwnership()": {
        "details": "Leaves the contract without owner. It will not be possible to call `onlyOwner` functions anymore. Can only be called by the current owner. NOTE: Renouncing ownership will leave the contract without an owner, thereby removing any functionality that is only available to the owner."
      },
      "transferOwnership(address)": {
        "details": "Transfers ownership of the contract to a new account (`newOwner`). Can only be called by the current owner."
      }
    },
    "version": 1
  },
  "userdoc": {
    "kind": "user",
    "methods": {},
    "version": 1
  }
}