{
  "contractName": "Ticket",
  "abi": [
    {
      "inputs": [],
      "stateMutability": "nonpayable",
      "type": "constructor"
    },
    {
      "anonymous": false,
      "inputs": [
        {
          "indexed": true,
          "internalType": "address",
          "name": "owner",
          "type": "address"
        },
        {
          "indexed": true,
          "internalType": "address",
          "name": "approved",
          "type": "address"
        },
        {
          "indexed": true,
          "internalType": "uint256",
          "name": "tokenId",
          "type": "uint256"
        }
      ],
      "name": "Approval",
      "type": "event"
    },
    {
      "anonymous": false,
      "inputs": [
        {
          "indexed": true,
          "internalType": "address",
          "name": "owner",
          "type": "address"
        },
        {
          "indexed": true,
          "internalType": "address",
          "name": "operator",
          "type": "address"
        },
        {
          "indexed": false,
          "internalType": "bool",
          "name": "approved",
          "type": "bool"
        }
      ],
      "name": "ApprovalForAll",
      "type": "event"
    },
    {
      "anonymous": false,
      "inputs": [
        {
          "indexed": false,
          "internalType": "address",
          "name": "buyer",
          "type": "address"
        },
        {
          "indexed": false,
          "internalType": "uint256",
          "name": "time",
          "type": "uint256"
        },
        {
          "indexed": false,
          "internalType": "uint256",
          "name": "tokenId",
          "type": "uint256"
        }
      ],
      "name": "BuyTicket",
      "type": "event"
    },
    {
      "anonymous": false,
      "inputs": [
        {
          "indexed": true,
          "internalType": "address",
          "name": "previousOwner",
          "type": "address"
        },
        {
          "indexed": true,
          "internalType": "address",
          "name": "newOwner",
          "type": "address"
        }
      ],
      "name": "OwnershipTransferred",
      "type": "event"
    },
    {
      "anonymous": false,
      "inputs": [
        {
          "indexed": false,
          "internalType": "address",
          "name": "account",
          "type": "address"
        }
      ],
      "name": "Paused",
      "type": "event"
    },
    {
      "anonymous": false,
      "inputs": [
        {
          "indexed": true,
          "internalType": "address",
          "name": "from",
          "type": "address"
        },
        {
          "indexed": true,
          "internalType": "address",
          "name": "to",
          "type": "address"
        },
        {
          "indexed": true,
          "internalType": "uint256",
          "name": "tokenId",
          "type": "uint256"
        }
      ],
      "name": "Transfer",
      "type": "event"
    },
    {
      "anonymous": false,
      "inputs": [
        {
          "indexed": false,
          "internalType": "address",
          "name": "account",
          "type": "address"
        }
      ],
      "name": "Unpaused",
      "type": "event"
    },
    {
      "inputs": [],
      "name": "OneWallet",
      "outputs": [
        {
          "internalType": "address",
          "name": "",
          "type": "address"
        }
      ],
      "stateMutability": "view",
      "type": "function"
    },
    {
      "inputs": [],
      "name": "ThreeWallet",
      "outputs": [
        {
          "internalType": "address",
          "name": "",
          "type": "address"
        }
      ],
      "stateMutability": "view",
      "type": "function"
    },
    {
      "inputs": [],
      "name": "TwoWallet",
      "outputs": [
        {
          "internalType": "address",
          "name": "",
          "type": "address"
        }
      ],
      "stateMutability": "view",
      "type": "function"
    },
    {
      "inputs": [
        {
          "internalType": "address",
          "name": "to",
          "type": "address"
        },
        {
          "internalType": "uint256",
          "name": "tokenId",
          "type": "uint256"
        }
      ],
      "name": "approve",
      "outputs": [],
      "stateMutability": "nonpayable",
      "type": "function"
    },
    {
      "inputs": [
        {
          "internalType": "address",
          "name": "owner",
          "type": "address"
        }
      ],
      "name": "balanceOf",
      "outputs": [
        {
          "internalType": "uint256",
          "name": "",
          "type": "uint256"
        }
      ],
      "stateMutability": "view",
      "type": "function"
    },
    {
      "inputs": [],
      "name": "baseURI",
      "outputs": [
        {
          "internalType": "string",
          "name": "",
          "type": "string"
        }
      ],
      "stateMutability": "view",
      "type": "function"
    },
    {
      "inputs": [
        {
          "internalType": "uint256",
          "name": "tokenId",
          "type": "uint256"
        }
      ],
      "name": "getApproved",
      "outputs": [
        {
          "internalType": "address",
          "name": "",
          "type": "address"
        }
      ],
      "stateMutability": "view",
      "type": "function"
    },
    {
      "inputs": [
        {
          "internalType": "address",
          "name": "owner",
          "type": "address"
        },
        {
          "internalType": "address",
          "name": "operator",
          "type": "address"
        }
      ],
      "name": "isApprovedForAll",
      "outputs": [
        {
          "internalType": "bool",
          "name": "",
          "type": "bool"
        }
      ],
      "stateMutability": "view",
      "type": "function"
    },
    {
      "inputs": [],
      "name": "name",
      "outputs": [
        {
          "internalType": "string",
          "name": "",
          "type": "string"
        }
      ],
      "stateMutability": "view",
      "type": "function"
    },
    {
      "inputs": [],
      "name": "owner",
      "outputs": [
        {
          "internalType": "address",
          "name": "",
          "type": "address"
        }
      ],
      "stateMutability": "view",
      "type": "function"
    },
    {
      "inputs": [
        {
          "internalType": "uint256",
          "name": "tokenId",
          "type": "uint256"
        }
      ],
      "name": "ownerOf",
      "outputs": [
        {
          "internalType": "address",
          "name": "",
          "type": "address"
        }
      ],
      "stateMutability": "view",
      "type": "function"
    },
    {
      "inputs": [],
      "name": "paused",
      "outputs": [
        {
          "internalType": "bool",
          "name": "",
          "type": "bool"
        }
      ],
      "stateMutability": "view",
      "type": "function"
    },
    {
      "inputs": [],
      "name": "permitSellAmount",
      "outputs": [
        {
          "internalType": "uint256",
          "name": "",
          "type": "uint256"
        }
      ],
      "stateMutability": "view",
      "type": "function"
    },
    {
      "inputs": [],
      "name": "renounceOwnership",
      "outputs": [],
      "stateMutability": "nonpayable",
      "type": "function"
    },
    {
      "inputs": [
        {
          "internalType": "address",
          "name": "from",
          "type": "address"
        },
        {
          "internalType": "address",
          "name": "to",
          "type": "address"
        },
        {
          "internalType": "uint256",
          "name": "tokenId",
          "type": "uint256"
        }
      ],
      "name": "safeTransferFrom",
      "outputs": [],
      "stateMutability": "nonpayable",
      "type": "function"
    },
    {
      "inputs": [
        {
          "internalType": "address",
          "name": "from",
          "type": "address"
        },
        {
          "internalType": "address",
          "name": "to",
          "type": "address"
        },
        {
          "internalType": "uint256",
          "name": "tokenId",
          "type": "uint256"
        },
        {
          "internalType": "bytes",
          "name": "_data",
          "type": "bytes"
        }
      ],
      "name": "safeTransferFrom",
      "outputs": [],
      "stateMutability": "nonpayable",
      "type": "function"
    },
    {
      "inputs": [
        {
          "internalType": "address",
          "name": "operator",
          "type": "address"
        },
        {
          "internalType": "bool",
          "name": "approved",
          "type": "bool"
        }
      ],
      "name": "setApprovalForAll",
      "outputs": [],
      "stateMutability": "nonpayable",
      "type": "function"
    },
    {
      "inputs": [
        {
          "internalType": "uint256",
          "name": "_ticketSellStartTime",
          "type": "uint256"
        },
        {
          "internalType": "uint256",
          "name": "_ticketSellEndTime",
          "type": "uint256"
        }
      ],
      "name": "setTicketSellTime",
      "outputs": [],
      "stateMutability": "nonpayable",
      "type": "function"
    },
    {
      "inputs": [
        {
          "internalType": "bytes4",
          "name": "interfaceId",
          "type": "bytes4"
        }
      ],
      "name": "supportsInterface",
      "outputs": [
        {
          "internalType": "bool",
          "name": "",
          "type": "bool"
        }
      ],
      "stateMutability": "view",
      "type": "function"
    },
    {
      "inputs": [],
      "name": "symbol",
      "outputs": [
        {
          "internalType": "string",
          "name": "",
          "type": "string"
        }
      ],
      "stateMutability": "view",
      "type": "function"
    },
    {
      "inputs": [],
      "name": "ticketSellEndTime",
      "outputs": [
        {
          "internalType": "uint256",
          "name": "",
          "type": "uint256"
        }
      ],
      "stateMutability": "view",
      "type": "function"
    },
    {
      "inputs": [],
      "name": "ticketSellStartTime",
      "outputs": [
        {
          "internalType": "uint256",
          "name": "",
          "type": "uint256"
        }
      ],
      "stateMutability": "view",
      "type": "function"
    },
    {
      "inputs": [
        {
          "internalType": "uint256",
          "name": "index",
          "type": "uint256"
        }
      ],
      "name": "tokenByIndex",
      "outputs": [
        {
          "internalType": "uint256",
          "name": "",
          "type": "uint256"
        }
      ],
      "stateMutability": "view",
      "type": "function"
    },
    {
      "inputs": [
        {
          "internalType": "address",
          "name": "owner",
          "type": "address"
        },
        {
          "internalType": "uint256",
          "name": "index",
          "type": "uint256"
        }
      ],
      "name": "tokenOfOwnerByIndex",
      "outputs": [
        {
          "internalType": "uint256",
          "name": "",
          "type": "uint256"
        }
      ],
      "stateMutability": "view",
      "type": "function"
    },
    {
      "inputs": [],
      "name": "totalSellAmount",
      "outputs": [
        {
          "internalType": "uint256",
          "name": "",
          "type": "uint256"
        }
      ],
      "stateMutability": "view",
      "type": "function"
    },
    {
      "inputs": [],
      "name": "totalSupply",
      "outputs": [
        {
          "internalType": "uint256",
          "name": "",
          "type": "uint256"
        }
      ],
      "stateMutability": "view",
      "type": "function"
    },
    {
      "inputs": [
        {
          "internalType": "address",
          "name": "from",
          "type": "address"
        },
        {
          "internalType": "address",
          "name": "to",
          "type": "address"
        },
        {
          "internalType": "uint256",
          "name": "tokenId",
          "type": "uint256"
        }
      ],
      "name": "transferFrom",
      "outputs": [],
      "stateMutability": "nonpayable",
      "type": "function"
    },
    {
      "inputs": [
        {
          "internalType": "address",
          "name": "newOwner",
          "type": "address"
        }
      ],
      "name": "transferOwnership",
      "outputs": [],
      "stateMutability": "nonpayable",
      "type": "function"
    },
    {
      "inputs": [],
      "name": "usdtContract",
      "outputs": [
        {
          "internalType": "contract IERC20",
          "name": "",
          "type": "address"
        }
      ],
      "stateMutability": "view",
      "type": "function"
    },
    {
      "inputs": [],
      "name": "getPriceForUSDT",
      "outputs": [
        {
          "internalType": "uint256",
          "name": "",
          "type": "uint256"
        }
      ],
      "stateMutability": "view",
      "type": "function"
    },
    {
      "inputs": [
        {
          "internalType": "address",
          "name": "user",
          "type": "address"
        }
      ],
      "name": "isBuyer",
      "outputs": [
        {
          "internalType": "bool",
          "name": "",
          "type": "bool"
        }
      ],
      "stateMutability": "view",
      "type": "function"
    },
    {
      "inputs": [],
      "name": "ticketCount",
      "outputs": [
        {
          "internalType": "uint256",
          "name": "",
          "type": "uint256"
        }
      ],
      "stateMutability": "view",
      "type": "function"
    },
    {
      "inputs": [],
      "name": "buyTicketByUsdt",
      "outputs": [],
      "stateMutability": "nonpayable",
      "type": "function"
    },
    {
      "inputs": [
        {
          "internalType": "uint256",
          "name": "tokenId",
          "type": "uint256"
        }
      ],
      "name": "ticketURI",
      "outputs": [
        {
          "internalType": "string",
          "name": "",
          "type": "string"
        }
      ],
      "stateMutability": "view",
      "type": "function"
    },
    {
      "inputs": [
        {
          "internalType": "uint256",
          "name": "tokenId",
          "type": "uint256"
        }
      ],
      "name": "tokenURI",
      "outputs": [
        {
          "internalType": "string",
          "name": "",
          "type": "string"
        }
      ],
      "stateMutability": "view",
      "type": "function"
    },
    {
      "inputs": [
        {
          "internalType": "string",
          "name": "URI",
          "type": "string"
        }
      ],
      "name": "setBaseURI",
      "outputs": [],
      "stateMutability": "nonpayable",
      "type": "function"
    },
    {
      "inputs": [
        {
          "internalType": "uint256",
          "name": "tokenId",
          "type": "uint256"
        },
        {
          "internalType": "string",
          "name": "URI",
          "type": "string"
        }
      ],
      "name": "setTicketURI",
      "outputs": [],
      "stateMutability": "nonpayable",
      "type": "function"
    },
    {
      "inputs": [
        {
          "internalType": "address",
          "name": "recipient",
          "type": "address"
        }
      ],
      "name": "mint",
      "outputs": [],
      "stateMutability": "nonpayable",
      "type": "function"
    },
    {
      "inputs": [],
      "name": "setPuase",
      "outputs": [],
      "stateMutability": "nonpayable",
      "type": "function"
    },
    {
      "inputs": [],
      "name": "setUnpuase",
      "outputs": [],
      "stateMutability": "nonpayable",
      "type": "function"
    },
    {
      "inputs": [
        {
          "internalType": "contract IERC20",
          "name": "_usdtContract",
          "type": "address"
        }
      ],
      "name": "setUsdtContract",
      "outputs": [],
      "stateMutability": "nonpayable",
      "type": "function"
    },
    {
      "inputs": [
        {
          "internalType": "uint256",
          "name": "amount",
          "type": "uint256"
        }
      ],
      "name": "setTotalSellAmount",
      "outputs": [],
      "stateMutability": "nonpayable",
      "type": "function"
    },
    {
      "inputs": [
        {
          "internalType": "uint256",
          "name": "amount",
          "type": "uint256"
        }
      ],
      "name": "setPermitSellAmount",
      "outputs": [],
      "stateMutability": "nonpayable",
      "type": "function"
    },
    {
      "inputs": [
        {
          "internalType": "address",
          "name": "_wallet",
          "type": "address"
        }
      ],
      "name": "setOneWallet",
      "outputs": [],
      "stateMutability": "nonpayable",
      "type": "function"
    },
    {
      "inputs": [
        {
          "internalType": "address",
          "name": "_wallet",
          "type": "address"
        }
      ],
      "name": "setTwoWallet",
      "outputs": [],
      "stateMutability": "nonpayable",
      "type": "function"
    },
    {
      "inputs": [
        {
          "internalType": "address",
          "name": "_wallet",
          "type": "address"
        }
      ],
      "name": "setThreeWallet",
      "outputs": [],
      "stateMutability": "nonpayable",
      "type": "function"
    },
    {
      "inputs": [],
      "name": "withdraw",
      "outputs": [],
      "stateMutability": "nonpayable",
      "type": "function"
    },
    {
      "inputs": [
        {
          "internalType": "uint256",
          "name": "u",
          "type": "uint256"
        }
      ],
      "name": "uintToString",
      "outputs": [
        {
          "internalType": "string",
          "name": "str",
          "type": "string"
        }
      ],
      "stateMutability": "pure",
      "type": "function"
    }
  ],
  "bytecode": "0x6080604052636329a5006004556402540be3ff6005556107e66011556064601255601680546001600160a01b0319167355d398326f99059ff775485246999027b3197955179055683635c9adc5dea000006017553480156200006057600080fd5b50604080518082018252600381526254776f60e81b60208083019190915282518084019093526006835265151a58dad95d60d21b908301526000805460ff19168155909190620000af6200017d565b60008054610100600160a81b0319166101006001600160a01b038416908102919091178255604051929350917f8be0079c531659141344cd1fd0a4f28419497f9722a3daafe3b4186f6b6457e0908290a350620001136301ffc9a760e01b62000181565b81516200012890600c906020850190620001dc565b5080516200013e90600d906020840190620001dc565b50620001516380ac58cd60e01b62000181565b62000163635b5e139f60e01b62000181565b6200017563780e9d6360e01b62000181565b5050620002af565b3390565b6001600160e01b03198082161415620001b75760405162461bcd60e51b8152600401620001ae9062000278565b60405180910390fd5b6001600160e01b0319166000908152600660205260409020805460ff19166001179055565b828054600181600116156101000203166002900490600052602060002090601f016020900481019282601f106200021f57805160ff19168380011785556200024f565b828001600101855582156200024f579182015b828111156200024f57825182559160200191906001019062000232565b506200025d92915062000261565b5090565b5b808211156200025d576000815560010162000262565b6020808252601c908201527f4552433136353a20696e76616c696420696e7465726661636520696400000000604082015260600190565b612e4880620002bf6000396000f3fe608060405234801561001057600080fd5b50600436106102a05760003560e01c80636bb03a8711610167578063bb617272116100ce578063de66d42511610087578063de66d42514610531578063e553150b14610539578063e93956791461054c578063e985e9c51461055f578063f2fde38b14610572578063ff31a7fa14610585576102a0565b8063bb617272146104e0578063c6c5d565146104e8578063c87b56dd146104fb578063ce170d1f1461050e578063cfbd900f14610516578063d65aea9c1461051e576102a0565b806395d89b411161012057806395d89b4114610484578063a22cb4651461048c578063a304f6e71461049f578063a3778654146104a7578063a3fd58fc146104ba578063b88d4fde146104cd576102a0565b80636bb03a87146104335780636c0360eb1461044657806370a082311461044e578063715018a6146104615780638da5cb5b146104695780639267b00514610471576102a0565b806342842e0e1161020b5780635c975abb116101c45780635c975abb146103e25780635dd8d06d146103ea57806361150923146103f25780636352211e146103fa57806365815b161461040d5780636a62784214610420576102a0565b806342842e0e146103865780634f6ccce71461039957806355f804b3146103ac578063576338a5146103bf57806358bc4b57146103d257806358e46f28146103da576102a0565b80631d42c5ee1161025d5780631d42c5ee1461033557806323b872dd1461033d5780632a55feec146103505780632f745c59146103635780633ccfd60b146103765780633d8b5a651461037e576102a0565b806301ffc9a7146102a557806306fdde03146102ce578063081812fc146102e3578063095ea7b3146103035780631290168d1461031857806318160ddd14610320575b600080fd5b6102b86102b3366004612419565b61058d565b6040516102c59190612669565b60405180910390f35b6102d66105b0565b6040516102c59190612674565b6102f66102f1366004612484565b610646565b6040516102c591906125ba565b6103166103113660046123d2565b610692565b005b6102f661072a565b610328610739565b6040516102c59190612d49565b6102f661074a565b61031661034b3660046122fb565b610759565b6102b861035e3660046122a7565b610791565b6103286103713660046123d2565b6107af565b6103166107da565b6102f6610952565b6103166103943660046122fb565b610961565b6103286103a7366004612484565b61097c565b6103166103ba366004612451565b610992565b6103166103cd3660046122a7565b6109da565b610328610a3b565b610328610a41565b6102b8610a47565b610328610a50565b6102f6610a56565b6102f6610408366004612484565b610a65565b61031661041b3660046122a7565b610a8d565b61031661042e3660046122a7565b610aee565b6103166104413660046124b4565b610b36565b6102d6610b94565b61032861045c3660046122a7565b610bf5565b610316610c3e565b6102f6610ccc565b61031661047f366004612484565b610ce0565b6102d6610d24565b61031661049a3660046123a5565b610d85565b610316610e53565b6103166104b53660046122a7565b610e9c565b6103166104c83660046124f9565b610efd565b6103166104db36600461233b565b610f47565b610328610f86565b6102d66104f6366004612484565b610f8c565b6102d6610509366004612484565b61102d565b6103286110f1565b6103286110f7565b61031661052c366004612484565b611103565b610316611147565b6103166105473660046122a7565b611294565b6102d661055a366004612484565b6112f5565b6102b861056d3660046122c3565b611408565b6103166105803660046122a7565b611436565b610316611501565b6001600160e01b0319811660009081526006602052604090205460ff165b919050565b600c8054604080516020601f600260001961010060018816150201909516949094049384018190048102820181019092528281526060939092909183018282801561063c5780601f106106115761010080835404028352916020019161063c565b820191906000526020600020905b81548152906001019060200180831161061f57829003601f168201915b5050505050905090565b600061065182611548565b6106765760405162461bcd60e51b815260040161066d90612a84565b60405180910390fd5b506000908152600a60205260409020546001600160a01b031690565b600061069d82610a65565b9050806001600160a01b0316836001600160a01b031614156106d15760405162461bcd60e51b815260040161066d90612bc8565b806001600160a01b03166106e3611555565b6001600160a01b031614806106ff57506106ff8161056d611555565b61071b5760405162461bcd60e51b815260040161066d90612925565b6107258383611559565b505050565b6003546001600160a01b031681565b600061074560086115c7565b905090565b6001546001600160a01b031681565b61076a610764611555565b826115d2565b6107865760405162461bcd60e51b815260040161066d90612c09565b610725838383611657565b6001600160a01b031660009081526010602052604090205460ff1690565b6001600160a01b03821660009081526007602052604081206107d19083611765565b90505b92915050565b6107e2611555565b6001600160a01b03166107f3610ccc565b6001600160a01b0316146108195760405162461bcd60e51b815260040161066d90612afb565b6001546040516001600160a01b03909116904780156108fc02916000818181858888f19350505050158015610852573d6000803e3d6000fd5b506016546001546040516370a0823160e01b81526001600160a01b039283169263a9059cbb92169083906370a08231906108909030906004016125ba565b60206040518083038186803b1580156108a857600080fd5b505afa1580156108bc573d6000803e3d6000fd5b505050506040513d601f19601f820116820180604052508101906108e0919061249c565b6040518363ffffffff1660e01b81526004016108fd92919061262f565b602060405180830381600087803b15801561091757600080fd5b505af115801561092b573d6000803e3d6000fd5b505050506040513d601f19601f8201168201806040525081019061094f91906123fd565b50565b6002546001600160a01b031681565b61072583838360405180602001604052806000815250610f47565b60008061098a600884611771565b509392505050565b61099a611555565b6001600160a01b03166109ab610ccc565b6001600160a01b0316146109d15760405162461bcd60e51b815260040161066d90612afb565b61094f8161178d565b6109e2611555565b6001600160a01b03166109f3610ccc565b6001600160a01b031614610a195760405162461bcd60e51b815260040161066d90612afb565b601680546001600160a01b0319166001600160a01b0392909216919091179055565b60125481565b60175490565b60005460ff1690565b60115481565b6016546001600160a01b031681565b60006107d482604051806060016040528060298152602001612dea60299139600891906117a4565b610a95611555565b6001600160a01b0316610aa6610ccc565b6001600160a01b031614610acc5760405162461bcd60e51b815260040161066d90612afb565b600280546001600160a01b0319166001600160a01b0392909216919091179055565b610af6611555565b6001600160a01b0316610b07610ccc565b6001600160a01b031614610b2d5760405162461bcd60e51b815260040161066d90612afb565b61094f816117bb565b610b3e611555565b6001600160a01b0316610b4f610ccc565b6001600160a01b031614610b755760405162461bcd60e51b815260040161066d90612afb565b6000828152601460209081526040909120825161072592840190612196565b600f8054604080516020601f600260001961010060018816150201909516949094049384018190048102820181019092528281526060939092909183018282801561063c5780601f106106115761010080835404028352916020019161063c565b60006001600160a01b038216610c1d5760405162461bcd60e51b815260040161066d90612982565b6001600160a01b03821660009081526007602052604090206107d4906115c7565b610c46611555565b6001600160a01b0316610c57610ccc565b6001600160a01b031614610c7d5760405162461bcd60e51b815260040161066d90612afb565b600080546040516101009091046001600160a01b0316907f8be0079c531659141344cd1fd0a4f28419497f9722a3daafe3b4186f6b6457e0908390a360008054610100600160a81b0319169055565b60005461010090046001600160a01b031690565b610ce8611555565b6001600160a01b0316610cf9610ccc565b6001600160a01b031614610d1f5760405162461bcd60e51b815260040161066d90612afb565b601155565b600d8054604080516020601f600260001961010060018816150201909516949094049384018190048102820181019092528281526060939092909183018282801561063c5780601f106106115761010080835404028352916020019161063c565b610d8d611555565b6001600160a01b0316826001600160a01b03161415610dbe5760405162461bcd60e51b815260040161066d9061280a565b80600b6000610dcb611555565b6001600160a01b03908116825260208083019390935260409182016000908120918716808252919093529120805460ff191692151592909217909155610e0f611555565b6001600160a01b03167f17307eab39ab6107e8899845ad3d59bd9653f200f220920489ca2b5937696c3183604051610e479190612669565b60405180910390a35050565b610e5b611555565b6001600160a01b0316610e6c610ccc565b6001600160a01b031614610e925760405162461bcd60e51b815260040161066d90612afb565b610e9a611896565b565b610ea4611555565b6001600160a01b0316610eb5610ccc565b6001600160a01b031614610edb5760405162461bcd60e51b815260040161066d90612afb565b600380546001600160a01b0319166001600160a01b0392909216919091179055565b610f05611555565b6001600160a01b0316610f16610ccc565b6001600160a01b031614610f3c5760405162461bcd60e51b815260040161066d90612afb565b600491909155600555565b610f58610f52611555565b836115d2565b610f745760405162461bcd60e51b815260040161066d90612c09565b610f8084848484611904565b50505050565b60055481565b60008181526014602090815260409182902080548351601f60026000196101006001861615020190931692909204918201849004840281018401909452808452606093928301828280156110215780601f10610ff657610100808354040283529160200191611021565b820191906000526020600020905b81548152906001019060200180831161100457829003601f168201915b50505050509050919050565b606061103882611548565b6110545760405162461bcd60e51b815260040161066d90612b79565b606061105e610b94565b905080516000141561107b5761107383610f8c565b9150506105ab565b600061108684610f8c565b5111156110bf578061109784610f8c565b6040516020016110a8929190612562565b6040516020818303038152906040529150506105ab565b806110c984611937565b6040516020016110da929190612562565b604051602081830303815290604052915050919050565b60045481565b60006107456013611a12565b61110b611555565b6001600160a01b031661111c610ccc565b6001600160a01b0316146111425760405162461bcd60e51b815260040161066d90612afb565b601255565b61114f610a47565b1561116c5760405162461bcd60e51b815260040161066d906128fb565b6004544211801561117e575042600554115b61119a5760405162461bcd60e51b815260040161066d90612cdb565b6011546111a76013611a12565b106111c45760405162461bcd60e51b815260040161066d90612ad0565b6000601254116111e65760405162461bcd60e51b815260040161066d90612d12565b60015461122a9033906001600160a01b0316611216600f611210606461120a610a41565b90611a16565b90611a48565b6016546001600160a01b0316929190611a82565b60025461124e9033906001600160a01b0316611216600f611210606461120a610a41565b6003546112729033906001600160a01b03166112166046611210606461120a610a41565b601254611280906001611ada565b60125561128b611b02565b610e9a336117bb565b61129c611555565b6001600160a01b03166112ad610ccc565b6001600160a01b0316146112d35760405162461bcd60e51b815260040161066d90612afb565b600180546001600160a01b0319166001600160a01b0392909216919091179055565b60408051606480825260a08201909252606091839183908260208201818036833701905050905060005b8315611365578151600a808604956001840193919006916030830160f81b918591811061134857fe5b60200101906001600160f81b031916908160001a9053505061131f565b60608160010167ffffffffffffffff8111801561138157600080fd5b506040519080825280601f01601f1916602001820160405280156113ac576020820181803683370190505b50905060005b8281116113fd5783818403815181106113c757fe5b602001015160f81c60f81b8282815181106113de57fe5b60200101906001600160f81b031916908160001a9053506001016113b2565b509695505050505050565b6001600160a01b039182166000908152600b6020908152604080832093909416825291909152205460ff1690565b61143e611555565b6001600160a01b031661144f610ccc565b6001600160a01b0316146114755760405162461bcd60e51b815260040161066d90612afb565b6001600160a01b03811661149b5760405162461bcd60e51b815260040161066d90612749565b600080546040516001600160a01b038085169361010090930416917f8be0079c531659141344cd1fd0a4f28419497f9722a3daafe3b4186f6b6457e091a3600080546001600160a01b0390921661010002610100600160a81b0319909216919091179055565b611509611555565b6001600160a01b031661151a610ccc565b6001600160a01b0316146115405760405162461bcd60e51b815260040161066d90612afb565b610e9a611b1e565b60006107d4600883611b79565b3390565b6000818152600a6020526040902080546001600160a01b0319166001600160a01b038416908117909155819061158e82610a65565b6001600160a01b03167f8c5be1e5ebec7d5bd14f71427d1e84f3dd0314c0f7b2291e5b200ac8c7c3b92560405160405180910390a45050565b60006107d482611a12565b60006115dd82611548565b6115f95760405162461bcd60e51b815260040161066d90612878565b600061160483610a65565b9050806001600160a01b0316846001600160a01b0316148061163f5750836001600160a01b031661163484610646565b6001600160a01b0316145b8061164f575061164f8185611408565b949350505050565b826001600160a01b031661166a82610a65565b6001600160a01b0316146116905760405162461bcd60e51b815260040161066d90612b30565b6001600160a01b0382166116b65760405162461bcd60e51b815260040161066d906127c6565b6116c1838383610725565b6116cc600082611559565b6001600160a01b03831660009081526007602052604090206116ee9082611b85565b506001600160a01b03821660009081526007602052604090206117119082611b91565b5061171e60088284611b9d565b5080826001600160a01b0316846001600160a01b03167fddf252ad1be2c89b69c2b068fc378daa952ba7f163c4a11628f55a4df523b3ef60405160405180910390a4505050565b60006107d18383611bb3565b60008080806117808686611bf8565b9097909650945050505050565b80516117a090600f906020840190612196565b5050565b60006117b1848484611c54565b90505b9392505050565b6011546117c86013611a12565b106117e55760405162461bcd60e51b815260040161066d90612ad0565b6117ef6013611cb3565b60006117fb6013611a12565b90506118078282611cbc565b6060611812826112f5565b9050806040516020016118259190612591565b60408051601f19818403018152918152600084815260146020908152919020825161185593919290910190612196565b507f3808dcec579c2bc05ae34288071d575efca12f2d30294c875b58c0e770802c5983428460405161188993929190612648565b60405180910390a1505050565b61189e610a47565b6118ba5760405162461bcd60e51b815260040161066d906126c9565b6000805460ff191690557f5db9ee0a495bf2e6ff9c91a7834c1ba4fdd244a5e8aa4e537bd38aeae4b073aa6118ed611555565b6040516118fa91906125ba565b60405180910390a1565b61190f848484611657565b61191b84848484611d80565b610f805760405162461bcd60e51b815260040161066d906126f7565b60608161195c57506040805180820190915260018152600360fc1b60208201526105ab565b8160005b811561197457600101600a82049150611960565b60608167ffffffffffffffff8111801561198d57600080fd5b506040519080825280601f01601f1916602001820160405280156119b8576020820181803683370190505b50859350905060001982015b8315611a0957600a840660300160f81b828280600190039350815181106119e757fe5b60200101906001600160f81b031916908160001a905350600a840493506119c4565b50949350505050565b5490565b6000808211611a375760405162461bcd60e51b815260040161066d906128c4565b818381611a4057fe5b049392505050565b600082611a57575060006107d4565b82820282848281611a6457fe5b04146107d15760405162461bcd60e51b815260040161066d90612a43565b610f80846323b872dd60e01b858585604051602401611aa39392919061260b565b60408051601f198184030181529190526020810180516001600160e01b03166001600160e01b031990931692909217909152611e5f565b600082821115611afc5760405162461bcd60e51b815260040161066d90612841565b50900390565b336000908152601060205260409020805460ff19166001179055565b611b26610a47565b15611b435760405162461bcd60e51b815260040161066d906128fb565b6000805460ff191660011790557f62e78cea01bee320cd4e420270b5ea74000d11b0c9f74754ebdbfc544b05a2586118ed611555565b60006107d18383611eee565b60006107d18383611f06565b60006107d18383611fcc565b60006117b184846001600160a01b038516612016565b81546000908210611bd65760405162461bcd60e51b815260040161066d90612687565b826000018281548110611be557fe5b9060005260206000200154905092915050565b815460009081908310611c1d5760405162461bcd60e51b815260040161066d906129cc565b6000846000018481548110611c2e57fe5b906000526020600020906002020190508060000154816001015492509250509250929050565b60008281526001840160205260408120548281611c845760405162461bcd60e51b815260040161066d9190612674565b50846000016001820381548110611c9757fe5b9060005260206000209060020201600101549150509392505050565b80546001019055565b6001600160a01b038216611ce25760405162461bcd60e51b815260040161066d90612a0e565b611ceb81611548565b15611d085760405162461bcd60e51b815260040161066d9061278f565b611d1460008383610725565b6001600160a01b0382166000908152600760205260409020611d369082611b91565b50611d4360088284611b9d565b5060405181906001600160a01b038416906000907fddf252ad1be2c89b69c2b068fc378daa952ba7f163c4a11628f55a4df523b3ef908290a45050565b6000611d94846001600160a01b03166120ad565b611da05750600161164f565b6060611e28630a85bd0160e11b611db5611555565b888787604051602401611dcb94939291906125ce565b604051602081830303815290604052906001600160e01b0319166020820180516001600160e01b038381831617835250505050604051806060016040528060328152602001612db8603291396001600160a01b03881691906120b3565b9050600081806020019051810190611e409190612435565b6001600160e01b031916630a85bd0160e11b1492505050949350505050565b6060611eb4826040518060400160405280602081526020017f5361666545524332303a206c6f772d6c6576656c2063616c6c206661696c6564815250856001600160a01b03166120b39092919063ffffffff16565b8051909150156107255780806020019051810190611ed291906123fd565b6107255760405162461bcd60e51b815260040161066d90612c91565b60009081526001919091016020526040902054151590565b60008181526001830160205260408120548015611fc25783546000198083019190810190600090879083908110611f3957fe5b9060005260206000200154905080876000018481548110611f5657fe5b600091825260208083209091019290925582815260018981019092526040902090840190558654879080611f8657fe5b600190038181906000526020600020016000905590558660010160008781526020019081526020016000206000905560019450505050506107d4565b60009150506107d4565b6000611fd88383611eee565b61200e575081546001818101845560008481526020808220909301849055845484825282860190935260409020919091556107d4565b5060006107d4565b60008281526001840160205260408120548061207b5750506040805180820182528381526020808201848152865460018181018955600089815284812095516002909302909501918255915190820155865486845281880190925292909120556117b4565b8285600001600183038154811061208e57fe5b90600052602060002090600202016001018190555060009150506117b4565b3b151590565b60606117b18484600085856120c7856120ad565b6120e35760405162461bcd60e51b815260040161066d90612c5a565b60006060866001600160a01b031685876040516121009190612546565b60006040518083038185875af1925050503d806000811461213d576040519150601f19603f3d011682016040523d82523d6000602084013e612142565b606091505b509150915061215282828661215d565b979650505050505050565b6060831561216c5750816117b4565b82511561217c5782518084602001fd5b8160405162461bcd60e51b815260040161066d9190612674565b828054600181600116156101000203166002900490600052602060002090601f016020900481019282601f106121d757805160ff1916838001178555612204565b82800160010185558215612204579182015b828111156122045782518255916020019190600101906121e9565b50612210929150612214565b5090565b5b808211156122105760008155600101612215565b600082601f830112612239578081fd5b813567ffffffffffffffff80821115612250578283fd5b604051601f8301601f191681016020018281118282101715612270578485fd5b60405282815292508284830160200186101561228b57600080fd5b8260208601602083013760006020848301015250505092915050565b6000602082840312156122b8578081fd5b81356107d181612d7e565b600080604083850312156122d5578081fd5b82356122e081612d7e565b915060208301356122f081612d7e565b809150509250929050565b60008060006060848603121561230f578081fd5b833561231a81612d7e565b9250602084013561232a81612d7e565b929592945050506040919091013590565b60008060008060808587031215612350578081fd5b843561235b81612d7e565b9350602085013561236b81612d7e565b925060408501359150606085013567ffffffffffffffff81111561238d578182fd5b61239987828801612229565b91505092959194509250565b600080604083850312156123b7578182fd5b82356123c281612d7e565b915060208301356122f081612d93565b600080604083850312156123e4578182fd5b82356123ef81612d7e565b946020939093013593505050565b60006020828403121561240e578081fd5b81516107d181612d93565b60006020828403121561242a578081fd5b81356107d181612da1565b600060208284031215612446578081fd5b81516107d181612da1565b600060208284031215612462578081fd5b813567ffffffffffffffff811115612478578182fd5b61164f84828501612229565b600060208284031215612495578081fd5b5035919050565b6000602082840312156124ad578081fd5b5051919050565b600080604083850312156124c6578182fd5b82359150602083013567ffffffffffffffff8111156124e3578182fd5b6124ef85828601612229565b9150509250929050565b6000806040838503121561250b578182fd5b50508035926020909101359150565b60008151808452612532816020860160208601612d52565b601f01601f19169290920160200192915050565b60008251612558818460208701612d52565b9190910192915050565b60008351612574818460208801612d52565b835190830190612588818360208801612d52565b01949350505050565b600082516125a3818460208701612d52565b64173539b7b760d91b920191825250600501919050565b6001600160a01b0391909116815260200190565b6001600160a01b03858116825284166020820152604081018390526080606082018190526000906126019083018461251a565b9695505050505050565b6001600160a01b039384168152919092166020820152604081019190915260600190565b6001600160a01b03929092168252602082015260400190565b6001600160a01b039390931683526020830191909152604082015260600190565b901515815260200190565b6000602082526107d1602083018461251a565b60208082526022908201527f456e756d657261626c655365743a20696e646578206f7574206f6620626f756e604082015261647360f01b606082015260800190565b60208082526014908201527314185d5cd8589b194e881b9bdd081c185d5cd95960621b604082015260600190565b60208082526032908201527f4552433732313a207472616e7366657220746f206e6f6e20455243373231526560408201527131b2b4bb32b91034b6b83632b6b2b73a32b960711b606082015260800190565b60208082526026908201527f4f776e61626c653a206e6577206f776e657220697320746865207a65726f206160408201526564647265737360d01b606082015260800190565b6020808252601c908201527f4552433732313a20746f6b656e20616c7265616479206d696e74656400000000604082015260600190565b60208082526024908201527f4552433732313a207472616e7366657220746f20746865207a65726f206164646040820152637265737360e01b606082015260800190565b60208082526019908201527f4552433732313a20617070726f766520746f2063616c6c657200000000000000604082015260600190565b6020808252601e908201527f536166654d6174683a207375627472616374696f6e206f766572666c6f770000604082015260600190565b6020808252602c908201527f4552433732313a206f70657261746f7220717565727920666f72206e6f6e657860408201526b34b9ba32b73a103a37b5b2b760a11b606082015260800190565b6020808252601a908201527f536166654d6174683a206469766973696f6e206279207a65726f000000000000604082015260600190565b60208082526010908201526f14185d5cd8589b194e881c185d5cd95960821b604082015260600190565b60208082526038908201527f4552433732313a20617070726f76652063616c6c6572206973206e6f74206f7760408201527f6e6572206e6f7220617070726f76656420666f7220616c6c0000000000000000606082015260800190565b6020808252602a908201527f4552433732313a2062616c616e636520717565727920666f7220746865207a65604082015269726f206164647265737360b01b606082015260800190565b60208082526022908201527f456e756d657261626c654d61703a20696e646578206f7574206f6620626f756e604082015261647360f01b606082015260800190565b6020808252818101527f4552433732313a206d696e7420746f20746865207a65726f2061646472657373604082015260600190565b60208082526021908201527f536166654d6174683a206d756c7469706c69636174696f6e206f766572666c6f6040820152607760f81b606082015260800190565b6020808252602c908201527f4552433732313a20617070726f76656420717565727920666f72206e6f6e657860408201526b34b9ba32b73a103a37b5b2b760a11b606082015260800190565b6020808252601190820152705469636b65747320736f6c64206f75742160781b604082015260600190565b6020808252818101527f4f776e61626c653a2063616c6c6572206973206e6f7420746865206f776e6572604082015260600190565b60208082526029908201527f4552433732313a207472616e73666572206f6620746f6b656e2074686174206960408201526839903737ba1037bbb760b91b606082015260800190565b6020808252602f908201527f4552433732314d657461646174613a2055524920717565727920666f72206e6f60408201526e3732bc34b9ba32b73a103a37b5b2b760891b606082015260800190565b60208082526021908201527f4552433732313a20617070726f76616c20746f2063757272656e74206f776e656040820152603960f91b606082015260800190565b60208082526031908201527f4552433732313a207472616e736665722063616c6c6572206973206e6f74206f6040820152701ddb995c881b9bdc88185c1c1c9bdd9959607a1b606082015260800190565b6020808252601d908201527f416464726573733a2063616c6c20746f206e6f6e2d636f6e7472616374000000604082015260600190565b6020808252602a908201527f5361666545524332303a204552433230206f7065726174696f6e20646964206e6040820152691bdd081cdd58d8d9595960b21b606082015260800190565b6020808252601a908201527f53656c6c54696d653a204e6f7420696e2073616c652074696d65000000000000604082015260600190565b6020808252601f908201527f596f752073686f756c6420627579207469636b6574206e6578742074696d6500604082015260600190565b90815260200190565b60005b83811015612d6d578181015183820152602001612d55565b83811115610f805750506000910152565b6001600160a01b038116811461094f57600080fd5b801515811461094f57600080fd5b6001600160e01b03198116811461094f57600080fdfe4552433732313a207472616e7366657220746f206e6f6e20455243373231526563656976657220696d706c656d656e7465724552433732313a206f776e657220717565727920666f72206e6f6e6578697374656e7420746f6b656ea2646970667358221220040498771a6e983b34a73c52b7c7f57b8e340118871b398cdb6802c58672582d64736f6c634300060c0033",
  "immutableReferences": {},
  "source": "// SPDX-License-Identifier: MIT\r\npragma experimental ABIEncoderV2;\r\npragma solidity ^0.6.0;\r\n\r\nimport \"@openzeppelin/contracts/access/Ownable.sol\";\r\nimport \"@openzeppelin/contracts/token/ERC20/IERC20.sol\";\r\nimport \"@openzeppelin/contracts/utils/Pausable.sol\";\r\nimport \"@openzeppelin/contracts/token/ERC20/SafeERC20.sol\";\r\nimport \"@openzeppelin/contracts/utils/Counters.sol\";\r\nimport \"@openzeppelin/contracts/token/ERC721/ERC721.sol\";\r\nimport \"@openzeppelin/contracts/utils/Strings.sol\";\r\n\r\ncontract SellTime is Ownable{\r\n\r\n    using SafeERC20 for IERC20;\r\n    using SafeMath for uint;\r\n\r\n    address public OneWallet;\r\n    address public TwoWallet;\r\n    address public ThreeWallet;\r\n    uint public ticketSellStartTime = 1663673600;\r\n    uint public ticketSellEndTime = 9999999999;\r\n    \r\n    function setTicketSellTime(\r\n        uint _ticketSellStartTime,\r\n        uint _ticketSellEndTime\r\n    ) external onlyOwner{\r\n        ticketSellStartTime = _ticketSellStartTime;\r\n        ticketSellEndTime = _ticketSellEndTime;\r\n    }\r\n\r\n    modifier ticketSellTime(){\r\n        require(now > ticketSellStartTime && ticketSellEndTime > now,\r\n            \"SellTime: Not in sale time\"\r\n        );\r\n        _;\r\n    }\r\n\r\n}\r\n\r\ninterface ITicket {\r\n    event BuyTicket(address buyer, uint time, uint tokenId);\r\n    function buyTicketByUsdt() external;\r\n}\r\n\r\ncontract Ticket is Pausable, SellTime, ITicket, ERC721{\r\n\r\n    using Counters for Counters.Counter;\r\n    using Strings for string;\r\n    mapping(address => bool) _buyer;\r\n\r\n    uint public totalSellAmount = 2022;\r\n    uint public permitSellAmount = 100;\r\n\r\n    Counters.Counter private _nftCount;\r\n    mapping (uint => string) private _ticketURI;\r\n    mapping (uint => uint) private _ticketIndex;\r\n\r\n    //Contracts\r\n\r\n    IERC20 public usdtContract = IERC20(0x55d398326f99059fF775485246999027B3197955);\r\n\r\n    uint private _priceForUSDT = 1000e18; //decimal = 18\r\n\r\n    constructor() public ERC721(\"Two\", \"Ticket\") {\r\n    }\r\n\r\n    function getPriceForUSDT() public view returns(uint){\r\n        return _priceForUSDT;\r\n    }\r\n\r\n    function isBuyer(address user) external view returns(bool){\r\n        return _buyer[user];\r\n    }\r\n\r\n\r\n    function ticketCount() public view returns(uint){\r\n        return _nftCount.current();\r\n    }\r\n\r\n    function buyTicketByUsdt(\r\n        \r\n    ) override external whenNotPaused ticketSellTime{\r\n        require(_nftCount.current() < totalSellAmount, \"Tickets sold out!\");\r\n        require(permitSellAmount > 0, \"You should buy ticket next time\");\r\n        \r\n        usdtContract.safeTransferFrom(\r\n            msg.sender,\r\n            OneWallet,\r\n            getPriceForUSDT().div(100).mul(15)\r\n        );\r\n        usdtContract.safeTransferFrom(\r\n            msg.sender,\r\n            TwoWallet,\r\n            getPriceForUSDT().div(100).mul(15)\r\n        );\r\n        usdtContract.safeTransferFrom(\r\n            msg.sender,\r\n            ThreeWallet,\r\n            getPriceForUSDT().div(100).mul(70)\r\n        );\r\n        permitSellAmount = permitSellAmount.sub(1);\r\n        _buyTicket();\r\n        _mintToken(msg.sender);\r\n    }\r\n\r\n//_buy\r\n\r\n    function _buyTicket() private{\r\n        _buyer[msg.sender] = true;\r\n    }\r\n//uri\r\n\r\n    function ticketURI(uint tokenId) public view returns(string memory) {\r\n        return _ticketURI[tokenId];\r\n    }\r\n\r\n    function tokenURI(uint256 tokenId) public view override returns (string memory) {\r\n        require(_exists(tokenId), \"ERC721Metadata: URI query for nonexistent token\");\r\n\r\n        string memory base = baseURI();\r\n\r\n        // If there is no base URI, return the ticket URI.\r\n        if (bytes(base).length == 0) {\r\n            return ticketURI(tokenId);\r\n        }\r\n        // If both are set, concatenate the baseURI and ticketURI (via abi.encodePacked).\r\n        if (bytes(ticketURI(tokenId)).length > 0) {\r\n            return string(abi.encodePacked(base, ticketURI(tokenId)));\r\n        }\r\n        // If there is a baseURI but no ticketURI, concatenate the tokenID to the baseURI.\r\n        return string(abi.encodePacked(base, tokenId.toString()));\r\n    }\r\n\r\n    function setBaseURI(string memory URI) external onlyOwner{\r\n        _setBaseURI(URI);\r\n    }\r\n\r\n    function setTicketURI(uint tokenId, string memory URI) external onlyOwner{\r\n        _ticketURI[tokenId] = URI;\r\n    }\r\n\r\n//_mint\r\n\r\n    function mint(address recipient) external onlyOwner{\r\n        _mintToken(recipient);\r\n    }\r\n\r\n    function _mintToken(address recipient) internal{\r\n        require(_nftCount.current() < totalSellAmount, \"Tickets sold out!\");\r\n        _nftCount.increment();\r\n        uint tokenId = _nftCount.current();\r\n        _mint(recipient, tokenId);\r\n        string memory i = uintToString(tokenId);\r\n        _ticketURI[tokenId] = string(abi.encodePacked( string(i), \".json\"));\r\n        emit BuyTicket(recipient, now, tokenId);\r\n    }\r\n\r\n//onlyOwner\r\n    function setPuase() external onlyOwner{\r\n        _pause();\r\n    }\r\n\r\n    function setUnpuase() external onlyOwner{\r\n        _unpause();\r\n    }\r\n\r\n    function setUsdtContract(IERC20 _usdtContract) external onlyOwner{\r\n        usdtContract = _usdtContract;\r\n    }\r\n\r\n    function setTotalSellAmount(uint amount) external onlyOwner{\r\n        totalSellAmount = amount;\r\n    }\r\n\r\n    function setPermitSellAmount(uint amount) external onlyOwner{\r\n        permitSellAmount = amount;\r\n    }\r\n\r\n    function setOneWallet(address _wallet) external onlyOwner{\r\n        OneWallet = _wallet;\r\n    }\r\n\r\n    function setTwoWallet(address _wallet) external onlyOwner{\r\n        TwoWallet = _wallet;\r\n    }\r\n\r\n    function setThreeWallet(address _wallet) external onlyOwner{\r\n        ThreeWallet = _wallet;\r\n    }\r\n\r\n    function withdraw() external onlyOwner{\r\n        payable(OneWallet).transfer(address(this).balance);\r\n        usdtContract.transfer(OneWallet, usdtContract.balanceOf(address(this)));\r\n    }\r\n\r\n// uint to string\r\n    function uintToString(uint u) public pure returns (string memory str) {\r\n        uint _u = u;\r\n        uint maxlength = 100;\r\n        bytes memory reversed = new bytes(maxlength);\r\n        uint i = 0;\r\n        while (_u != 0) {\r\n            uint remainder = _u % 10;\r\n            _u = _u / 10;\r\n            reversed[i++] = byte(uint8(48 + remainder));\r\n        }\r\n        bytes memory s = new bytes(i + 1);\r\n        for (uint j = 0; j <= i; j++) {\r\n            s[j] = reversed[i - j];\r\n        }\r\n        str = string(s);\r\n    }\r\n}",
  "sourcePath": "D:\\Solidity\\Solidity\\ticket_060\\contracts\\Ticket.sol",
  "compiler": {
    "name": "solc",
    "version": "0.6.12+commit.27d51765.Emscripten.clang"
  },
  "schemaVersion": "3.4.4",
  "updatedAt": "2022-07-03T16:07:52.779Z",
  "devdoc": {
    "kind": "dev",
    "methods": {
      "approve(address,uint256)": {
        "details": "See {IERC721-approve}."
      },
      "balanceOf(address)": {
        "details": "See {IERC721-balanceOf}."
      },
      "baseURI()": {
        "details": "Returns the base URI set via {_setBaseURI}. This will be automatically added as a prefix in {tokenURI} to each token's URI, or to the token ID if no specific URI is set for that token ID."
      },
      "getApproved(uint256)": {
        "details": "See {IERC721-getApproved}."
      },
      "isApprovedForAll(address,address)": {
        "details": "See {IERC721-isApprovedForAll}."
      },
      "name()": {
        "details": "See {IERC721Metadata-name}."
      },
      "owner()": {
        "details": "Returns the address of the current owner."
      },
      "ownerOf(uint256)": {
        "details": "See {IERC721-ownerOf}."
      },
      "paused()": {
        "details": "Returns true if the contract is paused, and false otherwise."
      },
      "renounceOwnership()": {
        "details": "Leaves the contract without owner. It will not be possible to call `onlyOwner` functions anymore. Can only be called by the current owner. NOTE: Renouncing ownership will leave the contract without an owner, thereby removing any functionality that is only available to the owner."
      },
      "safeTransferFrom(address,address,uint256)": {
        "details": "See {IERC721-safeTransferFrom}."
      },
      "safeTransferFrom(address,address,uint256,bytes)": {
        "details": "See {IERC721-safeTransferFrom}."
      },
      "setApprovalForAll(address,bool)": {
        "details": "See {IERC721-setApprovalForAll}."
      },
      "supportsInterface(bytes4)": {
        "details": "See {IERC165-supportsInterface}. Time complexity O(1), guaranteed to always use less than 30 000 gas."
      },
      "symbol()": {
        "details": "See {IERC721Metadata-symbol}."
      },
      "tokenByIndex(uint256)": {
        "details": "See {IERC721Enumerable-tokenByIndex}."
      },
      "tokenOfOwnerByIndex(address,uint256)": {
        "details": "See {IERC721Enumerable-tokenOfOwnerByIndex}."
      },
      "tokenURI(uint256)": {
        "details": "See {IERC721Metadata-tokenURI}."
      },
      "totalSupply()": {
        "details": "See {IERC721Enumerable-totalSupply}."
      },
      "transferFrom(address,address,uint256)": {
        "details": "See {IERC721-transferFrom}."
      },
      "transferOwnership(address)": {
        "details": "Transfers ownership of the contract to a new account (`newOwner`). Can only be called by the current owner."
      }
    },
    "version": 1
  },
  "userdoc": {
    "kind": "user",
    "methods": {},
    "version": 1
  }
}